{
  "contractName": "CoverMock",
  "abi": [
    {
      "anonymous": false,
      "inputs": [
        {
          "indexed": true,
          "internalType": "uint256",
          "name": "claimId",
          "type": "uint256"
        },
        {
          "indexed": true,
          "internalType": "uint256",
          "name": "coverId",
          "type": "uint256"
        },
        {
          "indexed": true,
          "internalType": "address",
          "name": "submitter",
          "type": "address"
        },
        {
          "indexed": false,
          "internalType": "bytes",
          "name": "data",
          "type": "bytes"
        }
      ],
      "name": "ClaimSubmitted",
      "type": "event"
    },
    {
      "anonymous": false,
      "inputs": [
        {
          "indexed": false,
          "internalType": "uint256",
          "name": "coverId",
          "type": "uint256"
        },
        {
          "indexed": true,
          "internalType": "address",
          "name": "buyer",
          "type": "address"
        },
        {
          "indexed": true,
          "internalType": "address",
          "name": "contractAddress",
          "type": "address"
        },
        {
          "indexed": false,
          "internalType": "address",
          "name": "coverAsset",
          "type": "address"
        },
        {
          "indexed": false,
          "internalType": "uint256",
          "name": "sumAssured",
          "type": "uint256"
        },
        {
          "indexed": false,
          "internalType": "uint16",
          "name": "coverPeriod",
          "type": "uint16"
        },
        {
          "indexed": false,
          "internalType": "bytes",
          "name": "data",
          "type": "bytes"
        }
      ],
      "name": "CoverBought",
      "type": "event"
    },
    {
      "inputs": [],
      "name": "ETH",
      "outputs": [
        {
          "internalType": "address",
          "name": "",
          "type": "address"
        }
      ],
      "stateMutability": "view",
      "type": "function"
    },
    {
      "inputs": [
        {
          "internalType": "uint256",
          "name": "",
          "type": "uint256"
        }
      ],
      "name": "covers",
      "outputs": [
        {
          "internalType": "address",
          "name": "owner",
          "type": "address"
        },
        {
          "internalType": "address",
          "name": "contractAddress",
          "type": "address"
        },
        {
          "internalType": "address",
          "name": "coverAsset",
          "type": "address"
        },
        {
          "internalType": "uint256",
          "name": "sumAssured",
          "type": "uint256"
        },
        {
          "internalType": "uint16",
          "name": "coverPeriod",
          "type": "uint16"
        },
        {
          "internalType": "uint8",
          "name": "coverType",
          "type": "uint8"
        },
        {
          "internalType": "bytes",
          "name": "data",
          "type": "bytes"
        },
        {
          "internalType": "uint256",
          "name": "topUp",
          "type": "uint256"
        }
      ],
      "stateMutability": "view",
      "type": "function"
    },
    {
      "inputs": [
        {
          "internalType": "address",
          "name": "contractAddress",
          "type": "address"
        },
        {
          "internalType": "address",
          "name": "coverAsset",
          "type": "address"
        },
        {
          "internalType": "uint256",
          "name": "sumAssured",
          "type": "uint256"
        },
        {
          "internalType": "uint16",
          "name": "coverPeriod",
          "type": "uint16"
        },
        {
          "internalType": "uint8",
          "name": "coverType",
          "type": "uint8"
        },
        {
          "internalType": "bytes",
          "name": "data",
          "type": "bytes"
        }
      ],
      "name": "buyCover",
      "outputs": [
        {
          "internalType": "uint256",
          "name": "",
          "type": "uint256"
        }
      ],
      "stateMutability": "payable",
      "type": "function"
    },
    {
      "inputs": [
        {
          "internalType": "address",
          "name": "contractAddress",
          "type": "address"
        },
        {
          "internalType": "address",
          "name": "coverAsset",
          "type": "address"
        },
        {
          "internalType": "uint256",
          "name": "sumAssured",
          "type": "uint256"
        },
        {
          "internalType": "uint16",
          "name": "coverPeriod",
          "type": "uint16"
        },
        {
          "internalType": "uint8",
          "name": "coverType",
          "type": "uint8"
        },
        {
          "internalType": "bytes",
          "name": "data",
          "type": "bytes"
        }
      ],
      "name": "getCoverPrice",
      "outputs": [
        {
          "internalType": "uint256",
          "name": "coverPrice",
          "type": "uint256"
        }
      ],
      "stateMutability": "view",
      "type": "function"
    },
    {
      "inputs": [
        {
          "internalType": "uint256",
          "name": "coverId",
          "type": "uint256"
        },
        {
          "internalType": "bytes",
          "name": "data",
          "type": "bytes"
        }
      ],
      "name": "submitClaim",
      "outputs": [
        {
          "internalType": "uint256",
          "name": "",
          "type": "uint256"
        }
      ],
      "stateMutability": "nonpayable",
      "type": "function"
    },
    {
      "inputs": [
        {
          "internalType": "uint256",
          "name": "claimId",
          "type": "uint256"
        }
      ],
      "name": "getClaimCoverId",
      "outputs": [
        {
          "internalType": "uint256",
          "name": "",
          "type": "uint256"
        }
      ],
      "stateMutability": "view",
      "type": "function"
    },
    {
      "inputs": [
        {
          "internalType": "uint256",
          "name": "claimId",
          "type": "uint256"
        }
      ],
      "name": "getPayoutOutcome",
      "outputs": [
        {
          "internalType": "enum ICover.ClaimStatus",
          "name": "",
          "type": "uint8"
        },
        {
          "internalType": "uint256",
          "name": "",
          "type": "uint256"
        },
        {
          "internalType": "address",
          "name": "",
          "type": "address"
        }
      ],
      "stateMutability": "view",
      "type": "function"
    },
    {
      "inputs": [
        {
          "internalType": "uint256",
          "name": "coverId",
          "type": "uint256"
        }
      ],
      "name": "getCover",
      "outputs": [
        {
          "internalType": "uint8",
          "name": "status",
          "type": "uint8"
        },
        {
          "internalType": "uint256",
          "name": "sumAssured",
          "type": "uint256"
        },
        {
          "internalType": "uint16",
          "name": "coverPeriod",
          "type": "uint16"
        },
        {
          "internalType": "uint256",
          "name": "validUntil",
          "type": "uint256"
        },
        {
          "internalType": "address",
          "name": "contractAddress",
          "type": "address"
        },
        {
          "internalType": "address",
          "name": "coverAsset",
          "type": "address"
        },
        {
          "internalType": "uint256",
          "name": "premiumInNXM",
          "type": "uint256"
        },
        {
          "internalType": "address",
          "name": "memberAddress",
          "type": "address"
        }
      ],
      "stateMutability": "view",
      "type": "function"
    },
    {
      "inputs": [
        {
          "internalType": "uint256",
          "name": "coverId",
          "type": "uint256"
        },
        {
          "internalType": "uint8",
          "name": "action",
          "type": "uint8"
        },
        {
          "internalType": "bytes",
          "name": "data",
          "type": "bytes"
        }
      ],
      "name": "executeCoverAction",
      "outputs": [
        {
          "internalType": "bytes",
          "name": "",
          "type": "bytes"
        },
        {
          "internalType": "uint256",
          "name": "",
          "type": "uint256"
        }
      ],
      "stateMutability": "payable",
      "type": "function"
    },
    {
      "inputs": [
        {
          "internalType": "address",
          "name": "_newAddress",
          "type": "address"
        }
      ],
      "name": "switchMembership",
      "outputs": [],
      "stateMutability": "payable",
      "type": "function"
    },
    {
      "inputs": [],
      "name": "claimsData",
      "outputs": [
        {
          "internalType": "address",
          "name": "",
          "type": "address"
        }
      ],
      "stateMutability": "view",
      "type": "function"
    }
  ],
  "bytecode": "0x6080604052600060015534801561001557600080fd5b5060016000556110cb8061002a6000396000f3fe60806040526004361061009c5760003560e01c80636299df6c116100645780636299df6c146103885780638322fff21461047d57806396ff592f146104ae578063ad6f5964146104d8578063db327491146104ed578063fd7b68a21461056f5761009c565b806304836c4a146100a157806330926acc146101545780634ed75d471461025057806352799e4d146102785780635caca7b4146102da575b600080fd5b610142600480360360c08110156100b757600080fd5b6001600160a01b03823581169260208101359091169160408201359161ffff6060820135169160ff608083013516919081019060c0810160a0820135600160201b81111561010457600080fd5b82018360208201111561011657600080fd5b803590602001918460018302840111600160201b8311171561013757600080fd5b5090925090506105ef565b60408051918252519081900360200190f35b6101d16004803603606081101561016a57600080fd5b81359160ff60208201351691810190606081016040820135600160201b81111561019357600080fd5b8201836020820111156101a557600080fd5b803590602001918460018302840111600160201b831117156101c657600080fd5b50909250905061068b565b6040518080602001838152602001828103825284818151815260200191508051906020019080838360005b838110156102145781810151838201526020016101fc565b50505050905090810190601f1680156102415780820380516001836020036101000a031916815260200191505b50935050505060405180910390f35b6102766004803603602081101561026657600080fd5b50356001600160a01b03166109ad565b005b34801561028457600080fd5b506102a26004803603602081101561029b57600080fd5b50356109e8565b604051808460028111156102b257fe5b8152602001838152602001826001600160a01b03168152602001935050505060405180910390f35b3480156102e657600080fd5b50610142600480360360c08110156102fd57600080fd5b6001600160a01b03823581169260208101359091169160408201359161ffff6060820135169160ff608083013516919081019060c0810160a0820135600160201b81111561034a57600080fd5b82018360208201111561035c57600080fd5b803590602001918460018302840111600160201b8311171561037d57600080fd5b509092509050610a29565b34801561039457600080fd5b506103b2600480360360208110156103ab57600080fd5b5035610a56565b60405180896001600160a01b03168152602001886001600160a01b03168152602001876001600160a01b031681526020018681526020018561ffff1681526020018460ff16815260200180602001838152602001828103825284818151815260200191508051906020019080838360005b8381101561043b578181015183820152602001610423565b50505050905090810190601f1680156104685780820380516001836020036101000a031916815260200191505b50995050505050505050505060405180910390f35b34801561048957600080fd5b50610492610b3b565b604080516001600160a01b039092168252519081900360200190f35b3480156104ba57600080fd5b50610142600480360360208110156104d157600080fd5b5035610b53565b3480156104e457600080fd5b50610492610b53565b3480156104f957600080fd5b506101426004803603604081101561051057600080fd5b81359190810190604081016020820135600160201b81111561053157600080fd5b82018360208201111561054357600080fd5b803590602001918460018302840111600160201b8311171561056457600080fd5b509092509050610b53565b34801561057b57600080fd5b506105996004803603602081101561059257600080fd5b5035610b90565b6040805160ff9099168952602089019790975261ffff9095168787015260608701939093526001600160a01b039182166080870152811660a086015260c08501919091521660e083015251908190036101000190f35b600180548101808255600081815260026020819052604082208054336001600160a01b0319918216178255948101805486166001600160a01b038e8116919091179091559181018054909516918b16919091179093556003830188905560048301805461ffff191661ffff89161762ff000019166201000060ff8916021790559161067e906005018585610f70565b5098975050505050505050565b600084815260026020526040812054606091906001600160a01b031633146106fa576040805162461bcd60e51b815260206004820152601d60248201527f436f7665724d6f636b3a204e6f74206f776e6572206f6620636f766572000000604482015290519081900360640190fd5b60ff85166108cd57600086815260026020819052604090912001546001600160a01b031673eeeeeeeeeeeeeeeeeeeeeeeeeeeeeeeeeeeeeeee14610785576040805162461bcd60e51b815260206004820152601960248201527f436f766572206973206e6f7420616e2045544820636f76657200000000000000604482015290519081900360640190fd5b60008484602081101561079757600080fd5b50359050348111156107e9576040805162461bcd60e51b81526020600482015260166024820152756d73672e76616c7565203c20746f70557056616c756560501b604482015290519081900360640190fd5b600087815260026020526040812060060180548301905561080a3483610bde565b604051909150600090339083908381818185875af1925050503d806000811461084f576040519150601f19603f3d011682016040523d82523d6000602084013e610854565b606091505b50509050806108945760405162461bcd60e51b81526004018080602001828103825260348152602001806110126034913960400191505060405180910390fd5b505060008781526002602090815260409182902060060154825180830191909152825180820390920182528201909152925090506109a4565b8460ff1660011415610957576000848460208110156108eb57600080fd5b5060008881526002602081905260409091200154903591506001600160a01b031661091881333085610c3b565b506000878152600260209081526040918290206006018054840190819055825180830191909152825180820390920182528201909152925090506109a4565b6040805162461bcd60e51b815260206004820152601960248201527f436f7665724d6f636b3a20556e6b6e6f776e20616374696f6e00000000000000604482015290519081900360640190fd5b94509492505050565b6040805162461bcd60e51b815260206004820152600b60248201526a155b9cdd5c1c1bdc9d195960aa1b604482015290519081900360640190fd5b6040805162461bcd60e51b815260206004820152600b60248201526a155b9cdd5c1c1bdc9d195960aa1b604482015290516000918291829181900360640190fd5b600082826020811015610a3b57600080fd5b50359050610a4a816001610bde565b98975050505050505050565b600260208181526000928352604092839020805460018083015483860154600385015460048601546005870180548b516101009782161597909702600019011699909904601f8101899004890286018901909a528985526001600160a01b0395861699938616989590921696909561ffff8316956201000090930460ff16949093909291830182828015610b2b5780601f10610b0057610100808354040283529160200191610b2b565b820191906000526020600020905b815481529060010190602001808311610b0e57829003601f168201915b5050505050908060060154905088565b73eeeeeeeeeeeeeeeeeeeeeeeeeeeeeeeeeeeeeeee81565b6040805162461bcd60e51b815260206004820152600b60248201526a155b9cdd5c1c1bdc9d195960aa1b6044820152905160009181900360640190fd5b60008060008060008060008060405162461bcd60e51b815260040180806020018281038252600b8152602001806a155b9cdd5c1c1bdc9d195960aa1b81525060200191505060405180910390fd5b600082821115610c35576040805162461bcd60e51b815260206004820152601e60248201527f536166654d6174683a207375627472616374696f6e206f766572666c6f770000604482015290519081900360640190fd5b50900390565b604080516001600160a01b0380861660248301528416604482015260648082018490528251808303909101815260849091019091526020810180516001600160e01b03166323b872dd60e01b179052610c95908590610c9b565b50505050565b6060610cf0826040518060400160405280602081526020017f5361666545524332303a206c6f772d6c6576656c2063616c6c206661696c6564815250856001600160a01b0316610d519092919063ffffffff16565b805190915015610d4c57808060200190516020811015610d0f57600080fd5b5051610d4c5760405162461bcd60e51b815260040180806020018281038252602a81526020018061106c602a913960400191505060405180910390fd5b505050565b6060610d608484600085610d6a565b90505b9392505050565b606082471015610dab5760405162461bcd60e51b81526004018080602001828103825260268152602001806110466026913960400191505060405180910390fd5b610db485610ec6565b610e05576040805162461bcd60e51b815260206004820152601d60248201527f416464726573733a2063616c6c20746f206e6f6e2d636f6e7472616374000000604482015290519081900360640190fd5b60006060866001600160a01b031685876040518082805190602001908083835b60208310610e445780518252601f199092019160209182019101610e25565b6001836020036101000a03801982511681845116808217855250505050505090500191505060006040518083038185875af1925050503d8060008114610ea6576040519150601f19603f3d011682016040523d82523d6000602084013e610eab565b606091505b5091509150610ebb828286610ecc565b979650505050505050565b3b151590565b60608315610edb575081610d63565b825115610eeb5782518084602001fd5b8160405162461bcd60e51b81526004018080602001828103825283818151815260200191508051906020019080838360005b83811015610f35578181015183820152602001610f1d565b50505050905090810190601f168015610f625780820380516001836020036101000a031916815260200191505b509250505060405180910390fd5b828054600181600116156101000203166002900490600052602060002090601f016020900481019282610fa65760008555610fec565b82601f10610fbf5782800160ff19823516178555610fec565b82800160010185558215610fec579182015b82811115610fec578235825591602001919060010190610fd1565b50610ff8929150610ffc565b5090565b5b80821115610ff85760008155600101610ffd56fe436f7665724d6f636b3a2052657475726e696e67204554482072656d61696e64657220746f2073656e646572206661696c65642e416464726573733a20696e73756666696369656e742062616c616e636520666f722063616c6c5361666545524332303a204552433230206f7065726174696f6e20646964206e6f742073756363656564a264697066735822122066f23f87af6c3136c90f8c91790ad61549f3dcd1767ad8148cde9667842a2f6764736f6c63430007040033",
  "immutableReferences": {},
  "source": "/* Copyright (C) 2021 NexusMutual.io\n\n  This program is free software: you can redistribute it and/or modify\n    it under the terms of the GNU General Public License as published by\n    the Free Software Foundation, either version 3 of the License, or\n    (at your option) any later version.\n\n  This program is distributed in the hope that it will be useful,\n    but WITHOUT ANY WARRANTY; without even the implied warranty of\n    MERCHANTABILITY or FITNESS FOR A PARTICULAR PURPOSE.  See the\n    GNU General Public License for more details.\n\n  You should have received a copy of the GNU General Public License\n    along with this program.  If not, see http://www.gnu.org/licenses/ */\n\npragma solidity ^0.7.4;\n\nimport \"../interfaces/ICover.sol\";\nimport \"@openzeppelin/contracts/token/ERC20/IERC20.sol\";\nimport \"@openzeppelin/contracts/utils/ReentrancyGuard.sol\";\nimport \"@openzeppelin/contracts/math/SafeMath.sol\";\nimport \"@openzeppelin/contracts/token/ERC20/SafeERC20.sol\";\n\ncontract CoverMock is ICover, ReentrancyGuard {\n    using SafeMath for uint;\n    using SafeERC20 for IERC20;\n\n    uint lastCoverId = 0;\n\n    address public constant ETH = 0xEeeeeEeeeEeEeeEeEeEeeEEEeeeeEeeeeeeeEEeE;\n\n    struct Cover {\n        address owner;\n        address contractAddress;\n        address coverAsset;\n        uint sumAssured;\n        uint16 coverPeriod;\n        uint8 coverType;\n        bytes data;\n        uint topUp;\n    }\n\n    mapping(uint => Cover) public covers;\n\n    function buyCover(\n        address contractAddress,\n        address coverAsset,\n        uint sumAssured,\n        uint16 coverPeriod,\n        uint8 coverType,\n        bytes calldata data\n    ) external payable override returns (uint) {\n        uint coverId = ++lastCoverId;\n        covers[coverId].owner = msg.sender;\n        covers[coverId].contractAddress = contractAddress;\n        covers[coverId].coverAsset = coverAsset;\n        covers[coverId].sumAssured = sumAssured;\n        covers[coverId].coverPeriod = coverPeriod;\n        covers[coverId].coverType = coverType;\n        covers[coverId].data = data;\n        return coverId;\n    }\n\n    function getCoverPrice(\n        address contractAddress,\n        address coverAsset,\n        uint sumAssured,\n        uint16 coverPeriod,\n        uint8 coverType,\n        bytes calldata data\n    ) external view override returns (uint coverPrice) {\n        (\n        coverPrice\n        ) = abi.decode(data, (uint));\n        coverPrice = coverPrice.sub(1);\n        // substracts a small amount to be sent back\n    }\n\n    function submitClaim(uint coverId, bytes calldata data) external override returns (uint) {\n        revert(\"Unsupported\");\n    }\n\n    function getClaimCoverId(uint claimId) external view override returns (uint) {\n        revert(\"Unsupported\");\n    }\n\n    function getPayoutOutcome(uint claimId) external view override returns (ClaimStatus, uint, address) {\n        revert(\"Unsupported\");\n    }\n\n    function getCover(uint coverId)\n    external\n    view\n    override\n    returns (\n        uint8 status,\n        uint sumAssured,\n        uint16 coverPeriod,\n        uint validUntil,\n        address contractAddress,\n        address coverAsset,\n        uint premiumInNXM,\n        address memberAddress\n    ) {\n        revert(\"Unsupported\");\n    }\n\n    function executeCoverAction(uint coverId, uint8 action, bytes calldata data)\n    external\n    payable\n    override\n    returns (bytes memory, uint)\n    {\n        require(covers[coverId].owner == msg.sender, \"CoverMock: Not owner of cover\");\n\n        if (action == 0) {\n            require(covers[coverId].coverAsset == ETH, \"Cover is not an ETH cover\");\n            uint topUpValue = abi.decode(data, (uint));\n            require(msg.value >= topUpValue, \"msg.value < topUpValue\");\n            covers[coverId].topUp += topUpValue;\n            uint remainder = msg.value.sub(topUpValue);\n            (bool ok, /* data */) = address(msg.sender).call{value : remainder}(\"\");\n            require(ok, \"CoverMock: Returning ETH remainder to sender failed.\");\n            return (abi.encode(covers[coverId].topUp), topUpValue);\n        } else if (action == 1) {\n            uint topUpValue = abi.decode(data, (uint));\n            IERC20 token = IERC20(covers[coverId].coverAsset);\n            token.safeTransferFrom(msg.sender, address(this), topUpValue);\n            covers[coverId].topUp += topUpValue;\n            return (abi.encode(covers[coverId].topUp), topUpValue);\n        }\n        revert(\"CoverMock: Unknown action\");\n    }\n\n    function switchMembership(address _newAddress) external payable override {\n        revert(\"Unsupported\");\n    }\n\n    function claimsData() external view override returns (address) {\n        revert(\"Unsupported\");\n    }\n\n}\n",
  "sourcePath": "/Users/ricardopinto/work/brightunion/distributors/contracts/nexus/mocks/CoverMock.sol",
  "compiler": {
    "name": "solc",
    "version": "0.7.4+commit.3f05b770.Emscripten.clang"
  },
  "schemaVersion": "3.4.0",
  "updatedAt": "2021-05-03T16:01:27.780Z",
  "devdoc": {
    "kind": "dev",
    "methods": {},
    "version": 1
  },
  "userdoc": {
    "kind": "user",
    "methods": {},
    "version": 1
  }
}