{
  "contractName": "CoverBuyer",
  "abi": [
    {
      "inputs": [
        {
          "internalType": "address payable",
          "name": "distributorAddress",
          "type": "address"
        }
      ],
      "stateMutability": "nonpayable",
      "type": "constructor"
    },
    {
      "stateMutability": "payable",
      "type": "receive"
    },
    {
      "inputs": [
        {
          "internalType": "address",
          "name": "contractAddress",
          "type": "address"
        },
        {
          "internalType": "address",
          "name": "coverAsset",
          "type": "address"
        },
        {
          "internalType": "uint256",
          "name": "sumAssured",
          "type": "uint256"
        },
        {
          "internalType": "uint16",
          "name": "coverPeriod",
          "type": "uint16"
        },
        {
          "internalType": "uint8",
          "name": "coverType",
          "type": "uint8"
        },
        {
          "internalType": "bytes",
          "name": "data",
          "type": "bytes"
        }
      ],
      "name": "buyCover",
      "outputs": [],
      "stateMutability": "payable",
      "type": "function"
    }
  ],
  "bytecode": "0x608060405234801561001057600080fd5b506040516102ae3803806102ae8339818101604052602081101561003357600080fd5b5051600080546001600160a01b039092166001600160a01b0319909216919091179055610249806100656000396000f3fe6080604052600436106100225760003560e01c806304836c4a1461006957610064565b36610064576040805162461bcd60e51b815260206004820152600d60248201526c24903430ba329032ba3432b91760991b604482015290519081900360640190fd5b600080fd5b61010a600480360360c081101561007f57600080fd5b6001600160a01b03823581169260208101359091169160408201359161ffff6060820135169160ff608083013516919081019060c0810160a0820135600160201b8111156100cc57600080fd5b8201836020820111156100de57600080fd5b803590602001918460018302840111600160201b831117156100ff57600080fd5b50909250905061010c565b005b60008054906101000a90046001600160a01b03166001600160a01b031663d8a856ee348989898989346002028a8a6040518a63ffffffff1660e01b815260040180896001600160a01b03168152602001886001600160a01b031681526020018781526020018661ffff1681526020018560ff168152602001848152602001806020018281038252848482818152602001925080828437600081840152601f19601f82011690508083019250505099505050505050505050506020604051808303818588803b1580156101dd57600080fd5b505af11580156101f1573d6000803e3d6000fd5b50505050506040513d602081101561020857600080fd5b50505050505050505056fea26469706673582212207c52e0472369c33666305a066b7c9b966baad7907311500beff12e2a4427949f64736f6c63430007040033",
  "immutableReferences": {},
  "source": "/* Copyright (C) 2021 NexusMutual.io\n\n  This program is free software: you can redistribute it and/or modify\n    it under the terms of the GNU General Public License as published by\n    the Free Software Foundation, either version 3 of the License, or\n    (at your option) any later version.\n\n  This program is distributed in the hope that it will be useful,\n    but WITHOUT ANY WARRANTY; without even the implied warranty of\n    MERCHANTABILITY or FITNESS FOR A PARTICULAR PURPOSE.  See the\n    GNU General Public License for more details.\n\n  You should have received a copy of the GNU General Public License\n    along with this program.  If not, see http://www.gnu.org/licenses/ */\n\npragma solidity ^0.7.4;\n\nimport \"../Distributor.sol\";\n\ncontract CoverBuyer {\n\n    Distributor distributor;\n\n    constructor(address payable distributorAddress) public {\n        distributor = Distributor(distributorAddress);\n    }\n\n    function buyCover(\n        address contractAddress,\n        address coverAsset,\n        uint sumAssured,\n        uint16 coverPeriod,\n        uint8 coverType,\n        bytes calldata data\n    ) external payable {\n        distributor.buyCover{value : msg.value}(contractAddress, coverAsset, sumAssured, coverPeriod, coverType, 2 * msg.value, data);\n    }\n\n    receive() payable external {\n        revert(\"I hate ether.\");\n    }\n}\n\n",
  "sourcePath": "/Users/ricardopinto/work/brightunion/distributors/contracts/nexus/mocks/CoverBuyer.sol",
  "compiler": {
    "name": "solc",
    "version": "0.7.4+commit.3f05b770.Emscripten.clang"
  },
  "schemaVersion": "3.4.0",
  "updatedAt": "2021-05-03T15:12:36.316Z",
  "devdoc": {
    "kind": "dev",
    "methods": {},
    "version": 1
  },
  "userdoc": {
    "kind": "user",
    "methods": {},
    "version": 1
  }
}