{
  "contractName": "CoverMock",
  "abi": [
    {
      "anonymous": false,
      "inputs": [
        {
          "indexed": true,
          "internalType": "uint256",
          "name": "claimId",
          "type": "uint256"
        },
        {
          "indexed": true,
          "internalType": "uint256",
          "name": "coverId",
          "type": "uint256"
        },
        {
          "indexed": true,
          "internalType": "address",
          "name": "submitter",
          "type": "address"
        },
        {
          "indexed": false,
          "internalType": "bytes",
          "name": "data",
          "type": "bytes"
        }
      ],
      "name": "ClaimSubmitted",
      "type": "event"
    },
    {
      "anonymous": false,
      "inputs": [
        {
          "indexed": false,
          "internalType": "uint256",
          "name": "coverId",
          "type": "uint256"
        },
        {
          "indexed": true,
          "internalType": "address",
          "name": "buyer",
          "type": "address"
        },
        {
          "indexed": true,
          "internalType": "address",
          "name": "contractAddress",
          "type": "address"
        },
        {
          "indexed": false,
          "internalType": "address",
          "name": "coverAsset",
          "type": "address"
        },
        {
          "indexed": false,
          "internalType": "uint256",
          "name": "sumAssured",
          "type": "uint256"
        },
        {
          "indexed": false,
          "internalType": "uint16",
          "name": "coverPeriod",
          "type": "uint16"
        },
        {
          "indexed": false,
          "internalType": "bytes",
          "name": "data",
          "type": "bytes"
        }
      ],
      "name": "CoverBought",
      "type": "event"
    },
    {
      "inputs": [],
      "name": "ETH",
      "outputs": [
        {
          "internalType": "address",
          "name": "",
          "type": "address"
        }
      ],
      "stateMutability": "view",
      "type": "function"
    },
    {
      "inputs": [
        {
          "internalType": "uint256",
          "name": "",
          "type": "uint256"
        }
      ],
      "name": "covers",
      "outputs": [
        {
          "internalType": "address",
          "name": "owner",
          "type": "address"
        },
        {
          "internalType": "address",
          "name": "contractAddress",
          "type": "address"
        },
        {
          "internalType": "address",
          "name": "coverAsset",
          "type": "address"
        },
        {
          "internalType": "uint256",
          "name": "sumAssured",
          "type": "uint256"
        },
        {
          "internalType": "uint16",
          "name": "coverPeriod",
          "type": "uint16"
        },
        {
          "internalType": "uint8",
          "name": "coverType",
          "type": "uint8"
        },
        {
          "internalType": "bytes",
          "name": "data",
          "type": "bytes"
        },
        {
          "internalType": "uint256",
          "name": "topUp",
          "type": "uint256"
        }
      ],
      "stateMutability": "view",
      "type": "function"
    },
    {
      "inputs": [
        {
          "internalType": "address",
          "name": "contractAddress",
          "type": "address"
        },
        {
          "internalType": "address",
          "name": "coverAsset",
          "type": "address"
        },
        {
          "internalType": "uint256",
          "name": "sumAssured",
          "type": "uint256"
        },
        {
          "internalType": "uint16",
          "name": "coverPeriod",
          "type": "uint16"
        },
        {
          "internalType": "uint8",
          "name": "coverType",
          "type": "uint8"
        },
        {
          "internalType": "bytes",
          "name": "data",
          "type": "bytes"
        }
      ],
      "name": "buyCover",
      "outputs": [
        {
          "internalType": "uint256",
          "name": "",
          "type": "uint256"
        }
      ],
      "stateMutability": "payable",
      "type": "function"
    },
    {
      "inputs": [
        {
          "internalType": "address",
          "name": "contractAddress",
          "type": "address"
        },
        {
          "internalType": "address",
          "name": "coverAsset",
          "type": "address"
        },
        {
          "internalType": "uint256",
          "name": "sumAssured",
          "type": "uint256"
        },
        {
          "internalType": "uint16",
          "name": "coverPeriod",
          "type": "uint16"
        },
        {
          "internalType": "uint8",
          "name": "coverType",
          "type": "uint8"
        },
        {
          "internalType": "bytes",
          "name": "data",
          "type": "bytes"
        }
      ],
      "name": "getCoverPrice",
      "outputs": [
        {
          "internalType": "uint256",
          "name": "coverPrice",
          "type": "uint256"
        }
      ],
      "stateMutability": "view",
      "type": "function"
    },
    {
      "inputs": [
        {
          "internalType": "uint256",
          "name": "coverId",
          "type": "uint256"
        },
        {
          "internalType": "bytes",
          "name": "data",
          "type": "bytes"
        }
      ],
      "name": "submitClaim",
      "outputs": [
        {
          "internalType": "uint256",
          "name": "",
          "type": "uint256"
        }
      ],
      "stateMutability": "nonpayable",
      "type": "function"
    },
    {
      "inputs": [
        {
          "internalType": "uint256",
          "name": "claimId",
          "type": "uint256"
        }
      ],
      "name": "getClaimCoverId",
      "outputs": [
        {
          "internalType": "uint256",
          "name": "",
          "type": "uint256"
        }
      ],
      "stateMutability": "view",
      "type": "function"
    },
    {
      "inputs": [
        {
          "internalType": "uint256",
          "name": "claimId",
          "type": "uint256"
        }
      ],
      "name": "getPayoutOutcome",
      "outputs": [
        {
          "internalType": "enum ICover.ClaimStatus",
          "name": "",
          "type": "uint8"
        },
        {
          "internalType": "uint256",
          "name": "",
          "type": "uint256"
        },
        {
          "internalType": "address",
          "name": "",
          "type": "address"
        }
      ],
      "stateMutability": "view",
      "type": "function"
    },
    {
      "inputs": [
        {
          "internalType": "uint256",
          "name": "coverId",
          "type": "uint256"
        }
      ],
      "name": "getCover",
      "outputs": [
        {
          "internalType": "uint8",
          "name": "status",
          "type": "uint8"
        },
        {
          "internalType": "uint256",
          "name": "sumAssured",
          "type": "uint256"
        },
        {
          "internalType": "uint16",
          "name": "coverPeriod",
          "type": "uint16"
        },
        {
          "internalType": "uint256",
          "name": "validUntil",
          "type": "uint256"
        },
        {
          "internalType": "address",
          "name": "contractAddress",
          "type": "address"
        },
        {
          "internalType": "address",
          "name": "coverAsset",
          "type": "address"
        },
        {
          "internalType": "uint256",
          "name": "premiumInNXM",
          "type": "uint256"
        },
        {
          "internalType": "address",
          "name": "memberAddress",
          "type": "address"
        }
      ],
      "stateMutability": "view",
      "type": "function"
    },
    {
      "inputs": [
        {
          "internalType": "uint256",
          "name": "coverId",
          "type": "uint256"
        },
        {
          "internalType": "uint8",
          "name": "action",
          "type": "uint8"
        },
        {
          "internalType": "bytes",
          "name": "data",
          "type": "bytes"
        }
      ],
      "name": "executeCoverAction",
      "outputs": [
        {
          "internalType": "bytes",
          "name": "",
          "type": "bytes"
        },
        {
          "internalType": "uint256",
          "name": "",
          "type": "uint256"
        }
      ],
      "stateMutability": "payable",
      "type": "function"
    },
    {
      "inputs": [
        {
          "internalType": "address",
          "name": "_newAddress",
          "type": "address"
        }
      ],
      "name": "switchMembership",
      "outputs": [],
      "stateMutability": "payable",
      "type": "function"
    },
    {
      "inputs": [],
      "name": "claimsData",
      "outputs": [
        {
          "internalType": "address",
          "name": "",
          "type": "address"
        }
      ],
      "stateMutability": "view",
      "type": "function"
    }
  ],
  "bytecode": "0x6080604052600060015534801561001557600080fd5b5060016000556112f88061002a6000396000f3fe6080604052600436106100bc5760003560e01c80636299df6c11610074578063ad6f59641161004e578063ad6f596414610566578063db3274911461057b578063fd7b68a2146105ff576100bc565b80636299df6c146103e25780638322fff2146104fe57806396ff592f1461053c576100bc565b80634ed75d47116100a55780634ed75d471461028157806352799e4d146102b65780635caca7b414610325576100bc565b806304836c4a146100c157806330926acc14610183575b600080fd5b610171600480360360c08110156100d757600080fd5b73ffffffffffffffffffffffffffffffffffffffff823581169260208101359091169160408201359161ffff6060820135169160ff608083013516919081019060c0810160a082013564010000000081111561013257600080fd5b82018360208201111561014457600080fd5b8035906020019184600183028401116401000000008311171561016657600080fd5b50909250905061068c565b60408051918252519081900360200190f35b6102026004803603606081101561019957600080fd5b81359160ff602082013516918101906060810160408201356401000000008111156101c357600080fd5b8201836020820111156101d557600080fd5b803590602001918460018302840111640100000000831117156101f757600080fd5b509092509050610786565b6040518080602001838152602001828103825284818151815260200191508051906020019080838360005b8381101561024557818101518382015260200161022d565b50505050905090810190601f1680156102725780820380516001836020036101000a031916815260200191505b50935050505060405180910390f35b6102b46004803603602081101561029757600080fd5b503573ffffffffffffffffffffffffffffffffffffffff16610ad6565b005b3480156102c257600080fd5b506102e0600480360360208110156102d957600080fd5b5035610b23565b604051808460028111156102f057fe5b81526020018381526020018273ffffffffffffffffffffffffffffffffffffffff168152602001935050505060405180910390f35b34801561033157600080fd5b50610171600480360360c081101561034857600080fd5b73ffffffffffffffffffffffffffffffffffffffff823581169260208101359091169160408201359161ffff6060820135169160ff608083013516919081019060c0810160a08201356401000000008111156103a357600080fd5b8201836020820111156103b557600080fd5b803590602001918460018302840111640100000000831117156103d757600080fd5b509092509050610b76565b3480156103ee57600080fd5b5061040c6004803603602081101561040557600080fd5b5035610ba3565b604051808973ffffffffffffffffffffffffffffffffffffffff1681526020018873ffffffffffffffffffffffffffffffffffffffff1681526020018773ffffffffffffffffffffffffffffffffffffffff1681526020018681526020018561ffff1681526020018460ff16815260200180602001838152602001828103825284818151815260200191508051906020019080838360005b838110156104bc5781810151838201526020016104a4565b50505050905090810190601f1680156104e95780820380516001836020036101000a031916815260200191505b50995050505050505050505060405180910390f35b34801561050a57600080fd5b50610513610cb3565b6040805173ffffffffffffffffffffffffffffffffffffffff9092168252519081900360200190f35b34801561054857600080fd5b506101716004803603602081101561055f57600080fd5b5035610ccb565b34801561057257600080fd5b50610513610ccb565b34801561058757600080fd5b506101716004803603604081101561059e57600080fd5b813591908101906040810160208201356401000000008111156105c057600080fd5b8201836020820111156105d257600080fd5b803590602001918460018302840111640100000000831117156105f457600080fd5b509092509050610ccb565b34801561060b57600080fd5b506106296004803603602081101561062257600080fd5b5035610d1a565b6040805160ff9099168952602089019790975261ffff90951687870152606087019390935273ffffffffffffffffffffffffffffffffffffffff9182166080870152811660a086015260c08501919091521660e083015251908190036101000190f35b600180548101808255600081815260026020819052604082208054337fffffffffffffffffffffffff00000000000000000000000000000000000000009182161782559481018054861673ffffffffffffffffffffffffffffffffffffffff8e8116919091179091559181018054909516918b1691909117909355600383018890556004830180547fffffffffffffffffffffffffffffffffffffffffffffffffffffffffffff00001661ffff8916177fffffffffffffffffffffffffffffffffffffffffffffffffffffffffff00ffff166201000060ff8916021790559161077990600501858561117f565b5098975050505050505050565b6000848152600260205260408120546060919073ffffffffffffffffffffffffffffffffffffffff163314610802576040805162461bcd60e51b815260206004820152601d60248201527f436f7665724d6f636b3a204e6f74206f776e6572206f6620636f766572000000604482015290519081900360640190fd5b60ff85166109e9576000868152600260208190526040909120015473ffffffffffffffffffffffffffffffffffffffff1673eeeeeeeeeeeeeeeeeeeeeeeeeeeeeeeeeeeeeeee1461089a576040805162461bcd60e51b815260206004820152601960248201527f436f766572206973206e6f7420616e2045544820636f76657200000000000000604482015290519081900360640190fd5b6000848460208110156108ac57600080fd5b5035905034811115610905576040805162461bcd60e51b815260206004820152601660248201527f6d73672e76616c7565203c20746f70557056616c756500000000000000000000604482015290519081900360640190fd5b60008781526002602052604081206006018054830190556109263483610d7a565b604051909150600090339083908381818185875af1925050503d806000811461096b576040519150601f19603f3d011682016040523d82523d6000602084013e610970565b606091505b50509050806109b05760405162461bcd60e51b815260040180806020018281038252603481526020018061123f6034913960400191505060405180910390fd5b50506000878152600260209081526040918290206006015482518083019190915282518082039092018252820190915292509050610acd565b8460ff1660011415610a8057600084846020811015610a0757600080fd5b50600088815260026020819052604090912001549035915073ffffffffffffffffffffffffffffffffffffffff16610a4181333085610dd7565b50600087815260026020908152604091829020600601805484019081905582518083019190915282518082039092018252820190915292509050610acd565b6040805162461bcd60e51b815260206004820152601960248201527f436f7665724d6f636b3a20556e6b6e6f776e20616374696f6e00000000000000604482015290519081900360640190fd5b94509492505050565b6040805162461bcd60e51b815260206004820152600b60248201527f556e737570706f72746564000000000000000000000000000000000000000000604482015290519081900360640190fd5b6040805162461bcd60e51b815260206004820152600b60248201527f556e737570706f72746564000000000000000000000000000000000000000000604482015290516000918291829181900360640190fd5b600082826020811015610b8857600080fd5b50359050610b97816001610d7a565b98975050505050505050565b600260208181526000928352604092839020805460018083015483860154600385015460048601546005870180548b5161010097821615979097027fffffffffffffffffffffffffffffffffffffffffffffffffffffffffffffffff011699909904601f8101899004890286018901909a5289855273ffffffffffffffffffffffffffffffffffffffff95861699938616989590921696909561ffff8316956201000090930460ff16949093909291830182828015610ca35780601f10610c7857610100808354040283529160200191610ca3565b820191906000526020600020905b815481529060010190602001808311610c8657829003601f168201915b5050505050908060060154905088565b73eeeeeeeeeeeeeeeeeeeeeeeeeeeeeeeeeeeeeeee81565b6040805162461bcd60e51b815260206004820152600b60248201527f556e737570706f727465640000000000000000000000000000000000000000006044820152905160009181900360640190fd5b60008060008060008060008060405162461bcd60e51b815260040180806020018281038252600b8152602001807f556e737570706f7274656400000000000000000000000000000000000000000081525060200191505060405180910390fd5b600082821115610dd1576040805162461bcd60e51b815260206004820152601e60248201527f536166654d6174683a207375627472616374696f6e206f766572666c6f770000604482015290519081900360640190fd5b50900390565b6040805173ffffffffffffffffffffffffffffffffffffffff80861660248301528416604482015260648082018490528251808303909101815260849091019091526020810180517bffffffffffffffffffffffffffffffffffffffffffffffffffffffff167f23b872dd00000000000000000000000000000000000000000000000000000000179052610e6c908590610e72565b50505050565b6060610ed4826040518060400160405280602081526020017f5361666545524332303a206c6f772d6c6576656c2063616c6c206661696c65648152508573ffffffffffffffffffffffffffffffffffffffff16610f359092919063ffffffff16565b805190915015610f3057808060200190516020811015610ef357600080fd5b5051610f305760405162461bcd60e51b815260040180806020018281038252602a815260200180611299602a913960400191505060405180910390fd5b505050565b6060610f448484600085610f4e565b90505b9392505050565b606082471015610f8f5760405162461bcd60e51b81526004018080602001828103825260268152602001806112736026913960400191505060405180910390fd5b610f98856110d5565b610fe9576040805162461bcd60e51b815260206004820152601d60248201527f416464726573733a2063616c6c20746f206e6f6e2d636f6e7472616374000000604482015290519081900360640190fd5b600060608673ffffffffffffffffffffffffffffffffffffffff1685876040518082805190602001908083835b6020831061105357805182527fffffffffffffffffffffffffffffffffffffffffffffffffffffffffffffffe09092019160209182019101611016565b6001836020036101000a03801982511681845116808217855250505050505090500191505060006040518083038185875af1925050503d80600081146110b5576040519150601f19603f3d011682016040523d82523d6000602084013e6110ba565b606091505b50915091506110ca8282866110db565b979650505050505050565b3b151590565b606083156110ea575081610f47565b8251156110fa5782518084602001fd5b8160405162461bcd60e51b81526004018080602001828103825283818151815260200191508051906020019080838360005b8381101561114457818101518382015260200161112c565b50505050905090810190601f1680156111715780820380516001836020036101000a031916815260200191505b509250505060405180910390fd5b828054600181600116156101000203166002900490600052602060002090601f0160209004810192826111b55760008555611219565b82601f106111ec578280017fffffffffffffffffffffffffffffffffffffffffffffffffffffffffffffff00823516178555611219565b82800160010185558215611219579182015b828111156112195782358255916020019190600101906111fe565b50611225929150611229565b5090565b5b80821115611225576000815560010161122a56fe436f7665724d6f636b3a2052657475726e696e67204554482072656d61696e64657220746f2073656e646572206661696c65642e416464726573733a20696e73756666696369656e742062616c616e636520666f722063616c6c5361666545524332303a204552433230206f7065726174696f6e20646964206e6f742073756363656564a2646970667358221220e3eb3803a08e8b3a0eeeffbc03e59e1a30c3ff9217bb15156bffb697e1b0fbaf64736f6c63430007040033",
  "immutableReferences": {},
  "source": "/* Copyright (C) 2021 NexusMutual.io\n\n  This program is free software: you can redistribute it and/or modify\n    it under the terms of the GNU General Public License as published by\n    the Free Software Foundation, either version 3 of the License, or\n    (at your option) any later version.\n\n  This program is distributed in the hope that it will be useful,\n    but WITHOUT ANY WARRANTY; without even the implied warranty of\n    MERCHANTABILITY or FITNESS FOR A PARTICULAR PURPOSE.  See the\n    GNU General Public License for more details.\n\n  You should have received a copy of the GNU General Public License\n    along with this program.  If not, see http://www.gnu.org/licenses/ */\n\npragma solidity ^0.7.4;\n\nimport \"../interfaces/ICover.sol\";\nimport \"@openzeppelin/contracts/token/ERC20/IERC20.sol\";\nimport \"@openzeppelin/contracts/utils/ReentrancyGuard.sol\";\nimport \"@openzeppelin/contracts/math/SafeMath.sol\";\nimport \"@openzeppelin/contracts/token/ERC20/SafeERC20.sol\";\n\ncontract CoverMock is ICover, ReentrancyGuard {\n    using SafeMath for uint;\n    using SafeERC20 for IERC20;\n\n    uint lastCoverId = 0;\n\n    address public constant ETH = 0xEeeeeEeeeEeEeeEeEeEeeEEEeeeeEeeeeeeeEEeE;\n\n    struct Cover {\n        address owner;\n        address contractAddress;\n        address coverAsset;\n        uint sumAssured;\n        uint16 coverPeriod;\n        uint8 coverType;\n        bytes data;\n        uint topUp;\n    }\n\n    mapping(uint => Cover) public covers;\n\n    function buyCover(\n        address contractAddress,\n        address coverAsset,\n        uint sumAssured,\n        uint16 coverPeriod,\n        uint8 coverType,\n        bytes calldata data\n    ) external payable override returns (uint) {\n        uint coverId = ++lastCoverId;\n        covers[coverId].owner = msg.sender;\n        covers[coverId].contractAddress = contractAddress;\n        covers[coverId].coverAsset = coverAsset;\n        covers[coverId].sumAssured = sumAssured;\n        covers[coverId].coverPeriod = coverPeriod;\n        covers[coverId].coverType = coverType;\n        covers[coverId].data = data;\n        return coverId;\n    }\n\n    function getCoverPrice(\n        address contractAddress,\n        address coverAsset,\n        uint sumAssured,\n        uint16 coverPeriod,\n        uint8 coverType,\n        bytes calldata data\n    ) external view override returns (uint coverPrice) {\n        (\n        coverPrice\n        ) = abi.decode(data, (uint));\n        coverPrice = coverPrice.sub(1);\n        // substracts a small amount to be sent back\n    }\n\n    function submitClaim(uint coverId, bytes calldata data) external override returns (uint) {\n        revert(\"Unsupported\");\n    }\n\n    function getClaimCoverId(uint claimId) external view override returns (uint) {\n        revert(\"Unsupported\");\n    }\n\n    function getPayoutOutcome(uint claimId) external view override returns (ClaimStatus, uint, address) {\n        revert(\"Unsupported\");\n    }\n\n    function getCover(uint coverId)\n    external\n    view\n    override\n    returns (\n        uint8 status,\n        uint sumAssured,\n        uint16 coverPeriod,\n        uint validUntil,\n        address contractAddress,\n        address coverAsset,\n        uint premiumInNXM,\n        address memberAddress\n    ) {\n        revert(\"Unsupported\");\n    }\n\n    function executeCoverAction(uint coverId, uint8 action, bytes calldata data)\n    external\n    payable\n    override\n    returns (bytes memory, uint)\n    {\n        require(covers[coverId].owner == msg.sender, \"CoverMock: Not owner of cover\");\n\n        if (action == 0) {\n            require(covers[coverId].coverAsset == ETH, \"Cover is not an ETH cover\");\n            uint topUpValue = abi.decode(data, (uint));\n            require(msg.value >= topUpValue, \"msg.value < topUpValue\");\n            covers[coverId].topUp += topUpValue;\n            uint remainder = msg.value.sub(topUpValue);\n            (bool ok, /* data */) = address(msg.sender).call{value : remainder}(\"\");\n            require(ok, \"CoverMock: Returning ETH remainder to sender failed.\");\n            return (abi.encode(covers[coverId].topUp), topUpValue);\n        } else if (action == 1) {\n            uint topUpValue = abi.decode(data, (uint));\n            IERC20 token = IERC20(covers[coverId].coverAsset);\n            token.safeTransferFrom(msg.sender, address(this), topUpValue);\n            covers[coverId].topUp += topUpValue;\n            return (abi.encode(covers[coverId].topUp), topUpValue);\n        }\n        revert(\"CoverMock: Unknown action\");\n    }\n\n    function switchMembership(address _newAddress) external payable override {\n        revert(\"Unsupported\");\n    }\n\n    function claimsData() external view override returns (address) {\n        revert(\"Unsupported\");\n    }\n\n}\n",
  "sourcePath": "/Users/kirilivanov/DEV/BrightUnion/distributors/contracts/nexus/mocks/CoverMock.sol",
  "compiler": {
    "name": "solc",
    "version": "0.7.4+commit.3f05b770.Emscripten.clang"
  },
  "schemaVersion": "3.3.1",
  "updatedAt": "2021-04-08T07:49:04.718Z",
  "devdoc": {
    "kind": "dev",
    "methods": {},
    "version": 1
  },
  "userdoc": {
    "kind": "user",
    "methods": {},
    "version": 1
  }
}