{
  "contractName": "Distributor",
  "abi": [
    {
      "inputs": [
        {
          "internalType": "address",
          "name": "coverAddress",
          "type": "address"
        },
        {
          "internalType": "address",
          "name": "nxmTokenAddress",
          "type": "address"
        },
        {
          "internalType": "address",
          "name": "masterAddress",
          "type": "address"
        },
        {
          "internalType": "uint256",
          "name": "_feePercentage",
          "type": "uint256"
        },
        {
          "internalType": "address payable",
          "name": "_treasury",
          "type": "address"
        },
        {
          "internalType": "string",
          "name": "tokenName",
          "type": "string"
        },
        {
          "internalType": "string",
          "name": "tokenSymbol",
          "type": "string"
        }
      ],
      "stateMutability": "nonpayable",
      "type": "constructor"
    },
    {
      "anonymous": false,
      "inputs": [
        {
          "indexed": true,
          "internalType": "address",
          "name": "owner",
          "type": "address"
        },
        {
          "indexed": true,
          "internalType": "address",
          "name": "approved",
          "type": "address"
        },
        {
          "indexed": true,
          "internalType": "uint256",
          "name": "tokenId",
          "type": "uint256"
        }
      ],
      "name": "Approval",
      "type": "event"
    },
    {
      "anonymous": false,
      "inputs": [
        {
          "indexed": true,
          "internalType": "address",
          "name": "owner",
          "type": "address"
        },
        {
          "indexed": true,
          "internalType": "address",
          "name": "operator",
          "type": "address"
        },
        {
          "indexed": false,
          "internalType": "bool",
          "name": "approved",
          "type": "bool"
        }
      ],
      "name": "ApprovalForAll",
      "type": "event"
    },
    {
      "anonymous": false,
      "inputs": [
        {
          "indexed": true,
          "internalType": "uint256",
          "name": "coverId",
          "type": "uint256"
        },
        {
          "indexed": true,
          "internalType": "uint256",
          "name": "claimId",
          "type": "uint256"
        },
        {
          "indexed": true,
          "internalType": "address",
          "name": "receiver",
          "type": "address"
        },
        {
          "indexed": false,
          "internalType": "uint256",
          "name": "amountPaid",
          "type": "uint256"
        },
        {
          "indexed": false,
          "internalType": "address",
          "name": "coverAsset",
          "type": "address"
        }
      ],
      "name": "ClaimPayoutRedeemed",
      "type": "event"
    },
    {
      "anonymous": false,
      "inputs": [
        {
          "indexed": true,
          "internalType": "uint256",
          "name": "coverId",
          "type": "uint256"
        },
        {
          "indexed": true,
          "internalType": "uint256",
          "name": "claimId",
          "type": "uint256"
        },
        {
          "indexed": true,
          "internalType": "address",
          "name": "submitter",
          "type": "address"
        }
      ],
      "name": "ClaimSubmitted",
      "type": "event"
    },
    {
      "anonymous": false,
      "inputs": [
        {
          "indexed": true,
          "internalType": "uint256",
          "name": "coverId",
          "type": "uint256"
        },
        {
          "indexed": true,
          "internalType": "address",
          "name": "buyer",
          "type": "address"
        },
        {
          "indexed": true,
          "internalType": "address",
          "name": "contractAddress",
          "type": "address"
        },
        {
          "indexed": false,
          "internalType": "uint256",
          "name": "feePercentage",
          "type": "uint256"
        },
        {
          "indexed": false,
          "internalType": "uint256",
          "name": "coverPrice",
          "type": "uint256"
        }
      ],
      "name": "CoverBought",
      "type": "event"
    },
    {
      "anonymous": false,
      "inputs": [
        {
          "indexed": true,
          "internalType": "address",
          "name": "previousOwner",
          "type": "address"
        },
        {
          "indexed": true,
          "internalType": "address",
          "name": "newOwner",
          "type": "address"
        }
      ],
      "name": "OwnershipTransferred",
      "type": "event"
    },
    {
      "anonymous": false,
      "inputs": [
        {
          "indexed": true,
          "internalType": "address",
          "name": "from",
          "type": "address"
        },
        {
          "indexed": true,
          "internalType": "address",
          "name": "to",
          "type": "address"
        },
        {
          "indexed": true,
          "internalType": "uint256",
          "name": "tokenId",
          "type": "uint256"
        }
      ],
      "name": "Transfer",
      "type": "event"
    },
    {
      "inputs": [],
      "name": "DEFAULT_BASE_URI",
      "outputs": [
        {
          "internalType": "string",
          "name": "",
          "type": "string"
        }
      ],
      "stateMutability": "view",
      "type": "function"
    },
    {
      "inputs": [],
      "name": "ETH",
      "outputs": [
        {
          "internalType": "address",
          "name": "",
          "type": "address"
        }
      ],
      "stateMutability": "view",
      "type": "function"
    },
    {
      "inputs": [
        {
          "internalType": "address",
          "name": "to",
          "type": "address"
        },
        {
          "internalType": "uint256",
          "name": "tokenId",
          "type": "uint256"
        }
      ],
      "name": "approve",
      "outputs": [],
      "stateMutability": "nonpayable",
      "type": "function"
    },
    {
      "inputs": [
        {
          "internalType": "address",
          "name": "owner",
          "type": "address"
        }
      ],
      "name": "balanceOf",
      "outputs": [
        {
          "internalType": "uint256",
          "name": "",
          "type": "uint256"
        }
      ],
      "stateMutability": "view",
      "type": "function"
    },
    {
      "inputs": [],
      "name": "baseURI",
      "outputs": [
        {
          "internalType": "string",
          "name": "",
          "type": "string"
        }
      ],
      "stateMutability": "view",
      "type": "function"
    },
    {
      "inputs": [],
      "name": "buysAllowed",
      "outputs": [
        {
          "internalType": "bool",
          "name": "",
          "type": "bool"
        }
      ],
      "stateMutability": "view",
      "type": "function"
    },
    {
      "inputs": [],
      "name": "cover",
      "outputs": [
        {
          "internalType": "contract ICover",
          "name": "",
          "type": "address"
        }
      ],
      "stateMutability": "view",
      "type": "function"
    },
    {
      "inputs": [],
      "name": "feePercentage",
      "outputs": [
        {
          "internalType": "uint256",
          "name": "",
          "type": "uint256"
        }
      ],
      "stateMutability": "view",
      "type": "function"
    },
    {
      "inputs": [
        {
          "internalType": "uint256",
          "name": "tokenId",
          "type": "uint256"
        }
      ],
      "name": "getApproved",
      "outputs": [
        {
          "internalType": "address",
          "name": "",
          "type": "address"
        }
      ],
      "stateMutability": "view",
      "type": "function"
    },
    {
      "inputs": [
        {
          "internalType": "address",
          "name": "owner",
          "type": "address"
        },
        {
          "internalType": "address",
          "name": "operator",
          "type": "address"
        }
      ],
      "name": "isApprovedForAll",
      "outputs": [
        {
          "internalType": "bool",
          "name": "",
          "type": "bool"
        }
      ],
      "stateMutability": "view",
      "type": "function"
    },
    {
      "inputs": [],
      "name": "master",
      "outputs": [
        {
          "internalType": "contract INXMaster",
          "name": "",
          "type": "address"
        }
      ],
      "stateMutability": "view",
      "type": "function"
    },
    {
      "inputs": [],
      "name": "name",
      "outputs": [
        {
          "internalType": "string",
          "name": "",
          "type": "string"
        }
      ],
      "stateMutability": "view",
      "type": "function"
    },
    {
      "inputs": [],
      "name": "nxmToken",
      "outputs": [
        {
          "internalType": "contract IERC20",
          "name": "",
          "type": "address"
        }
      ],
      "stateMutability": "view",
      "type": "function"
    },
    {
      "inputs": [],
      "name": "owner",
      "outputs": [
        {
          "internalType": "address",
          "name": "",
          "type": "address"
        }
      ],
      "stateMutability": "view",
      "type": "function"
    },
    {
      "inputs": [
        {
          "internalType": "uint256",
          "name": "tokenId",
          "type": "uint256"
        }
      ],
      "name": "ownerOf",
      "outputs": [
        {
          "internalType": "address",
          "name": "",
          "type": "address"
        }
      ],
      "stateMutability": "view",
      "type": "function"
    },
    {
      "inputs": [],
      "name": "renounceOwnership",
      "outputs": [],
      "stateMutability": "nonpayable",
      "type": "function"
    },
    {
      "inputs": [
        {
          "internalType": "address",
          "name": "from",
          "type": "address"
        },
        {
          "internalType": "address",
          "name": "to",
          "type": "address"
        },
        {
          "internalType": "uint256",
          "name": "tokenId",
          "type": "uint256"
        }
      ],
      "name": "safeTransferFrom",
      "outputs": [],
      "stateMutability": "nonpayable",
      "type": "function"
    },
    {
      "inputs": [
        {
          "internalType": "address",
          "name": "from",
          "type": "address"
        },
        {
          "internalType": "address",
          "name": "to",
          "type": "address"
        },
        {
          "internalType": "uint256",
          "name": "tokenId",
          "type": "uint256"
        },
        {
          "internalType": "bytes",
          "name": "_data",
          "type": "bytes"
        }
      ],
      "name": "safeTransferFrom",
      "outputs": [],
      "stateMutability": "nonpayable",
      "type": "function"
    },
    {
      "inputs": [
        {
          "internalType": "address",
          "name": "operator",
          "type": "address"
        },
        {
          "internalType": "bool",
          "name": "approved",
          "type": "bool"
        }
      ],
      "name": "setApprovalForAll",
      "outputs": [],
      "stateMutability": "nonpayable",
      "type": "function"
    },
    {
      "inputs": [
        {
          "internalType": "bytes4",
          "name": "interfaceId",
          "type": "bytes4"
        }
      ],
      "name": "supportsInterface",
      "outputs": [
        {
          "internalType": "bool",
          "name": "",
          "type": "bool"
        }
      ],
      "stateMutability": "view",
      "type": "function"
    },
    {
      "inputs": [],
      "name": "symbol",
      "outputs": [
        {
          "internalType": "string",
          "name": "",
          "type": "string"
        }
      ],
      "stateMutability": "view",
      "type": "function"
    },
    {
      "inputs": [
        {
          "internalType": "uint256",
          "name": "index",
          "type": "uint256"
        }
      ],
      "name": "tokenByIndex",
      "outputs": [
        {
          "internalType": "uint256",
          "name": "",
          "type": "uint256"
        }
      ],
      "stateMutability": "view",
      "type": "function"
    },
    {
      "inputs": [
        {
          "internalType": "address",
          "name": "owner",
          "type": "address"
        },
        {
          "internalType": "uint256",
          "name": "index",
          "type": "uint256"
        }
      ],
      "name": "tokenOfOwnerByIndex",
      "outputs": [
        {
          "internalType": "uint256",
          "name": "",
          "type": "uint256"
        }
      ],
      "stateMutability": "view",
      "type": "function"
    },
    {
      "inputs": [
        {
          "internalType": "uint256",
          "name": "tokenId",
          "type": "uint256"
        }
      ],
      "name": "tokenURI",
      "outputs": [
        {
          "internalType": "string",
          "name": "",
          "type": "string"
        }
      ],
      "stateMutability": "view",
      "type": "function"
    },
    {
      "inputs": [],
      "name": "totalSupply",
      "outputs": [
        {
          "internalType": "uint256",
          "name": "",
          "type": "uint256"
        }
      ],
      "stateMutability": "view",
      "type": "function"
    },
    {
      "inputs": [
        {
          "internalType": "address",
          "name": "from",
          "type": "address"
        },
        {
          "internalType": "address",
          "name": "to",
          "type": "address"
        },
        {
          "internalType": "uint256",
          "name": "tokenId",
          "type": "uint256"
        }
      ],
      "name": "transferFrom",
      "outputs": [],
      "stateMutability": "nonpayable",
      "type": "function"
    },
    {
      "inputs": [
        {
          "internalType": "address",
          "name": "newOwner",
          "type": "address"
        }
      ],
      "name": "transferOwnership",
      "outputs": [],
      "stateMutability": "nonpayable",
      "type": "function"
    },
    {
      "inputs": [],
      "name": "treasury",
      "outputs": [
        {
          "internalType": "address payable",
          "name": "",
          "type": "address"
        }
      ],
      "stateMutability": "view",
      "type": "function"
    },
    {
      "stateMutability": "payable",
      "type": "receive"
    },
    {
      "inputs": [
        {
          "internalType": "address",
          "name": "contractAddress",
          "type": "address"
        },
        {
          "internalType": "address",
          "name": "coverAsset",
          "type": "address"
        },
        {
          "internalType": "uint256",
          "name": "sumAssured",
          "type": "uint256"
        },
        {
          "internalType": "uint16",
          "name": "coverPeriod",
          "type": "uint16"
        },
        {
          "internalType": "uint8",
          "name": "coverType",
          "type": "uint8"
        },
        {
          "internalType": "uint256",
          "name": "maxPriceWithFee",
          "type": "uint256"
        },
        {
          "internalType": "bytes",
          "name": "data",
          "type": "bytes"
        }
      ],
      "name": "buyCover",
      "outputs": [
        {
          "internalType": "uint256",
          "name": "",
          "type": "uint256"
        }
      ],
      "stateMutability": "payable",
      "type": "function"
    },
    {
      "inputs": [
        {
          "internalType": "uint256",
          "name": "tokenId",
          "type": "uint256"
        },
        {
          "internalType": "bytes",
          "name": "data",
          "type": "bytes"
        }
      ],
      "name": "submitClaim",
      "outputs": [
        {
          "internalType": "uint256",
          "name": "",
          "type": "uint256"
        }
      ],
      "stateMutability": "nonpayable",
      "type": "function"
    },
    {
      "inputs": [
        {
          "internalType": "uint256",
          "name": "tokenId",
          "type": "uint256"
        },
        {
          "internalType": "uint256",
          "name": "claimId",
          "type": "uint256"
        }
      ],
      "name": "redeemClaim",
      "outputs": [],
      "stateMutability": "nonpayable",
      "type": "function"
    },
    {
      "inputs": [
        {
          "internalType": "uint256",
          "name": "tokenId",
          "type": "uint256"
        },
        {
          "internalType": "uint256",
          "name": "assetAmount",
          "type": "uint256"
        },
        {
          "internalType": "address",
          "name": "asset",
          "type": "address"
        },
        {
          "internalType": "uint8",
          "name": "action",
          "type": "uint8"
        },
        {
          "internalType": "bytes",
          "name": "data",
          "type": "bytes"
        }
      ],
      "name": "executeCoverAction",
      "outputs": [
        {
          "internalType": "bytes",
          "name": "response",
          "type": "bytes"
        },
        {
          "internalType": "uint256",
          "name": "withheldAmount",
          "type": "uint256"
        }
      ],
      "stateMutability": "payable",
      "type": "function"
    },
    {
      "inputs": [
        {
          "internalType": "uint256",
          "name": "tokenId",
          "type": "uint256"
        }
      ],
      "name": "getCover",
      "outputs": [
        {
          "internalType": "uint8",
          "name": "status",
          "type": "uint8"
        },
        {
          "internalType": "uint256",
          "name": "sumAssured",
          "type": "uint256"
        },
        {
          "internalType": "uint16",
          "name": "coverPeriod",
          "type": "uint16"
        },
        {
          "internalType": "uint256",
          "name": "validUntil",
          "type": "uint256"
        },
        {
          "internalType": "address",
          "name": "contractAddress",
          "type": "address"
        },
        {
          "internalType": "address",
          "name": "coverAsset",
          "type": "address"
        },
        {
          "internalType": "uint256",
          "name": "premiumInNXM",
          "type": "uint256"
        },
        {
          "internalType": "address",
          "name": "memberAddress",
          "type": "address"
        }
      ],
      "stateMutability": "view",
      "type": "function"
    },
    {
      "inputs": [
        {
          "internalType": "uint256",
          "name": "claimId",
          "type": "uint256"
        }
      ],
      "name": "getPayoutOutcome",
      "outputs": [
        {
          "internalType": "enum ICover.ClaimStatus",
          "name": "status",
          "type": "uint8"
        },
        {
          "internalType": "uint256",
          "name": "amountPaid",
          "type": "uint256"
        },
        {
          "internalType": "address",
          "name": "coverAsset",
          "type": "address"
        }
      ],
      "stateMutability": "view",
      "type": "function"
    },
    {
      "inputs": [
        {
          "internalType": "address",
          "name": "spender",
          "type": "address"
        },
        {
          "internalType": "uint256",
          "name": "amount",
          "type": "uint256"
        }
      ],
      "name": "approveNXM",
      "outputs": [],
      "stateMutability": "nonpayable",
      "type": "function"
    },
    {
      "inputs": [
        {
          "internalType": "address",
          "name": "recipient",
          "type": "address"
        },
        {
          "internalType": "uint256",
          "name": "amount",
          "type": "uint256"
        }
      ],
      "name": "withdrawNXM",
      "outputs": [],
      "stateMutability": "nonpayable",
      "type": "function"
    },
    {
      "inputs": [
        {
          "internalType": "address",
          "name": "newAddress",
          "type": "address"
        }
      ],
      "name": "switchMembership",
      "outputs": [],
      "stateMutability": "nonpayable",
      "type": "function"
    },
    {
      "inputs": [
        {
          "internalType": "uint256",
          "name": "nxmIn",
          "type": "uint256"
        },
        {
          "internalType": "uint256",
          "name": "minEthOut",
          "type": "uint256"
        }
      ],
      "name": "sellNXM",
      "outputs": [],
      "stateMutability": "nonpayable",
      "type": "function"
    },
    {
      "inputs": [
        {
          "internalType": "bool",
          "name": "_buysAllowed",
          "type": "bool"
        }
      ],
      "name": "setBuysAllowed",
      "outputs": [],
      "stateMutability": "nonpayable",
      "type": "function"
    },
    {
      "inputs": [
        {
          "internalType": "address payable",
          "name": "_treasury",
          "type": "address"
        }
      ],
      "name": "setTreasury",
      "outputs": [],
      "stateMutability": "nonpayable",
      "type": "function"
    },
    {
      "inputs": [
        {
          "internalType": "uint256",
          "name": "_feePercentage",
          "type": "uint256"
        }
      ],
      "name": "setFeePercentage",
      "outputs": [],
      "stateMutability": "nonpayable",
      "type": "function"
    },
    {
      "inputs": [
        {
          "internalType": "string",
          "name": "baseURI_",
          "type": "string"
        }
      ],
      "name": "setBaseURI",
      "outputs": [],
      "stateMutability": "nonpayable",
      "type": "function"
    }
  ],
  "bytecode": "0x60e0604052600d805460ff191660011790553480156200001e57600080fd5b50604051620051ee380380620051ee833981810160405260e08110156200004457600080fd5b815160208301516040808501516060860151608087015160a0880180519451969895979396929591949293820192846401000000008211156200008657600080fd5b9083019060208201858111156200009c57600080fd5b8251640100000000811182820188101715620000b757600080fd5b82525081516020918201929091019080838360005b83811015620000e6578181015183820152602001620000cc565b50505050905090810190601f168015620001145780820380516001836020036101000a031916815260200191505b50604052602001805160405193929190846401000000008211156200013857600080fd5b9083019060208201858111156200014e57600080fd5b82516401000000008111828201881017156200016957600080fd5b82525081516020918201929091019080838360005b83811015620001985781810151838201526020016200017e565b50505050905090810190601f168015620001c65780820380516001836020036101000a031916815260200191505b5060405250839150829050620001e36301ffc9a760e01b62000324565b8151620001f8906006906020850190620003c6565b5080516200020e906007906020840190620003c6565b50620002216380ac58cd60e01b62000324565b62000233635b5e139f60e01b62000324565b6200024563780e9d6360e01b62000324565b506000905062000254620003a9565b600a80546001600160a01b0319166001600160a01b038316908117909155604051919250906000907f8be0079c531659141344cd1fd0a4f28419497f9722a3daafe3b4186f6b6457e0908290a3506001600b81905550620002ce604051806060016040528060338152602001620051bb60339139620003ad565b5050600c91909155600d80546001600160a01b0390921661010002610100600160a81b03199092169190911790556001600160601b0319606093841b811660805291831b821660a05290911b1660c05262000472565b6001600160e01b0319808216141562000384576040805162461bcd60e51b815260206004820152601c60248201527f4552433136353a20696e76616c696420696e7465726661636520696400000000604482015290519081900360640190fd5b6001600160e01b0319166000908152602081905260409020805460ff19166001179055565b3390565b8051620003c2906009906020840190620003c6565b5050565b828054600181600116156101000203166002900490600052602060002090601f016020900481019282620003fe576000855562000449565b82601f106200041957805160ff191683800117855562000449565b8280016001018555821562000449579182015b82811115620004495782518255916020019190600101906200042c565b50620004579291506200045b565b5090565b5b808211156200045757600081556001016200045c565b60805160601c60a05160601c60c05160601c614cb46200050760003980611454528061321b5250806115475280611ec65280611fe1528061260952806131c9525080610e665280610f3b5280611767528061196c5280611bcc5280611cae528061201052806120df528061215a5280612b875280612e235280612ebb528061309b52806131a5528061342b5250614cb46000f3fe6080604052600436106102d45760003560e01c80638322fff211610179578063c87b56dd116100d6578063e967eb1a1161008a578063f0f4426011610064578063f0f4426014610cd6578063f2fde38b14610d09578063fd7b68a214610d3c576102db565b8063e967eb1a14610c71578063e985e9c514610c86578063ee97f7f314610cc1576102db565b8063db327491116100bb578063db32749114610bc3578063e1817a8b14610c47578063e7d931e414610c5c576102db565b8063c87b56dd14610af1578063d8a856ee14610b1b576102db565b8063a001ecdd1161012d578063a497325b11610112578063a497325b146109df578063ae06c1b7146109f4578063b88d4fde14610a1e576102db565b8063a001ecdd1461098f578063a22cb465146109a4576102db565b80638da5cb5b1161015e5780638da5cb5b1461092c57806395d89b41146109415780639f1cafa414610956576102db565b80638322fff2146108eb57806386a1563714610900576102db565b80634c2851511161023257806355f804b3116101e65780636c0360eb116101c05780636c0360eb1461088e57806370a08231146108a3578063715018a6146108d6576102db565b806355f804b31461079c57806361d027b31461084f5780636352211e14610864576102db565b80634ed75d47116102175780634ed75d47146106dd5780634f6ccce71461071057806352799e4d1461073a576102db565b80634c285151146105915780634d776735146106a4576102db565b806318160ddd1161028957806328dd37731161026e57806328dd3773146104e55780632f745c591461051557806342842e0e1461054e576102db565b806318160ddd1461047b57806323b872dd146104a2576102db565b806306fdde03116102ba57806306fdde0314610372578063081812fc146103fc578063095ea7b314610442576102db565b8062969717146102e057806301ffc9a714610312576102db565b366102db57005b600080fd5b3480156102ec57600080fd5b506103106004803603604081101561030357600080fd5b5080359060200135610dbc565b005b34801561031e57600080fd5b5061035e6004803603602081101561033557600080fd5b50357fffffffff0000000000000000000000000000000000000000000000000000000016611166565b604080519115158252519081900360200190f35b34801561037e57600080fd5b506103876111a1565b6040805160208082528351818301528351919283929083019185019080838360005b838110156103c15781810151838201526020016103a9565b50505050905090810190601f1680156103ee5780820380516001836020036101000a031916815260200191505b509250505060405180910390f35b34801561040857600080fd5b506104266004803603602081101561041f57600080fd5b5035611237565b604080516001600160a01b039092168252519081900360200190f35b34801561044e57600080fd5b506103106004803603604081101561046557600080fd5b506001600160a01b038135169060200135611299565b34801561048757600080fd5b50610490611374565b60408051918252519081900360200190f35b3480156104ae57600080fd5b50610310600480360360608110156104c557600080fd5b506001600160a01b03813581169160208101359091169060400135611385565b3480156104f157600080fd5b506103106004803603604081101561050857600080fd5b50803590602001356113dc565b34801561052157600080fd5b506104906004803603604081101561053857600080fd5b506001600160a01b038135169060200135611673565b34801561055a57600080fd5b506103106004803603606081101561057157600080fd5b506001600160a01b0381358116916020810135909116906040013561169e565b610625600480360360a08110156105a757600080fd5b8135916020810135916001600160a01b036040830135169160ff6060820135169181019060a0810160808201356401000000008111156105e657600080fd5b8201836020820111156105f857600080fd5b8035906020019184600183028401116401000000008311171561061a57600080fd5b5090925090506116b9565b6040518080602001838152602001828103825284818151815260200191508051906020019080838360005b83811015610668578181015183820152602001610650565b50505050905090810190601f1680156106955780820380516001836020036101000a031916815260200191505b50935050505060405180910390f35b3480156106b057600080fd5b50610310600480360360408110156106c757600080fd5b506001600160a01b038135169060200135611e50565b3480156106e957600080fd5b506103106004803603602081101561070057600080fd5b50356001600160a01b0316611f6b565b34801561071c57600080fd5b506104906004803603602081101561073357600080fd5b503561213d565b34801561074657600080fd5b506107646004803603602081101561075d57600080fd5b5035612153565b6040518084600281111561077457fe5b8152602001838152602001826001600160a01b03168152602001935050505060405180910390f35b3480156107a857600080fd5b50610310600480360360208110156107bf57600080fd5b8101906020810181356401000000008111156107da57600080fd5b8201836020820111156107ec57600080fd5b8035906020019184600183028401116401000000008311171561080e57600080fd5b91908080601f016020809104026020016040519081016040528093929190818152602001838380828437600092019190915250929550612200945050505050565b34801561085b57600080fd5b50610426612280565b34801561087057600080fd5b506104266004803603602081101561088757600080fd5b5035612294565b34801561089a57600080fd5b506103876122bc565b3480156108af57600080fd5b50610490600480360360208110156108c657600080fd5b50356001600160a01b031661231d565b3480156108e257600080fd5b50610310612385565b3480156108f757600080fd5b5061042661245b565b34801561090c57600080fd5b506103106004803603602081101561092357600080fd5b50351515612473565b34801561093857600080fd5b50610426612518565b34801561094d57600080fd5b50610387612527565b34801561096257600080fd5b506103106004803603604081101561097957600080fd5b506001600160a01b038135169060200135612588565b34801561099b57600080fd5b50610490612634565b3480156109b057600080fd5b50610310600480360360408110156109c757600080fd5b506001600160a01b038135169060200135151561263a565b3480156109eb57600080fd5b5061038761275d565b348015610a0057600080fd5b5061031060048036036020811015610a1757600080fd5b5035612779565b348015610a2a57600080fd5b5061031060048036036080811015610a4157600080fd5b6001600160a01b03823581169260208101359091169160408201359190810190608081016060820135640100000000811115610a7c57600080fd5b820183602082011115610a8e57600080fd5b80359060200191846001830284011164010000000083111715610ab057600080fd5b91908080601f0160208091040260200160405190810160405280939291908181526020018383808284376000920191909152509295506127f2945050505050565b348015610afd57600080fd5b5061038760048036036020811015610b1457600080fd5b503561284a565b610490600480360360e0811015610b3157600080fd5b6001600160a01b03823581169260208101359091169160408201359161ffff6060820135169160ff6080830135169160a08101359181019060e0810160c0820135640100000000811115610b8457600080fd5b820183602082011115610b9657600080fd5b80359060200191846001830284011164010000000083111715610bb857600080fd5b509092509050612acd565b348015610bcf57600080fd5b5061049060048036036040811015610be657600080fd5b81359190810190604081016020820135640100000000811115610c0857600080fd5b820183602082011115610c1a57600080fd5b80359060200191846001830284011164010000000083111715610c3c57600080fd5b50909250905061304f565b348015610c5357600080fd5b5061035e61319a565b348015610c6857600080fd5b506104266131a3565b348015610c7d57600080fd5b506104266131c7565b348015610c9257600080fd5b5061035e60048036036040811015610ca957600080fd5b506001600160a01b03813581169160200135166131eb565b348015610ccd57600080fd5b50610426613219565b348015610ce257600080fd5b5061031060048036036020811015610cf957600080fd5b50356001600160a01b031661323d565b348015610d1557600080fd5b5061031060048036036020811015610d2c57600080fd5b50356001600160a01b03166132f0565b348015610d4857600080fd5b50610d6660048036036020811015610d5f57600080fd5b503561341d565b6040805160ff9099168952602089019790975261ffff9095168787015260608701939093526001600160a01b039182166080870152811660a086015260c08501919091521660e083015251908190036101000190f35b81610dc733826134ff565b610e025760405162461bcd60e51b8152600401808060200182810382526022815260200180614ae46022913960400191505060405180910390fd5b6002600b541415610e5a576040805162461bcd60e51b815260206004820152601f60248201527f5265656e7472616e637947756172643a207265656e7472616e742063616c6c00604482015290519081900360640190fd5b6002600b8190555060007f00000000000000000000000000000000000000000000000000000000000000006001600160a01b03166396ff592f846040518263ffffffff1660e01b81526004018082815260200191505060206040518083038186803b158015610ec857600080fd5b505afa158015610edc573d6000803e3d6000fd5b505050506040513d6020811015610ef257600080fd5b50519050838114610f345760405162461bcd60e51b8152600401808060200182810382526025815260200180614bde6025913960400191505060405180910390fd5b60008060007f00000000000000000000000000000000000000000000000000000000000000006001600160a01b03166352799e4d876040518263ffffffff1660e01b81526004018082815260200191505060606040518083038186803b158015610f9d57600080fd5b505afa158015610fb1573d6000803e3d6000fd5b505050506040513d6060811015610fc757600080fd5b508051602082015160409092015190945090925090506001836002811115610feb57fe5b1461103d576040805162461bcd60e51b815260206004820152601f60248201527f4469737472696275746f723a20436c61696d206e6f7420616363657074656400604482015290519081900360640190fd5b611046876135a3565b6001600160a01b03811673eeeeeeeeeeeeeeeeeeeeeeeeeeeeeeeeeeeeeeee14156110f857604051600090339084908381818185875af1925050503d80600081146110ad576040519150601f19603f3d011682016040523d82523d6000602084013e6110b2565b606091505b50509050806110f25760405162461bcd60e51b8152600401808060200182810382526029815260200180614a246029913960400191505060405180910390fd5b5061110f565b8061110d6001600160a01b0382163385613670565b505b604080518381526001600160a01b03831660208201528151339289928b927f34fca3c3e347457684d11c6311e01dc77fc4d158b9fb5902af19c6b9fae603a9929181900390910190a450506001600b555050505050565b7fffffffff00000000000000000000000000000000000000000000000000000000811660009081526020819052604090205460ff165b919050565b60068054604080516020601f600260001961010060018816150201909516949094049384018190048102820181019092528281526060939092909183018282801561122d5780601f106112025761010080835404028352916020019161122d565b820191906000526020600020905b81548152906001019060200180831161121057829003601f168201915b5050505050905090565b6000611242826136f0565b61127d5760405162461bcd60e51b815260040180806020018281038252602c815260200180614b27602c913960400191505060405180910390fd5b506000908152600460205260409020546001600160a01b031690565b60006112a482612294565b9050806001600160a01b0316836001600160a01b031614156112f75760405162461bcd60e51b8152600401808060200182810382526021815260200180614c036021913960400191505060405180910390fd5b806001600160a01b03166113096136fd565b6001600160a01b0316148061132a575061132a816113256136fd565b6131eb565b6113655760405162461bcd60e51b81526004018080602001828103825260388152602001806149ec6038913960400191505060405180910390fd5b61136f8383613701565b505050565b60006113806002613787565b905090565b6113966113906136fd565b826134ff565b6113d15760405162461bcd60e51b8152600401808060200182810382526031815260200180614c246031913960400191505060405180910390fd5b61136f838383613792565b6113e46136fd565b6001600160a01b03166113f5612518565b6001600160a01b031614611450576040805162461bcd60e51b815260206004820181905260248201527f4f776e61626c653a2063616c6c6572206973206e6f7420746865206f776e6572604482015290519081900360640190fd5b60007f00000000000000000000000000000000000000000000000000000000000000006001600160a01b031663013828586040518163ffffffff1660e01b815260040180807f5031000000000000000000000000000000000000000000000000000000000000815250602001905060206040518083038186803b1580156114d657600080fd5b505afa1580156114ea573d6000803e3d6000fd5b505050506040513d602081101561150057600080fd5b5051604080517f095ea7b30000000000000000000000000000000000000000000000000000000081526001600160a01b0380841660048301526024820187905291519293507f00000000000000000000000000000000000000000000000000000000000000009091169163095ea7b3916044808201926020929091908290030181600087803b15801561159257600080fd5b505af11580156115a6573d6000803e3d6000fd5b505050506040513d60208110156115bc57600080fd5b5050604080517f28dd37730000000000000000000000000000000000000000000000000000000081526004810185905260248101849052905147916001600160a01b038416916328dd37739160448082019260009290919082900301818387803b15801561162957600080fd5b505af115801561163d573d6000803e3d6000fd5b5047925061166c9150611652905082846138de565b73eeeeeeeeeeeeeeeeeeeeeeeeeeeeeeeeeeeeeeee61393b565b5050505050565b6001600160a01b03821660009081526001602052604081206116959083613a1e565b90505b92915050565b61136f838383604051806020016040528060008152506127f2565b60606000876116c833826134ff565b6117035760405162461bcd60e51b8152600401808060200182810382526022815260200180614ae46022913960400191505060405180910390fd5b6002600b54141561175b576040805162461bcd60e51b815260206004820152601f60248201527f5265656e7472616e637947756172643a207265656e7472616e742063616c6c00604482015290519081900360640190fd5b6002600b5587611906577f00000000000000000000000000000000000000000000000000000000000000006001600160a01b03166330926acc8a8888886040518563ffffffff1660e01b8152600401808581526020018460ff168152602001806020018281038252848482818152602001925080828437600081840152601f19601f82011690508083019250505095505050505050600060405180830381600087803b15801561180a57600080fd5b505af115801561181e573d6000803e3d6000fd5b505050506040513d6000823e601f3d908101601f19168201604090815281101561184757600080fd5b810190808051604051939291908464010000000082111561186757600080fd5b90830190602082018581111561187c57600080fd5b825164010000000081118282018810171561189657600080fd5b82525081516020918201929091019080838360005b838110156118c35781810151838201526020016118ab565b50505050905090810190601f1680156118f05780820380516001836020036101000a031916815260200191505b5060405260200151929550919350611e3d915050565b6001600160a01b03871673eeeeeeeeeeeeeeeeeeeeeeeeeeeeeeeeeeeeeeee1415611ba5578734101561196a5760405162461bcd60e51b8152600401808060200182810382526022815260200180614a4d6022913960400191505060405180910390fd5b7f00000000000000000000000000000000000000000000000000000000000000006001600160a01b03166330926acc348b8989896040518663ffffffff1660e01b8152600401808581526020018460ff168152602001806020018281038252848482818152602001925080828437600081840152601f19601f820116905080830192505050955050505050506000604051808303818588803b158015611a0f57600080fd5b505af1158015611a23573d6000803e3d6000fd5b50505050506040513d6000823e601f3d908101601f191682016040908152811015611a4d57600080fd5b8101908080516040519392919084640100000000821115611a6d57600080fd5b908301906020820185811115611a8257600080fd5b8251640100000000811182820188101715611a9c57600080fd5b82525081516020918201929091019080838360005b83811015611ac9578181015183820152602001611ab1565b50505050905090810190601f168015611af65780820380516001836020036101000a031916815260200191505b506040526020015192955091935060009150611b14905089846138de565b604051909150600090339083908381818185875af1925050503d8060008114611b59576040519150601f19603f3d011682016040523d82523d6000602084013e611b5e565b606091505b5050905080611b9e5760405162461bcd60e51b81526004018080602001828103825260368152602001806149406036913960400191505060405180910390fd5b5050611e3d565b86611bbb6001600160a01b03821633308c613a2a565b806001600160a01b031663095ea7b37f00000000000000000000000000000000000000000000000000000000000000008b6040518363ffffffff1660e01b815260040180836001600160a01b0316815260200182815260200192505050602060405180830381600087803b158015611c3257600080fd5b505af1158015611c46573d6000803e3d6000fd5b505050506040513d6020811015611c5c57600080fd5b50506040517f30926acc000000000000000000000000000000000000000000000000000000008152600481018b815260ff89166024830152606060448301908152606483018890526001600160a01b037f000000000000000000000000000000000000000000000000000000000000000016926330926acc928e928c928c928c929091608401848480828437600081840152601f19601f82011690508083019250505095505050505050600060405180830381600087803b158015611d2057600080fd5b505af1158015611d34573d6000803e3d6000fd5b505050506040513d6000823e601f3d908101601f191682016040908152811015611d5d57600080fd5b8101908080516040519392919084640100000000821115611d7d57600080fd5b908301906020820185811115611d9257600080fd5b8251640100000000811182820188101715611dac57600080fd5b82525081516020918201929091019080838360005b83811015611dd9578181015183820152602001611dc1565b50505050905090810190601f168015611e065780820380516001836020036101000a031916815260200191505b506040526020015192965091945060009150611e2490508a856138de565b9050611e3a6001600160a01b0383163383613670565b50505b506001600b559097909650945050505050565b611e586136fd565b6001600160a01b0316611e69612518565b6001600160a01b031614611ec4576040805162461bcd60e51b815260206004820181905260248201527f4f776e61626c653a2063616c6c6572206973206e6f7420746865206f776e6572604482015290519081900360640190fd5b7f00000000000000000000000000000000000000000000000000000000000000006001600160a01b031663095ea7b383836040518363ffffffff1660e01b815260040180836001600160a01b0316815260200182815260200192505050602060405180830381600087803b158015611f3b57600080fd5b505af1158015611f4f573d6000803e3d6000fd5b505050506040513d6020811015611f6557600080fd5b50505050565b611f736136fd565b6001600160a01b0316611f84612518565b6001600160a01b031614611fdf576040805162461bcd60e51b815260206004820181905260248201527f4f776e61626c653a2063616c6c6572206973206e6f7420746865206f776e6572604482015290519081900360640190fd5b7f00000000000000000000000000000000000000000000000000000000000000006001600160a01b031663095ea7b37f00000000000000000000000000000000000000000000000000000000000000006000196040518363ffffffff1660e01b815260040180836001600160a01b0316815260200182815260200192505050602060405180830381600087803b15801561207857600080fd5b505af115801561208c573d6000803e3d6000fd5b505050506040513d60208110156120a257600080fd5b5050604080517f4ed75d470000000000000000000000000000000000000000000000000000000081526001600160a01b03838116600483015291517f000000000000000000000000000000000000000000000000000000000000000090921691634ed75d479160248082019260009290919082900301818387803b15801561212957600080fd5b505af115801561166c573d6000803e3d6000fd5b60008061214b600284613ab2565b509392505050565b60008060007f00000000000000000000000000000000000000000000000000000000000000006001600160a01b03166352799e4d856040518263ffffffff1660e01b81526004018082815260200191505060606040518083038186803b1580156121bc57600080fd5b505afa1580156121d0573d6000803e3d6000fd5b505050506040513d60608110156121e657600080fd5b508051602082015160409092015190969195509350915050565b6122086136fd565b6001600160a01b0316612219612518565b6001600160a01b031614612274576040805162461bcd60e51b815260206004820181905260248201527f4f776e61626c653a2063616c6c6572206973206e6f7420746865206f776e6572604482015290519081900360640190fd5b61227d81613ace565b50565b600d5461010090046001600160a01b031681565b600061169882604051806060016040528060298152602001614a996029913960029190613ae1565b60098054604080516020601f600260001961010060018816150201909516949094049384018190048102820181019092528281526060939092909183018282801561122d5780601f106112025761010080835404028352916020019161122d565b60006001600160a01b0382166123645760405162461bcd60e51b815260040180806020018281038252602a815260200180614a6f602a913960400191505060405180910390fd5b6001600160a01b038216600090815260016020526040902061169890613787565b61238d6136fd565b6001600160a01b031661239e612518565b6001600160a01b0316146123f9576040805162461bcd60e51b815260206004820181905260248201527f4f776e61626c653a2063616c6c6572206973206e6f7420746865206f776e6572604482015290519081900360640190fd5b600a546040516000916001600160a01b0316907f8be0079c531659141344cd1fd0a4f28419497f9722a3daafe3b4186f6b6457e0908390a3600a80547fffffffffffffffffffffffff0000000000000000000000000000000000000000169055565b73eeeeeeeeeeeeeeeeeeeeeeeeeeeeeeeeeeeeeeee81565b61247b6136fd565b6001600160a01b031661248c612518565b6001600160a01b0316146124e7576040805162461bcd60e51b815260206004820181905260248201527f4f776e61626c653a2063616c6c6572206973206e6f7420746865206f776e6572604482015290519081900360640190fd5b600d80547fffffffffffffffffffffffffffffffffffffffffffffffffffffffffffffff0016911515919091179055565b600a546001600160a01b031690565b60078054604080516020601f600260001961010060018816150201909516949094049384018190048102820181019092528281526060939092909183018282801561122d5780601f106112025761010080835404028352916020019161122d565b6125906136fd565b6001600160a01b03166125a1612518565b6001600160a01b0316146125fc576040805162461bcd60e51b815260206004820181905260248201527f4f776e61626c653a2063616c6c6572206973206e6f7420746865206f776e6572604482015290519081900360640190fd5b6126306001600160a01b037f0000000000000000000000000000000000000000000000000000000000000000168383613670565b5050565b600c5481565b6126426136fd565b6001600160a01b0316826001600160a01b031614156126a8576040805162461bcd60e51b815260206004820152601960248201527f4552433732313a20617070726f766520746f2063616c6c657200000000000000604482015290519081900360640190fd5b80600560006126b56136fd565b6001600160a01b0390811682526020808301939093526040918201600090812091871680825291909352912080547fffffffffffffffffffffffffffffffffffffffffffffffffffffffffffffff0016921515929092179091556127176136fd565b6001600160a01b03167f17307eab39ab6107e8899845ad3d59bd9653f200f220920489ca2b5937696c318360405180821515815260200191505060405180910390a35050565b604051806060016040528060338152602001614b536033913981565b6127816136fd565b6001600160a01b0316612792612518565b6001600160a01b0316146127ed576040805162461bcd60e51b815260206004820181905260248201527f4f776e61626c653a2063616c6c6572206973206e6f7420746865206f776e6572604482015290519081900360640190fd5b600c55565b6128036127fd6136fd565b836134ff565b61283e5760405162461bcd60e51b8152600401808060200182810382526031815260200180614c246031913960400191505060405180910390fd5b611f6584848484613af8565b6060612855826136f0565b6128905760405162461bcd60e51b815260040180806020018281038252602f815260200180614baf602f913960400191505060405180910390fd5b60008281526008602090815260409182902080548351601f60026000196101006001861615020190931692909204918201849004840281018401909452808452606093928301828280156129255780601f106128fa57610100808354040283529160200191612925565b820191906000526020600020905b81548152906001019060200180831161290857829003601f168201915b5050505050905060606129366122bc565b905080516000141561294a5750905061119c565b815115612a0b5780826040516020018083805190602001908083835b602083106129855780518252601f199092019160209182019101612966565b51815160209384036101000a600019018019909216911617905285519190930192850191508083835b602083106129cd5780518252601f1990920191602091820191016129ae565b6001836020036101000a038019825116818451168082178552505050505050905001925050506040516020818303038152906040529250505061119c565b80612a1585613b4a565b6040516020018083805190602001908083835b60208310612a475780518252601f199092019160209182019101612a28565b51815160209384036101000a600019018019909216911617905285519190930192850191508083835b60208310612a8f5780518252601f199092019160209182019101612a70565b6001836020036101000a0380198251168184511680821785525050505050509050019250505060405160208183030381529060405292505050919050565b60006002600b541415612b27576040805162461bcd60e51b815260206004820152601f60248201527f5265656e7472616e637947756172643a207265656e7472616e742063616c6c00604482015290519081900360640190fd5b6002600b55600d5460ff16612b83576040805162461bcd60e51b815260206004820152601d60248201527f4469737472696275746f723a2062757973206e6f7420616c6c6f776564000000604482015290519081900360640190fd5b60007f00000000000000000000000000000000000000000000000000000000000000006001600160a01b0316635caca7b48b8b8b8b8b8a8a6040518863ffffffff1660e01b815260040180886001600160a01b03168152602001876001600160a01b031681526020018681526020018561ffff1681526020018460ff168152602001806020018281038252848482818152602001925080828437600081840152601f19601f8201169050808301925050509850505050505050505060206040518083038186803b158015612c5657600080fd5b505afa158015612c6a573d6000803e3d6000fd5b505050506040513d6020811015612c8057600080fd5b5051600c54909150600090612caf908390612ca99061271090612ca39084613c59565b90613cb2565b90613d19565b905085811115612cf05760405162461bcd60e51b815260040180806020018281038252602d815260200180614913602d913960400191505060405180910390fd5b60006001600160a01b038b1673eeeeeeeeeeeeeeeeeeeeeeeeeeeeeeeeeeeeeeee1415612dfc5781341015612d565760405162461bcd60e51b8152600401808060200182810382526022815260200180614a4d6022913960400191505060405180910390fd5b6000612d6234846138de565b90508015612df357604051600090339083908381818185875af1925050503d8060008114612dac576040519150601f19603f3d011682016040523d82523d6000602084013e612db1565b606091505b5050905080612df15760405162461bcd60e51b81526004018080602001828103825260368152602001806149406036913960400191505060405180910390fd5b505b83915050612eb7565b8a612e126001600160a01b038216333086613a2a565b806001600160a01b031663095ea7b37f0000000000000000000000000000000000000000000000000000000000000000866040518363ffffffff1660e01b815260040180836001600160a01b0316815260200182815260200192505050602060405180830381600087803b158015612e8957600080fd5b505af1158015612e9d573d6000803e3d6000fd5b505050506040513d6020811015612eb357600080fd5b5050505b60007f00000000000000000000000000000000000000000000000000000000000000006001600160a01b03166304836c4a838f8f8f8f8f8e8e6040518963ffffffff1660e01b815260040180886001600160a01b03168152602001876001600160a01b031681526020018681526020018561ffff1681526020018460ff168152602001806020018281038252848482818152602001925080828437600081840152601f19601f820116905080830192505050985050505050505050506020604051808303818588803b158015612f8c57600080fd5b505af1158015612fa0573d6000803e3d6000fd5b50505050506040513d6020811015612fb757600080fd5b505190506000612fc784866138de565b90508015612fd957612fd9818e61393b565b612fe33383613d73565b8d6001600160a01b0316336001600160a01b0316837fa0105afc48bbd0c43e1c71d83dc1e02ae58388f3109943595b89e24a5ee1c365600c5489604051808381526020018281526020019250505060405180910390a4506001600b559c9b505050505050505050505050565b60008361305c33826134ff565b6130975760405162461bcd60e51b8152600401808060200182810382526022815260200180614ae46022913960400191505060405180910390fd5b60007f00000000000000000000000000000000000000000000000000000000000000006001600160a01b031663db3274918787876040518463ffffffff1660e01b815260040180848152602001806020018281038252848482818152602001925080828437600081840152601f19601f820116905080830192505050945050505050602060405180830381600087803b15801561313357600080fd5b505af1158015613147573d6000803e3d6000fd5b505050506040513d602081101561315d57600080fd5b50516040519091503390829088907f9fe11e531030a058803617055e27f9f4768236e4322e13b9c4c09f4338e23a6890600090a495945050505050565b600d5460ff1681565b7f000000000000000000000000000000000000000000000000000000000000000081565b7f000000000000000000000000000000000000000000000000000000000000000081565b6001600160a01b03918216600090815260056020908152604080832093909416825291909152205460ff1690565b7f000000000000000000000000000000000000000000000000000000000000000081565b6132456136fd565b6001600160a01b0316613256612518565b6001600160a01b0316146132b1576040805162461bcd60e51b815260206004820181905260248201527f4f776e61626c653a2063616c6c6572206973206e6f7420746865206f776e6572604482015290519081900360640190fd5b600d80546001600160a01b03909216610100027fffffffffffffffffffffff0000000000000000000000000000000000000000ff909216919091179055565b6132f86136fd565b6001600160a01b0316613309612518565b6001600160a01b031614613364576040805162461bcd60e51b815260206004820181905260248201527f4f776e61626c653a2063616c6c6572206973206e6f7420746865206f776e6572604482015290519081900360640190fd5b6001600160a01b0381166133a95760405162461bcd60e51b81526004018080602001828103825260268152602001806148ed6026913960400191505060405180910390fd5b600a546040516001600160a01b038084169216907f8be0079c531659141344cd1fd0a4f28419497f9722a3daafe3b4186f6b6457e090600090a3600a80547fffffffffffffffffffffffff0000000000000000000000000000000000000000166001600160a01b0392909216919091179055565b6000806000806000806000807f00000000000000000000000000000000000000000000000000000000000000006001600160a01b031663fd7b68a28a6040518263ffffffff1660e01b8152600401808281526020019150506101006040518083038186803b15801561348e57600080fd5b505afa1580156134a2573d6000803e3d6000fd5b505050506040513d6101008110156134b957600080fd5b508051602082015160408301516060840151608085015160a086015160c087015160e090970151959e50939c50919a509850965094509092509050919395975091939597565b600061350a826136f0565b6135455760405162461bcd60e51b815260040180806020018281038252602c8152602001806149c0602c913960400191505060405180910390fd5b600061355083612294565b9050806001600160a01b0316846001600160a01b0316148061358b5750836001600160a01b031661358084611237565b6001600160a01b0316145b8061359b575061359b81856131eb565b949350505050565b60006135ae82612294565b90506135bc8160008461136f565b6135c7600083613701565b60008281526008602052604090205460026000196101006001841615020190911604156136055760008281526008602052604081206136059161478b565b6001600160a01b03811660009081526001602052604090206136279083613ea1565b50613633600283613ead565b5060405182906000906001600160a01b038416907fddf252ad1be2c89b69c2b068fc378daa952ba7f163c4a11628f55a4df523b3ef908390a45050565b604080516001600160a01b038416602482015260448082018490528251808303909101815260649091019091526020810180517bffffffffffffffffffffffffffffffffffffffffffffffffffffffff167fa9059cbb0000000000000000000000000000000000000000000000000000000017905261136f908490613eb9565b6000611698600283613f6a565b3390565b600081815260046020526040902080547fffffffffffffffffffffffff0000000000000000000000000000000000000000166001600160a01b038416908117909155819061374e82612294565b6001600160a01b03167f8c5be1e5ebec7d5bd14f71427d1e84f3dd0314c0f7b2291e5b200ac8c7c3b92560405160405180910390a45050565b600061169882613f76565b826001600160a01b03166137a582612294565b6001600160a01b0316146137ea5760405162461bcd60e51b8152600401808060200182810382526029815260200180614b866029913960400191505060405180910390fd5b6001600160a01b03821661382f5760405162461bcd60e51b81526004018080602001828103825260248152602001806149766024913960400191505060405180910390fd5b61383a83838361136f565b613845600082613701565b6001600160a01b03831660009081526001602052604090206138679082613ea1565b506001600160a01b038216600090815260016020526040902061388a9082613f7a565b5061389760028284613f86565b5080826001600160a01b0316846001600160a01b03167fddf252ad1be2c89b69c2b068fc378daa952ba7f163c4a11628f55a4df523b3ef60405160405180910390a4505050565b600082821115613935576040805162461bcd60e51b815260206004820152601e60248201527f536166654d6174683a207375627472616374696f6e206f766572666c6f770000604482015290519081900360640190fd5b50900390565b6001600160a01b03811673eeeeeeeeeeeeeeeeeeeeeeeeeeeeeeeeeeeeeeee14156139fd57600d5460405160009161010090046001600160a01b03169084908381818185875af1925050503d80600081146139b2576040519150601f19603f3d011682016040523d82523d6000602084013e6139b7565b606091505b50509050806139f75760405162461bcd60e51b81526004018080602001828103825260288152602001806148936028913960400191505060405180910390fd5b50612630565b600d54819061136f906001600160a01b038084169161010090041685613670565b60006116958383613f9c565b604080516001600160a01b0380861660248301528416604482015260648082018490528251808303909101815260849091019091526020810180517bffffffffffffffffffffffffffffffffffffffffffffffffffffffff167f23b872dd00000000000000000000000000000000000000000000000000000000179052611f65908590613eb9565b6000808080613ac18686614000565b9097909650945050505050565b80516126309060099060208401906147cf565b6000613aee84848461407b565b90505b9392505050565b613b03848484613792565b613b0f84848484614145565b611f655760405162461bcd60e51b81526004018080602001828103825260328152602001806148bb6032913960400191505060405180910390fd5b606081613b8b575060408051808201909152600181527f3000000000000000000000000000000000000000000000000000000000000000602082015261119c565b8160005b8115613ba357600101600a82049150613b8f565b60608167ffffffffffffffff81118015613bbc57600080fd5b506040519080825280601f01601f191660200182016040528015613be7576020820181803683370190505b50859350905060001982015b8315613c5057600a840660300160f81b82828060019003935081518110613c1657fe5b60200101907effffffffffffffffffffffffffffffffffffffffffffffffffffffffffffff1916908160001a905350600a84049350613bf3565b50949350505050565b600082613c6857506000611698565b82820282848281613c7557fe5b04146116955760405162461bcd60e51b8152600401808060200182810382526021815260200180614b066021913960400191505060405180910390fd5b6000808211613d08576040805162461bcd60e51b815260206004820152601a60248201527f536166654d6174683a206469766973696f6e206279207a65726f000000000000604482015290519081900360640190fd5b818381613d1157fe5b049392505050565b600082820183811015611695576040805162461bcd60e51b815260206004820152601b60248201527f536166654d6174683a206164646974696f6e206f766572666c6f770000000000604482015290519081900360640190fd5b6001600160a01b038216613dce576040805162461bcd60e51b815260206004820181905260248201527f4552433732313a206d696e7420746f20746865207a65726f2061646472657373604482015290519081900360640190fd5b613dd7816136f0565b15613e29576040805162461bcd60e51b815260206004820152601c60248201527f4552433732313a20746f6b656e20616c7265616479206d696e74656400000000604482015290519081900360640190fd5b613e356000838361136f565b6001600160a01b0382166000908152600160205260409020613e579082613f7a565b50613e6460028284613f86565b5060405181906001600160a01b038416906000907fddf252ad1be2c89b69c2b068fc378daa952ba7f163c4a11628f55a4df523b3ef908290a45050565b60006116958383614321565b600061169583836143e7565b6060613f0e826040518060400160405280602081526020017f5361666545524332303a206c6f772d6c6576656c2063616c6c206661696c6564815250856001600160a01b03166144bb9092919063ffffffff16565b80519091501561136f57808060200190516020811015613f2d57600080fd5b505161136f5760405162461bcd60e51b815260040180806020018281038252602a815260200180614c55602a913960400191505060405180910390fd5b600061169583836144ca565b5490565b600061169583836144e2565b6000613aee84846001600160a01b03851661452c565b81546000908210613fde5760405162461bcd60e51b81526004018080602001828103825260228152602001806148716022913960400191505060405180910390fd5b826000018281548110613fed57fe5b9060005260206000200154905092915050565b8154600090819083106140445760405162461bcd60e51b8152600401808060200182810382526022815260200180614ac26022913960400191505060405180910390fd5b600084600001848154811061405557fe5b906000526020600020906002020190508060000154816001015492509250509250929050565b600082815260018401602052604081205482816141165760405162461bcd60e51b81526004018080602001828103825283818151815260200191508051906020019080838360005b838110156140db5781810151838201526020016140c3565b50505050905090810190601f1680156141085780820380516001836020036101000a031916815260200191505b509250505060405180910390fd5b5084600001600182038154811061412957fe5b9060005260206000209060020201600101549150509392505050565b6000614159846001600160a01b03166145c3565b6141655750600161359b565b60606142b67f150b7a02000000000000000000000000000000000000000000000000000000006141936136fd565b88878760405160240180856001600160a01b03168152602001846001600160a01b0316815260200183815260200180602001828103825283818151815260200191508051906020019080838360005b838110156141fa5781810151838201526020016141e2565b50505050905090810190601f1680156142275780820380516001836020036101000a031916815260200191505b5095505050505050604051602081830303815290604052907bffffffffffffffffffffffffffffffffffffffffffffffffffffffff19166020820180517bffffffffffffffffffffffffffffffffffffffffffffffffffffffff83818316178352505050506040518060600160405280603281526020016148bb603291396001600160a01b03881691906144bb565b905060008180602001905160208110156142cf57600080fd5b50517fffffffff00000000000000000000000000000000000000000000000000000000167f150b7a02000000000000000000000000000000000000000000000000000000001492505050949350505050565b600081815260018301602052604081205480156143dd578354600019808301919081019060009087908390811061435457fe5b906000526020600020015490508087600001848154811061437157fe5b6000918252602080832090910192909255828152600189810190925260409020908401905586548790806143a157fe5b60019003818190600052602060002001600090559055866001016000878152602001908152602001600020600090556001945050505050611698565b6000915050611698565b600081815260018301602052604081205480156143dd578354600019808301919081019060009087908390811061441a57fe5b906000526020600020906002020190508087600001848154811061443a57fe5b60009182526020808320845460029093020191825560019384015491840191909155835482528983019052604090209084019055865487908061447957fe5b60008281526020808220600260001990940193840201828155600190810183905592909355888152898201909252604082209190915594506116989350505050565b6060613aee84846000856145c9565b60009081526001919091016020526040902054151590565b60006144ee83836144ca565b61452457508154600181810184556000848152602080822090930184905584548482528286019093526040902091909155611698565b506000611698565b600082815260018401602052604081205480614591575050604080518082018252838152602080820184815286546001818101895560008981528481209551600290930290950191825591519082015586548684528188019092529290912055613af1565b828560000160018303815481106145a457fe5b9060005260206000209060020201600101819055506000915050613af1565b3b151590565b60608247101561460a5760405162461bcd60e51b815260040180806020018281038252602681526020018061499a6026913960400191505060405180910390fd5b614613856145c3565b614664576040805162461bcd60e51b815260206004820152601d60248201527f416464726573733a2063616c6c20746f206e6f6e2d636f6e7472616374000000604482015290519081900360640190fd5b60006060866001600160a01b031685876040518082805190602001908083835b602083106146a35780518252601f199092019160209182019101614684565b6001836020036101000a03801982511681845116808217855250505050505090500191505060006040518083038185875af1925050503d8060008114614705576040519150601f19603f3d011682016040523d82523d6000602084013e61470a565b606091505b509150915061471a828286614725565b979650505050505050565b60608315614734575081613af1565b8251156147445782518084602001fd5b60405162461bcd60e51b81526020600482018181528451602484015284518593919283926044019190850190808383600083156140db5781810151838201526020016140c3565b50805460018160011615610100020316600290046000825580601f106147b1575061227d565b601f01602090049060005260206000209081019061227d919061485b565b828054600181600116156101000203166002900490600052602060002090601f016020900481019282614805576000855561484b565b82601f1061481e57805160ff191683800117855561484b565b8280016001018555821561484b579182015b8281111561484b578251825591602001919060010190614830565b5061485792915061485b565b5090565b5b80821115614857576000815560010161485c56fe456e756d657261626c655365743a20696e646578206f7574206f6620626f756e64734469737472696275746f723a205472616e7366657220746f207472656173757279206661696c65644552433732313a207472616e7366657220746f206e6f6e20455243373231526563656976657220696d706c656d656e7465724f776e61626c653a206e6577206f776e657220697320746865207a65726f20616464726573734469737472696275746f723a20636f7665722070726963652077697468206665652065786365656473206d61784469737472696275746f723a2052657475726e696e67204554482072656d61696e64657220746f2073656e646572206661696c65642e4552433732313a207472616e7366657220746f20746865207a65726f2061646472657373416464726573733a20696e73756666696369656e742062616c616e636520666f722063616c6c4552433732313a206f70657261746f7220717565727920666f72206e6f6e6578697374656e7420746f6b656e4552433732313a20617070726f76652063616c6c6572206973206e6f74206f776e6572206e6f7220617070726f76656420666f7220616c6c4469737472696275746f723a205472616e7366657220746f204e4654206f776e6572206661696c65644469737472696275746f723a20496e73756666696369656e74204554482073656e744552433732313a2062616c616e636520717565727920666f7220746865207a65726f20616464726573734552433732313a206f776e657220717565727920666f72206e6f6e6578697374656e7420746f6b656e456e756d657261626c654d61703a20696e646578206f7574206f6620626f756e64734469737472696275746f723a204e6f7420617070726f766564206f72206f776e6572536166654d6174683a206d756c7469706c69636174696f6e206f766572666c6f774552433732313a20617070726f76656420717565727920666f72206e6f6e6578697374656e7420746f6b656e68747470733a2f2f6170702e627269676874756e696f6e2e696f2f696d672f6e6674732f6e657875732f636f7665722e706e674552433732313a207472616e73666572206f6620746f6b656e2074686174206973206e6f74206f776e4552433732314d657461646174613a2055524920717565727920666f72206e6f6e6578697374656e7420746f6b656e4469737472696275746f723a20636f766572496420636c61696d4964206d69736d617463684552433732313a20617070726f76616c20746f2063757272656e74206f776e65724552433732313a207472616e736665722063616c6c6572206973206e6f74206f776e6572206e6f7220617070726f7665645361666545524332303a204552433230206f7065726174696f6e20646964206e6f742073756363656564a264697066735822122019f5ef0e85ff4d105ec041a2ac3e28bf881bfee550a60c9e58f6d516c547072d64736f6c6343000704003368747470733a2f2f6170702e627269676874756e696f6e2e696f2f696d672f6e6674732f6e657875732f636f7665722e706e67",
  "immutableReferences": {
    "69": [
      {
        "length": 32,
        "start": 3686
      },
      {
        "length": 32,
        "start": 3899
      },
      {
        "length": 32,
        "start": 5991
      },
      {
        "length": 32,
        "start": 6508
      },
      {
        "length": 32,
        "start": 7116
      },
      {
        "length": 32,
        "start": 7342
      },
      {
        "length": 32,
        "start": 8208
      },
      {
        "length": 32,
        "start": 8415
      },
      {
        "length": 32,
        "start": 8538
      },
      {
        "length": 32,
        "start": 11143
      },
      {
        "length": 32,
        "start": 11811
      },
      {
        "length": 32,
        "start": 11963
      },
      {
        "length": 32,
        "start": 12443
      },
      {
        "length": 32,
        "start": 12709
      },
      {
        "length": 32,
        "start": 13355
      }
    ],
    "71": [
      {
        "length": 32,
        "start": 5447
      },
      {
        "length": 32,
        "start": 7878
      },
      {
        "length": 32,
        "start": 8161
      },
      {
        "length": 32,
        "start": 9737
      },
      {
        "length": 32,
        "start": 12745
      }
    ],
    "73": [
      {
        "length": 32,
        "start": 5204
      },
      {
        "length": 32,
        "start": 12827
      }
    ]
  },
  "source": "/* Copyright (C) 2021 NexusMutual.io\n\n  This program is free software: you can redistribute it and/or modify\n    it under the terms of the GNU General Public License as published by\n    the Free Software Foundation, either version 3 of the License, or\n    (at your option) any later version.\n\n  This program is distributed in the hope that it will be useful,\n    but WITHOUT ANY WARRANTY; without even the implied warranty of\n    MERCHANTABILITY or FITNESS FOR A PARTICULAR PURPOSE.  See the\n    GNU General Public License for more details.\n\n  You should have received a copy of the GNU General Public License\n    along with this program.  If not, see http://www.gnu.org/licenses/ */\n\npragma solidity ^0.7.4;\n\nimport \"@openzeppelin/contracts/token/ERC721/ERC721.sol\";\nimport \"@openzeppelin/contracts/token/ERC20/IERC20.sol\";\nimport \"@openzeppelin/contracts/token/ERC20/SafeERC20.sol\";\nimport \"@openzeppelin/contracts/access/Ownable.sol\";\nimport \"@openzeppelin/contracts/utils/ReentrancyGuard.sol\";\nimport \"@openzeppelin/contracts/math/SafeMath.sol\";\nimport \"./interfaces/ICover.sol\";\nimport \"./interfaces/IPool.sol\";\nimport \"./interfaces/INXMaster.sol\";\n\ncontract Distributor is ERC721, Ownable, ReentrancyGuard {\n  using SafeMath for uint;\n  using SafeERC20 for IERC20;\n\n  address public constant ETH = 0xEeeeeEeeeEeEeeEeEeEeeEEEeeeeEeeeeeeeEEeE;\n  string public constant DEFAULT_BASE_URI = \"https://app.brightunion.io/img/nfts/nexus/cover.png\";\n\n  event ClaimPayoutRedeemed (\n    uint indexed coverId,\n    uint indexed claimId,\n    address indexed receiver,\n    uint amountPaid,\n    address coverAsset\n  );\n\n  event ClaimSubmitted (\n    uint indexed coverId,\n    uint indexed claimId,\n    address indexed submitter\n  );\n\n  event CoverBought (\n    uint indexed coverId,\n    address indexed buyer,\n    address indexed contractAddress,\n    uint feePercentage,\n    uint coverPrice\n  );\n\n  /*\n   feePercentage applied to every cover premium. has 2 decimals. eg.: 10.00% stored as 1000\n  */\n  uint public feePercentage;\n  bool public buysAllowed = true;\n  /*\n    address where `buyCover` distributor fees and `ethOut` from `sellNXM` are sent. Controlled by Owner.\n  */\n  address payable public treasury;\n\n  /*\n    NexusMutual contracts\n  */\n  ICover immutable public cover;\n  IERC20 immutable public nxmToken;\n  INXMaster immutable public master;\n\n  modifier onlyTokenApprovedOrOwner(uint256 tokenId) {\n    require(_isApprovedOrOwner(msg.sender, tokenId), \"Distributor: Not approved or owner\");\n    _;\n  }\n\n  constructor(\n    address coverAddress,\n    address nxmTokenAddress,\n    address masterAddress,\n    uint _feePercentage,\n    address payable _treasury,\n    string memory tokenName,\n    string memory tokenSymbol\n  )\n  ERC721(tokenName, tokenSymbol)\n  public\n  {\n    _setBaseURI(DEFAULT_BASE_URI);\n    feePercentage = _feePercentage;\n    treasury = _treasury;\n    cover = ICover(coverAddress);\n    nxmToken = IERC20(nxmTokenAddress);\n    master = INXMaster(masterAddress);\n  }\n\n  /**\n  * @dev buy cover for a coverable identified by its contractAddress\n  * @param contractAddress contract address of coverable\n  * @param coverAsset asset of the premium and of the sum assured.\n  * @param sumAssured amount payable if claim is submitted and considered valid\n  * @param coverType cover type dermining how the data parameter is decoded\n  * @param maxPriceWithFee max price (including fee) to be spent on the cover.\n  * @param data abi-encoded field with additional cover data fields\n  * @return token id\n  */\n  function buyCover (\n    address contractAddress,\n    address coverAsset,\n    uint sumAssured,\n    uint16 coverPeriod,\n    uint8 coverType,\n    uint maxPriceWithFee,\n    bytes calldata data\n  )\n  external\n  payable\n  nonReentrant\n  returns (uint)\n  {\n    require(buysAllowed, \"Distributor: buys not allowed\");\n\n    uint coverPrice = cover.getCoverPrice(contractAddress, coverAsset, sumAssured, coverPeriod, coverType, data);\n    uint coverPriceWithFee = feePercentage.mul(coverPrice).div(10000).add(coverPrice);\n    require(coverPriceWithFee <= maxPriceWithFee, \"Distributor: cover price with fee exceeds max\");\n\n    uint buyCoverValue = 0;\n    if (coverAsset == ETH) {\n      require(msg.value >= coverPriceWithFee, \"Distributor: Insufficient ETH sent\");\n      uint remainder = msg.value.sub(coverPriceWithFee);\n\n      if (remainder > 0) {\n        // solhint-disable-next-line avoid-low-level-calls\n        (bool ok, /* data */) = address(msg.sender).call{value: remainder}(\"\");\n        require(ok, \"Distributor: Returning ETH remainder to sender failed.\");\n      }\n\n      buyCoverValue = coverPrice;\n    } else {\n      IERC20 token = IERC20(coverAsset);\n      // assumes 'msg.sender' has approved 'coverPriceWithFee' to this Contract\n      token.safeTransferFrom(msg.sender, address(this), coverPriceWithFee);\n      // what if the token already has some approved amount?\n      token.approve(address(cover), coverPrice);\n    }\n\n    uint coverId = cover.buyCover{value: buyCoverValue }(\n      contractAddress,\n      coverAsset,\n      sumAssured,\n      coverPeriod,\n      coverType,\n      data\n    );\n\n    uint fee = coverPriceWithFee.sub(coverPrice);\n    if (fee > 0) {\n      transferToTreasury(fee, coverAsset);\n    }\n\n    // mint token using the coverId as a tokenId (guaranteed unique)\n    _mint(msg.sender, coverId);\n\n    emit CoverBought(coverId, msg.sender, contractAddress, feePercentage, coverPrice);\n    return coverId;\n  }\n\n  /**\n  * @notice Submit a claim for the cover\n  * @param tokenId cover token id\n  * @param data abi-encoded field with additional claim data fields\n  */\n  function submitClaim(\n    uint tokenId,\n    bytes calldata data\n  )\n  external\n  onlyTokenApprovedOrOwner(tokenId)\n  returns (uint)\n  {\n    // coverId = tokenId\n    uint claimId = cover.submitClaim(tokenId, data);\n    emit ClaimSubmitted(tokenId, claimId, msg.sender);\n    return claimId;\n  }\n\n  /**\n  * @notice Redeem the claim to the cover. Requires that that the payout is completed.\n  * @param tokenId cover token id\n  */\n  function redeemClaim(\n    uint256 tokenId,\n    uint claimId\n  )\n  public\n  onlyTokenApprovedOrOwner(tokenId)\n  nonReentrant\n  {\n    uint coverId = cover.getClaimCoverId(claimId);\n    require(coverId == tokenId, \"Distributor: coverId claimId mismatch\");\n    (ICover.ClaimStatus status, uint amountPaid, address coverAsset) = cover.getPayoutOutcome(claimId);\n    require(status == ICover.ClaimStatus.ACCEPTED, \"Distributor: Claim not accepted\");\n\n    _burn(tokenId);\n    if (coverAsset == ETH) {\n      (bool ok, /* data */) = msg.sender.call{value: amountPaid}(\"\");\n      require(ok, \"Distributor: Transfer to NFT owner failed\");\n    } else {\n      IERC20 erc20 = IERC20(coverAsset);\n      erc20.safeTransfer(msg.sender, amountPaid);\n    }\n\n    emit ClaimPayoutRedeemed(tokenId, claimId, msg.sender, amountPaid, coverAsset);\n  }\n\n  /**\n  * @notice Execute an action on specific cover token. The action is identified by an `action` id.\n      Allows for an ETH transfer or an ERC20 transfer.\n      If less than the supplied assetAmount is needed, it is returned to `msg.sender`.\n  * @dev The purpose of this function is future-proofing for updates to the cover buy->claim cycle.\n  * @param tokenId id of the cover token\n  * @param assetAmount optional asset amount to be transferred along with the action executed\n  * @param asset optional asset to be transferred along with the action executed\n  * @param action action identifier\n  * @param data abi-encoded field with action parameters\n  * @return response (abi-encoded response, amount withheld from the original asset amount supplied)\n  */\n  function executeCoverAction(uint tokenId, uint assetAmount, address asset, uint8 action, bytes calldata data)\n  external\n  payable\n  onlyTokenApprovedOrOwner(tokenId)\n  nonReentrant\n  returns (bytes memory response, uint withheldAmount)\n  {\n    if (assetAmount == 0) {\n      return cover.executeCoverAction(tokenId, action, data);\n    }\n    if (asset == ETH) {\n      require(msg.value >= assetAmount, \"Distributor: Insufficient ETH sent\");\n      (response, withheldAmount) = cover.executeCoverAction{ value: msg.value }(tokenId, action, data);\n      uint remainder = assetAmount.sub(withheldAmount);\n      (bool ok, /* data */) = address(msg.sender).call{value: remainder}(\"\");\n      require(ok, \"Distributor: Returning ETH remainder to sender failed.\");\n      return (response, withheldAmount);\n    }\n\n    IERC20 token = IERC20(asset);\n    token.safeTransferFrom(msg.sender, address(this), assetAmount);\n    token.approve(address(cover), assetAmount);\n    (response, withheldAmount) = cover.executeCoverAction(tokenId, action, data);\n    uint remainder = assetAmount.sub(withheldAmount);\n    token.safeTransfer(msg.sender, remainder);\n    return (response, withheldAmount);\n  }\n\n  /**\n  * @notice get cover data\n  * @param tokenId cover token id\n  */\n  function getCover(uint tokenId)\n  public\n  view\n  returns (\n    uint8 status,\n    uint sumAssured,\n    uint16 coverPeriod,\n    uint validUntil,\n    address contractAddress,\n    address coverAsset,\n    uint premiumInNXM,\n    address memberAddress\n  ) {\n    return cover.getCover(tokenId);\n  }\n\n  /**\n  * @notice get state of a claim payout. Returns\n  * status of cover,  amount paid as part of the payout, address of the cover asset)\n  * @param claimId id of claim\n  */\n  function getPayoutOutcome(uint claimId)\n  public\n  view\n  returns (ICover.ClaimStatus status, uint amountPaid, address coverAsset)\n  {\n    (status, amountPaid, coverAsset) = cover.getPayoutOutcome(claimId);\n  }\n\n  /**\n  * @notice Set `amount` as the allowance of `spender` over the distributor's NXM tokens.\n  * @param spender approved spender\n  * @param amount amount approved\n  */\n  function approveNXM(address spender, uint256 amount) public onlyOwner {\n    nxmToken.approve(spender, amount);\n  }\n\n  /**\n  * @notice Moves `amount` tokens from the distributor to `recipient`.\n  * @param recipient recipient of NXM\n  * @param amount amount of NXM\n  */\n  function withdrawNXM(address recipient, uint256 amount) public onlyOwner {\n    nxmToken.safeTransfer(recipient, amount);\n  }\n\n  /**\n  * @notice Switch NexusMutual membership to `newAddress`.\n  * @param newAddress address\n  */\n  function switchMembership(address newAddress) external onlyOwner {\n    nxmToken.approve(address(cover), uint(-1));\n    cover.switchMembership(newAddress);\n  }\n\n  /**\n  * @notice Sell Distributor-owned NXM tokens for ETH\n  * @param nxmIn Amount of NXM to sell\n  * @param minEthOut minimum expected Eth received\n  */\n  function sellNXM(uint nxmIn, uint minEthOut) external onlyOwner {\n\n    address poolAddress = master.getLatestAddress(\"P1\");\n    nxmToken.approve(poolAddress, nxmIn);\n    uint balanceBefore = address(this).balance;\n    IPool(poolAddress).sellNXM(nxmIn, minEthOut);\n    uint balanceAfter = address(this).balance;\n\n    transferToTreasury(balanceAfter.sub(balanceBefore), ETH);\n  }\n\n  /**\n  * @notice Set if buyCover calls are allowed (true) or not (false).\n  * @param _buysAllowed value set for buysAllowed\n  */\n  function setBuysAllowed(bool _buysAllowed) external onlyOwner {\n    buysAllowed = _buysAllowed;\n  }\n\n  /**\n  * @notice Set treasury address where `buyCover` distributor fees and `ethOut` from `sellNXM` are sent.\n  * @param _treasury new treasury address\n  */\n  function setTreasury(address payable _treasury) external onlyOwner {\n    treasury = _treasury;\n  }\n\n  /**\n  * @notice Send `amount` of `asset`  to treasury address\n  * @param amount amount of asset\n  * @param asset ERC20 token address or ETH\n  */\n  function transferToTreasury(uint amount, address asset) internal {\n    if (asset == ETH) {\n      (bool ok, /* data */) = treasury.call{value: amount}(\"\");\n      require(ok, \"Distributor: Transfer to treasury failed\");\n    } else {\n      IERC20 erc20 = IERC20(asset);\n      erc20.safeTransfer(treasury, amount);\n    }\n  }\n\n  /**\n  * @notice Set fee percentage for buyCover premiums.\n  *  `_feePercentage` has 2 decimals of precision ( 5000 is 50%)\n  * @param _feePercentage fee percentage to be set\n  */\n  function setFeePercentage(uint _feePercentage) external onlyOwner {\n    feePercentage = _feePercentage;\n  }\n\n  /**\n  * @dev required to be allow for receiving ETH claim payouts\n  */\n  receive () payable external {\n  }\n\n  /**\n  * @dev Function to set the base URI for all token IDs. It is\n  * automatically added as a prefix to the value returned in {tokenURI},\n  * or to the token ID if {tokenURI} is empty.\n  */\n  function setBaseURI(string memory baseURI_) public onlyOwner {\n      _setBaseURI(baseURI_);\n  }\n}\n",
  "sourcePath": "/Users/ricardopinto/work/brightunion/distributors/contracts/nexus/Distributor.sol",
  "compiler": {
    "name": "solc",
    "version": "0.7.4+commit.3f05b770.Emscripten.clang"
  },
  "schemaVersion": "3.4.0",
  "updatedAt": "2021-05-03T14:16:39.741Z",
  "devdoc": {
    "kind": "dev",
    "methods": {
      "approve(address,uint256)": {
        "details": "See {IERC721-approve}."
      },
      "approveNXM(address,uint256)": {
        "params": {
          "amount": "amount approved",
          "spender": "approved spender"
        }
      },
      "balanceOf(address)": {
        "details": "See {IERC721-balanceOf}."
      },
      "baseURI()": {
        "details": "Returns the base URI set via {_setBaseURI}. This will be automatically added as a prefix in {tokenURI} to each token's URI, or to the token ID if no specific URI is set for that token ID."
      },
      "buyCover(address,address,uint256,uint16,uint8,uint256,bytes)": {
        "details": "buy cover for a coverable identified by its contractAddress",
        "params": {
          "contractAddress": "contract address of coverable",
          "coverAsset": "asset of the premium and of the sum assured.",
          "coverType": "cover type dermining how the data parameter is decoded",
          "data": "abi-encoded field with additional cover data fields",
          "maxPriceWithFee": "max price (including fee) to be spent on the cover.",
          "sumAssured": "amount payable if claim is submitted and considered valid"
        },
        "returns": {
          "_0": "token id"
        }
      },
      "executeCoverAction(uint256,uint256,address,uint8,bytes)": {
        "details": "The purpose of this function is future-proofing for updates to the cover buy->claim cycle.",
        "params": {
          "action": "action identifier",
          "asset": "optional asset to be transferred along with the action executed",
          "assetAmount": "optional asset amount to be transferred along with the action executed",
          "data": "abi-encoded field with action parameters",
          "tokenId": "id of the cover token"
        },
        "returns": {
          "response": "(abi-encoded response, amount withheld from the original asset amount supplied)"
        }
      },
      "getApproved(uint256)": {
        "details": "See {IERC721-getApproved}."
      },
      "getCover(uint256)": {
        "params": {
          "tokenId": "cover token id"
        }
      },
      "getPayoutOutcome(uint256)": {
        "params": {
          "claimId": "id of claim"
        }
      },
      "isApprovedForAll(address,address)": {
        "details": "See {IERC721-isApprovedForAll}."
      },
      "name()": {
        "details": "See {IERC721Metadata-name}."
      },
      "owner()": {
        "details": "Returns the address of the current owner."
      },
      "ownerOf(uint256)": {
        "details": "See {IERC721-ownerOf}."
      },
      "redeemClaim(uint256,uint256)": {
        "params": {
          "tokenId": "cover token id"
        }
      },
      "renounceOwnership()": {
        "details": "Leaves the contract without owner. It will not be possible to call `onlyOwner` functions anymore. Can only be called by the current owner. NOTE: Renouncing ownership will leave the contract without an owner, thereby removing any functionality that is only available to the owner."
      },
      "safeTransferFrom(address,address,uint256)": {
        "details": "See {IERC721-safeTransferFrom}."
      },
      "safeTransferFrom(address,address,uint256,bytes)": {
        "details": "See {IERC721-safeTransferFrom}."
      },
      "sellNXM(uint256,uint256)": {
        "params": {
          "minEthOut": "minimum expected Eth received",
          "nxmIn": "Amount of NXM to sell"
        }
      },
      "setApprovalForAll(address,bool)": {
        "details": "See {IERC721-setApprovalForAll}."
      },
      "setBaseURI(string)": {
        "details": "Function to set the base URI for all token IDs. It is automatically added as a prefix to the value returned in {tokenURI}, or to the token ID if {tokenURI} is empty."
      },
      "setBuysAllowed(bool)": {
        "params": {
          "_buysAllowed": "value set for buysAllowed"
        }
      },
      "setFeePercentage(uint256)": {
        "params": {
          "_feePercentage": "fee percentage to be set"
        }
      },
      "setTreasury(address)": {
        "params": {
          "_treasury": "new treasury address"
        }
      },
      "submitClaim(uint256,bytes)": {
        "params": {
          "data": "abi-encoded field with additional claim data fields",
          "tokenId": "cover token id"
        }
      },
      "supportsInterface(bytes4)": {
        "details": "See {IERC165-supportsInterface}. Time complexity O(1), guaranteed to always use less than 30 000 gas."
      },
      "switchMembership(address)": {
        "params": {
          "newAddress": "address"
        }
      },
      "symbol()": {
        "details": "See {IERC721Metadata-symbol}."
      },
      "tokenByIndex(uint256)": {
        "details": "See {IERC721Enumerable-tokenByIndex}."
      },
      "tokenOfOwnerByIndex(address,uint256)": {
        "details": "See {IERC721Enumerable-tokenOfOwnerByIndex}."
      },
      "tokenURI(uint256)": {
        "details": "See {IERC721Metadata-tokenURI}."
      },
      "totalSupply()": {
        "details": "See {IERC721Enumerable-totalSupply}."
      },
      "transferFrom(address,address,uint256)": {
        "details": "See {IERC721-transferFrom}."
      },
      "transferOwnership(address)": {
        "details": "Transfers ownership of the contract to a new account (`newOwner`). Can only be called by the current owner."
      },
      "withdrawNXM(address,uint256)": {
        "params": {
          "amount": "amount of NXM",
          "recipient": "recipient of NXM"
        }
      }
    },
    "version": 1
  },
  "userdoc": {
    "kind": "user",
    "methods": {
      "approveNXM(address,uint256)": {
        "notice": "Set `amount` as the allowance of `spender` over the distributor's NXM tokens."
      },
      "executeCoverAction(uint256,uint256,address,uint8,bytes)": {
        "notice": "Execute an action on specific cover token. The action is identified by an `action` id. Allows for an ETH transfer or an ERC20 transfer. If less than the supplied assetAmount is needed, it is returned to `msg.sender`."
      },
      "getCover(uint256)": {
        "notice": "get cover data"
      },
      "getPayoutOutcome(uint256)": {
        "notice": "get state of a claim payout. Returns status of cover,  amount paid as part of the payout, address of the cover asset)"
      },
      "redeemClaim(uint256,uint256)": {
        "notice": "Redeem the claim to the cover. Requires that that the payout is completed."
      },
      "sellNXM(uint256,uint256)": {
        "notice": "Sell Distributor-owned NXM tokens for ETH"
      },
      "setBuysAllowed(bool)": {
        "notice": "Set if buyCover calls are allowed (true) or not (false)."
      },
      "setFeePercentage(uint256)": {
        "notice": "Set fee percentage for buyCover premiums.  `_feePercentage` has 2 decimals of precision ( 5000 is 50%)"
      },
      "setTreasury(address)": {
        "notice": "Set treasury address where `buyCover` distributor fees and `ethOut` from `sellNXM` are sent."
      },
      "submitClaim(uint256,bytes)": {
        "notice": "Submit a claim for the cover"
      },
      "switchMembership(address)": {
        "notice": "Switch NexusMutual membership to `newAddress`."
      },
      "withdrawNXM(address,uint256)": {
        "notice": "Moves `amount` tokens from the distributor to `recipient`."
      }
    },
    "version": 1
  }
}