{
  "contractName": "Distributor",
  "abi": [
    {
      "inputs": [
        {
          "internalType": "address",
          "name": "coverAddress",
          "type": "address"
        },
        {
          "internalType": "address",
          "name": "nxmTokenAddress",
          "type": "address"
        },
        {
          "internalType": "address",
          "name": "masterAddress",
          "type": "address"
        },
        {
          "internalType": "uint256",
          "name": "_feePercentage",
          "type": "uint256"
        },
        {
          "internalType": "address payable",
          "name": "_treasury",
          "type": "address"
        },
        {
          "internalType": "string",
          "name": "tokenName",
          "type": "string"
        },
        {
          "internalType": "string",
          "name": "tokenSymbol",
          "type": "string"
        }
      ],
      "stateMutability": "nonpayable",
      "type": "constructor"
    },
    {
      "anonymous": false,
      "inputs": [
        {
          "indexed": true,
          "internalType": "address",
          "name": "owner",
          "type": "address"
        },
        {
          "indexed": true,
          "internalType": "address",
          "name": "approved",
          "type": "address"
        },
        {
          "indexed": true,
          "internalType": "uint256",
          "name": "tokenId",
          "type": "uint256"
        }
      ],
      "name": "Approval",
      "type": "event"
    },
    {
      "anonymous": false,
      "inputs": [
        {
          "indexed": true,
          "internalType": "address",
          "name": "owner",
          "type": "address"
        },
        {
          "indexed": true,
          "internalType": "address",
          "name": "operator",
          "type": "address"
        },
        {
          "indexed": false,
          "internalType": "bool",
          "name": "approved",
          "type": "bool"
        }
      ],
      "name": "ApprovalForAll",
      "type": "event"
    },
    {
      "anonymous": false,
      "inputs": [
        {
          "indexed": true,
          "internalType": "uint256",
          "name": "coverId",
          "type": "uint256"
        },
        {
          "indexed": true,
          "internalType": "uint256",
          "name": "claimId",
          "type": "uint256"
        },
        {
          "indexed": true,
          "internalType": "address",
          "name": "receiver",
          "type": "address"
        },
        {
          "indexed": false,
          "internalType": "uint256",
          "name": "amountPaid",
          "type": "uint256"
        },
        {
          "indexed": false,
          "internalType": "address",
          "name": "coverAsset",
          "type": "address"
        }
      ],
      "name": "ClaimPayoutRedeemed",
      "type": "event"
    },
    {
      "anonymous": false,
      "inputs": [
        {
          "indexed": true,
          "internalType": "uint256",
          "name": "coverId",
          "type": "uint256"
        },
        {
          "indexed": true,
          "internalType": "uint256",
          "name": "claimId",
          "type": "uint256"
        },
        {
          "indexed": true,
          "internalType": "address",
          "name": "submitter",
          "type": "address"
        }
      ],
      "name": "ClaimSubmitted",
      "type": "event"
    },
    {
      "anonymous": false,
      "inputs": [
        {
          "indexed": true,
          "internalType": "uint256",
          "name": "coverId",
          "type": "uint256"
        },
        {
          "indexed": true,
          "internalType": "address",
          "name": "buyer",
          "type": "address"
        },
        {
          "indexed": true,
          "internalType": "address",
          "name": "contractAddress",
          "type": "address"
        },
        {
          "indexed": false,
          "internalType": "uint256",
          "name": "feePercentage",
          "type": "uint256"
        },
        {
          "indexed": false,
          "internalType": "uint256",
          "name": "coverPrice",
          "type": "uint256"
        }
      ],
      "name": "CoverBought",
      "type": "event"
    },
    {
      "anonymous": false,
      "inputs": [
        {
          "indexed": true,
          "internalType": "address",
          "name": "previousOwner",
          "type": "address"
        },
        {
          "indexed": true,
          "internalType": "address",
          "name": "newOwner",
          "type": "address"
        }
      ],
      "name": "OwnershipTransferred",
      "type": "event"
    },
    {
      "anonymous": false,
      "inputs": [
        {
          "indexed": true,
          "internalType": "address",
          "name": "from",
          "type": "address"
        },
        {
          "indexed": true,
          "internalType": "address",
          "name": "to",
          "type": "address"
        },
        {
          "indexed": true,
          "internalType": "uint256",
          "name": "tokenId",
          "type": "uint256"
        }
      ],
      "name": "Transfer",
      "type": "event"
    },
    {
      "inputs": [],
      "name": "ETH",
      "outputs": [
        {
          "internalType": "address",
          "name": "",
          "type": "address"
        }
      ],
      "stateMutability": "view",
      "type": "function"
    },
    {
      "inputs": [
        {
          "internalType": "address",
          "name": "to",
          "type": "address"
        },
        {
          "internalType": "uint256",
          "name": "tokenId",
          "type": "uint256"
        }
      ],
      "name": "approve",
      "outputs": [],
      "stateMutability": "nonpayable",
      "type": "function"
    },
    {
      "inputs": [
        {
          "internalType": "address",
          "name": "owner",
          "type": "address"
        }
      ],
      "name": "balanceOf",
      "outputs": [
        {
          "internalType": "uint256",
          "name": "",
          "type": "uint256"
        }
      ],
      "stateMutability": "view",
      "type": "function"
    },
    {
      "inputs": [],
      "name": "baseURI",
      "outputs": [
        {
          "internalType": "string",
          "name": "",
          "type": "string"
        }
      ],
      "stateMutability": "view",
      "type": "function"
    },
    {
      "inputs": [],
      "name": "buysAllowed",
      "outputs": [
        {
          "internalType": "bool",
          "name": "",
          "type": "bool"
        }
      ],
      "stateMutability": "view",
      "type": "function"
    },
    {
      "inputs": [],
      "name": "cover",
      "outputs": [
        {
          "internalType": "contract ICover",
          "name": "",
          "type": "address"
        }
      ],
      "stateMutability": "view",
      "type": "function"
    },
    {
      "inputs": [],
      "name": "feePercentage",
      "outputs": [
        {
          "internalType": "uint256",
          "name": "",
          "type": "uint256"
        }
      ],
      "stateMutability": "view",
      "type": "function"
    },
    {
      "inputs": [
        {
          "internalType": "uint256",
          "name": "tokenId",
          "type": "uint256"
        }
      ],
      "name": "getApproved",
      "outputs": [
        {
          "internalType": "address",
          "name": "",
          "type": "address"
        }
      ],
      "stateMutability": "view",
      "type": "function"
    },
    {
      "inputs": [
        {
          "internalType": "address",
          "name": "owner",
          "type": "address"
        },
        {
          "internalType": "address",
          "name": "operator",
          "type": "address"
        }
      ],
      "name": "isApprovedForAll",
      "outputs": [
        {
          "internalType": "bool",
          "name": "",
          "type": "bool"
        }
      ],
      "stateMutability": "view",
      "type": "function"
    },
    {
      "inputs": [],
      "name": "master",
      "outputs": [
        {
          "internalType": "contract INXMaster",
          "name": "",
          "type": "address"
        }
      ],
      "stateMutability": "view",
      "type": "function"
    },
    {
      "inputs": [],
      "name": "name",
      "outputs": [
        {
          "internalType": "string",
          "name": "",
          "type": "string"
        }
      ],
      "stateMutability": "view",
      "type": "function"
    },
    {
      "inputs": [],
      "name": "nxmToken",
      "outputs": [
        {
          "internalType": "contract IERC20",
          "name": "",
          "type": "address"
        }
      ],
      "stateMutability": "view",
      "type": "function"
    },
    {
      "inputs": [],
      "name": "owner",
      "outputs": [
        {
          "internalType": "address",
          "name": "",
          "type": "address"
        }
      ],
      "stateMutability": "view",
      "type": "function"
    },
    {
      "inputs": [
        {
          "internalType": "uint256",
          "name": "tokenId",
          "type": "uint256"
        }
      ],
      "name": "ownerOf",
      "outputs": [
        {
          "internalType": "address",
          "name": "",
          "type": "address"
        }
      ],
      "stateMutability": "view",
      "type": "function"
    },
    {
      "inputs": [],
      "name": "renounceOwnership",
      "outputs": [],
      "stateMutability": "nonpayable",
      "type": "function"
    },
    {
      "inputs": [
        {
          "internalType": "address",
          "name": "from",
          "type": "address"
        },
        {
          "internalType": "address",
          "name": "to",
          "type": "address"
        },
        {
          "internalType": "uint256",
          "name": "tokenId",
          "type": "uint256"
        }
      ],
      "name": "safeTransferFrom",
      "outputs": [],
      "stateMutability": "nonpayable",
      "type": "function"
    },
    {
      "inputs": [
        {
          "internalType": "address",
          "name": "from",
          "type": "address"
        },
        {
          "internalType": "address",
          "name": "to",
          "type": "address"
        },
        {
          "internalType": "uint256",
          "name": "tokenId",
          "type": "uint256"
        },
        {
          "internalType": "bytes",
          "name": "_data",
          "type": "bytes"
        }
      ],
      "name": "safeTransferFrom",
      "outputs": [],
      "stateMutability": "nonpayable",
      "type": "function"
    },
    {
      "inputs": [
        {
          "internalType": "address",
          "name": "operator",
          "type": "address"
        },
        {
          "internalType": "bool",
          "name": "approved",
          "type": "bool"
        }
      ],
      "name": "setApprovalForAll",
      "outputs": [],
      "stateMutability": "nonpayable",
      "type": "function"
    },
    {
      "inputs": [
        {
          "internalType": "bytes4",
          "name": "interfaceId",
          "type": "bytes4"
        }
      ],
      "name": "supportsInterface",
      "outputs": [
        {
          "internalType": "bool",
          "name": "",
          "type": "bool"
        }
      ],
      "stateMutability": "view",
      "type": "function"
    },
    {
      "inputs": [],
      "name": "symbol",
      "outputs": [
        {
          "internalType": "string",
          "name": "",
          "type": "string"
        }
      ],
      "stateMutability": "view",
      "type": "function"
    },
    {
      "inputs": [
        {
          "internalType": "uint256",
          "name": "index",
          "type": "uint256"
        }
      ],
      "name": "tokenByIndex",
      "outputs": [
        {
          "internalType": "uint256",
          "name": "",
          "type": "uint256"
        }
      ],
      "stateMutability": "view",
      "type": "function"
    },
    {
      "inputs": [
        {
          "internalType": "address",
          "name": "owner",
          "type": "address"
        },
        {
          "internalType": "uint256",
          "name": "index",
          "type": "uint256"
        }
      ],
      "name": "tokenOfOwnerByIndex",
      "outputs": [
        {
          "internalType": "uint256",
          "name": "",
          "type": "uint256"
        }
      ],
      "stateMutability": "view",
      "type": "function"
    },
    {
      "inputs": [
        {
          "internalType": "uint256",
          "name": "tokenId",
          "type": "uint256"
        }
      ],
      "name": "tokenURI",
      "outputs": [
        {
          "internalType": "string",
          "name": "",
          "type": "string"
        }
      ],
      "stateMutability": "view",
      "type": "function"
    },
    {
      "inputs": [],
      "name": "totalSupply",
      "outputs": [
        {
          "internalType": "uint256",
          "name": "",
          "type": "uint256"
        }
      ],
      "stateMutability": "view",
      "type": "function"
    },
    {
      "inputs": [
        {
          "internalType": "address",
          "name": "from",
          "type": "address"
        },
        {
          "internalType": "address",
          "name": "to",
          "type": "address"
        },
        {
          "internalType": "uint256",
          "name": "tokenId",
          "type": "uint256"
        }
      ],
      "name": "transferFrom",
      "outputs": [],
      "stateMutability": "nonpayable",
      "type": "function"
    },
    {
      "inputs": [
        {
          "internalType": "address",
          "name": "newOwner",
          "type": "address"
        }
      ],
      "name": "transferOwnership",
      "outputs": [],
      "stateMutability": "nonpayable",
      "type": "function"
    },
    {
      "inputs": [],
      "name": "treasury",
      "outputs": [
        {
          "internalType": "address payable",
          "name": "",
          "type": "address"
        }
      ],
      "stateMutability": "view",
      "type": "function"
    },
    {
      "stateMutability": "payable",
      "type": "receive"
    },
    {
      "inputs": [
        {
          "internalType": "address",
          "name": "contractAddress",
          "type": "address"
        },
        {
          "internalType": "address",
          "name": "coverAsset",
          "type": "address"
        },
        {
          "internalType": "uint256",
          "name": "sumAssured",
          "type": "uint256"
        },
        {
          "internalType": "uint16",
          "name": "coverPeriod",
          "type": "uint16"
        },
        {
          "internalType": "uint8",
          "name": "coverType",
          "type": "uint8"
        },
        {
          "internalType": "uint256",
          "name": "maxPriceWithFee",
          "type": "uint256"
        },
        {
          "internalType": "bytes",
          "name": "data",
          "type": "bytes"
        }
      ],
      "name": "buyCover",
      "outputs": [
        {
          "internalType": "uint256",
          "name": "",
          "type": "uint256"
        }
      ],
      "stateMutability": "payable",
      "type": "function"
    },
    {
      "inputs": [
        {
          "internalType": "uint256",
          "name": "tokenId",
          "type": "uint256"
        },
        {
          "internalType": "bytes",
          "name": "data",
          "type": "bytes"
        }
      ],
      "name": "submitClaim",
      "outputs": [
        {
          "internalType": "uint256",
          "name": "",
          "type": "uint256"
        }
      ],
      "stateMutability": "nonpayable",
      "type": "function"
    },
    {
      "inputs": [
        {
          "internalType": "uint256",
          "name": "tokenId",
          "type": "uint256"
        },
        {
          "internalType": "uint256",
          "name": "claimId",
          "type": "uint256"
        }
      ],
      "name": "redeemClaim",
      "outputs": [],
      "stateMutability": "nonpayable",
      "type": "function"
    },
    {
      "inputs": [
        {
          "internalType": "uint256",
          "name": "tokenId",
          "type": "uint256"
        },
        {
          "internalType": "uint256",
          "name": "assetAmount",
          "type": "uint256"
        },
        {
          "internalType": "address",
          "name": "asset",
          "type": "address"
        },
        {
          "internalType": "uint8",
          "name": "action",
          "type": "uint8"
        },
        {
          "internalType": "bytes",
          "name": "data",
          "type": "bytes"
        }
      ],
      "name": "executeCoverAction",
      "outputs": [
        {
          "internalType": "bytes",
          "name": "response",
          "type": "bytes"
        },
        {
          "internalType": "uint256",
          "name": "withheldAmount",
          "type": "uint256"
        }
      ],
      "stateMutability": "payable",
      "type": "function"
    },
    {
      "inputs": [
        {
          "internalType": "uint256",
          "name": "tokenId",
          "type": "uint256"
        }
      ],
      "name": "getCover",
      "outputs": [
        {
          "internalType": "uint8",
          "name": "status",
          "type": "uint8"
        },
        {
          "internalType": "uint256",
          "name": "sumAssured",
          "type": "uint256"
        },
        {
          "internalType": "uint16",
          "name": "coverPeriod",
          "type": "uint16"
        },
        {
          "internalType": "uint256",
          "name": "validUntil",
          "type": "uint256"
        },
        {
          "internalType": "address",
          "name": "contractAddress",
          "type": "address"
        },
        {
          "internalType": "address",
          "name": "coverAsset",
          "type": "address"
        },
        {
          "internalType": "uint256",
          "name": "premiumInNXM",
          "type": "uint256"
        },
        {
          "internalType": "address",
          "name": "memberAddress",
          "type": "address"
        }
      ],
      "stateMutability": "view",
      "type": "function"
    },
    {
      "inputs": [
        {
          "internalType": "uint256",
          "name": "claimId",
          "type": "uint256"
        }
      ],
      "name": "getPayoutOutcome",
      "outputs": [
        {
          "internalType": "enum ICover.ClaimStatus",
          "name": "status",
          "type": "uint8"
        },
        {
          "internalType": "uint256",
          "name": "amountPaid",
          "type": "uint256"
        },
        {
          "internalType": "address",
          "name": "coverAsset",
          "type": "address"
        }
      ],
      "stateMutability": "view",
      "type": "function"
    },
    {
      "inputs": [
        {
          "internalType": "address",
          "name": "spender",
          "type": "address"
        },
        {
          "internalType": "uint256",
          "name": "amount",
          "type": "uint256"
        }
      ],
      "name": "approveNXM",
      "outputs": [],
      "stateMutability": "nonpayable",
      "type": "function"
    },
    {
      "inputs": [
        {
          "internalType": "address",
          "name": "recipient",
          "type": "address"
        },
        {
          "internalType": "uint256",
          "name": "amount",
          "type": "uint256"
        }
      ],
      "name": "withdrawNXM",
      "outputs": [],
      "stateMutability": "nonpayable",
      "type": "function"
    },
    {
      "inputs": [
        {
          "internalType": "address",
          "name": "newAddress",
          "type": "address"
        }
      ],
      "name": "switchMembership",
      "outputs": [],
      "stateMutability": "nonpayable",
      "type": "function"
    },
    {
      "inputs": [
        {
          "internalType": "uint256",
          "name": "nxmIn",
          "type": "uint256"
        },
        {
          "internalType": "uint256",
          "name": "minEthOut",
          "type": "uint256"
        }
      ],
      "name": "sellNXM",
      "outputs": [],
      "stateMutability": "nonpayable",
      "type": "function"
    },
    {
      "inputs": [
        {
          "internalType": "bool",
          "name": "_buysAllowed",
          "type": "bool"
        }
      ],
      "name": "setBuysAllowed",
      "outputs": [],
      "stateMutability": "nonpayable",
      "type": "function"
    },
    {
      "inputs": [
        {
          "internalType": "address payable",
          "name": "_treasury",
          "type": "address"
        }
      ],
      "name": "setTreasury",
      "outputs": [],
      "stateMutability": "nonpayable",
      "type": "function"
    },
    {
      "inputs": [
        {
          "internalType": "uint256",
          "name": "_feePercentage",
          "type": "uint256"
        }
      ],
      "name": "setFeePercentage",
      "outputs": [],
      "stateMutability": "nonpayable",
      "type": "function"
    }
  ],
  "bytecode": "0x60e0604052600d805460ff191660011790553480156200001e57600080fd5b50604051620050a2380380620050a2833981810160405260e08110156200004457600080fd5b815160208301516040808501516060860151608087015160a0880180519451969895979396929591949293820192846401000000008211156200008657600080fd5b9083019060208201858111156200009c57600080fd5b8251640100000000811182820188101715620000b757600080fd5b82525081516020918201929091019080838360005b83811015620000e6578181015183820152602001620000cc565b50505050905090810190601f168015620001145780820380516001836020036101000a031916815260200191505b50604052602001805160405193929190846401000000008211156200013857600080fd5b9083019060208201858111156200014e57600080fd5b82516401000000008111828201881017156200016957600080fd5b82525081516020918201929091019080838360005b83811015620001985781810151838201526020016200017e565b50505050905090810190601f168015620001c65780820380516001836020036101000a031916815260200191505b5060405250839150829050620001e36301ffc9a760e01b620002fd565b8151620001f890600690602085019062000386565b5080516200020e90600790602084019062000386565b50620002216380ac58cd60e01b620002fd565b62000233635b5e139f60e01b620002fd565b6200024563780e9d6360e01b620002fd565b50600090506200025462000382565b600a80546001600160a01b0319166001600160a01b038316908117909155604051919250906000907f8be0079c531659141344cd1fd0a4f28419497f9722a3daafe3b4186f6b6457e0908290a350506001600b5550600c91909155600d80546001600160a01b0390921661010002610100600160a81b03199092169190911790556001600160601b0319606093841b811660805291831b821660a05290911b1660c05262000432565b6001600160e01b031980821614156200035d576040805162461bcd60e51b815260206004820152601c60248201527f4552433136353a20696e76616c696420696e7465726661636520696400000000604482015290519081900360640190fd5b6001600160e01b0319166000908152602081905260409020805460ff19166001179055565b3390565b828054600181600116156101000203166002900490600052602060002090601f016020900481019282620003be576000855562000409565b82601f10620003d957805160ff191683800117855562000409565b8280016001018555821562000409579182015b8281111562000409578251825591602001919060010190620003ec565b50620004179291506200041b565b5090565b5b808211156200041757600081556001016200041c565b60805160601c60a05160601c60c05160601c614bdb620004c76000398061137652806130c35250806114695280611de85280611f0352806124ab5280613071525080610d885280610e5d5280611689528061188e5280611aee5280611bd05280611f325280612001528061207c5280612a0d5280612ca95280612d415280612f43528061304d52806132d35250614bdb6000f3fe6080604052600436106102be5760003560e01c80638322fff21161016e578063d8a856ee116100cb578063e985e9c51161007f578063f0f4426011610064578063f0f4426014610bf8578063f2fde38b14610c2b578063fd7b68a214610c5e576102c5565b8063e985e9c514610ba8578063ee97f7f314610be3576102c5565b8063e1817a8b116100b0578063e1817a8b14610b69578063e7d931e414610b7e578063e967eb1a14610b93576102c5565b8063d8a856ee14610a3d578063db32749114610ae5576102c5565b8063a001ecdd11610122578063ae06c1b711610107578063ae06c1b714610916578063b88d4fde14610940578063c87b56dd14610a13576102c5565b8063a001ecdd146108c6578063a22cb465146108db576102c5565b80638da5cb5b116101535780638da5cb5b1461086357806395d89b41146108785780639f1cafa41461088d576102c5565b80638322fff21461082257806386a1563714610837576102c5565b80634c2851511161021c57806361d027b3116101d05780636c0360eb116101b55780636c0360eb146107c557806370a08231146107da578063715018a61461080d576102c5565b806361d027b3146107865780636352211e1461079b576102c5565b80634ed75d47116102015780634ed75d47146106c75780634f6ccce7146106fa57806352799e4d14610724576102c5565b80634c2851511461057b5780634d7767351461068e576102c5565b806318160ddd1161027357806328dd37731161025857806328dd3773146104cf5780632f745c59146104ff57806342842e0e14610538576102c5565b806318160ddd1461046557806323b872dd1461048c576102c5565b806306fdde03116102a457806306fdde031461035c578063081812fc146103e6578063095ea7b31461042c576102c5565b8062969717146102ca57806301ffc9a7146102fc576102c5565b366102c557005b600080fd5b3480156102d657600080fd5b506102fa600480360360408110156102ed57600080fd5b5080359060200135610cde565b005b34801561030857600080fd5b506103486004803603602081101561031f57600080fd5b50357fffffffff0000000000000000000000000000000000000000000000000000000016611088565b604080519115158252519081900360200190f35b34801561036857600080fd5b506103716110c3565b6040805160208082528351818301528351919283929083019185019080838360005b838110156103ab578181015183820152602001610393565b50505050905090810190601f1680156103d85780820380516001836020036101000a031916815260200191505b509250505060405180910390f35b3480156103f257600080fd5b506104106004803603602081101561040957600080fd5b5035611159565b604080516001600160a01b039092168252519081900360200190f35b34801561043857600080fd5b506102fa6004803603604081101561044f57600080fd5b506001600160a01b0381351690602001356111bb565b34801561047157600080fd5b5061047a611296565b60408051918252519081900360200190f35b34801561049857600080fd5b506102fa600480360360608110156104af57600080fd5b506001600160a01b038135811691602081013590911690604001356112a7565b3480156104db57600080fd5b506102fa600480360360408110156104f257600080fd5b50803590602001356112fe565b34801561050b57600080fd5b5061047a6004803603604081101561052257600080fd5b506001600160a01b038135169060200135611595565b34801561054457600080fd5b506102fa6004803603606081101561055b57600080fd5b506001600160a01b038135811691602081013590911690604001356115c0565b61060f600480360360a081101561059157600080fd5b8135916020810135916001600160a01b036040830135169160ff6060820135169181019060a0810160808201356401000000008111156105d057600080fd5b8201836020820111156105e257600080fd5b8035906020019184600183028401116401000000008311171561060457600080fd5b5090925090506115db565b6040518080602001838152602001828103825284818151815260200191508051906020019080838360005b8381101561065257818101518382015260200161063a565b50505050905090810190601f16801561067f5780820380516001836020036101000a031916815260200191505b50935050505060405180910390f35b34801561069a57600080fd5b506102fa600480360360408110156106b157600080fd5b506001600160a01b038135169060200135611d72565b3480156106d357600080fd5b506102fa600480360360208110156106ea57600080fd5b50356001600160a01b0316611e8d565b34801561070657600080fd5b5061047a6004803603602081101561071d57600080fd5b503561205f565b34801561073057600080fd5b5061074e6004803603602081101561074757600080fd5b5035612075565b6040518084600281111561075e57fe5b8152602001838152602001826001600160a01b03168152602001935050505060405180910390f35b34801561079257600080fd5b50610410612122565b3480156107a757600080fd5b50610410600480360360208110156107be57600080fd5b5035612136565b3480156107d157600080fd5b5061037161215e565b3480156107e657600080fd5b5061047a600480360360208110156107fd57600080fd5b50356001600160a01b03166121bf565b34801561081957600080fd5b506102fa612227565b34801561082e57600080fd5b506104106122fd565b34801561084357600080fd5b506102fa6004803603602081101561085a57600080fd5b50351515612315565b34801561086f57600080fd5b506104106123ba565b34801561088457600080fd5b506103716123c9565b34801561089957600080fd5b506102fa600480360360408110156108b057600080fd5b506001600160a01b03813516906020013561242a565b3480156108d257600080fd5b5061047a6124d6565b3480156108e757600080fd5b506102fa600480360360408110156108fe57600080fd5b506001600160a01b03813516906020013515156124dc565b34801561092257600080fd5b506102fa6004803603602081101561093957600080fd5b50356125ff565b34801561094c57600080fd5b506102fa6004803603608081101561096357600080fd5b6001600160a01b0382358116926020810135909116916040820135919081019060808101606082013564010000000081111561099e57600080fd5b8201836020820111156109b057600080fd5b803590602001918460018302840111640100000000831117156109d257600080fd5b91908080601f016020809104026020016040519081016040528093929190818152602001838380828437600092019190915250929550612678945050505050565b348015610a1f57600080fd5b5061037160048036036020811015610a3657600080fd5b50356126d0565b61047a600480360360e0811015610a5357600080fd5b6001600160a01b03823581169260208101359091169160408201359161ffff6060820135169160ff6080830135169160a08101359181019060e0810160c0820135640100000000811115610aa657600080fd5b820183602082011115610ab857600080fd5b80359060200191846001830284011164010000000083111715610ada57600080fd5b509092509050612953565b348015610af157600080fd5b5061047a60048036036040811015610b0857600080fd5b81359190810190604081016020820135640100000000811115610b2a57600080fd5b820183602082011115610b3c57600080fd5b80359060200191846001830284011164010000000083111715610b5e57600080fd5b509092509050612ef7565b348015610b7557600080fd5b50610348613042565b348015610b8a57600080fd5b5061041061304b565b348015610b9f57600080fd5b5061041061306f565b348015610bb457600080fd5b5061034860048036036040811015610bcb57600080fd5b506001600160a01b0381358116916020013516613093565b348015610bef57600080fd5b506104106130c1565b348015610c0457600080fd5b506102fa60048036036020811015610c1b57600080fd5b50356001600160a01b03166130e5565b348015610c3757600080fd5b506102fa60048036036020811015610c4e57600080fd5b50356001600160a01b0316613198565b348015610c6a57600080fd5b50610c8860048036036020811015610c8157600080fd5b50356132c5565b6040805160ff9099168952602089019790975261ffff9095168787015260608701939093526001600160a01b039182166080870152811660a086015260c08501919091521660e083015251908190036101000190f35b81610ce933826133a7565b610d245760405162461bcd60e51b81526004018080602001828103825260228152602001806149df6022913960400191505060405180910390fd5b6002600b541415610d7c576040805162461bcd60e51b815260206004820152601f60248201527f5265656e7472616e637947756172643a207265656e7472616e742063616c6c00604482015290519081900360640190fd5b6002600b8190555060007f00000000000000000000000000000000000000000000000000000000000000006001600160a01b03166396ff592f846040518263ffffffff1660e01b81526004018082815260200191505060206040518083038186803b158015610dea57600080fd5b505afa158015610dfe573d6000803e3d6000fd5b505050506040513d6020811015610e1457600080fd5b50519050838114610e565760405162461bcd60e51b8152600401808060200182810382526025815260200180614b056025913960400191505060405180910390fd5b60008060007f00000000000000000000000000000000000000000000000000000000000000006001600160a01b03166352799e4d876040518263ffffffff1660e01b81526004018082815260200191505060606040518083038186803b158015610ebf57600080fd5b505afa158015610ed3573d6000803e3d6000fd5b505050506040513d6060811015610ee957600080fd5b508051602082015160409092015190945090925090506001836002811115610f0d57fe5b14610f5f576040805162461bcd60e51b815260206004820152601f60248201527f4469737472696275746f723a20436c61696d206e6f7420616363657074656400604482015290519081900360640190fd5b610f688761344b565b6001600160a01b03811673eeeeeeeeeeeeeeeeeeeeeeeeeeeeeeeeeeeeeeee141561101a57604051600090339084908381818185875af1925050503d8060008114610fcf576040519150601f19603f3d011682016040523d82523d6000602084013e610fd4565b606091505b50509050806110145760405162461bcd60e51b815260040180806020018281038252602981526020018061491f6029913960400191505060405180910390fd5b50611031565b8061102f6001600160a01b0382163385613518565b505b604080518381526001600160a01b03831660208201528151339289928b927f34fca3c3e347457684d11c6311e01dc77fc4d158b9fb5902af19c6b9fae603a9929181900390910190a450506001600b555050505050565b7fffffffff00000000000000000000000000000000000000000000000000000000811660009081526020819052604090205460ff165b919050565b60068054604080516020601f600260001961010060018816150201909516949094049384018190048102820181019092528281526060939092909183018282801561114f5780601f106111245761010080835404028352916020019161114f565b820191906000526020600020905b81548152906001019060200180831161113257829003601f168201915b5050505050905090565b600061116482613598565b61119f5760405162461bcd60e51b815260040180806020018281038252602c815260200180614a22602c913960400191505060405180910390fd5b506000908152600460205260409020546001600160a01b031690565b60006111c682612136565b9050806001600160a01b0316836001600160a01b031614156112195760405162461bcd60e51b8152600401808060200182810382526021815260200180614b2a6021913960400191505060405180910390fd5b806001600160a01b031661122b6135a5565b6001600160a01b0316148061124c575061124c816112476135a5565b613093565b6112875760405162461bcd60e51b81526004018080602001828103825260388152602001806148e76038913960400191505060405180910390fd5b61129183836135a9565b505050565b60006112a2600261362f565b905090565b6112b86112b26135a5565b826133a7565b6112f35760405162461bcd60e51b8152600401808060200182810382526031815260200180614b4b6031913960400191505060405180910390fd5b61129183838361363a565b6113066135a5565b6001600160a01b03166113176123ba565b6001600160a01b031614611372576040805162461bcd60e51b815260206004820181905260248201527f4f776e61626c653a2063616c6c6572206973206e6f7420746865206f776e6572604482015290519081900360640190fd5b60007f00000000000000000000000000000000000000000000000000000000000000006001600160a01b031663013828586040518163ffffffff1660e01b815260040180807f5031000000000000000000000000000000000000000000000000000000000000815250602001905060206040518083038186803b1580156113f857600080fd5b505afa15801561140c573d6000803e3d6000fd5b505050506040513d602081101561142257600080fd5b5051604080517f095ea7b30000000000000000000000000000000000000000000000000000000081526001600160a01b0380841660048301526024820187905291519293507f00000000000000000000000000000000000000000000000000000000000000009091169163095ea7b3916044808201926020929091908290030181600087803b1580156114b457600080fd5b505af11580156114c8573d6000803e3d6000fd5b505050506040513d60208110156114de57600080fd5b5050604080517f28dd37730000000000000000000000000000000000000000000000000000000081526004810185905260248101849052905147916001600160a01b038416916328dd37739160448082019260009290919082900301818387803b15801561154b57600080fd5b505af115801561155f573d6000803e3d6000fd5b5047925061158e915061157490508284613786565b73eeeeeeeeeeeeeeeeeeeeeeeeeeeeeeeeeeeeeeee6137e3565b5050505050565b6001600160a01b03821660009081526001602052604081206115b790836138c6565b90505b92915050565b61129183838360405180602001604052806000815250612678565b60606000876115ea33826133a7565b6116255760405162461bcd60e51b81526004018080602001828103825260228152602001806149df6022913960400191505060405180910390fd5b6002600b54141561167d576040805162461bcd60e51b815260206004820152601f60248201527f5265656e7472616e637947756172643a207265656e7472616e742063616c6c00604482015290519081900360640190fd5b6002600b5587611828577f00000000000000000000000000000000000000000000000000000000000000006001600160a01b03166330926acc8a8888886040518563ffffffff1660e01b8152600401808581526020018460ff168152602001806020018281038252848482818152602001925080828437600081840152601f19601f82011690508083019250505095505050505050600060405180830381600087803b15801561172c57600080fd5b505af1158015611740573d6000803e3d6000fd5b505050506040513d6000823e601f3d908101601f19168201604090815281101561176957600080fd5b810190808051604051939291908464010000000082111561178957600080fd5b90830190602082018581111561179e57600080fd5b82516401000000008111828201881017156117b857600080fd5b82525081516020918201929091019080838360005b838110156117e55781810151838201526020016117cd565b50505050905090810190601f1680156118125780820380516001836020036101000a031916815260200191505b5060405260200151929550919350611d5f915050565b6001600160a01b03871673eeeeeeeeeeeeeeeeeeeeeeeeeeeeeeeeeeeeeeee1415611ac7578734101561188c5760405162461bcd60e51b81526004018080602001828103825260228152602001806149486022913960400191505060405180910390fd5b7f00000000000000000000000000000000000000000000000000000000000000006001600160a01b03166330926acc348b8989896040518663ffffffff1660e01b8152600401808581526020018460ff168152602001806020018281038252848482818152602001925080828437600081840152601f19601f820116905080830192505050955050505050506000604051808303818588803b15801561193157600080fd5b505af1158015611945573d6000803e3d6000fd5b50505050506040513d6000823e601f3d908101601f19168201604090815281101561196f57600080fd5b810190808051604051939291908464010000000082111561198f57600080fd5b9083019060208201858111156119a457600080fd5b82516401000000008111828201881017156119be57600080fd5b82525081516020918201929091019080838360005b838110156119eb5781810151838201526020016119d3565b50505050905090810190601f168015611a185780820380516001836020036101000a031916815260200191505b506040526020015192955091935060009150611a3690508984613786565b604051909150600090339083908381818185875af1925050503d8060008114611a7b576040519150601f19603f3d011682016040523d82523d6000602084013e611a80565b606091505b5050905080611ac05760405162461bcd60e51b815260040180806020018281038252603681526020018061483b6036913960400191505060405180910390fd5b5050611d5f565b86611add6001600160a01b03821633308c6138d2565b806001600160a01b031663095ea7b37f00000000000000000000000000000000000000000000000000000000000000008b6040518363ffffffff1660e01b815260040180836001600160a01b0316815260200182815260200192505050602060405180830381600087803b158015611b5457600080fd5b505af1158015611b68573d6000803e3d6000fd5b505050506040513d6020811015611b7e57600080fd5b50506040517f30926acc000000000000000000000000000000000000000000000000000000008152600481018b815260ff89166024830152606060448301908152606483018890526001600160a01b037f000000000000000000000000000000000000000000000000000000000000000016926330926acc928e928c928c928c929091608401848480828437600081840152601f19601f82011690508083019250505095505050505050600060405180830381600087803b158015611c4257600080fd5b505af1158015611c56573d6000803e3d6000fd5b505050506040513d6000823e601f3d908101601f191682016040908152811015611c7f57600080fd5b8101908080516040519392919084640100000000821115611c9f57600080fd5b908301906020820185811115611cb457600080fd5b8251640100000000811182820188101715611cce57600080fd5b82525081516020918201929091019080838360005b83811015611cfb578181015183820152602001611ce3565b50505050905090810190601f168015611d285780820380516001836020036101000a031916815260200191505b506040526020015192965091945060009150611d4690508a85613786565b9050611d5c6001600160a01b0383163383613518565b50505b506001600b559097909650945050505050565b611d7a6135a5565b6001600160a01b0316611d8b6123ba565b6001600160a01b031614611de6576040805162461bcd60e51b815260206004820181905260248201527f4f776e61626c653a2063616c6c6572206973206e6f7420746865206f776e6572604482015290519081900360640190fd5b7f00000000000000000000000000000000000000000000000000000000000000006001600160a01b031663095ea7b383836040518363ffffffff1660e01b815260040180836001600160a01b0316815260200182815260200192505050602060405180830381600087803b158015611e5d57600080fd5b505af1158015611e71573d6000803e3d6000fd5b505050506040513d6020811015611e8757600080fd5b50505050565b611e956135a5565b6001600160a01b0316611ea66123ba565b6001600160a01b031614611f01576040805162461bcd60e51b815260206004820181905260248201527f4f776e61626c653a2063616c6c6572206973206e6f7420746865206f776e6572604482015290519081900360640190fd5b7f00000000000000000000000000000000000000000000000000000000000000006001600160a01b031663095ea7b37f00000000000000000000000000000000000000000000000000000000000000006000196040518363ffffffff1660e01b815260040180836001600160a01b0316815260200182815260200192505050602060405180830381600087803b158015611f9a57600080fd5b505af1158015611fae573d6000803e3d6000fd5b505050506040513d6020811015611fc457600080fd5b5050604080517f4ed75d470000000000000000000000000000000000000000000000000000000081526001600160a01b03838116600483015291517f000000000000000000000000000000000000000000000000000000000000000090921691634ed75d479160248082019260009290919082900301818387803b15801561204b57600080fd5b505af115801561158e573d6000803e3d6000fd5b60008061206d60028461395a565b509392505050565b60008060007f00000000000000000000000000000000000000000000000000000000000000006001600160a01b03166352799e4d856040518263ffffffff1660e01b81526004018082815260200191505060606040518083038186803b1580156120de57600080fd5b505afa1580156120f2573d6000803e3d6000fd5b505050506040513d606081101561210857600080fd5b508051602082015160409092015190969195509350915050565b600d5461010090046001600160a01b031681565b60006115ba826040518060600160405280602981526020016149946029913960029190613976565b60098054604080516020601f600260001961010060018816150201909516949094049384018190048102820181019092528281526060939092909183018282801561114f5780601f106111245761010080835404028352916020019161114f565b60006001600160a01b0382166122065760405162461bcd60e51b815260040180806020018281038252602a81526020018061496a602a913960400191505060405180910390fd5b6001600160a01b03821660009081526001602052604090206115ba9061362f565b61222f6135a5565b6001600160a01b03166122406123ba565b6001600160a01b03161461229b576040805162461bcd60e51b815260206004820181905260248201527f4f776e61626c653a2063616c6c6572206973206e6f7420746865206f776e6572604482015290519081900360640190fd5b600a546040516000916001600160a01b0316907f8be0079c531659141344cd1fd0a4f28419497f9722a3daafe3b4186f6b6457e0908390a3600a80547fffffffffffffffffffffffff0000000000000000000000000000000000000000169055565b73eeeeeeeeeeeeeeeeeeeeeeeeeeeeeeeeeeeeeeee81565b61231d6135a5565b6001600160a01b031661232e6123ba565b6001600160a01b031614612389576040805162461bcd60e51b815260206004820181905260248201527f4f776e61626c653a2063616c6c6572206973206e6f7420746865206f776e6572604482015290519081900360640190fd5b600d80547fffffffffffffffffffffffffffffffffffffffffffffffffffffffffffffff0016911515919091179055565b600a546001600160a01b031690565b60078054604080516020601f600260001961010060018816150201909516949094049384018190048102820181019092528281526060939092909183018282801561114f5780601f106111245761010080835404028352916020019161114f565b6124326135a5565b6001600160a01b03166124436123ba565b6001600160a01b03161461249e576040805162461bcd60e51b815260206004820181905260248201527f4f776e61626c653a2063616c6c6572206973206e6f7420746865206f776e6572604482015290519081900360640190fd5b6124d26001600160a01b037f0000000000000000000000000000000000000000000000000000000000000000168383613518565b5050565b600c5481565b6124e46135a5565b6001600160a01b0316826001600160a01b0316141561254a576040805162461bcd60e51b815260206004820152601960248201527f4552433732313a20617070726f766520746f2063616c6c657200000000000000604482015290519081900360640190fd5b80600560006125576135a5565b6001600160a01b0390811682526020808301939093526040918201600090812091871680825291909352912080547fffffffffffffffffffffffffffffffffffffffffffffffffffffffffffffff0016921515929092179091556125b96135a5565b6001600160a01b03167f17307eab39ab6107e8899845ad3d59bd9653f200f220920489ca2b5937696c318360405180821515815260200191505060405180910390a35050565b6126076135a5565b6001600160a01b03166126186123ba565b6001600160a01b031614612673576040805162461bcd60e51b815260206004820181905260248201527f4f776e61626c653a2063616c6c6572206973206e6f7420746865206f776e6572604482015290519081900360640190fd5b600c55565b6126896126836135a5565b836133a7565b6126c45760405162461bcd60e51b8152600401808060200182810382526031815260200180614b4b6031913960400191505060405180910390fd5b611e878484848461398d565b60606126db82613598565b6127165760405162461bcd60e51b815260040180806020018281038252602f815260200180614ad6602f913960400191505060405180910390fd5b60008281526008602090815260409182902080548351601f60026000196101006001861615020190931692909204918201849004840281018401909452808452606093928301828280156127ab5780601f10612780576101008083540402835291602001916127ab565b820191906000526020600020905b81548152906001019060200180831161278e57829003601f168201915b5050505050905060606127bc61215e565b90508051600014156127d0575090506110be565b8151156128915780826040516020018083805190602001908083835b6020831061280b5780518252601f1990920191602091820191016127ec565b51815160209384036101000a600019018019909216911617905285519190930192850191508083835b602083106128535780518252601f199092019160209182019101612834565b6001836020036101000a03801982511681845116808217855250505050505090500192505050604051602081830303815290604052925050506110be565b8061289b856139df565b6040516020018083805190602001908083835b602083106128cd5780518252601f1990920191602091820191016128ae565b51815160209384036101000a600019018019909216911617905285519190930192850191508083835b602083106129155780518252601f1990920191602091820191016128f6565b6001836020036101000a0380198251168184511680821785525050505050509050019250505060405160208183030381529060405292505050919050565b60006002600b5414156129ad576040805162461bcd60e51b815260206004820152601f60248201527f5265656e7472616e637947756172643a207265656e7472616e742063616c6c00604482015290519081900360640190fd5b6002600b55600d5460ff16612a09576040805162461bcd60e51b815260206004820152601d60248201527f4469737472696275746f723a2062757973206e6f7420616c6c6f776564000000604482015290519081900360640190fd5b60007f00000000000000000000000000000000000000000000000000000000000000006001600160a01b0316635caca7b48b8b8b8b8b8a8a6040518863ffffffff1660e01b815260040180886001600160a01b03168152602001876001600160a01b031681526020018681526020018561ffff1681526020018460ff168152602001806020018281038252848482818152602001925080828437600081840152601f19601f8201169050808301925050509850505050505050505060206040518083038186803b158015612adc57600080fd5b505afa158015612af0573d6000803e3d6000fd5b505050506040513d6020811015612b0657600080fd5b5051600c54909150600090612b35908390612b2f9061271090612b299084613aee565b90613b47565b90613bae565b905085811115612b765760405162461bcd60e51b815260040180806020018281038252602d81526020018061480e602d913960400191505060405180910390fd5b60006001600160a01b038b1673eeeeeeeeeeeeeeeeeeeeeeeeeeeeeeeeeeeeeeee1415612c825781341015612bdc5760405162461bcd60e51b81526004018080602001828103825260228152602001806149486022913960400191505060405180910390fd5b6000612be83484613786565b90508015612c7957604051600090339083908381818185875af1925050503d8060008114612c32576040519150601f19603f3d011682016040523d82523d6000602084013e612c37565b606091505b5050905080612c775760405162461bcd60e51b815260040180806020018281038252603681526020018061483b6036913960400191505060405180910390fd5b505b83915050612d3d565b8a612c986001600160a01b0382163330866138d2565b806001600160a01b031663095ea7b37f0000000000000000000000000000000000000000000000000000000000000000866040518363ffffffff1660e01b815260040180836001600160a01b0316815260200182815260200192505050602060405180830381600087803b158015612d0f57600080fd5b505af1158015612d23573d6000803e3d6000fd5b505050506040513d6020811015612d3957600080fd5b5050505b60007f00000000000000000000000000000000000000000000000000000000000000006001600160a01b03166304836c4a838f8f8f8f8f8e8e6040518963ffffffff1660e01b815260040180886001600160a01b03168152602001876001600160a01b031681526020018681526020018561ffff1681526020018460ff168152602001806020018281038252848482818152602001925080828437600081840152601f19601f820116905080830192505050985050505050505050506020604051808303818588803b158015612e1257600080fd5b505af1158015612e26573d6000803e3d6000fd5b50505050506040513d6020811015612e3d57600080fd5b505190506000612e4d8486613786565b90508015612e5f57612e5f818e6137e3565b612e693383613c08565b612e8b82604051806060016040528060338152602001614a7a60339139613d36565b8d6001600160a01b0316336001600160a01b0316837fa0105afc48bbd0c43e1c71d83dc1e02ae58388f3109943595b89e24a5ee1c365600c5489604051808381526020018281526020019250505060405180910390a4506001600b559c9b505050505050505050505050565b600083612f0433826133a7565b612f3f5760405162461bcd60e51b81526004018080602001828103825260228152602001806149df6022913960400191505060405180910390fd5b60007f00000000000000000000000000000000000000000000000000000000000000006001600160a01b031663db3274918787876040518463ffffffff1660e01b815260040180848152602001806020018281038252848482818152602001925080828437600081840152601f19601f820116905080830192505050945050505050602060405180830381600087803b158015612fdb57600080fd5b505af1158015612fef573d6000803e3d6000fd5b505050506040513d602081101561300557600080fd5b50516040519091503390829088907f9fe11e531030a058803617055e27f9f4768236e4322e13b9c4c09f4338e23a6890600090a495945050505050565b600d5460ff1681565b7f000000000000000000000000000000000000000000000000000000000000000081565b7f000000000000000000000000000000000000000000000000000000000000000081565b6001600160a01b03918216600090815260056020908152604080832093909416825291909152205460ff1690565b7f000000000000000000000000000000000000000000000000000000000000000081565b6130ed6135a5565b6001600160a01b03166130fe6123ba565b6001600160a01b031614613159576040805162461bcd60e51b815260206004820181905260248201527f4f776e61626c653a2063616c6c6572206973206e6f7420746865206f776e6572604482015290519081900360640190fd5b600d80546001600160a01b03909216610100027fffffffffffffffffffffff0000000000000000000000000000000000000000ff909216919091179055565b6131a06135a5565b6001600160a01b03166131b16123ba565b6001600160a01b03161461320c576040805162461bcd60e51b815260206004820181905260248201527f4f776e61626c653a2063616c6c6572206973206e6f7420746865206f776e6572604482015290519081900360640190fd5b6001600160a01b0381166132515760405162461bcd60e51b81526004018080602001828103825260268152602001806147e86026913960400191505060405180910390fd5b600a546040516001600160a01b038084169216907f8be0079c531659141344cd1fd0a4f28419497f9722a3daafe3b4186f6b6457e090600090a3600a80547fffffffffffffffffffffffff0000000000000000000000000000000000000000166001600160a01b0392909216919091179055565b6000806000806000806000807f00000000000000000000000000000000000000000000000000000000000000006001600160a01b031663fd7b68a28a6040518263ffffffff1660e01b8152600401808281526020019150506101006040518083038186803b15801561333657600080fd5b505afa15801561334a573d6000803e3d6000fd5b505050506040513d61010081101561336157600080fd5b508051602082015160408301516060840151608085015160a086015160c087015160e090970151959e50939c50919a509850965094509092509050919395975091939597565b60006133b282613598565b6133ed5760405162461bcd60e51b815260040180806020018281038252602c8152602001806148bb602c913960400191505060405180910390fd5b60006133f883612136565b9050806001600160a01b0316846001600160a01b031614806134335750836001600160a01b031661342884611159565b6001600160a01b0316145b8061344357506134438185613093565b949350505050565b600061345682612136565b905061346481600084611291565b61346f6000836135a9565b60008281526008602052604090205460026000196101006001841615020190911604156134ad5760008281526008602052604081206134ad91614683565b6001600160a01b03811660009081526001602052604090206134cf9083613d99565b506134db600283613da5565b5060405182906000906001600160a01b038416907fddf252ad1be2c89b69c2b068fc378daa952ba7f163c4a11628f55a4df523b3ef908390a45050565b604080516001600160a01b038416602482015260448082018490528251808303909101815260649091019091526020810180517bffffffffffffffffffffffffffffffffffffffffffffffffffffffff167fa9059cbb00000000000000000000000000000000000000000000000000000000179052611291908490613db1565b60006115ba600283613e62565b3390565b600081815260046020526040902080547fffffffffffffffffffffffff0000000000000000000000000000000000000000166001600160a01b03841690811790915581906135f682612136565b6001600160a01b03167f8c5be1e5ebec7d5bd14f71427d1e84f3dd0314c0f7b2291e5b200ac8c7c3b92560405160405180910390a45050565b60006115ba82613e6e565b826001600160a01b031661364d82612136565b6001600160a01b0316146136925760405162461bcd60e51b8152600401808060200182810382526029815260200180614aad6029913960400191505060405180910390fd5b6001600160a01b0382166136d75760405162461bcd60e51b81526004018080602001828103825260248152602001806148716024913960400191505060405180910390fd5b6136e2838383611291565b6136ed6000826135a9565b6001600160a01b038316600090815260016020526040902061370f9082613d99565b506001600160a01b03821660009081526001602052604090206137329082613e72565b5061373f60028284613e7e565b5080826001600160a01b0316846001600160a01b03167fddf252ad1be2c89b69c2b068fc378daa952ba7f163c4a11628f55a4df523b3ef60405160405180910390a4505050565b6000828211156137dd576040805162461bcd60e51b815260206004820152601e60248201527f536166654d6174683a207375627472616374696f6e206f766572666c6f770000604482015290519081900360640190fd5b50900390565b6001600160a01b03811673eeeeeeeeeeeeeeeeeeeeeeeeeeeeeeeeeeeeeeee14156138a557600d5460405160009161010090046001600160a01b03169084908381818185875af1925050503d806000811461385a576040519150601f19603f3d011682016040523d82523d6000602084013e61385f565b606091505b505090508061389f5760405162461bcd60e51b815260040180806020018281038252602881526020018061478e6028913960400191505060405180910390fd5b506124d2565b600d548190611291906001600160a01b038084169161010090041685613518565b60006115b78383613e94565b604080516001600160a01b0380861660248301528416604482015260648082018490528251808303909101815260849091019091526020810180517bffffffffffffffffffffffffffffffffffffffffffffffffffffffff167f23b872dd00000000000000000000000000000000000000000000000000000000179052611e87908590613db1565b60008080806139698686613ef8565b9097909650945050505050565b6000613983848484613f73565b90505b9392505050565b61399884848461363a565b6139a48484848461403d565b611e875760405162461bcd60e51b81526004018080602001828103825260328152602001806147b66032913960400191505060405180910390fd5b606081613a20575060408051808201909152600181527f300000000000000000000000000000000000000000000000000000000000000060208201526110be565b8160005b8115613a3857600101600a82049150613a24565b60608167ffffffffffffffff81118015613a5157600080fd5b506040519080825280601f01601f191660200182016040528015613a7c576020820181803683370190505b50859350905060001982015b8315613ae557600a840660300160f81b82828060019003935081518110613aab57fe5b60200101907effffffffffffffffffffffffffffffffffffffffffffffffffffffffffffff1916908160001a905350600a84049350613a88565b50949350505050565b600082613afd575060006115ba565b82820282848281613b0a57fe5b04146115b75760405162461bcd60e51b8152600401808060200182810382526021815260200180614a016021913960400191505060405180910390fd5b6000808211613b9d576040805162461bcd60e51b815260206004820152601a60248201527f536166654d6174683a206469766973696f6e206279207a65726f000000000000604482015290519081900360640190fd5b818381613ba657fe5b049392505050565b6000828201838110156115b7576040805162461bcd60e51b815260206004820152601b60248201527f536166654d6174683a206164646974696f6e206f766572666c6f770000000000604482015290519081900360640190fd5b6001600160a01b038216613c63576040805162461bcd60e51b815260206004820181905260248201527f4552433732313a206d696e7420746f20746865207a65726f2061646472657373604482015290519081900360640190fd5b613c6c81613598565b15613cbe576040805162461bcd60e51b815260206004820152601c60248201527f4552433732313a20746f6b656e20616c7265616479206d696e74656400000000604482015290519081900360640190fd5b613cca60008383611291565b6001600160a01b0382166000908152600160205260409020613cec9082613e72565b50613cf960028284613e7e565b5060405181906001600160a01b038416906000907fddf252ad1be2c89b69c2b068fc378daa952ba7f163c4a11628f55a4df523b3ef908290a45050565b613d3f82613598565b613d7a5760405162461bcd60e51b815260040180806020018281038252602c815260200180614a4e602c913960400191505060405180910390fd5b60008281526008602090815260409091208251611291928401906146ca565b60006115b78383614219565b60006115b783836142df565b6060613e06826040518060400160405280602081526020017f5361666545524332303a206c6f772d6c6576656c2063616c6c206661696c6564815250856001600160a01b03166143b39092919063ffffffff16565b80519091501561129157808060200190516020811015613e2557600080fd5b50516112915760405162461bcd60e51b815260040180806020018281038252602a815260200180614b7c602a913960400191505060405180910390fd5b60006115b783836143c2565b5490565b60006115b783836143da565b600061398384846001600160a01b038516614424565b81546000908210613ed65760405162461bcd60e51b815260040180806020018281038252602281526020018061476c6022913960400191505060405180910390fd5b826000018281548110613ee557fe5b9060005260206000200154905092915050565b815460009081908310613f3c5760405162461bcd60e51b81526004018080602001828103825260228152602001806149bd6022913960400191505060405180910390fd5b6000846000018481548110613f4d57fe5b906000526020600020906002020190508060000154816001015492509250509250929050565b6000828152600184016020526040812054828161400e5760405162461bcd60e51b81526004018080602001828103825283818151815260200191508051906020019080838360005b83811015613fd3578181015183820152602001613fbb565b50505050905090810190601f1680156140005780820380516001836020036101000a031916815260200191505b509250505060405180910390fd5b5084600001600182038154811061402157fe5b9060005260206000209060020201600101549150509392505050565b6000614051846001600160a01b03166144bb565b61405d57506001613443565b60606141ae7f150b7a020000000000000000000000000000000000000000000000000000000061408b6135a5565b88878760405160240180856001600160a01b03168152602001846001600160a01b0316815260200183815260200180602001828103825283818151815260200191508051906020019080838360005b838110156140f25781810151838201526020016140da565b50505050905090810190601f16801561411f5780820380516001836020036101000a031916815260200191505b5095505050505050604051602081830303815290604052907bffffffffffffffffffffffffffffffffffffffffffffffffffffffff19166020820180517bffffffffffffffffffffffffffffffffffffffffffffffffffffffff83818316178352505050506040518060600160405280603281526020016147b6603291396001600160a01b03881691906143b3565b905060008180602001905160208110156141c757600080fd5b50517fffffffff00000000000000000000000000000000000000000000000000000000167f150b7a02000000000000000000000000000000000000000000000000000000001492505050949350505050565b600081815260018301602052604081205480156142d5578354600019808301919081019060009087908390811061424c57fe5b906000526020600020015490508087600001848154811061426957fe5b60009182526020808320909101929092558281526001898101909252604090209084019055865487908061429957fe5b600190038181906000526020600020016000905590558660010160008781526020019081526020016000206000905560019450505050506115ba565b60009150506115ba565b600081815260018301602052604081205480156142d5578354600019808301919081019060009087908390811061431257fe5b906000526020600020906002020190508087600001848154811061433257fe5b60009182526020808320845460029093020191825560019384015491840191909155835482528983019052604090209084019055865487908061437157fe5b60008281526020808220600260001990940193840201828155600190810183905592909355888152898201909252604082209190915594506115ba9350505050565b606061398384846000856144c1565b60009081526001919091016020526040902054151590565b60006143e683836143c2565b61441c575081546001818101845560008481526020808220909301849055845484825282860190935260409020919091556115ba565b5060006115ba565b600082815260018401602052604081205480614489575050604080518082018252838152602080820184815286546001818101895560008981528481209551600290930290950191825591519082015586548684528188019092529290912055613986565b8285600001600183038154811061449c57fe5b9060005260206000209060020201600101819055506000915050613986565b3b151590565b6060824710156145025760405162461bcd60e51b81526004018080602001828103825260268152602001806148956026913960400191505060405180910390fd5b61450b856144bb565b61455c576040805162461bcd60e51b815260206004820152601d60248201527f416464726573733a2063616c6c20746f206e6f6e2d636f6e7472616374000000604482015290519081900360640190fd5b60006060866001600160a01b031685876040518082805190602001908083835b6020831061459b5780518252601f19909201916020918201910161457c565b6001836020036101000a03801982511681845116808217855250505050505090500191505060006040518083038185875af1925050503d80600081146145fd576040519150601f19603f3d011682016040523d82523d6000602084013e614602565b606091505b509150915061461282828661461d565b979650505050505050565b6060831561462c575081613986565b82511561463c5782518084602001fd5b60405162461bcd60e51b8152602060048201818152845160248401528451859391928392604401919085019080838360008315613fd3578181015183820152602001613fbb565b50805460018160011615610100020316600290046000825580601f106146a957506146c7565b601f0160209004906000526020600020908101906146c79190614756565b50565b828054600181600116156101000203166002900490600052602060002090601f0160209004810192826147005760008555614746565b82601f1061471957805160ff1916838001178555614746565b82800160010185558215614746579182015b8281111561474657825182559160200191906001019061472b565b50614752929150614756565b5090565b5b80821115614752576000815560010161475756fe456e756d657261626c655365743a20696e646578206f7574206f6620626f756e64734469737472696275746f723a205472616e7366657220746f207472656173757279206661696c65644552433732313a207472616e7366657220746f206e6f6e20455243373231526563656976657220696d706c656d656e7465724f776e61626c653a206e6577206f776e657220697320746865207a65726f20616464726573734469737472696275746f723a20636f7665722070726963652077697468206665652065786365656473206d61784469737472696275746f723a2052657475726e696e67204554482072656d61696e64657220746f2073656e646572206661696c65642e4552433732313a207472616e7366657220746f20746865207a65726f2061646472657373416464726573733a20696e73756666696369656e742062616c616e636520666f722063616c6c4552433732313a206f70657261746f7220717565727920666f72206e6f6e6578697374656e7420746f6b656e4552433732313a20617070726f76652063616c6c6572206973206e6f74206f776e6572206e6f7220617070726f76656420666f7220616c6c4469737472696275746f723a205472616e7366657220746f204e4654206f776e6572206661696c65644469737472696275746f723a20496e73756666696369656e74204554482073656e744552433732313a2062616c616e636520717565727920666f7220746865207a65726f20616464726573734552433732313a206f776e657220717565727920666f72206e6f6e6578697374656e7420746f6b656e456e756d657261626c654d61703a20696e646578206f7574206f6620626f756e64734469737472696275746f723a204e6f7420617070726f766564206f72206f776e6572536166654d6174683a206d756c7469706c69636174696f6e206f766572666c6f774552433732313a20617070726f76656420717565727920666f72206e6f6e6578697374656e7420746f6b656e4552433732314d657461646174613a2055524920736574206f66206e6f6e6578697374656e7420746f6b656e68747470733a2f2f6170702e627269676874756e696f6e2e696f2f696d672f6e6674732f6e657875732f636f7665722e706e674552433732313a207472616e73666572206f6620746f6b656e2074686174206973206e6f74206f776e4552433732314d657461646174613a2055524920717565727920666f72206e6f6e6578697374656e7420746f6b656e4469737472696275746f723a20636f766572496420636c61696d4964206d69736d617463684552433732313a20617070726f76616c20746f2063757272656e74206f776e65724552433732313a207472616e736665722063616c6c6572206973206e6f74206f776e6572206e6f7220617070726f7665645361666545524332303a204552433230206f7065726174696f6e20646964206e6f742073756363656564a264697066735822122064721164d7ff80b1f1b65fd8981441c4739e83c534bd49125911f01706d0a83a64736f6c63430007040033",
  "immutableReferences": {
    "640": [
      {
        "length": 32,
        "start": 3464
      },
      {
        "length": 32,
        "start": 3677
      },
      {
        "length": 32,
        "start": 5769
      },
      {
        "length": 32,
        "start": 6286
      },
      {
        "length": 32,
        "start": 6894
      },
      {
        "length": 32,
        "start": 7120
      },
      {
        "length": 32,
        "start": 7986
      },
      {
        "length": 32,
        "start": 8193
      },
      {
        "length": 32,
        "start": 8316
      },
      {
        "length": 32,
        "start": 10765
      },
      {
        "length": 32,
        "start": 11433
      },
      {
        "length": 32,
        "start": 11585
      },
      {
        "length": 32,
        "start": 12099
      },
      {
        "length": 32,
        "start": 12365
      },
      {
        "length": 32,
        "start": 13011
      }
    ],
    "642": [
      {
        "length": 32,
        "start": 5225
      },
      {
        "length": 32,
        "start": 7656
      },
      {
        "length": 32,
        "start": 7939
      },
      {
        "length": 32,
        "start": 9387
      },
      {
        "length": 32,
        "start": 12401
      }
    ],
    "644": [
      {
        "length": 32,
        "start": 4982
      },
      {
        "length": 32,
        "start": 12483
      }
    ]
  },
  "source": "/* Copyright (C) 2021 NexusMutual.io\n\n  This program is free software: you can redistribute it and/or modify\n    it under the terms of the GNU General Public License as published by\n    the Free Software Foundation, either version 3 of the License, or\n    (at your option) any later version.\n\n  This program is distributed in the hope that it will be useful,\n    but WITHOUT ANY WARRANTY; without even the implied warranty of\n    MERCHANTABILITY or FITNESS FOR A PARTICULAR PURPOSE.  See the\n    GNU General Public License for more details.\n\n  You should have received a copy of the GNU General Public License\n    along with this program.  If not, see http://www.gnu.org/licenses/ */\n\npragma solidity ^0.7.4;\n\nimport \"@openzeppelin/contracts/token/ERC721/ERC721.sol\";\nimport \"@openzeppelin/contracts/token/ERC20/IERC20.sol\";\nimport \"@openzeppelin/contracts/token/ERC20/SafeERC20.sol\";\nimport \"@openzeppelin/contracts/access/Ownable.sol\";\nimport \"@openzeppelin/contracts/utils/ReentrancyGuard.sol\";\nimport \"@openzeppelin/contracts/math/SafeMath.sol\";\nimport \"./interfaces/ICover.sol\";\nimport \"./interfaces/IPool.sol\";\nimport \"./interfaces/INXMaster.sol\";\n\ncontract Distributor is ERC721, Ownable, ReentrancyGuard {\n  using SafeMath for uint;\n  using SafeERC20 for IERC20;\n\n  address public constant ETH = 0xEeeeeEeeeEeEeeEeEeEeeEEEeeeeEeeeeeeeEEeE;\n\n  event ClaimPayoutRedeemed (\n    uint indexed coverId,\n    uint indexed claimId,\n    address indexed receiver,\n    uint amountPaid,\n    address coverAsset\n  );\n\n  event ClaimSubmitted (\n    uint indexed coverId,\n    uint indexed claimId,\n    address indexed submitter\n  );\n\n  event CoverBought (\n    uint indexed coverId,\n    address indexed buyer,\n    address indexed contractAddress,\n    uint feePercentage,\n    uint coverPrice\n  );\n\n  /*\n   feePercentage applied to every cover premium. has 2 decimals. eg.: 10.00% stored as 1000\n  */\n  uint public feePercentage;\n  bool public buysAllowed = true;\n  /*\n    address where `buyCover` distributor fees and `ethOut` from `sellNXM` are sent. Controlled by Owner.\n  */\n  address payable public treasury;\n\n  /*\n    NexusMutual contracts\n  */\n  ICover immutable public cover;\n  IERC20 immutable public nxmToken;\n  INXMaster immutable public master;\n\n  modifier onlyTokenApprovedOrOwner(uint256 tokenId) {\n    require(_isApprovedOrOwner(msg.sender, tokenId), \"Distributor: Not approved or owner\");\n    _;\n  }\n\n  constructor(\n    address coverAddress,\n    address nxmTokenAddress,\n    address masterAddress,\n    uint _feePercentage,\n    address payable _treasury,\n    string memory tokenName,\n    string memory tokenSymbol\n  )\n  ERC721(tokenName, tokenSymbol)\n  public\n  {\n    feePercentage = _feePercentage;\n    treasury = _treasury;\n    cover = ICover(coverAddress);\n    nxmToken = IERC20(nxmTokenAddress);\n    master = INXMaster(masterAddress);\n  }\n\n  /**\n  * @dev buy cover for a coverable identified by its contractAddress\n  * @param contractAddress contract address of coverable\n  * @param coverAsset asset of the premium and of the sum assured.\n  * @param sumAssured amount payable if claim is submitted and considered valid\n  * @param coverType cover type dermining how the data parameter is decoded\n  * @param maxPriceWithFee max price (including fee) to be spent on the cover.\n  * @param data abi-encoded field with additional cover data fields\n  * @return token id\n  */\n  function buyCover (\n    address contractAddress,\n    address coverAsset,\n    uint sumAssured,\n    uint16 coverPeriod,\n    uint8 coverType,\n    uint maxPriceWithFee,\n    bytes calldata data\n  )\n  external\n  payable\n  nonReentrant\n  returns (uint)\n  {\n    require(buysAllowed, \"Distributor: buys not allowed\");\n\n    uint coverPrice = cover.getCoverPrice(contractAddress, coverAsset, sumAssured, coverPeriod, coverType, data);\n    uint coverPriceWithFee = feePercentage.mul(coverPrice).div(10000).add(coverPrice);\n    require(coverPriceWithFee <= maxPriceWithFee, \"Distributor: cover price with fee exceeds max\");\n\n    uint buyCoverValue = 0;\n    if (coverAsset == ETH) {\n      require(msg.value >= coverPriceWithFee, \"Distributor: Insufficient ETH sent\");\n      uint remainder = msg.value.sub(coverPriceWithFee);\n\n      if (remainder > 0) {\n        // solhint-disable-next-line avoid-low-level-calls\n        (bool ok, /* data */) = address(msg.sender).call{value: remainder}(\"\");\n        require(ok, \"Distributor: Returning ETH remainder to sender failed.\");\n      }\n\n      buyCoverValue = coverPrice;\n    } else {\n      IERC20 token = IERC20(coverAsset);\n      // assumes 'msg.sender' has approved 'coverPriceWithFee' to this Contract\n      token.safeTransferFrom(msg.sender, address(this), coverPriceWithFee);\n      // what if the token already has some approved amount?\n      token.approve(address(cover), coverPrice);\n    }\n\n    uint coverId = cover.buyCover{value: buyCoverValue }(\n      contractAddress,\n      coverAsset,\n      sumAssured,\n      coverPeriod,\n      coverType,\n      data\n    );\n\n    uint fee = coverPriceWithFee.sub(coverPrice);\n    if (fee > 0) {\n      transferToTreasury(fee, coverAsset);\n    }\n\n    // mint token using the coverId as a tokenId (guaranteed unique)\n    _mint(msg.sender, coverId);\n    _setTokenURI(coverId, \"https://app.brightunion.io/img/nfts/nexus/cover.png\");\n\n    emit CoverBought(coverId, msg.sender, contractAddress, feePercentage, coverPrice);\n    return coverId;\n  }\n\n  /**\n  * @notice Submit a claim for the cover\n  * @param tokenId cover token id\n  * @param data abi-encoded field with additional claim data fields\n  */\n  function submitClaim(\n    uint tokenId,\n    bytes calldata data\n  )\n  external\n  onlyTokenApprovedOrOwner(tokenId)\n  returns (uint)\n  {\n    // coverId = tokenId\n    uint claimId = cover.submitClaim(tokenId, data);\n    emit ClaimSubmitted(tokenId, claimId, msg.sender);\n    return claimId;\n  }\n\n  /**\n  * @notice Redeem the claim to the cover. Requires that that the payout is completed.\n  * @param tokenId cover token id\n  */\n  function redeemClaim(\n    uint256 tokenId,\n    uint claimId\n  )\n  public\n  onlyTokenApprovedOrOwner(tokenId)\n  nonReentrant\n  {\n    uint coverId = cover.getClaimCoverId(claimId);\n    require(coverId == tokenId, \"Distributor: coverId claimId mismatch\");\n    (ICover.ClaimStatus status, uint amountPaid, address coverAsset) = cover.getPayoutOutcome(claimId);\n    require(status == ICover.ClaimStatus.ACCEPTED, \"Distributor: Claim not accepted\");\n\n    _burn(tokenId);\n    if (coverAsset == ETH) {\n      (bool ok, /* data */) = msg.sender.call{value: amountPaid}(\"\");\n      require(ok, \"Distributor: Transfer to NFT owner failed\");\n    } else {\n      IERC20 erc20 = IERC20(coverAsset);\n      erc20.safeTransfer(msg.sender, amountPaid);\n    }\n\n    emit ClaimPayoutRedeemed(tokenId, claimId, msg.sender, amountPaid, coverAsset);\n  }\n\n  /**\n  * @notice Execute an action on specific cover token. The action is identified by an `action` id.\n      Allows for an ETH transfer or an ERC20 transfer.\n      If less than the supplied assetAmount is needed, it is returned to `msg.sender`.\n  * @dev The purpose of this function is future-proofing for updates to the cover buy->claim cycle.\n  * @param tokenId id of the cover token\n  * @param assetAmount optional asset amount to be transferred along with the action executed\n  * @param asset optional asset to be transferred along with the action executed\n  * @param action action identifier\n  * @param data abi-encoded field with action parameters\n  * @return response (abi-encoded response, amount withheld from the original asset amount supplied)\n  */\n  function executeCoverAction(uint tokenId, uint assetAmount, address asset, uint8 action, bytes calldata data)\n  external\n  payable\n  onlyTokenApprovedOrOwner(tokenId)\n  nonReentrant\n  returns (bytes memory response, uint withheldAmount)\n  {\n    if (assetAmount == 0) {\n      return cover.executeCoverAction(tokenId, action, data);\n    }\n    if (asset == ETH) {\n      require(msg.value >= assetAmount, \"Distributor: Insufficient ETH sent\");\n      (response, withheldAmount) = cover.executeCoverAction{ value: msg.value }(tokenId, action, data);\n      uint remainder = assetAmount.sub(withheldAmount);\n      (bool ok, /* data */) = address(msg.sender).call{value: remainder}(\"\");\n      require(ok, \"Distributor: Returning ETH remainder to sender failed.\");\n      return (response, withheldAmount);\n    }\n\n    IERC20 token = IERC20(asset);\n    token.safeTransferFrom(msg.sender, address(this), assetAmount);\n    token.approve(address(cover), assetAmount);\n    (response, withheldAmount) = cover.executeCoverAction(tokenId, action, data);\n    uint remainder = assetAmount.sub(withheldAmount);\n    token.safeTransfer(msg.sender, remainder);\n    return (response, withheldAmount);\n  }\n\n  /**\n  * @notice get cover data\n  * @param tokenId cover token id\n  */\n  function getCover(uint tokenId)\n  public\n  view\n  returns (\n    uint8 status,\n    uint sumAssured,\n    uint16 coverPeriod,\n    uint validUntil,\n    address contractAddress,\n    address coverAsset,\n    uint premiumInNXM,\n    address memberAddress\n  ) {\n    return cover.getCover(tokenId);\n  }\n\n  /**\n  * @notice get state of a claim payout. Returns\n  * status of cover,  amount paid as part of the payout, address of the cover asset)\n  * @param claimId id of claim\n  */\n  function getPayoutOutcome(uint claimId)\n  public\n  view\n  returns (ICover.ClaimStatus status, uint amountPaid, address coverAsset)\n  {\n    (status, amountPaid, coverAsset) = cover.getPayoutOutcome(claimId);\n  }\n\n  /**\n  * @notice Set `amount` as the allowance of `spender` over the distributor's NXM tokens.\n  * @param spender approved spender\n  * @param amount amount approved\n  */\n  function approveNXM(address spender, uint256 amount) public onlyOwner {\n    nxmToken.approve(spender, amount);\n  }\n\n  /**\n  * @notice Moves `amount` tokens from the distributor to `recipient`.\n  * @param recipient recipient of NXM\n  * @param amount amount of NXM\n  */\n  function withdrawNXM(address recipient, uint256 amount) public onlyOwner {\n    nxmToken.safeTransfer(recipient, amount);\n  }\n\n  /**\n  * @notice Switch NexusMutual membership to `newAddress`.\n  * @param newAddress address\n  */\n  function switchMembership(address newAddress) external onlyOwner {\n    nxmToken.approve(address(cover), uint(-1));\n    cover.switchMembership(newAddress);\n  }\n\n  /**\n  * @notice Sell Distributor-owned NXM tokens for ETH\n  * @param nxmIn Amount of NXM to sell\n  * @param minEthOut minimum expected Eth received\n  */\n  function sellNXM(uint nxmIn, uint minEthOut) external onlyOwner {\n\n    address poolAddress = master.getLatestAddress(\"P1\");\n    nxmToken.approve(poolAddress, nxmIn);\n    uint balanceBefore = address(this).balance;\n    IPool(poolAddress).sellNXM(nxmIn, minEthOut);\n    uint balanceAfter = address(this).balance;\n\n    transferToTreasury(balanceAfter.sub(balanceBefore), ETH);\n  }\n\n  /**\n  * @notice Set if buyCover calls are allowed (true) or not (false).\n  * @param _buysAllowed value set for buysAllowed\n  */\n  function setBuysAllowed(bool _buysAllowed) external onlyOwner {\n    buysAllowed = _buysAllowed;\n  }\n\n  /**\n  * @notice Set treasury address where `buyCover` distributor fees and `ethOut` from `sellNXM` are sent.\n  * @param _treasury new treasury address\n  */\n  function setTreasury(address payable _treasury) external onlyOwner {\n    treasury = _treasury;\n  }\n\n  /**\n  * @notice Send `amount` of `asset`  to treasury address\n  * @param amount amount of asset\n  * @param asset ERC20 token address or ETH\n  */\n  function transferToTreasury(uint amount, address asset) internal {\n    if (asset == ETH) {\n      (bool ok, /* data */) = treasury.call{value: amount}(\"\");\n      require(ok, \"Distributor: Transfer to treasury failed\");\n    } else {\n      IERC20 erc20 = IERC20(asset);\n      erc20.safeTransfer(treasury, amount);\n    }\n  }\n\n  /**\n  * @notice Set fee percentage for buyCover premiums.\n  *  `_feePercentage` has 2 decimals of precision ( 5000 is 50%)\n  * @param _feePercentage fee percentage to be set\n  */\n  function setFeePercentage(uint _feePercentage) external onlyOwner {\n    feePercentage = _feePercentage;\n  }\n\n  /**\n  * @dev required to be allow for receiving ETH claim payouts\n  */\n  receive () payable external {\n  }\n}\n",
  "sourcePath": "/Users/ricardopinto/work/brightunion/distributors/contracts/nexus/Distributor.sol",
  "compiler": {
    "name": "solc",
    "version": "0.7.4+commit.3f05b770.Emscripten.clang"
  },
  "schemaVersion": "3.4.0",
  "updatedAt": "2021-05-03T08:53:06.243Z",
  "devdoc": {
    "kind": "dev",
    "methods": {
      "approve(address,uint256)": {
        "details": "See {IERC721-approve}."
      },
      "approveNXM(address,uint256)": {
        "params": {
          "amount": "amount approved",
          "spender": "approved spender"
        }
      },
      "balanceOf(address)": {
        "details": "See {IERC721-balanceOf}."
      },
      "baseURI()": {
        "details": "Returns the base URI set via {_setBaseURI}. This will be automatically added as a prefix in {tokenURI} to each token's URI, or to the token ID if no specific URI is set for that token ID."
      },
      "buyCover(address,address,uint256,uint16,uint8,uint256,bytes)": {
        "details": "buy cover for a coverable identified by its contractAddress",
        "params": {
          "contractAddress": "contract address of coverable",
          "coverAsset": "asset of the premium and of the sum assured.",
          "coverType": "cover type dermining how the data parameter is decoded",
          "data": "abi-encoded field with additional cover data fields",
          "maxPriceWithFee": "max price (including fee) to be spent on the cover.",
          "sumAssured": "amount payable if claim is submitted and considered valid"
        },
        "returns": {
          "_0": "token id"
        }
      },
      "executeCoverAction(uint256,uint256,address,uint8,bytes)": {
        "details": "The purpose of this function is future-proofing for updates to the cover buy->claim cycle.",
        "params": {
          "action": "action identifier",
          "asset": "optional asset to be transferred along with the action executed",
          "assetAmount": "optional asset amount to be transferred along with the action executed",
          "data": "abi-encoded field with action parameters",
          "tokenId": "id of the cover token"
        },
        "returns": {
          "response": "(abi-encoded response, amount withheld from the original asset amount supplied)"
        }
      },
      "getApproved(uint256)": {
        "details": "See {IERC721-getApproved}."
      },
      "getCover(uint256)": {
        "params": {
          "tokenId": "cover token id"
        }
      },
      "getPayoutOutcome(uint256)": {
        "params": {
          "claimId": "id of claim"
        }
      },
      "isApprovedForAll(address,address)": {
        "details": "See {IERC721-isApprovedForAll}."
      },
      "name()": {
        "details": "See {IERC721Metadata-name}."
      },
      "owner()": {
        "details": "Returns the address of the current owner."
      },
      "ownerOf(uint256)": {
        "details": "See {IERC721-ownerOf}."
      },
      "redeemClaim(uint256,uint256)": {
        "params": {
          "tokenId": "cover token id"
        }
      },
      "renounceOwnership()": {
        "details": "Leaves the contract without owner. It will not be possible to call `onlyOwner` functions anymore. Can only be called by the current owner. NOTE: Renouncing ownership will leave the contract without an owner, thereby removing any functionality that is only available to the owner."
      },
      "safeTransferFrom(address,address,uint256)": {
        "details": "See {IERC721-safeTransferFrom}."
      },
      "safeTransferFrom(address,address,uint256,bytes)": {
        "details": "See {IERC721-safeTransferFrom}."
      },
      "sellNXM(uint256,uint256)": {
        "params": {
          "minEthOut": "minimum expected Eth received",
          "nxmIn": "Amount of NXM to sell"
        }
      },
      "setApprovalForAll(address,bool)": {
        "details": "See {IERC721-setApprovalForAll}."
      },
      "setBuysAllowed(bool)": {
        "params": {
          "_buysAllowed": "value set for buysAllowed"
        }
      },
      "setFeePercentage(uint256)": {
        "params": {
          "_feePercentage": "fee percentage to be set"
        }
      },
      "setTreasury(address)": {
        "params": {
          "_treasury": "new treasury address"
        }
      },
      "submitClaim(uint256,bytes)": {
        "params": {
          "data": "abi-encoded field with additional claim data fields",
          "tokenId": "cover token id"
        }
      },
      "supportsInterface(bytes4)": {
        "details": "See {IERC165-supportsInterface}. Time complexity O(1), guaranteed to always use less than 30 000 gas."
      },
      "switchMembership(address)": {
        "params": {
          "newAddress": "address"
        }
      },
      "symbol()": {
        "details": "See {IERC721Metadata-symbol}."
      },
      "tokenByIndex(uint256)": {
        "details": "See {IERC721Enumerable-tokenByIndex}."
      },
      "tokenOfOwnerByIndex(address,uint256)": {
        "details": "See {IERC721Enumerable-tokenOfOwnerByIndex}."
      },
      "tokenURI(uint256)": {
        "details": "See {IERC721Metadata-tokenURI}."
      },
      "totalSupply()": {
        "details": "See {IERC721Enumerable-totalSupply}."
      },
      "transferFrom(address,address,uint256)": {
        "details": "See {IERC721-transferFrom}."
      },
      "transferOwnership(address)": {
        "details": "Transfers ownership of the contract to a new account (`newOwner`). Can only be called by the current owner."
      },
      "withdrawNXM(address,uint256)": {
        "params": {
          "amount": "amount of NXM",
          "recipient": "recipient of NXM"
        }
      }
    },
    "version": 1
  },
  "userdoc": {
    "kind": "user",
    "methods": {
      "approveNXM(address,uint256)": {
        "notice": "Set `amount` as the allowance of `spender` over the distributor's NXM tokens."
      },
      "executeCoverAction(uint256,uint256,address,uint8,bytes)": {
        "notice": "Execute an action on specific cover token. The action is identified by an `action` id. Allows for an ETH transfer or an ERC20 transfer. If less than the supplied assetAmount is needed, it is returned to `msg.sender`."
      },
      "getCover(uint256)": {
        "notice": "get cover data"
      },
      "getPayoutOutcome(uint256)": {
        "notice": "get state of a claim payout. Returns status of cover,  amount paid as part of the payout, address of the cover asset)"
      },
      "redeemClaim(uint256,uint256)": {
        "notice": "Redeem the claim to the cover. Requires that that the payout is completed."
      },
      "sellNXM(uint256,uint256)": {
        "notice": "Sell Distributor-owned NXM tokens for ETH"
      },
      "setBuysAllowed(bool)": {
        "notice": "Set if buyCover calls are allowed (true) or not (false)."
      },
      "setFeePercentage(uint256)": {
        "notice": "Set fee percentage for buyCover premiums.  `_feePercentage` has 2 decimals of precision ( 5000 is 50%)"
      },
      "setTreasury(address)": {
        "notice": "Set treasury address where `buyCover` distributor fees and `ethOut` from `sellNXM` are sent."
      },
      "submitClaim(uint256,bytes)": {
        "notice": "Submit a claim for the cover"
      },
      "switchMembership(address)": {
        "notice": "Switch NexusMutual membership to `newAddress`."
      },
      "withdrawNXM(address,uint256)": {
        "notice": "Moves `amount` tokens from the distributor to `recipient`."
      }
    },
    "version": 1
  }
}