{
  "contractName": "Distributor",
  "abi": [
    {
      "inputs": [
        {
          "internalType": "address",
          "name": "coverAddress",
          "type": "address"
        },
        {
          "internalType": "address",
          "name": "nxmTokenAddress",
          "type": "address"
        },
        {
          "internalType": "address",
          "name": "masterAddress",
          "type": "address"
        },
        {
          "internalType": "uint256",
          "name": "_feePercentage",
          "type": "uint256"
        },
        {
          "internalType": "address payable",
          "name": "_treasury",
          "type": "address"
        },
        {
          "internalType": "string",
          "name": "tokenName",
          "type": "string"
        },
        {
          "internalType": "string",
          "name": "tokenSymbol",
          "type": "string"
        }
      ],
      "stateMutability": "nonpayable",
      "type": "constructor"
    },
    {
      "anonymous": false,
      "inputs": [
        {
          "indexed": true,
          "internalType": "address",
          "name": "owner",
          "type": "address"
        },
        {
          "indexed": true,
          "internalType": "address",
          "name": "approved",
          "type": "address"
        },
        {
          "indexed": true,
          "internalType": "uint256",
          "name": "tokenId",
          "type": "uint256"
        }
      ],
      "name": "Approval",
      "type": "event"
    },
    {
      "anonymous": false,
      "inputs": [
        {
          "indexed": true,
          "internalType": "address",
          "name": "owner",
          "type": "address"
        },
        {
          "indexed": true,
          "internalType": "address",
          "name": "operator",
          "type": "address"
        },
        {
          "indexed": false,
          "internalType": "bool",
          "name": "approved",
          "type": "bool"
        }
      ],
      "name": "ApprovalForAll",
      "type": "event"
    },
    {
      "anonymous": false,
      "inputs": [
        {
          "indexed": true,
          "internalType": "uint256",
          "name": "coverId",
          "type": "uint256"
        },
        {
          "indexed": true,
          "internalType": "uint256",
          "name": "claimId",
          "type": "uint256"
        },
        {
          "indexed": true,
          "internalType": "address",
          "name": "receiver",
          "type": "address"
        },
        {
          "indexed": false,
          "internalType": "uint256",
          "name": "amountPaid",
          "type": "uint256"
        },
        {
          "indexed": false,
          "internalType": "address",
          "name": "coverAsset",
          "type": "address"
        }
      ],
      "name": "ClaimPayoutRedeemed",
      "type": "event"
    },
    {
      "anonymous": false,
      "inputs": [
        {
          "indexed": true,
          "internalType": "uint256",
          "name": "coverId",
          "type": "uint256"
        },
        {
          "indexed": true,
          "internalType": "uint256",
          "name": "claimId",
          "type": "uint256"
        },
        {
          "indexed": true,
          "internalType": "address",
          "name": "submitter",
          "type": "address"
        }
      ],
      "name": "ClaimSubmitted",
      "type": "event"
    },
    {
      "anonymous": false,
      "inputs": [
        {
          "indexed": true,
          "internalType": "uint256",
          "name": "coverId",
          "type": "uint256"
        },
        {
          "indexed": true,
          "internalType": "address",
          "name": "buyer",
          "type": "address"
        },
        {
          "indexed": true,
          "internalType": "address",
          "name": "contractAddress",
          "type": "address"
        },
        {
          "indexed": false,
          "internalType": "uint256",
          "name": "feePercentage",
          "type": "uint256"
        },
        {
          "indexed": false,
          "internalType": "uint256",
          "name": "coverPrice",
          "type": "uint256"
        }
      ],
      "name": "CoverBought",
      "type": "event"
    },
    {
      "anonymous": false,
      "inputs": [
        {
          "indexed": true,
          "internalType": "address",
          "name": "previousOwner",
          "type": "address"
        },
        {
          "indexed": true,
          "internalType": "address",
          "name": "newOwner",
          "type": "address"
        }
      ],
      "name": "OwnershipTransferred",
      "type": "event"
    },
    {
      "anonymous": false,
      "inputs": [
        {
          "indexed": true,
          "internalType": "address",
          "name": "from",
          "type": "address"
        },
        {
          "indexed": true,
          "internalType": "address",
          "name": "to",
          "type": "address"
        },
        {
          "indexed": true,
          "internalType": "uint256",
          "name": "tokenId",
          "type": "uint256"
        }
      ],
      "name": "Transfer",
      "type": "event"
    },
    {
      "inputs": [],
      "name": "DEFAULT_BASE_URI",
      "outputs": [
        {
          "internalType": "string",
          "name": "",
          "type": "string"
        }
      ],
      "stateMutability": "view",
      "type": "function"
    },
    {
      "inputs": [],
      "name": "ETH",
      "outputs": [
        {
          "internalType": "address",
          "name": "",
          "type": "address"
        }
      ],
      "stateMutability": "view",
      "type": "function"
    },
    {
      "inputs": [
        {
          "internalType": "address",
          "name": "to",
          "type": "address"
        },
        {
          "internalType": "uint256",
          "name": "tokenId",
          "type": "uint256"
        }
      ],
      "name": "approve",
      "outputs": [],
      "stateMutability": "nonpayable",
      "type": "function"
    },
    {
      "inputs": [
        {
          "internalType": "address",
          "name": "owner",
          "type": "address"
        }
      ],
      "name": "balanceOf",
      "outputs": [
        {
          "internalType": "uint256",
          "name": "",
          "type": "uint256"
        }
      ],
      "stateMutability": "view",
      "type": "function"
    },
    {
      "inputs": [],
      "name": "baseURI",
      "outputs": [
        {
          "internalType": "string",
          "name": "",
          "type": "string"
        }
      ],
      "stateMutability": "view",
      "type": "function"
    },
    {
      "inputs": [],
      "name": "buysAllowed",
      "outputs": [
        {
          "internalType": "bool",
          "name": "",
          "type": "bool"
        }
      ],
      "stateMutability": "view",
      "type": "function"
    },
    {
      "inputs": [],
      "name": "cover",
      "outputs": [
        {
          "internalType": "contract ICover",
          "name": "",
          "type": "address"
        }
      ],
      "stateMutability": "view",
      "type": "function"
    },
    {
      "inputs": [],
      "name": "feePercentage",
      "outputs": [
        {
          "internalType": "uint256",
          "name": "",
          "type": "uint256"
        }
      ],
      "stateMutability": "view",
      "type": "function"
    },
    {
      "inputs": [
        {
          "internalType": "uint256",
          "name": "tokenId",
          "type": "uint256"
        }
      ],
      "name": "getApproved",
      "outputs": [
        {
          "internalType": "address",
          "name": "",
          "type": "address"
        }
      ],
      "stateMutability": "view",
      "type": "function"
    },
    {
      "inputs": [
        {
          "internalType": "address",
          "name": "owner",
          "type": "address"
        },
        {
          "internalType": "address",
          "name": "operator",
          "type": "address"
        }
      ],
      "name": "isApprovedForAll",
      "outputs": [
        {
          "internalType": "bool",
          "name": "",
          "type": "bool"
        }
      ],
      "stateMutability": "view",
      "type": "function"
    },
    {
      "inputs": [],
      "name": "master",
      "outputs": [
        {
          "internalType": "contract INXMaster",
          "name": "",
          "type": "address"
        }
      ],
      "stateMutability": "view",
      "type": "function"
    },
    {
      "inputs": [],
      "name": "name",
      "outputs": [
        {
          "internalType": "string",
          "name": "",
          "type": "string"
        }
      ],
      "stateMutability": "view",
      "type": "function"
    },
    {
      "inputs": [],
      "name": "nxmToken",
      "outputs": [
        {
          "internalType": "contract IERC20Upgradeable",
          "name": "",
          "type": "address"
        }
      ],
      "stateMutability": "view",
      "type": "function"
    },
    {
      "inputs": [],
      "name": "owner",
      "outputs": [
        {
          "internalType": "address",
          "name": "",
          "type": "address"
        }
      ],
      "stateMutability": "view",
      "type": "function"
    },
    {
      "inputs": [
        {
          "internalType": "uint256",
          "name": "tokenId",
          "type": "uint256"
        }
      ],
      "name": "ownerOf",
      "outputs": [
        {
          "internalType": "address",
          "name": "",
          "type": "address"
        }
      ],
      "stateMutability": "view",
      "type": "function"
    },
    {
      "inputs": [],
      "name": "renounceOwnership",
      "outputs": [],
      "stateMutability": "nonpayable",
      "type": "function"
    },
    {
      "inputs": [
        {
          "internalType": "address",
          "name": "from",
          "type": "address"
        },
        {
          "internalType": "address",
          "name": "to",
          "type": "address"
        },
        {
          "internalType": "uint256",
          "name": "tokenId",
          "type": "uint256"
        }
      ],
      "name": "safeTransferFrom",
      "outputs": [],
      "stateMutability": "nonpayable",
      "type": "function"
    },
    {
      "inputs": [
        {
          "internalType": "address",
          "name": "from",
          "type": "address"
        },
        {
          "internalType": "address",
          "name": "to",
          "type": "address"
        },
        {
          "internalType": "uint256",
          "name": "tokenId",
          "type": "uint256"
        },
        {
          "internalType": "bytes",
          "name": "_data",
          "type": "bytes"
        }
      ],
      "name": "safeTransferFrom",
      "outputs": [],
      "stateMutability": "nonpayable",
      "type": "function"
    },
    {
      "inputs": [
        {
          "internalType": "address",
          "name": "operator",
          "type": "address"
        },
        {
          "internalType": "bool",
          "name": "approved",
          "type": "bool"
        }
      ],
      "name": "setApprovalForAll",
      "outputs": [],
      "stateMutability": "nonpayable",
      "type": "function"
    },
    {
      "inputs": [
        {
          "internalType": "bytes4",
          "name": "interfaceId",
          "type": "bytes4"
        }
      ],
      "name": "supportsInterface",
      "outputs": [
        {
          "internalType": "bool",
          "name": "",
          "type": "bool"
        }
      ],
      "stateMutability": "view",
      "type": "function"
    },
    {
      "inputs": [],
      "name": "symbol",
      "outputs": [
        {
          "internalType": "string",
          "name": "",
          "type": "string"
        }
      ],
      "stateMutability": "view",
      "type": "function"
    },
    {
      "inputs": [
        {
          "internalType": "uint256",
          "name": "index",
          "type": "uint256"
        }
      ],
      "name": "tokenByIndex",
      "outputs": [
        {
          "internalType": "uint256",
          "name": "",
          "type": "uint256"
        }
      ],
      "stateMutability": "view",
      "type": "function"
    },
    {
      "inputs": [
        {
          "internalType": "address",
          "name": "owner",
          "type": "address"
        },
        {
          "internalType": "uint256",
          "name": "index",
          "type": "uint256"
        }
      ],
      "name": "tokenOfOwnerByIndex",
      "outputs": [
        {
          "internalType": "uint256",
          "name": "",
          "type": "uint256"
        }
      ],
      "stateMutability": "view",
      "type": "function"
    },
    {
      "inputs": [
        {
          "internalType": "uint256",
          "name": "tokenId",
          "type": "uint256"
        }
      ],
      "name": "tokenURI",
      "outputs": [
        {
          "internalType": "string",
          "name": "",
          "type": "string"
        }
      ],
      "stateMutability": "view",
      "type": "function"
    },
    {
      "inputs": [],
      "name": "totalSupply",
      "outputs": [
        {
          "internalType": "uint256",
          "name": "",
          "type": "uint256"
        }
      ],
      "stateMutability": "view",
      "type": "function"
    },
    {
      "inputs": [
        {
          "internalType": "address",
          "name": "from",
          "type": "address"
        },
        {
          "internalType": "address",
          "name": "to",
          "type": "address"
        },
        {
          "internalType": "uint256",
          "name": "tokenId",
          "type": "uint256"
        }
      ],
      "name": "transferFrom",
      "outputs": [],
      "stateMutability": "nonpayable",
      "type": "function"
    },
    {
      "inputs": [
        {
          "internalType": "address",
          "name": "newOwner",
          "type": "address"
        }
      ],
      "name": "transferOwnership",
      "outputs": [],
      "stateMutability": "nonpayable",
      "type": "function"
    },
    {
      "inputs": [],
      "name": "treasury",
      "outputs": [
        {
          "internalType": "address payable",
          "name": "",
          "type": "address"
        }
      ],
      "stateMutability": "view",
      "type": "function"
    },
    {
      "stateMutability": "payable",
      "type": "receive"
    },
    {
      "inputs": [
        {
          "internalType": "address",
          "name": "coverAddress",
          "type": "address"
        },
        {
          "internalType": "address",
          "name": "nxmTokenAddress",
          "type": "address"
        },
        {
          "internalType": "address",
          "name": "masterAddress",
          "type": "address"
        },
        {
          "internalType": "uint256",
          "name": "_feePercentage",
          "type": "uint256"
        },
        {
          "internalType": "address payable",
          "name": "_treasury",
          "type": "address"
        },
        {
          "internalType": "string",
          "name": "tokenName",
          "type": "string"
        },
        {
          "internalType": "string",
          "name": "tokenSymbol",
          "type": "string"
        }
      ],
      "name": "initialize",
      "outputs": [],
      "stateMutability": "nonpayable",
      "type": "function"
    },
    {
      "inputs": [
        {
          "internalType": "address",
          "name": "contractAddress",
          "type": "address"
        },
        {
          "internalType": "address",
          "name": "coverAsset",
          "type": "address"
        },
        {
          "internalType": "uint256",
          "name": "sumAssured",
          "type": "uint256"
        },
        {
          "internalType": "uint16",
          "name": "coverPeriod",
          "type": "uint16"
        },
        {
          "internalType": "uint8",
          "name": "coverType",
          "type": "uint8"
        },
        {
          "internalType": "uint256",
          "name": "maxPriceWithFee",
          "type": "uint256"
        },
        {
          "internalType": "bytes",
          "name": "data",
          "type": "bytes"
        }
      ],
      "name": "buyCover",
      "outputs": [
        {
          "internalType": "uint256",
          "name": "",
          "type": "uint256"
        }
      ],
      "stateMutability": "payable",
      "type": "function"
    },
    {
      "inputs": [
        {
          "internalType": "uint256",
          "name": "tokenId",
          "type": "uint256"
        },
        {
          "internalType": "bytes",
          "name": "data",
          "type": "bytes"
        }
      ],
      "name": "submitClaim",
      "outputs": [
        {
          "internalType": "uint256",
          "name": "",
          "type": "uint256"
        }
      ],
      "stateMutability": "nonpayable",
      "type": "function"
    },
    {
      "inputs": [
        {
          "internalType": "uint256",
          "name": "tokenId",
          "type": "uint256"
        },
        {
          "internalType": "uint256",
          "name": "claimId",
          "type": "uint256"
        }
      ],
      "name": "redeemClaim",
      "outputs": [],
      "stateMutability": "nonpayable",
      "type": "function"
    },
    {
      "inputs": [
        {
          "internalType": "uint256",
          "name": "tokenId",
          "type": "uint256"
        },
        {
          "internalType": "uint256",
          "name": "assetAmount",
          "type": "uint256"
        },
        {
          "internalType": "address",
          "name": "asset",
          "type": "address"
        },
        {
          "internalType": "uint8",
          "name": "action",
          "type": "uint8"
        },
        {
          "internalType": "bytes",
          "name": "data",
          "type": "bytes"
        }
      ],
      "name": "executeCoverAction",
      "outputs": [
        {
          "internalType": "bytes",
          "name": "response",
          "type": "bytes"
        },
        {
          "internalType": "uint256",
          "name": "withheldAmount",
          "type": "uint256"
        }
      ],
      "stateMutability": "payable",
      "type": "function"
    },
    {
      "inputs": [
        {
          "internalType": "uint256",
          "name": "tokenId",
          "type": "uint256"
        }
      ],
      "name": "getCover",
      "outputs": [
        {
          "internalType": "uint8",
          "name": "status",
          "type": "uint8"
        },
        {
          "internalType": "uint256",
          "name": "sumAssured",
          "type": "uint256"
        },
        {
          "internalType": "uint16",
          "name": "coverPeriod",
          "type": "uint16"
        },
        {
          "internalType": "uint256",
          "name": "validUntil",
          "type": "uint256"
        },
        {
          "internalType": "address",
          "name": "contractAddress",
          "type": "address"
        },
        {
          "internalType": "address",
          "name": "coverAsset",
          "type": "address"
        },
        {
          "internalType": "uint256",
          "name": "premiumInNXM",
          "type": "uint256"
        },
        {
          "internalType": "address",
          "name": "memberAddress",
          "type": "address"
        }
      ],
      "stateMutability": "view",
      "type": "function"
    },
    {
      "inputs": [
        {
          "internalType": "uint256",
          "name": "claimId",
          "type": "uint256"
        }
      ],
      "name": "getPayoutOutcome",
      "outputs": [
        {
          "internalType": "enum ICover.ClaimStatus",
          "name": "status",
          "type": "uint8"
        },
        {
          "internalType": "uint256",
          "name": "amountPaid",
          "type": "uint256"
        },
        {
          "internalType": "address",
          "name": "coverAsset",
          "type": "address"
        }
      ],
      "stateMutability": "view",
      "type": "function"
    },
    {
      "inputs": [
        {
          "internalType": "address",
          "name": "spender",
          "type": "address"
        },
        {
          "internalType": "uint256",
          "name": "amount",
          "type": "uint256"
        }
      ],
      "name": "approveNXM",
      "outputs": [],
      "stateMutability": "nonpayable",
      "type": "function"
    },
    {
      "inputs": [
        {
          "internalType": "address",
          "name": "recipient",
          "type": "address"
        },
        {
          "internalType": "uint256",
          "name": "amount",
          "type": "uint256"
        }
      ],
      "name": "withdrawNXM",
      "outputs": [],
      "stateMutability": "nonpayable",
      "type": "function"
    },
    {
      "inputs": [
        {
          "internalType": "address",
          "name": "newAddress",
          "type": "address"
        }
      ],
      "name": "switchMembership",
      "outputs": [],
      "stateMutability": "nonpayable",
      "type": "function"
    },
    {
      "inputs": [
        {
          "internalType": "uint256",
          "name": "nxmIn",
          "type": "uint256"
        },
        {
          "internalType": "uint256",
          "name": "minEthOut",
          "type": "uint256"
        }
      ],
      "name": "sellNXM",
      "outputs": [],
      "stateMutability": "nonpayable",
      "type": "function"
    },
    {
      "inputs": [
        {
          "internalType": "bool",
          "name": "_buysAllowed",
          "type": "bool"
        }
      ],
      "name": "setBuysAllowed",
      "outputs": [],
      "stateMutability": "nonpayable",
      "type": "function"
    },
    {
      "inputs": [
        {
          "internalType": "address payable",
          "name": "_treasury",
          "type": "address"
        }
      ],
      "name": "setTreasury",
      "outputs": [],
      "stateMutability": "nonpayable",
      "type": "function"
    },
    {
      "inputs": [
        {
          "internalType": "uint256",
          "name": "_feePercentage",
          "type": "uint256"
        }
      ],
      "name": "setFeePercentage",
      "outputs": [],
      "stateMutability": "nonpayable",
      "type": "function"
    },
    {
      "inputs": [
        {
          "internalType": "string",
          "name": "baseURI_",
          "type": "string"
        }
      ],
      "name": "setBaseURI",
      "outputs": [],
      "stateMutability": "nonpayable",
      "type": "function"
    }
  ],
  "bytecode": "0x608060405260fc805460ff191660011790553480156200001e57600080fd5b5060405162005b9a38038062005b9a833981810160405260e08110156200004457600080fd5b815160208301516040808501516060860151608087015160a0880180519451969895979396929591949293820192846401000000008211156200008657600080fd5b9083019060208201858111156200009c57600080fd5b8251640100000000811182820188101715620000b757600080fd5b82525081516020918201929091019080838360005b83811015620000e6578181015183820152602001620000cc565b50505050905090810190601f168015620001145780820380516001836020036101000a031916815260200191505b50604052602001805160405193929190846401000000008211156200013857600080fd5b9083019060208201858111156200014e57600080fd5b82516401000000008111828201881017156200016957600080fd5b82525081516020918201929091019080838360005b83811015620001985781810151838201526020016200017e565b50505050905090810190601f168015620001c65780820380516001836020036101000a031916815260200191505b50604052505050620001e487878787878787620001f160201b60201c565b5050505050505062000ad5565b600054610100900460ff16806200020d57506200020d62000346565b806200021c575060005460ff16155b620002595760405162461bcd60e51b815260040180806020018281038252602e81526020018062005b39602e913960400191505060405180910390fd5b600054610100900460ff1615801562000285576000805460ff1961ff0019909116610100171660011790555b6200028f62000364565b6200029962000422565b620002a58383620004c0565b620002c960405180606001604052806033815260200162005b67603391396200058c565b60fb85905560fc8054610100600160a81b0319166101006001600160a01b03878116919091029190911790915560fd80546001600160a01b03199081168b84161790915560fe805482168a841617905560ff805490911691881691909117905580156200033c576000805461ff00191690555b5050505050505050565b60006200035e30620005a560201b620033141760201c565b15905090565b600054610100900460ff16806200038057506200038062000346565b806200038f575060005460ff16155b620003cc5760405162461bcd60e51b815260040180806020018281038252602e81526020018062005b39602e913960400191505060405180910390fd5b600054610100900460ff16158015620003f8576000805460ff1961ff0019909116610100171660011790555b62000402620005ab565b6200040c62000653565b80156200041f576000805461ff00191690555b50565b600054610100900460ff16806200043e57506200043e62000346565b806200044d575060005460ff16155b6200048a5760405162461bcd60e51b815260040180806020018281038252602e81526020018062005b39602e913960400191505060405180910390fd5b600054610100900460ff16158015620004b6576000805460ff1961ff0019909116610100171660011790555b6200040c62000756565b600054610100900460ff1680620004dc5750620004dc62000346565b80620004eb575060005460ff16155b620005285760405162461bcd60e51b815260040180806020018281038252602e81526020018062005b39602e913960400191505060405180910390fd5b600054610100900460ff1615801562000554576000805460ff1961ff0019909116610100171660011790555b6200055e620005ab565b6200056862000804565b620005748383620008aa565b801562000587576000805461ff00191690555b505050565b8051620005a190606d90602084019062000a29565b5050565b3b151590565b600054610100900460ff1680620005c75750620005c762000346565b80620005d6575060005460ff16155b620006135760405162461bcd60e51b815260040180806020018281038252602e81526020018062005b39602e913960400191505060405180910390fd5b600054610100900460ff161580156200040c576000805460ff1961ff00199091166101001716600117905580156200041f576000805461ff001916905550565b600054610100900460ff16806200066f57506200066f62000346565b806200067e575060005460ff16155b620006bb5760405162461bcd60e51b815260040180806020018281038252602e81526020018062005b39602e913960400191505060405180910390fd5b600054610100900460ff16158015620006e7576000805460ff1961ff0019909116610100171660011790555b6000620006f3620009a0565b609780546001600160a01b0319166001600160a01b038316908117909155604051919250906000907f8be0079c531659141344cd1fd0a4f28419497f9722a3daafe3b4186f6b6457e0908290a35080156200041f576000805461ff001916905550565b600054610100900460ff16806200077257506200077262000346565b8062000781575060005460ff16155b620007be5760405162461bcd60e51b815260040180806020018281038252602e81526020018062005b39602e913960400191505060405180910390fd5b600054610100900460ff16158015620007ea576000805460ff1961ff0019909116610100171660011790555b600160c95580156200041f576000805461ff001916905550565b600054610100900460ff16806200082057506200082062000346565b806200082f575060005460ff16155b6200086c5760405162461bcd60e51b815260040180806020018281038252602e81526020018062005b39602e913960400191505060405180910390fd5b600054610100900460ff1615801562000898576000805460ff1961ff0019909116610100171660011790555b6200040c6301ffc9a760e01b620009a4565b600054610100900460ff1680620008c65750620008c662000346565b80620008d5575060005460ff16155b620009125760405162461bcd60e51b815260040180806020018281038252602e81526020018062005b39602e913960400191505060405180910390fd5b600054610100900460ff161580156200093e576000805460ff1961ff0019909116610100171660011790555b82516200095390606a90602086019062000a29565b5081516200096990606b90602085019062000a29565b506200097c6380ac58cd60e01b620009a4565b6200098e635b5e139f60e01b620009a4565b6200057463780e9d6360e01b620009a4565b3390565b6001600160e01b0319808216141562000a04576040805162461bcd60e51b815260206004820152601c60248201527f4552433136353a20696e76616c696420696e7465726661636520696400000000604482015290519081900360640190fd5b6001600160e01b0319166000908152603360205260409020805460ff19166001179055565b828054600181600116156101000203166002900490600052602060002090601f01602090048101928262000a61576000855562000aac565b82601f1062000a7c57805160ff191683800117855562000aac565b8280016001018555821562000aac579182015b8281111562000aac57825182559160200191906001019062000a8f565b5062000aba92915062000abe565b5090565b5b8082111562000aba576000815560010162000abf565b6150548062000ae56000396000f3fe60806040526004361061025f5760003560e01c80638322fff211610144578063d8a856ee116100b6578063e967eb1a1161007a578063e967eb1a14610d3f578063e985e9c514610d54578063ee97f7f314610d8f578063f0f4426014610da4578063f2fde38b14610dd7578063fd7b68a214610e0a57610266565b8063d8a856ee14610a88578063db32749114610b2e578063dcf1621b14610bb0578063e1817a8b14610d15578063e7d931e414610d2a57610266565b8063a001ecdd11610108578063a001ecdd146108fe578063a22cb46514610913578063a497325b1461094e578063ae06c1b714610963578063b88d4fde1461098d578063c87b56dd14610a5e57610266565b80638322fff21461085a57806386a156371461086f5780638da5cb5b1461089b57806395d89b41146108b05780639f1cafa4146108c557610266565b80634c285151116101dd57806355f804b3116101a157806355f804b31461070d57806361d027b3146107be5780636352211e146107d35780636c0360eb146107fd57806370a0823114610812578063715018a61461084557610266565b80634c285151146105045780634d776735146106155780634ed75d471461064e5780634f6ccce71461068157806352799e4d146106ab57610266565b806318160ddd1161022457806318160ddd146103ee57806323b872dd1461041557806328dd3773146104585780632f745c591461048857806342842e0e146104c157610266565b80629697171461026b57806301ffc9a71461029d57806306fdde03146102e5578063081812fc1461036f578063095ea7b3146103b557610266565b3661026657005b600080fd5b34801561027757600080fd5b5061029b6004803603604081101561028e57600080fd5b5080359060200135610e8a565b005b3480156102a957600080fd5b506102d1600480360360208110156102c057600080fd5b50356001600160e01b031916611201565b604080519115158252519081900360200190f35b3480156102f157600080fd5b506102fa611224565b6040805160208082528351818301528351919283929083019185019080838360005b8381101561033457818101518382015260200161031c565b50505050905090810190601f1680156103615780820380516001836020036101000a031916815260200191505b509250505060405180910390f35b34801561037b57600080fd5b506103996004803603602081101561039257600080fd5b50356112ba565b604080516001600160a01b039092168252519081900360200190f35b3480156103c157600080fd5b5061029b600480360360408110156103d857600080fd5b506001600160a01b03813516906020013561131c565b3480156103fa57600080fd5b506104036113f7565b60408051918252519081900360200190f35b34801561042157600080fd5b5061029b6004803603606081101561043857600080fd5b506001600160a01b03813581169160208101359091169060400135611408565b34801561046457600080fd5b5061029b6004803603604081101561047b57600080fd5b508035906020013561145f565b34801561049457600080fd5b50610403600480360360408110156104ab57600080fd5b506001600160a01b03813516906020013561165c565b3480156104cd57600080fd5b5061029b600480360360608110156104e457600080fd5b506001600160a01b03813581169160208101359091169060400135611687565b610596600480360360a081101561051a57600080fd5b8135916020810135916001600160a01b036040830135169160ff6060820135169181019060a081016080820135600160201b81111561055857600080fd5b82018360208201111561056a57600080fd5b803590602001918460018302840111600160201b8311171561058b57600080fd5b5090925090506116a2565b6040518080602001838152602001828103825284818151815260200191508051906020019080838360005b838110156105d95781810151838201526020016105c1565b50505050905090810190601f1680156106065780820380516001836020036101000a031916815260200191505b50935050505060405180910390f35b34801561062157600080fd5b5061029b6004803603604081101561063857600080fd5b506001600160a01b038135169060200135611dae565b34801561065a57600080fd5b5061029b6004803603602081101561067157600080fd5b50356001600160a01b0316611e96565b34801561068d57600080fd5b50610403600480360360208110156106a457600080fd5b5035611fe0565b3480156106b757600080fd5b506106d5600480360360208110156106ce57600080fd5b5035611ff6565b604051808460028111156106e557fe5b8152602001838152602001826001600160a01b03168152602001935050505060405180910390f35b34801561071957600080fd5b5061029b6004803603602081101561073057600080fd5b810190602081018135600160201b81111561074a57600080fd5b82018360208201111561075c57600080fd5b803590602001918460018302840111600160201b8311171561077d57600080fd5b91908080601f01602080910402602001604051908101604052809392919081815260200183838082843760009201919091525092955061208d945050505050565b3480156107ca57600080fd5b506103996120fb565b3480156107df57600080fd5b50610399600480360360208110156107f657600080fd5b503561210f565b34801561080957600080fd5b506102fa612137565b34801561081e57600080fd5b506104036004803603602081101561083557600080fd5b50356001600160a01b0316612198565b34801561085157600080fd5b5061029b612200565b34801561086657600080fd5b506103996122ac565b34801561087b57600080fd5b5061029b6004803603602081101561089257600080fd5b503515156122c4565b3480156108a757600080fd5b50610399612339565b3480156108bc57600080fd5b506102fa612348565b3480156108d157600080fd5b5061029b600480360360408110156108e857600080fd5b506001600160a01b0381351690602001356123a9565b34801561090a57600080fd5b50610403612426565b34801561091f57600080fd5b5061029b6004803603604081101561093657600080fd5b506001600160a01b038135169060200135151561242c565b34801561095a57600080fd5b506102fa612531565b34801561096f57600080fd5b5061029b6004803603602081101561098657600080fd5b503561254d565b34801561099957600080fd5b5061029b600480360360808110156109b057600080fd5b6001600160a01b03823581169260208101359091169160408201359190810190608081016060820135600160201b8111156109ea57600080fd5b8201836020820111156109fc57600080fd5b803590602001918460018302840111600160201b83111715610a1d57600080fd5b91908080601f0160208091040260200160405190810160405280939291908181526020018383808284376000920191909152509295506125b4945050505050565b348015610a6a57600080fd5b506102fa60048036036020811015610a8157600080fd5b503561260c565b610403600480360360e0811015610a9e57600080fd5b6001600160a01b03823581169260208101359091169160408201359161ffff6060820135169160ff6080830135169160a08101359181019060e0810160c0820135600160201b811115610af057600080fd5b820183602082011115610b0257600080fd5b803590602001918460018302840111600160201b83111715610b2357600080fd5b50909250905061288f565b348015610b3a57600080fd5b5061040360048036036040811015610b5157600080fd5b81359190810190604081016020820135600160201b811115610b7257600080fd5b820183602082011115610b8457600080fd5b803590602001918460018302840111600160201b83111715610ba557600080fd5b509092509050612dda565b348015610bbc57600080fd5b5061029b600480360360e0811015610bd357600080fd5b6001600160a01b0382358116926020810135821692604082013583169260608301359260808101359091169181019060c0810160a0820135600160201b811115610c1c57600080fd5b820183602082011115610c2e57600080fd5b803590602001918460018302840111600160201b83111715610c4f57600080fd5b91908080601f0160208091040260200160405190810160405280939291908181526020018383808284376000920191909152509295949360208101935035915050600160201b811115610ca157600080fd5b820183602082011115610cb357600080fd5b803590602001918460018302840111600160201b83111715610cd457600080fd5b91908080601f016020809104026020016040519081016040528093929190818152602001838380828437600092019190915250929550612f08945050505050565b348015610d2157600080fd5b506102d161304c565b348015610d3657600080fd5b50610399613055565b348015610d4b57600080fd5b50610399613064565b348015610d6057600080fd5b506102d160048036036040811015610d7757600080fd5b506001600160a01b0381358116916020013516613073565b348015610d9b57600080fd5b506103996130a1565b348015610db057600080fd5b5061029b60048036036020811015610dc757600080fd5b50356001600160a01b03166130b0565b348015610de357600080fd5b5061029b60048036036020811015610dfa57600080fd5b50356001600160a01b031661313a565b348015610e1657600080fd5b50610e3460048036036020811015610e2d57600080fd5b503561323d565b6040805160ff9099168952602089019790975261ffff9095168787015260608701939093526001600160a01b039182166080870152811660a086015260c08501919091521660e083015251908190036101000190f35b81610e95338261331a565b610ed05760405162461bcd60e51b8152600401808060200182810382526022815260200180614e646022913960400191505060405180910390fd5b600260c9541415610f28576040805162461bcd60e51b815260206004820152601f60248201527f5265656e7472616e637947756172643a207265656e7472616e742063616c6c00604482015290519081900360640190fd5b600260c95560fd54604080516396ff592f60e01b81526004810185905290516000926001600160a01b0316916396ff592f916024808301926020929190829003018186803b158015610f7957600080fd5b505afa158015610f8d573d6000803e3d6000fd5b505050506040513d6020811015610fa357600080fd5b50519050838114610fe55760405162461bcd60e51b8152600401808060200182810382526025815260200180614f7e6025913960400191505060405180910390fd5b60fd54604080516352799e4d60e01b8152600481018690529051600092839283926001600160a01b03909216916352799e4d91602480820192606092909190829003018186803b15801561103857600080fd5b505afa15801561104c573d6000803e3d6000fd5b505050506040513d606081101561106257600080fd5b50805160208201516040909201519094509092509050600183600281111561108657fe5b146110d8576040805162461bcd60e51b815260206004820152601f60248201527f4469737472696275746f723a20436c61696d206e6f7420616363657074656400604482015290519081900360640190fd5b6110e1876133be565b6001600160a01b03811673eeeeeeeeeeeeeeeeeeeeeeeeeeeeeeeeeeeeeeee141561119357604051600090339084908381818185875af1925050503d8060008114611148576040519150601f19603f3d011682016040523d82523d6000602084013e61114d565b606091505b505090508061118d5760405162461bcd60e51b8152600401808060200182810382526029815260200180614d766029913960400191505060405180910390fd5b506111aa565b806111a86001600160a01b038216338561348b565b505b604080518381526001600160a01b03831660208201528151339289928b927f34fca3c3e347457684d11c6311e01dc77fc4d158b9fb5902af19c6b9fae603a9929181900390910190a45050600160c9555050505050565b6001600160e01b0319811660009081526033602052604090205460ff165b919050565b606a8054604080516020601f60026000196101006001881615020190951694909404938401819004810282018101909252828152606093909290918301828280156112b05780601f10611285576101008083540402835291602001916112b0565b820191906000526020600020905b81548152906001019060200180831161129357829003601f168201915b5050505050905090565b60006112c5826134dd565b6113005760405162461bcd60e51b815260040180806020018281038252602c815260200180614ea7602c913960400191505060405180910390fd5b506000908152606860205260409020546001600160a01b031690565b60006113278261210f565b9050806001600160a01b0316836001600160a01b0316141561137a5760405162461bcd60e51b8152600401808060200182810382526021815260200180614fa36021913960400191505060405180910390fd5b806001600160a01b031661138c6134ea565b6001600160a01b031614806113ad57506113ad816113a86134ea565b613073565b6113e85760405162461bcd60e51b8152600401808060200182810382526038815260200180614d3e6038913960400191505060405180910390fd5b6113f283836134ee565b505050565b6000611403606661355c565b905090565b6114196114136134ea565b8261331a565b6114545760405162461bcd60e51b8152600401808060200182810382526031815260200180614fc46031913960400191505060405180910390fd5b6113f2838383613567565b6114676134ea565b6001600160a01b0316611478612339565b6001600160a01b0316146114c1576040805162461bcd60e51b81526020600482018190526024820152600080516020614f06833981519152604482015290519081900360640190fd5b60ff54604080516227050b60e31b815261503160f01b600482015290516000926001600160a01b0316916301382858916024808301926020929190829003018186803b15801561151057600080fd5b505afa158015611524573d6000803e3d6000fd5b505050506040513d602081101561153a57600080fd5b505160fe546040805163095ea7b360e01b81526001600160a01b03808516600483015260248201889052915193945091169163095ea7b3916044808201926020929091908290030181600087803b15801561159457600080fd5b505af11580156115a8573d6000803e3d6000fd5b505050506040513d60208110156115be57600080fd5b5050604080516328dd377360e01b81526004810185905260248101849052905147916001600160a01b038416916328dd37739160448082019260009290919082900301818387803b15801561161257600080fd5b505af1158015611626573d6000803e3d6000fd5b50479250611655915061163b905082846136b3565b73eeeeeeeeeeeeeeeeeeeeeeeeeeeeeeeeeeeeeeee613710565b5050505050565b6001600160a01b038216600090815260656020526040812061167e90836137f3565b90505b92915050565b6113f2838383604051806020016040528060008152506125b4565b60606000876116b1338261331a565b6116ec5760405162461bcd60e51b8152600401808060200182810382526022815260200180614e646022913960400191505060405180910390fd5b600260c9541415611744576040805162461bcd60e51b815260206004820152601f60248201527f5265656e7472616e637947756172643a207265656e7472616e742063616c6c00604482015290519081900360640190fd5b600260c955876118d55760fd54604051630c249ab360e21b8152600481018b815260ff89166024830152606060448301908152606483018890526001600160a01b03909316926330926acc928d928b928b928b929190608401848480828437600081840152601f19601f82011690508083019250505095505050505050600060405180830381600087803b1580156117db57600080fd5b505af11580156117ef573d6000803e3d6000fd5b505050506040513d6000823e601f3d908101601f19168201604090815281101561181857600080fd5b8101908080516040519392919084600160201b82111561183757600080fd5b90830190602082018581111561184c57600080fd5b8251600160201b81118282018810171561186557600080fd5b82525081516020918201929091019080838360005b8381101561189257818101518382015260200161187a565b50505050905090810190601f1680156118bf5780820380516001836020036101000a031916815260200191505b5060405260200151929550919350611d9b915050565b6001600160a01b03871673eeeeeeeeeeeeeeeeeeeeeeeeeeeeeeeeeeeeeeee1415611b5b57873410156119395760405162461bcd60e51b8152600401808060200182810382526022815260200180614d9f6022913960400191505060405180910390fd5b60fd54604051630c249ab360e21b8152600481018b815260ff89166024830152606060448301908152606483018890526001600160a01b03909316926330926acc9234928e928c928c928c929091608401848480828437600081840152601f19601f820116905080830192505050955050505050506000604051808303818588803b1580156119c757600080fd5b505af11580156119db573d6000803e3d6000fd5b50505050506040513d6000823e601f3d908101601f191682016040908152811015611a0557600080fd5b8101908080516040519392919084600160201b821115611a2457600080fd5b908301906020820185811115611a3957600080fd5b8251600160201b811182820188101715611a5257600080fd5b82525081516020918201929091019080838360005b83811015611a7f578181015183820152602001611a67565b50505050905090810190601f168015611aac5780820380516001836020036101000a031916815260200191505b506040526020015192955091935060009150611aca905089846136b3565b604051909150600090339083908381818185875af1925050503d8060008114611b0f576040519150601f19603f3d011682016040523d82523d6000602084013e611b14565b606091505b5050905080611b545760405162461bcd60e51b8152600401808060200182810382526036815260200180614c926036913960400191505060405180910390fd5b5050611d9b565b86611b716001600160a01b03821633308c6137ff565b60fd546040805163095ea7b360e01b81526001600160a01b039283166004820152602481018c905290519183169163095ea7b3916044808201926020929091908290030181600087803b158015611bc757600080fd5b505af1158015611bdb573d6000803e3d6000fd5b505050506040513d6020811015611bf157600080fd5b505060fd54604051630c249ab360e21b8152600481018c815260ff8a166024830152606060448301908152606483018990526001600160a01b03909316926330926acc928e928c928c928c929190608401848480828437600081840152601f19601f82011690508083019250505095505050505050600060405180830381600087803b158015611c8057600080fd5b505af1158015611c94573d6000803e3d6000fd5b505050506040513d6000823e601f3d908101601f191682016040908152811015611cbd57600080fd5b8101908080516040519392919084600160201b821115611cdc57600080fd5b908301906020820185811115611cf157600080fd5b8251600160201b811182820188101715611d0a57600080fd5b82525081516020918201929091019080838360005b83811015611d37578181015183820152602001611d1f565b50505050905090810190601f168015611d645780820380516001836020036101000a031916815260200191505b506040526020015192965091945060009150611d8290508a856136b3565b9050611d986001600160a01b038316338361348b565b50505b50600160c9559097909650945050505050565b611db66134ea565b6001600160a01b0316611dc7612339565b6001600160a01b031614611e10576040805162461bcd60e51b81526020600482018190526024820152600080516020614f06833981519152604482015290519081900360640190fd5b60fe546040805163095ea7b360e01b81526001600160a01b038581166004830152602482018590529151919092169163095ea7b39160448083019260209291908290030181600087803b158015611e6657600080fd5b505af1158015611e7a573d6000803e3d6000fd5b505050506040513d6020811015611e9057600080fd5b50505050565b611e9e6134ea565b6001600160a01b0316611eaf612339565b6001600160a01b031614611ef8576040805162461bcd60e51b81526020600482018190526024820152600080516020614f06833981519152604482015290519081900360640190fd5b60fe5460fd546040805163095ea7b360e01b81526001600160a01b03928316600482015260001960248201529051919092169163095ea7b39160448083019260209291908290030181600087803b158015611f5257600080fd5b505af1158015611f66573d6000803e3d6000fd5b505050506040513d6020811015611f7c57600080fd5b505060fd5460408051634ed75d4760e01b81526001600160a01b03848116600483015291519190921691634ed75d4791602480830192600092919082900301818387803b158015611fcc57600080fd5b505af1158015611655573d6000803e3d6000fd5b600080611fee606684613859565b509392505050565b60fd54604080516352799e4d60e01b8152600481018490529051600092839283926001600160a01b03909216916352799e4d91602480820192606092909190829003018186803b15801561204957600080fd5b505afa15801561205d573d6000803e3d6000fd5b505050506040513d606081101561207357600080fd5b508051602082015160409092015190969195509350915050565b6120956134ea565b6001600160a01b03166120a6612339565b6001600160a01b0316146120ef576040805162461bcd60e51b81526020600482018190526024820152600080516020614f06833981519152604482015290519081900360640190fd5b6120f881613875565b50565b60fc5461010090046001600160a01b031681565b600061168182604051806060016040528060298152602001614deb6029913960669190613888565b606d8054604080516020601f60026000196101006001881615020190951694909404938401819004810282018101909252828152606093909290918301828280156112b05780601f10611285576101008083540402835291602001916112b0565b60006001600160a01b0382166121df5760405162461bcd60e51b815260040180806020018281038252602a815260200180614dc1602a913960400191505060405180910390fd5b6001600160a01b03821660009081526065602052604090206116819061355c565b6122086134ea565b6001600160a01b0316612219612339565b6001600160a01b031614612262576040805162461bcd60e51b81526020600482018190526024820152600080516020614f06833981519152604482015290519081900360640190fd5b6097546040516000916001600160a01b0316907f8be0079c531659141344cd1fd0a4f28419497f9722a3daafe3b4186f6b6457e0908390a3609780546001600160a01b0319169055565b73eeeeeeeeeeeeeeeeeeeeeeeeeeeeeeeeeeeeeeee81565b6122cc6134ea565b6001600160a01b03166122dd612339565b6001600160a01b031614612326576040805162461bcd60e51b81526020600482018190526024820152600080516020614f06833981519152604482015290519081900360640190fd5b60fc805460ff1916911515919091179055565b6097546001600160a01b031690565b606b8054604080516020601f60026000196101006001881615020190951694909404938401819004810282018101909252828152606093909290918301828280156112b05780601f10611285576101008083540402835291602001916112b0565b6123b16134ea565b6001600160a01b03166123c2612339565b6001600160a01b03161461240b576040805162461bcd60e51b81526020600482018190526024820152600080516020614f06833981519152604482015290519081900360640190fd5b60fe54612422906001600160a01b0316838361348b565b5050565b60fb5481565b6124346134ea565b6001600160a01b0316826001600160a01b0316141561249a576040805162461bcd60e51b815260206004820152601960248201527f4552433732313a20617070726f766520746f2063616c6c657200000000000000604482015290519081900360640190fd5b80606960006124a76134ea565b6001600160a01b03908116825260208083019390935260409182016000908120918716808252919093529120805460ff1916921515929092179091556124eb6134ea565b6001600160a01b03167f17307eab39ab6107e8899845ad3d59bd9653f200f220920489ca2b5937696c318360405180821515815260200191505060405180910390a35050565b604051806060016040528060338152602001614ed36033913981565b6125556134ea565b6001600160a01b0316612566612339565b6001600160a01b0316146125af576040805162461bcd60e51b81526020600482018190526024820152600080516020614f06833981519152604482015290519081900360640190fd5b60fb55565b6125c56125bf6134ea565b8361331a565b6126005760405162461bcd60e51b8152600401808060200182810382526031815260200180614fc46031913960400191505060405180910390fd5b611e908484848461389f565b6060612617826134dd565b6126525760405162461bcd60e51b815260040180806020018281038252602f815260200180614f4f602f913960400191505060405180910390fd5b6000828152606c602090815260409182902080548351601f60026000196101006001861615020190931692909204918201849004840281018401909452808452606093928301828280156126e75780601f106126bc576101008083540402835291602001916126e7565b820191906000526020600020905b8154815290600101906020018083116126ca57829003601f168201915b5050505050905060606126f8612137565b905080516000141561270c5750905061121f565b8151156127cd5780826040516020018083805190602001908083835b602083106127475780518252601f199092019160209182019101612728565b51815160209384036101000a600019018019909216911617905285519190930192850191508083835b6020831061278f5780518252601f199092019160209182019101612770565b6001836020036101000a038019825116818451168082178552505050505050905001925050506040516020818303038152906040529250505061121f565b806127d7856138f1565b6040516020018083805190602001908083835b602083106128095780518252601f1990920191602091820191016127ea565b51815160209384036101000a600019018019909216911617905285519190930192850191508083835b602083106128515780518252601f199092019160209182019101612832565b6001836020036101000a0380198251168184511680821785525050505050509050019250505060405160208183030381529060405292505050919050565b6000600260c95414156128e9576040805162461bcd60e51b815260206004820152601f60248201527f5265656e7472616e637947756172643a207265656e7472616e742063616c6c00604482015290519081900360640190fd5b600260c95560fc5460ff16612945576040805162461bcd60e51b815260206004820152601d60248201527f4469737472696275746f723a2062757973206e6f7420616c6c6f776564000000604482015290519081900360640190fd5b600060fd60009054906101000a90046001600160a01b03166001600160a01b0316635caca7b48b8b8b8b8b8a8a6040518863ffffffff1660e01b815260040180886001600160a01b03168152602001876001600160a01b031681526020018681526020018561ffff1681526020018460ff168152602001806020018281038252848482818152602001925080828437600081840152601f19601f8201169050808301925050509850505050505050505060206040518083038186803b158015612a0d57600080fd5b505afa158015612a21573d6000803e3d6000fd5b505050506040513d6020811015612a3757600080fd5b505160fb54909150600090612a66908390612a609061271090612a5a90846139cc565b90613a25565b90613a8c565b905085811115612aa75760405162461bcd60e51b815260040180806020018281038252602d815260200180614c65602d913960400191505060405180910390fd5b60006001600160a01b038b1673eeeeeeeeeeeeeeeeeeeeeeeeeeeeeeeeeeeeeeee1415612bb35781341015612b0d5760405162461bcd60e51b8152600401808060200182810382526022815260200180614d9f6022913960400191505060405180910390fd5b6000612b1934846136b3565b90508015612baa57604051600090339083908381818185875af1925050503d8060008114612b63576040519150601f19603f3d011682016040523d82523d6000602084013e612b68565b606091505b5050905080612ba85760405162461bcd60e51b8152600401808060200182810382526036815260200180614c926036913960400191505060405180910390fd5b505b83915050612c4d565b8a612bc96001600160a01b0382163330866137ff565b60fd546040805163095ea7b360e01b81526001600160a01b0392831660048201526024810187905290519183169163095ea7b3916044808201926020929091908290030181600087803b158015612c1f57600080fd5b505af1158015612c33573d6000803e3d6000fd5b505050506040513d6020811015612c4957600080fd5b5050505b600060fd60009054906101000a90046001600160a01b03166001600160a01b03166304836c4a838f8f8f8f8f8e8e6040518963ffffffff1660e01b815260040180886001600160a01b03168152602001876001600160a01b031681526020018681526020018561ffff1681526020018460ff168152602001806020018281038252848482818152602001925080828437600081840152601f19601f820116905080830192505050985050505050505050506020604051808303818588803b158015612d1757600080fd5b505af1158015612d2b573d6000803e3d6000fd5b50505050506040513d6020811015612d4257600080fd5b505190506000612d5284866136b3565b90508015612d6457612d64818e613710565b612d6e3383613ae6565b8d6001600160a01b0316336001600160a01b0316837fa0105afc48bbd0c43e1c71d83dc1e02ae58388f3109943595b89e24a5ee1c36560fb5489604051808381526020018281526020019250505060405180910390a450600160c9559c9b505050505050505050505050565b600083612de7338261331a565b612e225760405162461bcd60e51b8152600401808060200182810382526022815260200180614e646022913960400191505060405180910390fd5b60fd546040805163db32749160e01b81526004810188815260248201928352604482018790526000936001600160a01b03169263db327491928a928a928a92606401848480828437600081840152601f19601f820116905080830192505050945050505050602060405180830381600087803b158015612ea157600080fd5b505af1158015612eb5573d6000803e3d6000fd5b505050506040513d6020811015612ecb57600080fd5b50516040519091503390829088907f9fe11e531030a058803617055e27f9f4768236e4322e13b9c4c09f4338e23a6890600090a495945050505050565b600054610100900460ff1680612f215750612f21613c14565b80612f2f575060005460ff16155b612f6a5760405162461bcd60e51b815260040180806020018281038252602e815260200180614e14602e913960400191505060405180910390fd5b600054610100900460ff16158015612f95576000805460ff1961ff0019909116610100171660011790555b612f9d613c25565b612fa5613cd6565b612faf8383613d6b565b612fd0604051806060016040528060338152602001614ed360339139613875565b60fb85905560fc8054610100600160a81b0319166101006001600160a01b03878116919091029190911790915560fd80546001600160a01b03199081168b84161790915560fe805482168a841617905560ff80549091169188169190911790558015613042576000805461ff00191690555b5050505050505050565b60fc5460ff1681565b60fd546001600160a01b031681565b60fe546001600160a01b031681565b6001600160a01b03918216600090815260696020908152604080832093909416825291909152205460ff1690565b60ff546001600160a01b031681565b6130b86134ea565b6001600160a01b03166130c9612339565b6001600160a01b031614613112576040805162461bcd60e51b81526020600482018190526024820152600080516020614f06833981519152604482015290519081900360640190fd5b60fc80546001600160a01b0390921661010002610100600160a81b0319909216919091179055565b6131426134ea565b6001600160a01b0316613153612339565b6001600160a01b03161461319c576040805162461bcd60e51b81526020600482018190526024820152600080516020614f06833981519152604482015290519081900360640190fd5b6001600160a01b0381166131e15760405162461bcd60e51b8152600401808060200182810382526026815260200180614c3f6026913960400191505060405180910390fd5b6097546040516001600160a01b038084169216907f8be0079c531659141344cd1fd0a4f28419497f9722a3daafe3b4186f6b6457e090600090a3609780546001600160a01b0319166001600160a01b0392909216919091179055565b60008060008060008060008060fd60009054906101000a90046001600160a01b03166001600160a01b031663fd7b68a28a6040518263ffffffff1660e01b8152600401808281526020019150506101006040518083038186803b1580156132a357600080fd5b505afa1580156132b7573d6000803e3d6000fd5b505050506040513d6101008110156132ce57600080fd5b508051602082015160408301516060840151608085015160a086015160c087015160e090970151959e50939c50919a509850965094509092509050919395975091939597565b3b151590565b6000613325826134dd565b6133605760405162461bcd60e51b815260040180806020018281038252602c815260200180614d12602c913960400191505060405180910390fd5b600061336b8361210f565b9050806001600160a01b0316846001600160a01b031614806133a65750836001600160a01b031661339b846112ba565b6001600160a01b0316145b806133b657506133b68185613073565b949350505050565b60006133c98261210f565b90506133d7816000846113f2565b6133e26000836134ee565b6000828152606c60205260409020546002600019610100600184161502019091160415613420576000828152606c6020526040812061342091614add565b6001600160a01b03811660009081526065602052604090206134429083613e28565b5061344e606683613e34565b5060405182906000906001600160a01b038416907fddf252ad1be2c89b69c2b068fc378daa952ba7f163c4a11628f55a4df523b3ef908390a45050565b604080516001600160a01b038416602482015260448082018490528251808303909101815260649091019091526020810180516001600160e01b031663a9059cbb60e01b1790526113f2908490613e40565b6000611681606683613ef1565b3390565b600081815260686020526040902080546001600160a01b0319166001600160a01b03841690811790915581906135238261210f565b6001600160a01b03167f8c5be1e5ebec7d5bd14f71427d1e84f3dd0314c0f7b2291e5b200ac8c7c3b92560405160405180910390a45050565b600061168182613efd565b826001600160a01b031661357a8261210f565b6001600160a01b0316146135bf5760405162461bcd60e51b8152600401808060200182810382526029815260200180614f266029913960400191505060405180910390fd5b6001600160a01b0382166136045760405162461bcd60e51b8152600401808060200182810382526024815260200180614cc86024913960400191505060405180910390fd5b61360f8383836113f2565b61361a6000826134ee565b6001600160a01b038316600090815260656020526040902061363c9082613e28565b506001600160a01b038216600090815260656020526040902061365f9082613f01565b5061366c60668284613f0d565b5080826001600160a01b0316846001600160a01b03167fddf252ad1be2c89b69c2b068fc378daa952ba7f163c4a11628f55a4df523b3ef60405160405180910390a4505050565b60008282111561370a576040805162461bcd60e51b815260206004820152601e60248201527f536166654d6174683a207375627472616374696f6e206f766572666c6f770000604482015290519081900360640190fd5b50900390565b6001600160a01b03811673eeeeeeeeeeeeeeeeeeeeeeeeeeeeeeeeeeeeeeee14156137d25760fc5460405160009161010090046001600160a01b03169084908381818185875af1925050503d8060008114613787576040519150601f19603f3d011682016040523d82523d6000602084013e61378c565b606091505b50509050806137cc5760405162461bcd60e51b8152600401808060200182810382526028815260200180614be56028913960400191505060405180910390fd5b50612422565b60fc5481906113f2906001600160a01b03808416916101009004168561348b565b600061167e8383613f23565b604080516001600160a01b0380861660248301528416604482015260648082018490528251808303909101815260849091019091526020810180516001600160e01b03166323b872dd60e01b179052611e90908590613e40565b60008080806138688686613f87565b9097909650945050505050565b805161242290606d906020840190614b21565b6000613895848484614002565b90505b9392505050565b6138aa848484613567565b6138b6848484846140cc565b611e905760405162461bcd60e51b8152600401808060200182810382526032815260200180614c0d6032913960400191505060405180910390fd5b60608161391657506040805180820190915260018152600360fc1b602082015261121f565b8160005b811561392e57600101600a8204915061391a565b60608167ffffffffffffffff8111801561394757600080fd5b506040519080825280601f01601f191660200182016040528015613972576020820181803683370190505b50859350905060001982015b83156139c357600a840660300160f81b828280600190039350815181106139a157fe5b60200101906001600160f81b031916908160001a905350600a8404935061397e565b50949350505050565b6000826139db57506000611681565b828202828482816139e857fe5b041461167e5760405162461bcd60e51b8152600401808060200182810382526021815260200180614e866021913960400191505060405180910390fd5b6000808211613a7b576040805162461bcd60e51b815260206004820152601a60248201527f536166654d6174683a206469766973696f6e206279207a65726f000000000000604482015290519081900360640190fd5b818381613a8457fe5b049392505050565b60008282018381101561167e576040805162461bcd60e51b815260206004820152601b60248201527f536166654d6174683a206164646974696f6e206f766572666c6f770000000000604482015290519081900360640190fd5b6001600160a01b038216613b41576040805162461bcd60e51b815260206004820181905260248201527f4552433732313a206d696e7420746f20746865207a65726f2061646472657373604482015290519081900360640190fd5b613b4a816134dd565b15613b9c576040805162461bcd60e51b815260206004820152601c60248201527f4552433732313a20746f6b656e20616c7265616479206d696e74656400000000604482015290519081900360640190fd5b613ba8600083836113f2565b6001600160a01b0382166000908152606560205260409020613bca9082613f01565b50613bd760668284613f0d565b5060405181906001600160a01b038416906000907fddf252ad1be2c89b69c2b068fc378daa952ba7f163c4a11628f55a4df523b3ef908290a45050565b6000613c1f30613314565b15905090565b600054610100900460ff1680613c3e5750613c3e613c14565b80613c4c575060005460ff16155b613c875760405162461bcd60e51b815260040180806020018281038252602e815260200180614e14602e913960400191505060405180910390fd5b600054610100900460ff16158015613cb2576000805460ff1961ff0019909116610100171660011790555b613cba614234565b613cc26142d4565b80156120f8576000805461ff001916905550565b600054610100900460ff1680613cef5750613cef613c14565b80613cfd575060005460ff16155b613d385760405162461bcd60e51b815260040180806020018281038252602e815260200180614e14602e913960400191505060405180910390fd5b600054610100900460ff16158015613d63576000805460ff1961ff0019909116610100171660011790555b613cc26143cd565b600054610100900460ff1680613d845750613d84613c14565b80613d92575060005460ff16155b613dcd5760405162461bcd60e51b815260040180806020018281038252602e815260200180614e14602e913960400191505060405180910390fd5b600054610100900460ff16158015613df8576000805460ff1961ff0019909116610100171660011790555b613e00614234565b613e08614473565b613e128383614510565b80156113f2576000805461ff0019169055505050565b600061167e83836145f5565b600061167e83836146bb565b6060613e95826040518060400160405280602081526020017f5361666545524332303a206c6f772d6c6576656c2063616c6c206661696c6564815250856001600160a01b031661478f9092919063ffffffff16565b8051909150156113f257808060200190516020811015613eb457600080fd5b50516113f25760405162461bcd60e51b815260040180806020018281038252602a815260200180614ff5602a913960400191505060405180910390fd5b600061167e838361479e565b5490565b600061167e83836147b6565b600061389584846001600160a01b038516614800565b81546000908210613f655760405162461bcd60e51b8152600401808060200182810382526022815260200180614bc36022913960400191505060405180910390fd5b826000018281548110613f7457fe5b9060005260206000200154905092915050565b815460009081908310613fcb5760405162461bcd60e51b8152600401808060200182810382526022815260200180614e426022913960400191505060405180910390fd5b6000846000018481548110613fdc57fe5b906000526020600020906002020190508060000154816001015492509250509250929050565b6000828152600184016020526040812054828161409d5760405162461bcd60e51b81526004018080602001828103825283818151815260200191508051906020019080838360005b8381101561406257818101518382015260200161404a565b50505050905090810190601f16801561408f5780820380516001836020036101000a031916815260200191505b509250505060405180910390fd5b508460000160018203815481106140b057fe5b9060005260206000209060020201600101549150509392505050565b60006140e0846001600160a01b0316613314565b6140ec575060016133b6565b60606141fa630a85bd0160e11b6141016134ea565b88878760405160240180856001600160a01b03168152602001846001600160a01b0316815260200183815260200180602001828103825283818151815260200191508051906020019080838360005b83811015614168578181015183820152602001614150565b50505050905090810190601f1680156141955780820380516001836020036101000a031916815260200191505b5095505050505050604051602081830303815290604052906001600160e01b0319166020820180516001600160e01b038381831617835250505050604051806060016040528060328152602001614c0d603291396001600160a01b038816919061478f565b9050600081806020019051602081101561421357600080fd5b50516001600160e01b031916630a85bd0160e11b1492505050949350505050565b600054610100900460ff168061424d575061424d613c14565b8061425b575060005460ff16155b6142965760405162461bcd60e51b815260040180806020018281038252602e815260200180614e14602e913960400191505060405180910390fd5b600054610100900460ff16158015613cc2576000805460ff1961ff00199091166101001716600117905580156120f8576000805461ff001916905550565b600054610100900460ff16806142ed57506142ed613c14565b806142fb575060005460ff16155b6143365760405162461bcd60e51b815260040180806020018281038252602e815260200180614e14602e913960400191505060405180910390fd5b600054610100900460ff16158015614361576000805460ff1961ff0019909116610100171660011790555b600061436b6134ea565b609780546001600160a01b0319166001600160a01b038316908117909155604051919250906000907f8be0079c531659141344cd1fd0a4f28419497f9722a3daafe3b4186f6b6457e0908290a35080156120f8576000805461ff001916905550565b600054610100900460ff16806143e657506143e6613c14565b806143f4575060005460ff16155b61442f5760405162461bcd60e51b815260040180806020018281038252602e815260200180614e14602e913960400191505060405180910390fd5b600054610100900460ff1615801561445a576000805460ff1961ff0019909116610100171660011790555b600160c95580156120f8576000805461ff001916905550565b600054610100900460ff168061448c575061448c613c14565b8061449a575060005460ff16155b6144d55760405162461bcd60e51b815260040180806020018281038252602e815260200180614e14602e913960400191505060405180910390fd5b600054610100900460ff16158015614500576000805460ff1961ff0019909116610100171660011790555b613cc26301ffc9a760e01b614897565b600054610100900460ff16806145295750614529613c14565b80614537575060005460ff16155b6145725760405162461bcd60e51b815260040180806020018281038252602e815260200180614e14602e913960400191505060405180910390fd5b600054610100900460ff1615801561459d576000805460ff1961ff0019909116610100171660011790555b82516145b090606a906020860190614b21565b5081516145c490606b906020850190614b21565b506145d56380ac58cd60e01b614897565b6145e5635b5e139f60e01b614897565b613e1263780e9d6360e01b614897565b600081815260018301602052604081205480156146b1578354600019808301919081019060009087908390811061462857fe5b906000526020600020015490508087600001848154811061464557fe5b60009182526020808320909101929092558281526001898101909252604090209084019055865487908061467557fe5b60019003818190600052602060002001600090559055866001016000878152602001908152602001600020600090556001945050505050611681565b6000915050611681565b600081815260018301602052604081205480156146b157835460001980830191908101906000908790839081106146ee57fe5b906000526020600020906002020190508087600001848154811061470e57fe5b60009182526020808320845460029093020191825560019384015491840191909155835482528983019052604090209084019055865487908061474d57fe5b60008281526020808220600260001990940193840201828155600190810183905592909355888152898201909252604082209190915594506116819350505050565b6060613895848460008561491b565b60009081526001919091016020526040902054151590565b60006147c2838361479e565b6147f857508154600181810184556000848152602080822090930184905584548482528286019093526040902091909155611681565b506000611681565b600082815260018401602052604081205480614865575050604080518082018252838152602080820184815286546001818101895560008981528481209551600290930290950191825591519082015586548684528188019092529290912055613898565b8285600001600183038154811061487857fe5b9060005260206000209060020201600101819055506000915050613898565b6001600160e01b031980821614156148f6576040805162461bcd60e51b815260206004820152601c60248201527f4552433136353a20696e76616c696420696e7465726661636520696400000000604482015290519081900360640190fd5b6001600160e01b0319166000908152603360205260409020805460ff19166001179055565b60608247101561495c5760405162461bcd60e51b8152600401808060200182810382526026815260200180614cec6026913960400191505060405180910390fd5b61496585613314565b6149b6576040805162461bcd60e51b815260206004820152601d60248201527f416464726573733a2063616c6c20746f206e6f6e2d636f6e7472616374000000604482015290519081900360640190fd5b60006060866001600160a01b031685876040518082805190602001908083835b602083106149f55780518252601f1990920191602091820191016149d6565b6001836020036101000a03801982511681845116808217855250505050505090500191505060006040518083038185875af1925050503d8060008114614a57576040519150601f19603f3d011682016040523d82523d6000602084013e614a5c565b606091505b5091509150614a6c828286614a77565b979650505050505050565b60608315614a86575081613898565b825115614a965782518084602001fd5b60405162461bcd60e51b815260206004820181815284516024840152845185939192839260440191908501908083836000831561406257818101518382015260200161404a565b50805460018160011615610100020316600290046000825580601f10614b0357506120f8565b601f0160209004906000526020600020908101906120f89190614bad565b828054600181600116156101000203166002900490600052602060002090601f016020900481019282614b575760008555614b9d565b82601f10614b7057805160ff1916838001178555614b9d565b82800160010185558215614b9d579182015b82811115614b9d578251825591602001919060010190614b82565b50614ba9929150614bad565b5090565b5b80821115614ba95760008155600101614bae56fe456e756d657261626c655365743a20696e646578206f7574206f6620626f756e64734469737472696275746f723a205472616e7366657220746f207472656173757279206661696c65644552433732313a207472616e7366657220746f206e6f6e20455243373231526563656976657220696d706c656d656e7465724f776e61626c653a206e6577206f776e657220697320746865207a65726f20616464726573734469737472696275746f723a20636f7665722070726963652077697468206665652065786365656473206d61784469737472696275746f723a2052657475726e696e67204554482072656d61696e64657220746f2073656e646572206661696c65642e4552433732313a207472616e7366657220746f20746865207a65726f2061646472657373416464726573733a20696e73756666696369656e742062616c616e636520666f722063616c6c4552433732313a206f70657261746f7220717565727920666f72206e6f6e6578697374656e7420746f6b656e4552433732313a20617070726f76652063616c6c6572206973206e6f74206f776e6572206e6f7220617070726f76656420666f7220616c6c4469737472696275746f723a205472616e7366657220746f204e4654206f776e6572206661696c65644469737472696275746f723a20496e73756666696369656e74204554482073656e744552433732313a2062616c616e636520717565727920666f7220746865207a65726f20616464726573734552433732313a206f776e657220717565727920666f72206e6f6e6578697374656e7420746f6b656e496e697469616c697a61626c653a20636f6e747261637420697320616c726561647920696e697469616c697a6564456e756d657261626c654d61703a20696e646578206f7574206f6620626f756e64734469737472696275746f723a204e6f7420617070726f766564206f72206f776e6572536166654d6174683a206d756c7469706c69636174696f6e206f766572666c6f774552433732313a20617070726f76656420717565727920666f72206e6f6e6578697374656e7420746f6b656e68747470733a2f2f6170702e627269676874756e696f6e2e696f2f696d672f6e6674732f6e657875732f636f7665722e706e674f776e61626c653a2063616c6c6572206973206e6f7420746865206f776e65724552433732313a207472616e73666572206f6620746f6b656e2074686174206973206e6f74206f776e4552433732314d657461646174613a2055524920717565727920666f72206e6f6e6578697374656e7420746f6b656e4469737472696275746f723a20636f766572496420636c61696d4964206d69736d617463684552433732313a20617070726f76616c20746f2063757272656e74206f776e65724552433732313a207472616e736665722063616c6c6572206973206e6f74206f776e6572206e6f7220617070726f7665645361666545524332303a204552433230206f7065726174696f6e20646964206e6f742073756363656564a26469706673582212202dc334a6cb7fa2fa415dedf92741d7472c96bfd8421a46edbe38c53aadbfc2c364736f6c63430007040033496e697469616c697a61626c653a20636f6e747261637420697320616c726561647920696e697469616c697a656468747470733a2f2f6170702e627269676874756e696f6e2e696f2f696d672f6e6674732f6e657875732f636f7665722e706e67",
  "immutableReferences": {},
  "source": "/* Copyright (C) 2021 NexusMutual.io\n\n  This program is free software: you can redistribute it and/or modify\n    it under the terms of the GNU General Public License as published by\n    the Free Software Foundation, either version 3 of the License, or\n    (at your option) any later version.\n\n  This program is distributed in the hope that it will be useful,\n    but WITHOUT ANY WARRANTY; without even the implied warranty of\n    MERCHANTABILITY or FITNESS FOR A PARTICULAR PURPOSE.  See the\n    GNU General Public License for more details.\n\n  You should have received a copy of the GNU General Public License\n    along with this program.  If not, see http://www.gnu.org/licenses/ */\n\npragma solidity ^0.7.4;\n\nimport \"@openzeppelin/contracts-upgradeable/token/ERC721/ERC721Upgradeable.sol\";\nimport \"@openzeppelin/contracts-upgradeable/token/ERC20/IERC20Upgradeable.sol\";\nimport \"@openzeppelin/contracts-upgradeable/token/ERC20/SafeERC20Upgradeable.sol\";\nimport \"@openzeppelin/contracts-upgradeable/access/OwnableUpgradeable.sol\";\nimport \"@openzeppelin/contracts-upgradeable/utils/ReentrancyGuardUpgradeable.sol\";\nimport \"@openzeppelin/contracts-upgradeable/math/SafeMathUpgradeable.sol\";\nimport \"./interfaces/ICover.sol\";\nimport \"./interfaces/IPool.sol\";\nimport \"./interfaces/INXMaster.sol\";\n\ncontract Distributor is ERC721Upgradeable, OwnableUpgradeable, ReentrancyGuardUpgradeable {\n  using SafeMathUpgradeable for uint;\n  using SafeERC20Upgradeable for IERC20Upgradeable;\n\n  address public constant ETH = 0xEeeeeEeeeEeEeeEeEeEeeEEEeeeeEeeeeeeeEEeE;\n  string public constant DEFAULT_BASE_URI = \"https://app.brightunion.io/img/nfts/nexus/cover.png\";\n\n  event ClaimPayoutRedeemed (\n    uint indexed coverId,\n    uint indexed claimId,\n    address indexed receiver,\n    uint amountPaid,\n    address coverAsset\n  );\n\n  event ClaimSubmitted (\n    uint indexed coverId,\n    uint indexed claimId,\n    address indexed submitter\n  );\n\n  event CoverBought (\n    uint indexed coverId,\n    address indexed buyer,\n    address indexed contractAddress,\n    uint feePercentage,\n    uint coverPrice\n  );\n\n  /*\n   feePercentage applied to every cover premium. has 2 decimals. eg.: 10.00% stored as 1000\n  */\n  uint public feePercentage;\n  bool public buysAllowed = true;\n  /*\n    address where `buyCover` distributor fees and `ethOut` from `sellNXM` are sent. Controlled by Owner.\n  */\n  address payable public treasury;\n\n  /*\n    NexusMutual contracts\n  */\n  ICover public cover;\n  IERC20Upgradeable public nxmToken;\n  INXMaster public master;\n\n  modifier onlyTokenApprovedOrOwner(uint256 tokenId) {\n    require(_isApprovedOrOwner(msg.sender, tokenId), \"Distributor: Not approved or owner\");\n    _;\n  }\n\n  /**\n   * @dev DistributorFactory expects a constructor with this signature.\n   */\n  constructor(\n    address coverAddress,\n    address nxmTokenAddress,\n    address masterAddress,\n    uint _feePercentage,\n    address payable _treasury,\n    string memory tokenName,\n    string memory tokenSymbol\n  )\n  public\n  {\n    initialize(\n      coverAddress,\n      nxmTokenAddress,\n      masterAddress,\n      _feePercentage,\n      _treasury,\n      tokenName,\n      tokenSymbol\n    );\n  }\n\n  /**\n   * @dev Standard pattern of constructing proxy contracts with the same signature as the constructor.\n   */\n  function initialize(\n    address coverAddress,\n    address nxmTokenAddress,\n    address masterAddress,\n    uint _feePercentage,\n    address payable _treasury,\n    string memory tokenName,\n    string memory tokenSymbol\n  )\n  initializer\n  public\n  {\n    __Ownable_init();\n    __ReentrancyGuard_init();\n    __ERC721_init(tokenName, tokenSymbol);\n\n    _setBaseURI(DEFAULT_BASE_URI);\n    feePercentage = _feePercentage;\n    treasury = _treasury;\n    cover = ICover(coverAddress);\n    nxmToken = IERC20Upgradeable(nxmTokenAddress);\n    master = INXMaster(masterAddress);\n  }\n\n  /**\n  * @dev buy cover for a coverable identified by its contractAddress\n  * @param contractAddress contract address of coverable\n  * @param coverAsset asset of the premium and of the sum assured.\n  * @param sumAssured amount payable if claim is submitted and considered valid\n  * @param coverType cover type dermining how the data parameter is decoded\n  * @param maxPriceWithFee max price (including fee) to be spent on the cover.\n  * @param data abi-encoded field with additional cover data fields\n  * @return token id\n  */\n  function buyCover (\n    address contractAddress,\n    address coverAsset,\n    uint sumAssured,\n    uint16 coverPeriod,\n    uint8 coverType,\n    uint maxPriceWithFee,\n    bytes calldata data\n  )\n  external\n  payable\n  nonReentrant\n  returns (uint)\n  {\n    require(buysAllowed, \"Distributor: buys not allowed\");\n\n    uint coverPrice = cover.getCoverPrice(contractAddress, coverAsset, sumAssured, coverPeriod, coverType, data);\n    uint coverPriceWithFee = feePercentage.mul(coverPrice).div(10000).add(coverPrice);\n    require(coverPriceWithFee <= maxPriceWithFee, \"Distributor: cover price with fee exceeds max\");\n\n    uint buyCoverValue = 0;\n    if (coverAsset == ETH) {\n      require(msg.value >= coverPriceWithFee, \"Distributor: Insufficient ETH sent\");\n      uint remainder = msg.value.sub(coverPriceWithFee);\n\n      if (remainder > 0) {\n        // solhint-disable-next-line avoid-low-level-calls\n        (bool ok, /* data */) = address(msg.sender).call{value: remainder}(\"\");\n        require(ok, \"Distributor: Returning ETH remainder to sender failed.\");\n      }\n\n      buyCoverValue = coverPrice;\n    } else {\n      IERC20Upgradeable token = IERC20Upgradeable(coverAsset);\n      token.safeTransferFrom(msg.sender, address(this), coverPriceWithFee);\n      token.approve(address(cover), coverPrice);\n    }\n\n    uint coverId = cover.buyCover{value: buyCoverValue }(\n      contractAddress,\n      coverAsset,\n      sumAssured,\n      coverPeriod,\n      coverType,\n      data\n    );\n\n    uint fee = coverPriceWithFee.sub(coverPrice);\n    if (fee > 0) {\n      transferToTreasury(fee, coverAsset);\n    }\n\n    // mint token using the coverId as a tokenId (guaranteed unique)\n    _mint(msg.sender, coverId);\n\n    emit CoverBought(coverId, msg.sender, contractAddress, feePercentage, coverPrice);\n    return coverId;\n  }\n\n  /**\n  * @notice Submit a claim for the cover\n  * @param tokenId cover token id\n  * @param data abi-encoded field with additional claim data fields\n  */\n  function submitClaim(\n    uint tokenId,\n    bytes calldata data\n  )\n  external\n  onlyTokenApprovedOrOwner(tokenId)\n  returns (uint)\n  {\n    // coverId = tokenId\n    uint claimId = cover.submitClaim(tokenId, data);\n    emit ClaimSubmitted(tokenId, claimId, msg.sender);\n    return claimId;\n  }\n\n  /**\n  * @notice Redeem the claim to the cover. Requires that that the payout is completed.\n  * @param tokenId cover token id\n  */\n  function redeemClaim(\n    uint256 tokenId,\n    uint claimId\n  )\n  public\n  onlyTokenApprovedOrOwner(tokenId)\n  nonReentrant\n  {\n    uint coverId = cover.getClaimCoverId(claimId);\n    require(coverId == tokenId, \"Distributor: coverId claimId mismatch\");\n    (ICover.ClaimStatus status, uint amountPaid, address coverAsset) = cover.getPayoutOutcome(claimId);\n    require(status == ICover.ClaimStatus.ACCEPTED, \"Distributor: Claim not accepted\");\n\n    _burn(tokenId);\n    if (coverAsset == ETH) {\n      (bool ok, /* data */) = msg.sender.call{value: amountPaid}(\"\");\n      require(ok, \"Distributor: Transfer to NFT owner failed\");\n    } else {\n      IERC20Upgradeable erc20 = IERC20Upgradeable(coverAsset);\n      erc20.safeTransfer(msg.sender, amountPaid);\n    }\n\n    emit ClaimPayoutRedeemed(tokenId, claimId, msg.sender, amountPaid, coverAsset);\n  }\n\n  /**\n  * @notice Execute an action on specific cover token. The action is identified by an `action` id.\n      Allows for an ETH transfer or an ERC20 transfer.\n      If less than the supplied assetAmount is needed, it is returned to `msg.sender`.\n  * @dev The purpose of this function is future-proofing for updates to the cover buy->claim cycle.\n  * @param tokenId id of the cover token\n  * @param assetAmount optional asset amount to be transferred along with the action executed\n  * @param asset optional asset to be transferred along with the action executed\n  * @param action action identifier\n  * @param data abi-encoded field with action parameters\n  * @return response (abi-encoded response, amount withheld from the original asset amount supplied)\n  */\n  function executeCoverAction(uint tokenId, uint assetAmount, address asset, uint8 action, bytes calldata data)\n  external\n  payable\n  onlyTokenApprovedOrOwner(tokenId)\n  nonReentrant\n  returns (bytes memory response, uint withheldAmount)\n  {\n    if (assetAmount == 0) {\n      return cover.executeCoverAction(tokenId, action, data);\n    }\n    if (asset == ETH) {\n      require(msg.value >= assetAmount, \"Distributor: Insufficient ETH sent\");\n      (response, withheldAmount) = cover.executeCoverAction{ value: msg.value }(tokenId, action, data);\n      uint remainder = assetAmount.sub(withheldAmount);\n      (bool ok, /* data */) = address(msg.sender).call{value: remainder}(\"\");\n      require(ok, \"Distributor: Returning ETH remainder to sender failed.\");\n      return (response, withheldAmount);\n    }\n\n    IERC20Upgradeable token = IERC20Upgradeable(asset);\n    token.safeTransferFrom(msg.sender, address(this), assetAmount);\n    token.approve(address(cover), assetAmount);\n    (response, withheldAmount) = cover.executeCoverAction(tokenId, action, data);\n    uint remainder = assetAmount.sub(withheldAmount);\n    token.safeTransfer(msg.sender, remainder);\n    return (response, withheldAmount);\n  }\n\n  /**\n  * @notice get cover data\n  * @param tokenId cover token id\n  */\n  function getCover(uint tokenId)\n  public\n  view\n  returns (\n    uint8 status,\n    uint sumAssured,\n    uint16 coverPeriod,\n    uint validUntil,\n    address contractAddress,\n    address coverAsset,\n    uint premiumInNXM,\n    address memberAddress\n  ) {\n    return cover.getCover(tokenId);\n  }\n\n  /**\n  * @notice get state of a claim payout. Returns\n  * status of cover,  amount paid as part of the payout, address of the cover asset)\n  * @param claimId id of claim\n  */\n  function getPayoutOutcome(uint claimId)\n  public\n  view\n  returns (ICover.ClaimStatus status, uint amountPaid, address coverAsset)\n  {\n    (status, amountPaid, coverAsset) = cover.getPayoutOutcome(claimId);\n  }\n\n  /**\n  * @notice Set `amount` as the allowance of `spender` over the distributor's NXM tokens.\n  * @param spender approved spender\n  * @param amount amount approved\n  */\n  function approveNXM(address spender, uint256 amount) public onlyOwner {\n    nxmToken.approve(spender, amount);\n  }\n\n  /**\n  * @notice Moves `amount` tokens from the distributor to `recipient`.\n  * @param recipient recipient of NXM\n  * @param amount amount of NXM\n  */\n  function withdrawNXM(address recipient, uint256 amount) public onlyOwner {\n    nxmToken.safeTransfer(recipient, amount);\n  }\n\n  /**\n  * @notice Switch NexusMutual membership to `newAddress`.\n  * @param newAddress address\n  */\n  function switchMembership(address newAddress) external onlyOwner {\n    nxmToken.approve(address(cover), uint(-1));\n    cover.switchMembership(newAddress);\n  }\n\n  /**\n  * @notice Sell Distributor-owned NXM tokens for ETH\n  * @param nxmIn Amount of NXM to sell\n  * @param minEthOut minimum expected Eth received\n  */\n  function sellNXM(uint nxmIn, uint minEthOut) external onlyOwner {\n\n    address poolAddress = master.getLatestAddress(\"P1\");\n    nxmToken.approve(poolAddress, nxmIn);\n    uint balanceBefore = address(this).balance;\n    IPool(poolAddress).sellNXM(nxmIn, minEthOut);\n    uint balanceAfter = address(this).balance;\n\n    transferToTreasury(balanceAfter.sub(balanceBefore), ETH);\n  }\n\n  /**\n  * @notice Set if buyCover calls are allowed (true) or not (false).\n  * @param _buysAllowed value set for buysAllowed\n  */\n  function setBuysAllowed(bool _buysAllowed) external onlyOwner {\n    buysAllowed = _buysAllowed;\n  }\n\n  /**\n  * @notice Set treasury address where `buyCover` distributor fees and `ethOut` from `sellNXM` are sent.\n  * @param _treasury new treasury address\n  */\n  function setTreasury(address payable _treasury) external onlyOwner {\n    treasury = _treasury;\n  }\n\n  /**\n  * @notice Send `amount` of `asset`  to treasury address\n  * @param amount amount of asset\n  * @param asset ERC20 token address or ETH\n  */\n  function transferToTreasury(uint amount, address asset) internal {\n    if (asset == ETH) {\n      (bool ok, /* data */) = treasury.call{value: amount}(\"\");\n      require(ok, \"Distributor: Transfer to treasury failed\");\n    } else {\n      IERC20Upgradeable erc20 = IERC20Upgradeable(asset);\n      erc20.safeTransfer(treasury, amount);\n    }\n  }\n\n  /**\n  * @notice Set fee percentage for buyCover premiums.\n  *  `_feePercentage` has 2 decimals of precision ( 5000 is 50%)\n  * @param _feePercentage fee percentage to be set\n  */\n  function setFeePercentage(uint _feePercentage) external onlyOwner {\n    feePercentage = _feePercentage;\n  }\n\n  /**\n  * @dev required to be allow for receiving ETH claim payouts\n  */\n  receive () payable external {\n  }\n\n  /**\n  * @dev Function to set the base URI for all token IDs. It is\n  * automatically added as a prefix to the value returned in {tokenURI},\n  * or to the token ID if {tokenURI} is empty.\n  */\n  function setBaseURI(string memory baseURI_) public onlyOwner {\n      _setBaseURI(baseURI_);\n  }\n}\n",
  "sourcePath": "/Users/ricardopinto/work/brightunion/distributors/contracts/nexus/Distributor.sol",
  "compiler": {
    "name": "solc",
    "version": "0.7.4+commit.3f05b770.Emscripten.clang"
  },
  "schemaVersion": "3.4.0",
  "updatedAt": "2021-05-06T08:48:29.649Z",
  "devdoc": {
    "kind": "dev",
    "methods": {
      "approve(address,uint256)": {
        "details": "See {IERC721-approve}."
      },
      "approveNXM(address,uint256)": {
        "params": {
          "amount": "amount approved",
          "spender": "approved spender"
        }
      },
      "balanceOf(address)": {
        "details": "See {IERC721-balanceOf}."
      },
      "baseURI()": {
        "details": "Returns the base URI set via {_setBaseURI}. This will be automatically added as a prefix in {tokenURI} to each token's URI, or to the token ID if no specific URI is set for that token ID."
      },
      "buyCover(address,address,uint256,uint16,uint8,uint256,bytes)": {
        "details": "buy cover for a coverable identified by its contractAddress",
        "params": {
          "contractAddress": "contract address of coverable",
          "coverAsset": "asset of the premium and of the sum assured.",
          "coverType": "cover type dermining how the data parameter is decoded",
          "data": "abi-encoded field with additional cover data fields",
          "maxPriceWithFee": "max price (including fee) to be spent on the cover.",
          "sumAssured": "amount payable if claim is submitted and considered valid"
        },
        "returns": {
          "_0": "token id"
        }
      },
      "constructor": {
        "details": "DistributorFactory expects a constructor with this signature."
      },
      "executeCoverAction(uint256,uint256,address,uint8,bytes)": {
        "details": "The purpose of this function is future-proofing for updates to the cover buy->claim cycle.",
        "params": {
          "action": "action identifier",
          "asset": "optional asset to be transferred along with the action executed",
          "assetAmount": "optional asset amount to be transferred along with the action executed",
          "data": "abi-encoded field with action parameters",
          "tokenId": "id of the cover token"
        },
        "returns": {
          "response": "(abi-encoded response, amount withheld from the original asset amount supplied)"
        }
      },
      "getApproved(uint256)": {
        "details": "See {IERC721-getApproved}."
      },
      "getCover(uint256)": {
        "params": {
          "tokenId": "cover token id"
        }
      },
      "getPayoutOutcome(uint256)": {
        "params": {
          "claimId": "id of claim"
        }
      },
      "initialize(address,address,address,uint256,address,string,string)": {
        "details": "Standard pattern of constructing proxy contracts with the same signature as the constructor."
      },
      "isApprovedForAll(address,address)": {
        "details": "See {IERC721-isApprovedForAll}."
      },
      "name()": {
        "details": "See {IERC721Metadata-name}."
      },
      "owner()": {
        "details": "Returns the address of the current owner."
      },
      "ownerOf(uint256)": {
        "details": "See {IERC721-ownerOf}."
      },
      "redeemClaim(uint256,uint256)": {
        "params": {
          "tokenId": "cover token id"
        }
      },
      "renounceOwnership()": {
        "details": "Leaves the contract without owner. It will not be possible to call `onlyOwner` functions anymore. Can only be called by the current owner. NOTE: Renouncing ownership will leave the contract without an owner, thereby removing any functionality that is only available to the owner."
      },
      "safeTransferFrom(address,address,uint256)": {
        "details": "See {IERC721-safeTransferFrom}."
      },
      "safeTransferFrom(address,address,uint256,bytes)": {
        "details": "See {IERC721-safeTransferFrom}."
      },
      "sellNXM(uint256,uint256)": {
        "params": {
          "minEthOut": "minimum expected Eth received",
          "nxmIn": "Amount of NXM to sell"
        }
      },
      "setApprovalForAll(address,bool)": {
        "details": "See {IERC721-setApprovalForAll}."
      },
      "setBaseURI(string)": {
        "details": "Function to set the base URI for all token IDs. It is automatically added as a prefix to the value returned in {tokenURI}, or to the token ID if {tokenURI} is empty."
      },
      "setBuysAllowed(bool)": {
        "params": {
          "_buysAllowed": "value set for buysAllowed"
        }
      },
      "setFeePercentage(uint256)": {
        "params": {
          "_feePercentage": "fee percentage to be set"
        }
      },
      "setTreasury(address)": {
        "params": {
          "_treasury": "new treasury address"
        }
      },
      "submitClaim(uint256,bytes)": {
        "params": {
          "data": "abi-encoded field with additional claim data fields",
          "tokenId": "cover token id"
        }
      },
      "supportsInterface(bytes4)": {
        "details": "See {IERC165-supportsInterface}. Time complexity O(1), guaranteed to always use less than 30 000 gas."
      },
      "switchMembership(address)": {
        "params": {
          "newAddress": "address"
        }
      },
      "symbol()": {
        "details": "See {IERC721Metadata-symbol}."
      },
      "tokenByIndex(uint256)": {
        "details": "See {IERC721Enumerable-tokenByIndex}."
      },
      "tokenOfOwnerByIndex(address,uint256)": {
        "details": "See {IERC721Enumerable-tokenOfOwnerByIndex}."
      },
      "tokenURI(uint256)": {
        "details": "See {IERC721Metadata-tokenURI}."
      },
      "totalSupply()": {
        "details": "See {IERC721Enumerable-totalSupply}."
      },
      "transferFrom(address,address,uint256)": {
        "details": "See {IERC721-transferFrom}."
      },
      "transferOwnership(address)": {
        "details": "Transfers ownership of the contract to a new account (`newOwner`). Can only be called by the current owner."
      },
      "withdrawNXM(address,uint256)": {
        "params": {
          "amount": "amount of NXM",
          "recipient": "recipient of NXM"
        }
      }
    },
    "version": 1
  },
  "userdoc": {
    "kind": "user",
    "methods": {
      "approveNXM(address,uint256)": {
        "notice": "Set `amount` as the allowance of `spender` over the distributor's NXM tokens."
      },
      "executeCoverAction(uint256,uint256,address,uint8,bytes)": {
        "notice": "Execute an action on specific cover token. The action is identified by an `action` id. Allows for an ETH transfer or an ERC20 transfer. If less than the supplied assetAmount is needed, it is returned to `msg.sender`."
      },
      "getCover(uint256)": {
        "notice": "get cover data"
      },
      "getPayoutOutcome(uint256)": {
        "notice": "get state of a claim payout. Returns status of cover,  amount paid as part of the payout, address of the cover asset)"
      },
      "redeemClaim(uint256,uint256)": {
        "notice": "Redeem the claim to the cover. Requires that that the payout is completed."
      },
      "sellNXM(uint256,uint256)": {
        "notice": "Sell Distributor-owned NXM tokens for ETH"
      },
      "setBuysAllowed(bool)": {
        "notice": "Set if buyCover calls are allowed (true) or not (false)."
      },
      "setFeePercentage(uint256)": {
        "notice": "Set fee percentage for buyCover premiums.  `_feePercentage` has 2 decimals of precision ( 5000 is 50%)"
      },
      "setTreasury(address)": {
        "notice": "Set treasury address where `buyCover` distributor fees and `ethOut` from `sellNXM` are sent."
      },
      "submitClaim(uint256,bytes)": {
        "notice": "Submit a claim for the cover"
      },
      "switchMembership(address)": {
        "notice": "Switch NexusMutual membership to `newAddress`."
      },
      "withdrawNXM(address,uint256)": {
        "notice": "Moves `amount` tokens from the distributor to `recipient`."
      }
    },
    "version": 1
  }
}