{
  "contractName": "Distributor",
  "abi": [
    {
      "inputs": [
        {
          "internalType": "address",
          "name": "coverAddress",
          "type": "address"
        },
        {
          "internalType": "address",
          "name": "nxmTokenAddress",
          "type": "address"
        },
        {
          "internalType": "address",
          "name": "masterAddress",
          "type": "address"
        },
        {
          "internalType": "uint256",
          "name": "_feePercentage",
          "type": "uint256"
        },
        {
          "internalType": "address payable",
          "name": "_treasury",
          "type": "address"
        },
        {
          "internalType": "string",
          "name": "tokenName",
          "type": "string"
        },
        {
          "internalType": "string",
          "name": "tokenSymbol",
          "type": "string"
        }
      ],
      "stateMutability": "nonpayable",
      "type": "constructor"
    },
    {
      "anonymous": false,
      "inputs": [
        {
          "indexed": true,
          "internalType": "address",
          "name": "owner",
          "type": "address"
        },
        {
          "indexed": true,
          "internalType": "address",
          "name": "approved",
          "type": "address"
        },
        {
          "indexed": true,
          "internalType": "uint256",
          "name": "tokenId",
          "type": "uint256"
        }
      ],
      "name": "Approval",
      "type": "event"
    },
    {
      "anonymous": false,
      "inputs": [
        {
          "indexed": true,
          "internalType": "address",
          "name": "owner",
          "type": "address"
        },
        {
          "indexed": true,
          "internalType": "address",
          "name": "operator",
          "type": "address"
        },
        {
          "indexed": false,
          "internalType": "bool",
          "name": "approved",
          "type": "bool"
        }
      ],
      "name": "ApprovalForAll",
      "type": "event"
    },
    {
      "anonymous": false,
      "inputs": [
        {
          "indexed": true,
          "internalType": "uint256",
          "name": "coverId",
          "type": "uint256"
        },
        {
          "indexed": true,
          "internalType": "uint256",
          "name": "claimId",
          "type": "uint256"
        },
        {
          "indexed": true,
          "internalType": "address",
          "name": "receiver",
          "type": "address"
        },
        {
          "indexed": false,
          "internalType": "uint256",
          "name": "amountPaid",
          "type": "uint256"
        },
        {
          "indexed": false,
          "internalType": "address",
          "name": "coverAsset",
          "type": "address"
        }
      ],
      "name": "ClaimPayoutRedeemed",
      "type": "event"
    },
    {
      "anonymous": false,
      "inputs": [
        {
          "indexed": true,
          "internalType": "uint256",
          "name": "coverId",
          "type": "uint256"
        },
        {
          "indexed": true,
          "internalType": "uint256",
          "name": "claimId",
          "type": "uint256"
        },
        {
          "indexed": true,
          "internalType": "address",
          "name": "submitter",
          "type": "address"
        }
      ],
      "name": "ClaimSubmitted",
      "type": "event"
    },
    {
      "anonymous": false,
      "inputs": [
        {
          "indexed": true,
          "internalType": "uint256",
          "name": "coverId",
          "type": "uint256"
        },
        {
          "indexed": true,
          "internalType": "address",
          "name": "buyer",
          "type": "address"
        },
        {
          "indexed": true,
          "internalType": "address",
          "name": "contractAddress",
          "type": "address"
        },
        {
          "indexed": false,
          "internalType": "uint256",
          "name": "feePercentage",
          "type": "uint256"
        },
        {
          "indexed": false,
          "internalType": "uint256",
          "name": "coverPrice",
          "type": "uint256"
        }
      ],
      "name": "CoverBought",
      "type": "event"
    },
    {
      "anonymous": false,
      "inputs": [
        {
          "indexed": true,
          "internalType": "address",
          "name": "previousOwner",
          "type": "address"
        },
        {
          "indexed": true,
          "internalType": "address",
          "name": "newOwner",
          "type": "address"
        }
      ],
      "name": "OwnershipTransferred",
      "type": "event"
    },
    {
      "anonymous": false,
      "inputs": [
        {
          "indexed": true,
          "internalType": "address",
          "name": "from",
          "type": "address"
        },
        {
          "indexed": true,
          "internalType": "address",
          "name": "to",
          "type": "address"
        },
        {
          "indexed": true,
          "internalType": "uint256",
          "name": "tokenId",
          "type": "uint256"
        }
      ],
      "name": "Transfer",
      "type": "event"
    },
    {
      "inputs": [],
      "name": "ETH",
      "outputs": [
        {
          "internalType": "address",
          "name": "",
          "type": "address"
        }
      ],
      "stateMutability": "view",
      "type": "function"
    },
    {
      "inputs": [
        {
          "internalType": "address",
          "name": "to",
          "type": "address"
        },
        {
          "internalType": "uint256",
          "name": "tokenId",
          "type": "uint256"
        }
      ],
      "name": "approve",
      "outputs": [],
      "stateMutability": "nonpayable",
      "type": "function"
    },
    {
      "inputs": [
        {
          "internalType": "address",
          "name": "owner",
          "type": "address"
        }
      ],
      "name": "balanceOf",
      "outputs": [
        {
          "internalType": "uint256",
          "name": "",
          "type": "uint256"
        }
      ],
      "stateMutability": "view",
      "type": "function"
    },
    {
      "inputs": [],
      "name": "baseURI",
      "outputs": [
        {
          "internalType": "string",
          "name": "",
          "type": "string"
        }
      ],
      "stateMutability": "view",
      "type": "function"
    },
    {
      "inputs": [],
      "name": "buysAllowed",
      "outputs": [
        {
          "internalType": "bool",
          "name": "",
          "type": "bool"
        }
      ],
      "stateMutability": "view",
      "type": "function"
    },
    {
      "inputs": [],
      "name": "cover",
      "outputs": [
        {
          "internalType": "contract ICover",
          "name": "",
          "type": "address"
        }
      ],
      "stateMutability": "view",
      "type": "function"
    },
    {
      "inputs": [],
      "name": "feePercentage",
      "outputs": [
        {
          "internalType": "uint256",
          "name": "",
          "type": "uint256"
        }
      ],
      "stateMutability": "view",
      "type": "function"
    },
    {
      "inputs": [
        {
          "internalType": "uint256",
          "name": "tokenId",
          "type": "uint256"
        }
      ],
      "name": "getApproved",
      "outputs": [
        {
          "internalType": "address",
          "name": "",
          "type": "address"
        }
      ],
      "stateMutability": "view",
      "type": "function"
    },
    {
      "inputs": [
        {
          "internalType": "address",
          "name": "owner",
          "type": "address"
        },
        {
          "internalType": "address",
          "name": "operator",
          "type": "address"
        }
      ],
      "name": "isApprovedForAll",
      "outputs": [
        {
          "internalType": "bool",
          "name": "",
          "type": "bool"
        }
      ],
      "stateMutability": "view",
      "type": "function"
    },
    {
      "inputs": [],
      "name": "master",
      "outputs": [
        {
          "internalType": "contract INXMaster",
          "name": "",
          "type": "address"
        }
      ],
      "stateMutability": "view",
      "type": "function"
    },
    {
      "inputs": [],
      "name": "name",
      "outputs": [
        {
          "internalType": "string",
          "name": "",
          "type": "string"
        }
      ],
      "stateMutability": "view",
      "type": "function"
    },
    {
      "inputs": [],
      "name": "nxmToken",
      "outputs": [
        {
          "internalType": "contract IERC20Upgradeable",
          "name": "",
          "type": "address"
        }
      ],
      "stateMutability": "view",
      "type": "function"
    },
    {
      "inputs": [],
      "name": "owner",
      "outputs": [
        {
          "internalType": "address",
          "name": "",
          "type": "address"
        }
      ],
      "stateMutability": "view",
      "type": "function"
    },
    {
      "inputs": [
        {
          "internalType": "uint256",
          "name": "tokenId",
          "type": "uint256"
        }
      ],
      "name": "ownerOf",
      "outputs": [
        {
          "internalType": "address",
          "name": "",
          "type": "address"
        }
      ],
      "stateMutability": "view",
      "type": "function"
    },
    {
      "inputs": [],
      "name": "renounceOwnership",
      "outputs": [],
      "stateMutability": "nonpayable",
      "type": "function"
    },
    {
      "inputs": [
        {
          "internalType": "address",
          "name": "from",
          "type": "address"
        },
        {
          "internalType": "address",
          "name": "to",
          "type": "address"
        },
        {
          "internalType": "uint256",
          "name": "tokenId",
          "type": "uint256"
        }
      ],
      "name": "safeTransferFrom",
      "outputs": [],
      "stateMutability": "nonpayable",
      "type": "function"
    },
    {
      "inputs": [
        {
          "internalType": "address",
          "name": "from",
          "type": "address"
        },
        {
          "internalType": "address",
          "name": "to",
          "type": "address"
        },
        {
          "internalType": "uint256",
          "name": "tokenId",
          "type": "uint256"
        },
        {
          "internalType": "bytes",
          "name": "_data",
          "type": "bytes"
        }
      ],
      "name": "safeTransferFrom",
      "outputs": [],
      "stateMutability": "nonpayable",
      "type": "function"
    },
    {
      "inputs": [
        {
          "internalType": "address",
          "name": "operator",
          "type": "address"
        },
        {
          "internalType": "bool",
          "name": "approved",
          "type": "bool"
        }
      ],
      "name": "setApprovalForAll",
      "outputs": [],
      "stateMutability": "nonpayable",
      "type": "function"
    },
    {
      "inputs": [
        {
          "internalType": "bytes4",
          "name": "interfaceId",
          "type": "bytes4"
        }
      ],
      "name": "supportsInterface",
      "outputs": [
        {
          "internalType": "bool",
          "name": "",
          "type": "bool"
        }
      ],
      "stateMutability": "view",
      "type": "function"
    },
    {
      "inputs": [],
      "name": "symbol",
      "outputs": [
        {
          "internalType": "string",
          "name": "",
          "type": "string"
        }
      ],
      "stateMutability": "view",
      "type": "function"
    },
    {
      "inputs": [
        {
          "internalType": "uint256",
          "name": "index",
          "type": "uint256"
        }
      ],
      "name": "tokenByIndex",
      "outputs": [
        {
          "internalType": "uint256",
          "name": "",
          "type": "uint256"
        }
      ],
      "stateMutability": "view",
      "type": "function"
    },
    {
      "inputs": [
        {
          "internalType": "address",
          "name": "owner",
          "type": "address"
        },
        {
          "internalType": "uint256",
          "name": "index",
          "type": "uint256"
        }
      ],
      "name": "tokenOfOwnerByIndex",
      "outputs": [
        {
          "internalType": "uint256",
          "name": "",
          "type": "uint256"
        }
      ],
      "stateMutability": "view",
      "type": "function"
    },
    {
      "inputs": [
        {
          "internalType": "uint256",
          "name": "tokenId",
          "type": "uint256"
        }
      ],
      "name": "tokenURI",
      "outputs": [
        {
          "internalType": "string",
          "name": "",
          "type": "string"
        }
      ],
      "stateMutability": "view",
      "type": "function"
    },
    {
      "inputs": [],
      "name": "totalSupply",
      "outputs": [
        {
          "internalType": "uint256",
          "name": "",
          "type": "uint256"
        }
      ],
      "stateMutability": "view",
      "type": "function"
    },
    {
      "inputs": [
        {
          "internalType": "address",
          "name": "from",
          "type": "address"
        },
        {
          "internalType": "address",
          "name": "to",
          "type": "address"
        },
        {
          "internalType": "uint256",
          "name": "tokenId",
          "type": "uint256"
        }
      ],
      "name": "transferFrom",
      "outputs": [],
      "stateMutability": "nonpayable",
      "type": "function"
    },
    {
      "inputs": [
        {
          "internalType": "address",
          "name": "newOwner",
          "type": "address"
        }
      ],
      "name": "transferOwnership",
      "outputs": [],
      "stateMutability": "nonpayable",
      "type": "function"
    },
    {
      "inputs": [],
      "name": "treasury",
      "outputs": [
        {
          "internalType": "address payable",
          "name": "",
          "type": "address"
        }
      ],
      "stateMutability": "view",
      "type": "function"
    },
    {
      "stateMutability": "payable",
      "type": "receive"
    },
    {
      "inputs": [
        {
          "internalType": "address",
          "name": "coverAddress",
          "type": "address"
        },
        {
          "internalType": "address",
          "name": "nxmTokenAddress",
          "type": "address"
        },
        {
          "internalType": "address",
          "name": "masterAddress",
          "type": "address"
        },
        {
          "internalType": "uint256",
          "name": "_feePercentage",
          "type": "uint256"
        },
        {
          "internalType": "address payable",
          "name": "_treasury",
          "type": "address"
        },
        {
          "internalType": "string",
          "name": "tokenName",
          "type": "string"
        },
        {
          "internalType": "string",
          "name": "tokenSymbol",
          "type": "string"
        }
      ],
      "name": "initialize",
      "outputs": [],
      "stateMutability": "nonpayable",
      "type": "function"
    },
    {
      "inputs": [
        {
          "internalType": "address",
          "name": "contractAddress",
          "type": "address"
        },
        {
          "internalType": "address",
          "name": "coverAsset",
          "type": "address"
        },
        {
          "internalType": "uint256",
          "name": "sumAssured",
          "type": "uint256"
        },
        {
          "internalType": "uint16",
          "name": "coverPeriod",
          "type": "uint16"
        },
        {
          "internalType": "uint8",
          "name": "coverType",
          "type": "uint8"
        },
        {
          "internalType": "uint256",
          "name": "maxPriceWithFee",
          "type": "uint256"
        },
        {
          "internalType": "bytes",
          "name": "data",
          "type": "bytes"
        }
      ],
      "name": "buyCover",
      "outputs": [
        {
          "internalType": "uint256",
          "name": "",
          "type": "uint256"
        }
      ],
      "stateMutability": "payable",
      "type": "function"
    },
    {
      "inputs": [
        {
          "internalType": "uint256",
          "name": "tokenId",
          "type": "uint256"
        },
        {
          "internalType": "bytes",
          "name": "data",
          "type": "bytes"
        }
      ],
      "name": "submitClaim",
      "outputs": [
        {
          "internalType": "uint256",
          "name": "",
          "type": "uint256"
        }
      ],
      "stateMutability": "nonpayable",
      "type": "function"
    },
    {
      "inputs": [
        {
          "internalType": "uint256",
          "name": "tokenId",
          "type": "uint256"
        },
        {
          "internalType": "uint256",
          "name": "claimId",
          "type": "uint256"
        }
      ],
      "name": "redeemClaim",
      "outputs": [],
      "stateMutability": "nonpayable",
      "type": "function"
    },
    {
      "inputs": [
        {
          "internalType": "uint256",
          "name": "tokenId",
          "type": "uint256"
        },
        {
          "internalType": "uint256",
          "name": "assetAmount",
          "type": "uint256"
        },
        {
          "internalType": "address",
          "name": "asset",
          "type": "address"
        },
        {
          "internalType": "uint8",
          "name": "action",
          "type": "uint8"
        },
        {
          "internalType": "bytes",
          "name": "data",
          "type": "bytes"
        }
      ],
      "name": "executeCoverAction",
      "outputs": [
        {
          "internalType": "bytes",
          "name": "response",
          "type": "bytes"
        },
        {
          "internalType": "uint256",
          "name": "withheldAmount",
          "type": "uint256"
        }
      ],
      "stateMutability": "payable",
      "type": "function"
    },
    {
      "inputs": [
        {
          "internalType": "uint256",
          "name": "tokenId",
          "type": "uint256"
        }
      ],
      "name": "getCover",
      "outputs": [
        {
          "internalType": "uint8",
          "name": "status",
          "type": "uint8"
        },
        {
          "internalType": "uint256",
          "name": "sumAssured",
          "type": "uint256"
        },
        {
          "internalType": "uint16",
          "name": "coverPeriod",
          "type": "uint16"
        },
        {
          "internalType": "uint256",
          "name": "validUntil",
          "type": "uint256"
        },
        {
          "internalType": "address",
          "name": "contractAddress",
          "type": "address"
        },
        {
          "internalType": "address",
          "name": "coverAsset",
          "type": "address"
        },
        {
          "internalType": "uint256",
          "name": "premiumInNXM",
          "type": "uint256"
        },
        {
          "internalType": "address",
          "name": "memberAddress",
          "type": "address"
        }
      ],
      "stateMutability": "view",
      "type": "function"
    },
    {
      "inputs": [
        {
          "internalType": "uint256",
          "name": "claimId",
          "type": "uint256"
        }
      ],
      "name": "getPayoutOutcome",
      "outputs": [
        {
          "internalType": "enum ICover.ClaimStatus",
          "name": "status",
          "type": "uint8"
        },
        {
          "internalType": "uint256",
          "name": "amountPaid",
          "type": "uint256"
        },
        {
          "internalType": "address",
          "name": "coverAsset",
          "type": "address"
        }
      ],
      "stateMutability": "view",
      "type": "function"
    },
    {
      "inputs": [
        {
          "internalType": "address",
          "name": "spender",
          "type": "address"
        },
        {
          "internalType": "uint256",
          "name": "amount",
          "type": "uint256"
        }
      ],
      "name": "approveNXM",
      "outputs": [],
      "stateMutability": "nonpayable",
      "type": "function"
    },
    {
      "inputs": [
        {
          "internalType": "address",
          "name": "recipient",
          "type": "address"
        },
        {
          "internalType": "uint256",
          "name": "amount",
          "type": "uint256"
        }
      ],
      "name": "withdrawNXM",
      "outputs": [],
      "stateMutability": "nonpayable",
      "type": "function"
    },
    {
      "inputs": [
        {
          "internalType": "address",
          "name": "newAddress",
          "type": "address"
        }
      ],
      "name": "switchMembership",
      "outputs": [],
      "stateMutability": "nonpayable",
      "type": "function"
    },
    {
      "inputs": [
        {
          "internalType": "uint256",
          "name": "nxmIn",
          "type": "uint256"
        },
        {
          "internalType": "uint256",
          "name": "minEthOut",
          "type": "uint256"
        }
      ],
      "name": "sellNXM",
      "outputs": [],
      "stateMutability": "nonpayable",
      "type": "function"
    },
    {
      "inputs": [
        {
          "internalType": "bool",
          "name": "_buysAllowed",
          "type": "bool"
        }
      ],
      "name": "setBuysAllowed",
      "outputs": [],
      "stateMutability": "nonpayable",
      "type": "function"
    },
    {
      "inputs": [
        {
          "internalType": "address payable",
          "name": "_treasury",
          "type": "address"
        }
      ],
      "name": "setTreasury",
      "outputs": [],
      "stateMutability": "nonpayable",
      "type": "function"
    },
    {
      "inputs": [
        {
          "internalType": "uint256",
          "name": "_feePercentage",
          "type": "uint256"
        }
      ],
      "name": "setFeePercentage",
      "outputs": [],
      "stateMutability": "nonpayable",
      "type": "function"
    }
  ],
  "bytecode": "0x608060405260fc805460ff191660011790553480156200001e57600080fd5b506040516200595e3803806200595e833981810160405260e08110156200004457600080fd5b815160208301516040808501516060860151608087015160a0880180519451969895979396929591949293820192846401000000008211156200008657600080fd5b9083019060208201858111156200009c57600080fd5b8251640100000000811182820188101715620000b757600080fd5b82525081516020918201929091019080838360005b83811015620000e6578181015183820152602001620000cc565b50505050905090810190601f168015620001145780820380516001836020036101000a031916815260200191505b50604052602001805160405193929190846401000000008211156200013857600080fd5b9083019060208201858111156200014e57600080fd5b82516401000000008111828201881017156200016957600080fd5b82525081516020918201929091019080838360005b83811015620001985781810151838201526020016200017e565b50505050905090810190601f168015620001c65780820380516001836020036101000a031916815260200191505b50604052505050620001e487878787878787620001f160201b60201c565b5050505050505062000a98565b600054610100900460ff16806200020d57506200020d62000322565b806200021c575060005460ff16155b620002595760405162461bcd60e51b815260040180806020018281038252602e81526020018062005930602e913960400191505060405180910390fd5b600054610100900460ff1615801562000285576000805460ff1961ff0019909116610100171660011790555b6200028f62000340565b62000299620003fe565b620002a583836200049c565b60fb85905560fc8054610100600160a81b0319166101006001600160a01b03878116919091029190911790915560fd80546001600160a01b03199081168b84161790915560fe805482168a841617905560ff8054909116918816919091179055801562000318576000805461ff00191690555b5050505050505050565b60006200033a306200056860201b6200318d1760201c565b15905090565b600054610100900460ff16806200035c57506200035c62000322565b806200036b575060005460ff16155b620003a85760405162461bcd60e51b815260040180806020018281038252602e81526020018062005930602e913960400191505060405180910390fd5b600054610100900460ff16158015620003d4576000805460ff1961ff0019909116610100171660011790555b620003de6200056e565b620003e862000616565b8015620003fb576000805461ff00191690555b50565b600054610100900460ff16806200041a57506200041a62000322565b8062000429575060005460ff16155b620004665760405162461bcd60e51b815260040180806020018281038252602e81526020018062005930602e913960400191505060405180910390fd5b600054610100900460ff1615801562000492576000805460ff1961ff0019909116610100171660011790555b620003e862000719565b600054610100900460ff1680620004b85750620004b862000322565b80620004c7575060005460ff16155b620005045760405162461bcd60e51b815260040180806020018281038252602e81526020018062005930602e913960400191505060405180910390fd5b600054610100900460ff1615801562000530576000805460ff1961ff0019909116610100171660011790555b6200053a6200056e565b62000544620007c7565b6200055083836200086d565b801562000563576000805461ff00191690555b505050565b3b151590565b600054610100900460ff16806200058a57506200058a62000322565b8062000599575060005460ff16155b620005d65760405162461bcd60e51b815260040180806020018281038252602e81526020018062005930602e913960400191505060405180910390fd5b600054610100900460ff16158015620003e8576000805460ff1961ff0019909116610100171660011790558015620003fb576000805461ff001916905550565b600054610100900460ff16806200063257506200063262000322565b8062000641575060005460ff16155b6200067e5760405162461bcd60e51b815260040180806020018281038252602e81526020018062005930602e913960400191505060405180910390fd5b600054610100900460ff16158015620006aa576000805460ff1961ff0019909116610100171660011790555b6000620006b662000963565b609780546001600160a01b0319166001600160a01b038316908117909155604051919250906000907f8be0079c531659141344cd1fd0a4f28419497f9722a3daafe3b4186f6b6457e0908290a3508015620003fb576000805461ff001916905550565b600054610100900460ff16806200073557506200073562000322565b8062000744575060005460ff16155b620007815760405162461bcd60e51b815260040180806020018281038252602e81526020018062005930602e913960400191505060405180910390fd5b600054610100900460ff16158015620007ad576000805460ff1961ff0019909116610100171660011790555b600160c9558015620003fb576000805461ff001916905550565b600054610100900460ff1680620007e35750620007e362000322565b80620007f2575060005460ff16155b6200082f5760405162461bcd60e51b815260040180806020018281038252602e81526020018062005930602e913960400191505060405180910390fd5b600054610100900460ff161580156200085b576000805460ff1961ff0019909116610100171660011790555b620003e86301ffc9a760e01b62000967565b600054610100900460ff16806200088957506200088962000322565b8062000898575060005460ff16155b620008d55760405162461bcd60e51b815260040180806020018281038252602e81526020018062005930602e913960400191505060405180910390fd5b600054610100900460ff1615801562000901576000805460ff1961ff0019909116610100171660011790555b82516200091690606a906020860190620009ec565b5081516200092c90606b906020850190620009ec565b506200093f6380ac58cd60e01b62000967565b62000951635b5e139f60e01b62000967565b6200055063780e9d6360e01b62000967565b3390565b6001600160e01b03198082161415620009c7576040805162461bcd60e51b815260206004820152601c60248201527f4552433136353a20696e76616c696420696e7465726661636520696400000000604482015290519081900360640190fd5b6001600160e01b0319166000908152603360205260409020805460ff19166001179055565b828054600181600116156101000203166002900490600052602060002090601f01602090048101928262000a24576000855562000a6f565b82601f1062000a3f57805160ff191683800117855562000a6f565b8280016001018555821562000a6f579182015b8281111562000a6f57825182559160200191906001019062000a52565b5062000a7d92915062000a81565b5090565b5b8082111562000a7d576000815560010162000a82565b614e888062000aa86000396000f3fe6080604052600436106102495760003560e01c80638322fff211610139578063d8a856ee116100b6578063e967eb1a1161007a578063e967eb1a14610c63578063e985e9c514610c78578063ee97f7f314610cb3578063f0f4426014610cc8578063f2fde38b14610cfb578063fd7b68a214610d2e57610250565b8063d8a856ee146109ac578063db32749114610a52578063dcf1621b14610ad4578063e1817a8b14610c39578063e7d931e414610c4e57610250565b8063a001ecdd116100fd578063a001ecdd14610837578063a22cb4651461084c578063ae06c1b714610887578063b88d4fde146108b1578063c87b56dd1461098257610250565b80638322fff21461079357806386a15637146107a85780638da5cb5b146107d457806395d89b41146107e95780639f1cafa4146107fe57610250565b80634c285151116101c757806361d027b31161018b57806361d027b3146106f75780636352211e1461070c5780636c0360eb1461073657806370a082311461074b578063715018a61461077e57610250565b80634c285151146104ee5780634d776735146105ff5780634ed75d47146106385780634f6ccce71461066b57806352799e4d1461069557610250565b806318160ddd1161020e57806318160ddd146103d857806323b872dd146103ff57806328dd3773146104425780632f745c591461047257806342842e0e146104ab57610250565b80629697171461025557806301ffc9a71461028757806306fdde03146102cf578063081812fc14610359578063095ea7b31461039f57610250565b3661025057005b600080fd5b34801561026157600080fd5b506102856004803603604081101561027857600080fd5b5080359060200135610dae565b005b34801561029357600080fd5b506102bb600480360360208110156102aa57600080fd5b50356001600160e01b031916611125565b604080519115158252519081900360200190f35b3480156102db57600080fd5b506102e4611148565b6040805160208082528351818301528351919283929083019185019080838360005b8381101561031e578181015183820152602001610306565b50505050905090810190601f16801561034b5780820380516001836020036101000a031916815260200191505b509250505060405180910390f35b34801561036557600080fd5b506103836004803603602081101561037c57600080fd5b50356111de565b604080516001600160a01b039092168252519081900360200190f35b3480156103ab57600080fd5b50610285600480360360408110156103c257600080fd5b506001600160a01b038135169060200135611240565b3480156103e457600080fd5b506103ed61131b565b60408051918252519081900360200190f35b34801561040b57600080fd5b506102856004803603606081101561042257600080fd5b506001600160a01b0381358116916020810135909116906040013561132c565b34801561044e57600080fd5b506102856004803603604081101561046557600080fd5b5080359060200135611383565b34801561047e57600080fd5b506103ed6004803603604081101561049557600080fd5b506001600160a01b038135169060200135611580565b3480156104b757600080fd5b50610285600480360360608110156104ce57600080fd5b506001600160a01b038135811691602081013590911690604001356115ab565b610580600480360360a081101561050457600080fd5b8135916020810135916001600160a01b036040830135169160ff6060820135169181019060a081016080820135600160201b81111561054257600080fd5b82018360208201111561055457600080fd5b803590602001918460018302840111600160201b8311171561057557600080fd5b5090925090506115c6565b6040518080602001838152602001828103825284818151815260200191508051906020019080838360005b838110156105c35781810151838201526020016105ab565b50505050905090810190601f1680156105f05780820380516001836020036101000a031916815260200191505b50935050505060405180910390f35b34801561060b57600080fd5b506102856004803603604081101561062257600080fd5b506001600160a01b038135169060200135611cd2565b34801561064457600080fd5b506102856004803603602081101561065b57600080fd5b50356001600160a01b0316611dba565b34801561067757600080fd5b506103ed6004803603602081101561068e57600080fd5b5035611f04565b3480156106a157600080fd5b506106bf600480360360208110156106b857600080fd5b5035611f1a565b604051808460028111156106cf57fe5b8152602001838152602001826001600160a01b03168152602001935050505060405180910390f35b34801561070357600080fd5b50610383611fb1565b34801561071857600080fd5b506103836004803603602081101561072f57600080fd5b5035611fc5565b34801561074257600080fd5b506102e4611fed565b34801561075757600080fd5b506103ed6004803603602081101561076e57600080fd5b50356001600160a01b031661204e565b34801561078a57600080fd5b506102856120b6565b34801561079f57600080fd5b50610383612162565b3480156107b457600080fd5b50610285600480360360208110156107cb57600080fd5b5035151561217a565b3480156107e057600080fd5b506103836121ef565b3480156107f557600080fd5b506102e46121fe565b34801561080a57600080fd5b506102856004803603604081101561082157600080fd5b506001600160a01b03813516906020013561225f565b34801561084357600080fd5b506103ed6122dc565b34801561085857600080fd5b506102856004803603604081101561086f57600080fd5b506001600160a01b03813516906020013515156122e2565b34801561089357600080fd5b50610285600480360360208110156108aa57600080fd5b50356123e7565b3480156108bd57600080fd5b50610285600480360360808110156108d457600080fd5b6001600160a01b03823581169260208101359091169160408201359190810190608081016060820135600160201b81111561090e57600080fd5b82018360208201111561092057600080fd5b803590602001918460018302840111600160201b8311171561094157600080fd5b91908080601f01602080910402602001604051908101604052809392919081815260200183838082843760009201919091525092955061244e945050505050565b34801561098e57600080fd5b506102e4600480360360208110156109a557600080fd5b50356124a6565b6103ed600480360360e08110156109c257600080fd5b6001600160a01b03823581169260208101359091169160408201359161ffff6060820135169160ff6080830135169160a08101359181019060e0810160c0820135600160201b811115610a1457600080fd5b820183602082011115610a2657600080fd5b803590602001918460018302840111600160201b83111715610a4757600080fd5b509092509050612729565b348015610a5e57600080fd5b506103ed60048036036040811015610a7557600080fd5b81359190810190604081016020820135600160201b811115610a9657600080fd5b820183602082011115610aa857600080fd5b803590602001918460018302840111600160201b83111715610ac957600080fd5b509092509050612c74565b348015610ae057600080fd5b50610285600480360360e0811015610af757600080fd5b6001600160a01b0382358116926020810135821692604082013583169260608301359260808101359091169181019060c0810160a0820135600160201b811115610b4057600080fd5b820183602082011115610b5257600080fd5b803590602001918460018302840111600160201b83111715610b7357600080fd5b91908080601f0160208091040260200160405190810160405280939291908181526020018383808284376000920191909152509295949360208101935035915050600160201b811115610bc557600080fd5b820183602082011115610bd757600080fd5b803590602001918460018302840111600160201b83111715610bf857600080fd5b91908080601f016020809104026020016040519081016040528093929190818152602001838380828437600092019190915250929550612da2945050505050565b348015610c4557600080fd5b506102bb612ec5565b348015610c5a57600080fd5b50610383612ece565b348015610c6f57600080fd5b50610383612edd565b348015610c8457600080fd5b506102bb60048036036040811015610c9b57600080fd5b506001600160a01b0381358116916020013516612eec565b348015610cbf57600080fd5b50610383612f1a565b348015610cd457600080fd5b5061028560048036036020811015610ceb57600080fd5b50356001600160a01b0316612f29565b348015610d0757600080fd5b5061028560048036036020811015610d1e57600080fd5b50356001600160a01b0316612fb3565b348015610d3a57600080fd5b50610d5860048036036020811015610d5157600080fd5b50356130b6565b6040805160ff9099168952602089019790975261ffff9095168787015260608701939093526001600160a01b039182166080870152811660a086015260c08501919091521660e083015251908190036101000190f35b81610db93382613193565b610df45760405162461bcd60e51b8152600401808060200182810382526022815260200180614ccb6022913960400191505060405180910390fd5b600260c9541415610e4c576040805162461bcd60e51b815260206004820152601f60248201527f5265656e7472616e637947756172643a207265656e7472616e742063616c6c00604482015290519081900360640190fd5b600260c95560fd54604080516396ff592f60e01b81526004810185905290516000926001600160a01b0316916396ff592f916024808301926020929190829003018186803b158015610e9d57600080fd5b505afa158015610eb1573d6000803e3d6000fd5b505050506040513d6020811015610ec757600080fd5b50519050838114610f095760405162461bcd60e51b8152600401808060200182810382526025815260200180614db26025913960400191505060405180910390fd5b60fd54604080516352799e4d60e01b8152600481018690529051600092839283926001600160a01b03909216916352799e4d91602480820192606092909190829003018186803b158015610f5c57600080fd5b505afa158015610f70573d6000803e3d6000fd5b505050506040513d6060811015610f8657600080fd5b508051602082015160409092015190945090925090506001836002811115610faa57fe5b14610ffc576040805162461bcd60e51b815260206004820152601f60248201527f4469737472696275746f723a20436c61696d206e6f7420616363657074656400604482015290519081900360640190fd5b61100587613237565b6001600160a01b03811673eeeeeeeeeeeeeeeeeeeeeeeeeeeeeeeeeeeeeeee14156110b757604051600090339084908381818185875af1925050503d806000811461106c576040519150601f19603f3d011682016040523d82523d6000602084013e611071565b606091505b50509050806110b15760405162461bcd60e51b8152600401808060200182810382526029815260200180614bdd6029913960400191505060405180910390fd5b506110ce565b806110cc6001600160a01b0382163385613304565b505b604080518381526001600160a01b03831660208201528151339289928b927f34fca3c3e347457684d11c6311e01dc77fc4d158b9fb5902af19c6b9fae603a9929181900390910190a45050600160c9555050505050565b6001600160e01b0319811660009081526033602052604090205460ff165b919050565b606a8054604080516020601f60026000196101006001881615020190951694909404938401819004810282018101909252828152606093909290918301828280156111d45780601f106111a9576101008083540402835291602001916111d4565b820191906000526020600020905b8154815290600101906020018083116111b757829003601f168201915b5050505050905090565b60006111e982613356565b6112245760405162461bcd60e51b815260040180806020018281038252602c815260200180614d0e602c913960400191505060405180910390fd5b506000908152606860205260409020546001600160a01b031690565b600061124b82611fc5565b9050806001600160a01b0316836001600160a01b0316141561129e5760405162461bcd60e51b8152600401808060200182810382526021815260200180614dd76021913960400191505060405180910390fd5b806001600160a01b03166112b0613363565b6001600160a01b031614806112d157506112d1816112cc613363565b612eec565b61130c5760405162461bcd60e51b8152600401808060200182810382526038815260200180614ba56038913960400191505060405180910390fd5b6113168383613367565b505050565b600061132760666133d5565b905090565b61133d611337613363565b82613193565b6113785760405162461bcd60e51b8152600401808060200182810382526031815260200180614df86031913960400191505060405180910390fd5b6113168383836133e0565b61138b613363565b6001600160a01b031661139c6121ef565b6001600160a01b0316146113e5576040805162461bcd60e51b81526020600482018190526024820152600080516020614d3a833981519152604482015290519081900360640190fd5b60ff54604080516227050b60e31b815261503160f01b600482015290516000926001600160a01b0316916301382858916024808301926020929190829003018186803b15801561143457600080fd5b505afa158015611448573d6000803e3d6000fd5b505050506040513d602081101561145e57600080fd5b505160fe546040805163095ea7b360e01b81526001600160a01b03808516600483015260248201889052915193945091169163095ea7b3916044808201926020929091908290030181600087803b1580156114b857600080fd5b505af11580156114cc573d6000803e3d6000fd5b505050506040513d60208110156114e257600080fd5b5050604080516328dd377360e01b81526004810185905260248101849052905147916001600160a01b038416916328dd37739160448082019260009290919082900301818387803b15801561153657600080fd5b505af115801561154a573d6000803e3d6000fd5b50479250611579915061155f9050828461352c565b73eeeeeeeeeeeeeeeeeeeeeeeeeeeeeeeeeeeeeeee613589565b5050505050565b6001600160a01b03821660009081526065602052604081206115a2908361366c565b90505b92915050565b6113168383836040518060200160405280600081525061244e565b60606000876115d53382613193565b6116105760405162461bcd60e51b8152600401808060200182810382526022815260200180614ccb6022913960400191505060405180910390fd5b600260c9541415611668576040805162461bcd60e51b815260206004820152601f60248201527f5265656e7472616e637947756172643a207265656e7472616e742063616c6c00604482015290519081900360640190fd5b600260c955876117f95760fd54604051630c249ab360e21b8152600481018b815260ff89166024830152606060448301908152606483018890526001600160a01b03909316926330926acc928d928b928b928b929190608401848480828437600081840152601f19601f82011690508083019250505095505050505050600060405180830381600087803b1580156116ff57600080fd5b505af1158015611713573d6000803e3d6000fd5b505050506040513d6000823e601f3d908101601f19168201604090815281101561173c57600080fd5b8101908080516040519392919084600160201b82111561175b57600080fd5b90830190602082018581111561177057600080fd5b8251600160201b81118282018810171561178957600080fd5b82525081516020918201929091019080838360005b838110156117b657818101518382015260200161179e565b50505050905090810190601f1680156117e35780820380516001836020036101000a031916815260200191505b5060405260200151929550919350611cbf915050565b6001600160a01b03871673eeeeeeeeeeeeeeeeeeeeeeeeeeeeeeeeeeeeeeee1415611a7f578734101561185d5760405162461bcd60e51b8152600401808060200182810382526022815260200180614c066022913960400191505060405180910390fd5b60fd54604051630c249ab360e21b8152600481018b815260ff89166024830152606060448301908152606483018890526001600160a01b03909316926330926acc9234928e928c928c928c929091608401848480828437600081840152601f19601f820116905080830192505050955050505050506000604051808303818588803b1580156118eb57600080fd5b505af11580156118ff573d6000803e3d6000fd5b50505050506040513d6000823e601f3d908101601f19168201604090815281101561192957600080fd5b8101908080516040519392919084600160201b82111561194857600080fd5b90830190602082018581111561195d57600080fd5b8251600160201b81118282018810171561197657600080fd5b82525081516020918201929091019080838360005b838110156119a357818101518382015260200161198b565b50505050905090810190601f1680156119d05780820380516001836020036101000a031916815260200191505b5060405260200151929550919350600091506119ee9050898461352c565b604051909150600090339083908381818185875af1925050503d8060008114611a33576040519150601f19603f3d011682016040523d82523d6000602084013e611a38565b606091505b5050905080611a785760405162461bcd60e51b8152600401808060200182810382526036815260200180614af96036913960400191505060405180910390fd5b5050611cbf565b86611a956001600160a01b03821633308c613678565b60fd546040805163095ea7b360e01b81526001600160a01b039283166004820152602481018c905290519183169163095ea7b3916044808201926020929091908290030181600087803b158015611aeb57600080fd5b505af1158015611aff573d6000803e3d6000fd5b505050506040513d6020811015611b1557600080fd5b505060fd54604051630c249ab360e21b8152600481018c815260ff8a166024830152606060448301908152606483018990526001600160a01b03909316926330926acc928e928c928c928c929190608401848480828437600081840152601f19601f82011690508083019250505095505050505050600060405180830381600087803b158015611ba457600080fd5b505af1158015611bb8573d6000803e3d6000fd5b505050506040513d6000823e601f3d908101601f191682016040908152811015611be157600080fd5b8101908080516040519392919084600160201b821115611c0057600080fd5b908301906020820185811115611c1557600080fd5b8251600160201b811182820188101715611c2e57600080fd5b82525081516020918201929091019080838360005b83811015611c5b578181015183820152602001611c43565b50505050905090810190601f168015611c885780820380516001836020036101000a031916815260200191505b506040526020015192965091945060009150611ca690508a8561352c565b9050611cbc6001600160a01b0383163383613304565b50505b50600160c9559097909650945050505050565b611cda613363565b6001600160a01b0316611ceb6121ef565b6001600160a01b031614611d34576040805162461bcd60e51b81526020600482018190526024820152600080516020614d3a833981519152604482015290519081900360640190fd5b60fe546040805163095ea7b360e01b81526001600160a01b038581166004830152602482018590529151919092169163095ea7b39160448083019260209291908290030181600087803b158015611d8a57600080fd5b505af1158015611d9e573d6000803e3d6000fd5b505050506040513d6020811015611db457600080fd5b50505050565b611dc2613363565b6001600160a01b0316611dd36121ef565b6001600160a01b031614611e1c576040805162461bcd60e51b81526020600482018190526024820152600080516020614d3a833981519152604482015290519081900360640190fd5b60fe5460fd546040805163095ea7b360e01b81526001600160a01b03928316600482015260001960248201529051919092169163095ea7b39160448083019260209291908290030181600087803b158015611e7657600080fd5b505af1158015611e8a573d6000803e3d6000fd5b505050506040513d6020811015611ea057600080fd5b505060fd5460408051634ed75d4760e01b81526001600160a01b03848116600483015291519190921691634ed75d4791602480830192600092919082900301818387803b158015611ef057600080fd5b505af1158015611579573d6000803e3d6000fd5b600080611f126066846136d2565b509392505050565b60fd54604080516352799e4d60e01b8152600481018490529051600092839283926001600160a01b03909216916352799e4d91602480820192606092909190829003018186803b158015611f6d57600080fd5b505afa158015611f81573d6000803e3d6000fd5b505050506040513d6060811015611f9757600080fd5b508051602082015160409092015190969195509350915050565b60fc5461010090046001600160a01b031681565b60006115a582604051806060016040528060298152602001614c5260299139606691906136ee565b606d8054604080516020601f60026000196101006001881615020190951694909404938401819004810282018101909252828152606093909290918301828280156111d45780601f106111a9576101008083540402835291602001916111d4565b60006001600160a01b0382166120955760405162461bcd60e51b815260040180806020018281038252602a815260200180614c28602a913960400191505060405180910390fd5b6001600160a01b03821660009081526065602052604090206115a5906133d5565b6120be613363565b6001600160a01b03166120cf6121ef565b6001600160a01b031614612118576040805162461bcd60e51b81526020600482018190526024820152600080516020614d3a833981519152604482015290519081900360640190fd5b6097546040516000916001600160a01b0316907f8be0079c531659141344cd1fd0a4f28419497f9722a3daafe3b4186f6b6457e0908390a3609780546001600160a01b0319169055565b73eeeeeeeeeeeeeeeeeeeeeeeeeeeeeeeeeeeeeeee81565b612182613363565b6001600160a01b03166121936121ef565b6001600160a01b0316146121dc576040805162461bcd60e51b81526020600482018190526024820152600080516020614d3a833981519152604482015290519081900360640190fd5b60fc805460ff1916911515919091179055565b6097546001600160a01b031690565b606b8054604080516020601f60026000196101006001881615020190951694909404938401819004810282018101909252828152606093909290918301828280156111d45780601f106111a9576101008083540402835291602001916111d4565b612267613363565b6001600160a01b03166122786121ef565b6001600160a01b0316146122c1576040805162461bcd60e51b81526020600482018190526024820152600080516020614d3a833981519152604482015290519081900360640190fd5b60fe546122d8906001600160a01b03168383613304565b5050565b60fb5481565b6122ea613363565b6001600160a01b0316826001600160a01b03161415612350576040805162461bcd60e51b815260206004820152601960248201527f4552433732313a20617070726f766520746f2063616c6c657200000000000000604482015290519081900360640190fd5b806069600061235d613363565b6001600160a01b03908116825260208083019390935260409182016000908120918716808252919093529120805460ff1916921515929092179091556123a1613363565b6001600160a01b03167f17307eab39ab6107e8899845ad3d59bd9653f200f220920489ca2b5937696c318360405180821515815260200191505060405180910390a35050565b6123ef613363565b6001600160a01b03166124006121ef565b6001600160a01b031614612449576040805162461bcd60e51b81526020600482018190526024820152600080516020614d3a833981519152604482015290519081900360640190fd5b60fb55565b61245f612459613363565b83613193565b61249a5760405162461bcd60e51b8152600401808060200182810382526031815260200180614df86031913960400191505060405180910390fd5b611db484848484613705565b60606124b182613356565b6124ec5760405162461bcd60e51b815260040180806020018281038252602f815260200180614d83602f913960400191505060405180910390fd5b6000828152606c602090815260409182902080548351601f60026000196101006001861615020190931692909204918201849004840281018401909452808452606093928301828280156125815780601f1061255657610100808354040283529160200191612581565b820191906000526020600020905b81548152906001019060200180831161256457829003601f168201915b505050505090506060612592611fed565b90508051600014156125a657509050611143565b8151156126675780826040516020018083805190602001908083835b602083106125e15780518252601f1990920191602091820191016125c2565b51815160209384036101000a600019018019909216911617905285519190930192850191508083835b602083106126295780518252601f19909201916020918201910161260a565b6001836020036101000a0380198251168184511680821785525050505050509050019250505060405160208183030381529060405292505050611143565b8061267185613757565b6040516020018083805190602001908083835b602083106126a35780518252601f199092019160209182019101612684565b51815160209384036101000a600019018019909216911617905285519190930192850191508083835b602083106126eb5780518252601f1990920191602091820191016126cc565b6001836020036101000a0380198251168184511680821785525050505050509050019250505060405160208183030381529060405292505050919050565b6000600260c9541415612783576040805162461bcd60e51b815260206004820152601f60248201527f5265656e7472616e637947756172643a207265656e7472616e742063616c6c00604482015290519081900360640190fd5b600260c95560fc5460ff166127df576040805162461bcd60e51b815260206004820152601d60248201527f4469737472696275746f723a2062757973206e6f7420616c6c6f776564000000604482015290519081900360640190fd5b600060fd60009054906101000a90046001600160a01b03166001600160a01b0316635caca7b48b8b8b8b8b8a8a6040518863ffffffff1660e01b815260040180886001600160a01b03168152602001876001600160a01b031681526020018681526020018561ffff1681526020018460ff168152602001806020018281038252848482818152602001925080828437600081840152601f19601f8201169050808301925050509850505050505050505060206040518083038186803b1580156128a757600080fd5b505afa1580156128bb573d6000803e3d6000fd5b505050506040513d60208110156128d157600080fd5b505160fb549091506000906129009083906128fa90612710906128f49084613832565b9061388b565b906138f2565b9050858111156129415760405162461bcd60e51b815260040180806020018281038252602d815260200180614acc602d913960400191505060405180910390fd5b60006001600160a01b038b1673eeeeeeeeeeeeeeeeeeeeeeeeeeeeeeeeeeeeeeee1415612a4d57813410156129a75760405162461bcd60e51b8152600401808060200182810382526022815260200180614c066022913960400191505060405180910390fd5b60006129b3348461352c565b90508015612a4457604051600090339083908381818185875af1925050503d80600081146129fd576040519150601f19603f3d011682016040523d82523d6000602084013e612a02565b606091505b5050905080612a425760405162461bcd60e51b8152600401808060200182810382526036815260200180614af96036913960400191505060405180910390fd5b505b83915050612ae7565b8a612a636001600160a01b038216333086613678565b60fd546040805163095ea7b360e01b81526001600160a01b0392831660048201526024810187905290519183169163095ea7b3916044808201926020929091908290030181600087803b158015612ab957600080fd5b505af1158015612acd573d6000803e3d6000fd5b505050506040513d6020811015612ae357600080fd5b5050505b600060fd60009054906101000a90046001600160a01b03166001600160a01b03166304836c4a838f8f8f8f8f8e8e6040518963ffffffff1660e01b815260040180886001600160a01b03168152602001876001600160a01b031681526020018681526020018561ffff1681526020018460ff168152602001806020018281038252848482818152602001925080828437600081840152601f19601f820116905080830192505050985050505050505050506020604051808303818588803b158015612bb157600080fd5b505af1158015612bc5573d6000803e3d6000fd5b50505050506040513d6020811015612bdc57600080fd5b505190506000612bec848661352c565b90508015612bfe57612bfe818e613589565b612c08338361394c565b8d6001600160a01b0316336001600160a01b0316837fa0105afc48bbd0c43e1c71d83dc1e02ae58388f3109943595b89e24a5ee1c36560fb5489604051808381526020018281526020019250505060405180910390a450600160c9559c9b505050505050505050505050565b600083612c813382613193565b612cbc5760405162461bcd60e51b8152600401808060200182810382526022815260200180614ccb6022913960400191505060405180910390fd5b60fd546040805163db32749160e01b81526004810188815260248201928352604482018790526000936001600160a01b03169263db327491928a928a928a92606401848480828437600081840152601f19601f820116905080830192505050945050505050602060405180830381600087803b158015612d3b57600080fd5b505af1158015612d4f573d6000803e3d6000fd5b505050506040513d6020811015612d6557600080fd5b50516040519091503390829088907f9fe11e531030a058803617055e27f9f4768236e4322e13b9c4c09f4338e23a6890600090a495945050505050565b600054610100900460ff1680612dbb5750612dbb613a7a565b80612dc9575060005460ff16155b612e045760405162461bcd60e51b815260040180806020018281038252602e815260200180614c7b602e913960400191505060405180910390fd5b600054610100900460ff16158015612e2f576000805460ff1961ff0019909116610100171660011790555b612e37613a8b565b612e3f613b3d565b612e498383613bd2565b60fb85905560fc8054610100600160a81b0319166101006001600160a01b03878116919091029190911790915560fd80546001600160a01b03199081168b84161790915560fe805482168a841617905560ff80549091169188169190911790558015612ebb576000805461ff00191690555b5050505050505050565b60fc5460ff1681565b60fd546001600160a01b031681565b60fe546001600160a01b031681565b6001600160a01b03918216600090815260696020908152604080832093909416825291909152205460ff1690565b60ff546001600160a01b031681565b612f31613363565b6001600160a01b0316612f426121ef565b6001600160a01b031614612f8b576040805162461bcd60e51b81526020600482018190526024820152600080516020614d3a833981519152604482015290519081900360640190fd5b60fc80546001600160a01b0390921661010002610100600160a81b0319909216919091179055565b612fbb613363565b6001600160a01b0316612fcc6121ef565b6001600160a01b031614613015576040805162461bcd60e51b81526020600482018190526024820152600080516020614d3a833981519152604482015290519081900360640190fd5b6001600160a01b03811661305a5760405162461bcd60e51b8152600401808060200182810382526026815260200180614aa66026913960400191505060405180910390fd5b6097546040516001600160a01b038084169216907f8be0079c531659141344cd1fd0a4f28419497f9722a3daafe3b4186f6b6457e090600090a3609780546001600160a01b0319166001600160a01b0392909216919091179055565b60008060008060008060008060fd60009054906101000a90046001600160a01b03166001600160a01b031663fd7b68a28a6040518263ffffffff1660e01b8152600401808281526020019150506101006040518083038186803b15801561311c57600080fd5b505afa158015613130573d6000803e3d6000fd5b505050506040513d61010081101561314757600080fd5b508051602082015160408301516060840151608085015160a086015160c087015160e090970151959e50939c50919a509850965094509092509050919395975091939597565b3b151590565b600061319e82613356565b6131d95760405162461bcd60e51b815260040180806020018281038252602c815260200180614b79602c913960400191505060405180910390fd5b60006131e483611fc5565b9050806001600160a01b0316846001600160a01b0316148061321f5750836001600160a01b0316613214846111de565b6001600160a01b0316145b8061322f575061322f8185612eec565b949350505050565b600061324282611fc5565b905061325081600084611316565b61325b600083613367565b6000828152606c60205260409020546002600019610100600184161502019091160415613299576000828152606c6020526040812061329991614944565b6001600160a01b03811660009081526065602052604090206132bb9083613c8f565b506132c7606683613c9b565b5060405182906000906001600160a01b038416907fddf252ad1be2c89b69c2b068fc378daa952ba7f163c4a11628f55a4df523b3ef908390a45050565b604080516001600160a01b038416602482015260448082018490528251808303909101815260649091019091526020810180516001600160e01b031663a9059cbb60e01b179052611316908490613ca7565b60006115a5606683613d58565b3390565b600081815260686020526040902080546001600160a01b0319166001600160a01b038416908117909155819061339c82611fc5565b6001600160a01b03167f8c5be1e5ebec7d5bd14f71427d1e84f3dd0314c0f7b2291e5b200ac8c7c3b92560405160405180910390a45050565b60006115a582613d64565b826001600160a01b03166133f382611fc5565b6001600160a01b0316146134385760405162461bcd60e51b8152600401808060200182810382526029815260200180614d5a6029913960400191505060405180910390fd5b6001600160a01b03821661347d5760405162461bcd60e51b8152600401808060200182810382526024815260200180614b2f6024913960400191505060405180910390fd5b613488838383611316565b613493600082613367565b6001600160a01b03831660009081526065602052604090206134b59082613c8f565b506001600160a01b03821660009081526065602052604090206134d89082613d68565b506134e560668284613d74565b5080826001600160a01b0316846001600160a01b03167fddf252ad1be2c89b69c2b068fc378daa952ba7f163c4a11628f55a4df523b3ef60405160405180910390a4505050565b600082821115613583576040805162461bcd60e51b815260206004820152601e60248201527f536166654d6174683a207375627472616374696f6e206f766572666c6f770000604482015290519081900360640190fd5b50900390565b6001600160a01b03811673eeeeeeeeeeeeeeeeeeeeeeeeeeeeeeeeeeeeeeee141561364b5760fc5460405160009161010090046001600160a01b03169084908381818185875af1925050503d8060008114613600576040519150601f19603f3d011682016040523d82523d6000602084013e613605565b606091505b50509050806136455760405162461bcd60e51b8152600401808060200182810382526028815260200180614a4c6028913960400191505060405180910390fd5b506122d8565b60fc548190611316906001600160a01b038084169161010090041685613304565b60006115a28383613d8a565b604080516001600160a01b0380861660248301528416604482015260648082018490528251808303909101815260849091019091526020810180516001600160e01b03166323b872dd60e01b179052611db4908590613ca7565b60008080806136e18686613dee565b9097909650945050505050565b60006136fb848484613e69565b90505b9392505050565b6137108484846133e0565b61371c84848484613f33565b611db45760405162461bcd60e51b8152600401808060200182810382526032815260200180614a746032913960400191505060405180910390fd5b60608161377c57506040805180820190915260018152600360fc1b6020820152611143565b8160005b811561379457600101600a82049150613780565b60608167ffffffffffffffff811180156137ad57600080fd5b506040519080825280601f01601f1916602001820160405280156137d8576020820181803683370190505b50859350905060001982015b831561382957600a840660300160f81b8282806001900393508151811061380757fe5b60200101906001600160f81b031916908160001a905350600a840493506137e4565b50949350505050565b600082613841575060006115a5565b8282028284828161384e57fe5b04146115a25760405162461bcd60e51b8152600401808060200182810382526021815260200180614ced6021913960400191505060405180910390fd5b60008082116138e1576040805162461bcd60e51b815260206004820152601a60248201527f536166654d6174683a206469766973696f6e206279207a65726f000000000000604482015290519081900360640190fd5b8183816138ea57fe5b049392505050565b6000828201838110156115a2576040805162461bcd60e51b815260206004820152601b60248201527f536166654d6174683a206164646974696f6e206f766572666c6f770000000000604482015290519081900360640190fd5b6001600160a01b0382166139a7576040805162461bcd60e51b815260206004820181905260248201527f4552433732313a206d696e7420746f20746865207a65726f2061646472657373604482015290519081900360640190fd5b6139b081613356565b15613a02576040805162461bcd60e51b815260206004820152601c60248201527f4552433732313a20746f6b656e20616c7265616479206d696e74656400000000604482015290519081900360640190fd5b613a0e60008383611316565b6001600160a01b0382166000908152606560205260409020613a309082613d68565b50613a3d60668284613d74565b5060405181906001600160a01b038416906000907fddf252ad1be2c89b69c2b068fc378daa952ba7f163c4a11628f55a4df523b3ef908290a45050565b6000613a853061318d565b15905090565b600054610100900460ff1680613aa45750613aa4613a7a565b80613ab2575060005460ff16155b613aed5760405162461bcd60e51b815260040180806020018281038252602e815260200180614c7b602e913960400191505060405180910390fd5b600054610100900460ff16158015613b18576000805460ff1961ff0019909116610100171660011790555b613b2061409b565b613b2861413b565b8015613b3a576000805461ff00191690555b50565b600054610100900460ff1680613b565750613b56613a7a565b80613b64575060005460ff16155b613b9f5760405162461bcd60e51b815260040180806020018281038252602e815260200180614c7b602e913960400191505060405180910390fd5b600054610100900460ff16158015613bca576000805460ff1961ff0019909116610100171660011790555b613b28614234565b600054610100900460ff1680613beb5750613beb613a7a565b80613bf9575060005460ff16155b613c345760405162461bcd60e51b815260040180806020018281038252602e815260200180614c7b602e913960400191505060405180910390fd5b600054610100900460ff16158015613c5f576000805460ff1961ff0019909116610100171660011790555b613c6761409b565b613c6f6142da565b613c798383614377565b8015611316576000805461ff0019169055505050565b60006115a2838361445c565b60006115a28383614522565b6060613cfc826040518060400160405280602081526020017f5361666545524332303a206c6f772d6c6576656c2063616c6c206661696c6564815250856001600160a01b03166145f69092919063ffffffff16565b80519091501561131657808060200190516020811015613d1b57600080fd5b50516113165760405162461bcd60e51b815260040180806020018281038252602a815260200180614e29602a913960400191505060405180910390fd5b60006115a28383614605565b5490565b60006115a2838361461d565b60006136fb84846001600160a01b038516614667565b81546000908210613dcc5760405162461bcd60e51b8152600401808060200182810382526022815260200180614a2a6022913960400191505060405180910390fd5b826000018281548110613ddb57fe5b9060005260206000200154905092915050565b815460009081908310613e325760405162461bcd60e51b8152600401808060200182810382526022815260200180614ca96022913960400191505060405180910390fd5b6000846000018481548110613e4357fe5b906000526020600020906002020190508060000154816001015492509250509250929050565b60008281526001840160205260408120548281613f045760405162461bcd60e51b81526004018080602001828103825283818151815260200191508051906020019080838360005b83811015613ec9578181015183820152602001613eb1565b50505050905090810190601f168015613ef65780820380516001836020036101000a031916815260200191505b509250505060405180910390fd5b50846000016001820381548110613f1757fe5b9060005260206000209060020201600101549150509392505050565b6000613f47846001600160a01b031661318d565b613f535750600161322f565b6060614061630a85bd0160e11b613f68613363565b88878760405160240180856001600160a01b03168152602001846001600160a01b0316815260200183815260200180602001828103825283818151815260200191508051906020019080838360005b83811015613fcf578181015183820152602001613fb7565b50505050905090810190601f168015613ffc5780820380516001836020036101000a031916815260200191505b5095505050505050604051602081830303815290604052906001600160e01b0319166020820180516001600160e01b038381831617835250505050604051806060016040528060328152602001614a74603291396001600160a01b03881691906145f6565b9050600081806020019051602081101561407a57600080fd5b50516001600160e01b031916630a85bd0160e11b1492505050949350505050565b600054610100900460ff16806140b457506140b4613a7a565b806140c2575060005460ff16155b6140fd5760405162461bcd60e51b815260040180806020018281038252602e815260200180614c7b602e913960400191505060405180910390fd5b600054610100900460ff16158015613b28576000805460ff1961ff0019909116610100171660011790558015613b3a576000805461ff001916905550565b600054610100900460ff16806141545750614154613a7a565b80614162575060005460ff16155b61419d5760405162461bcd60e51b815260040180806020018281038252602e815260200180614c7b602e913960400191505060405180910390fd5b600054610100900460ff161580156141c8576000805460ff1961ff0019909116610100171660011790555b60006141d2613363565b609780546001600160a01b0319166001600160a01b038316908117909155604051919250906000907f8be0079c531659141344cd1fd0a4f28419497f9722a3daafe3b4186f6b6457e0908290a3508015613b3a576000805461ff001916905550565b600054610100900460ff168061424d575061424d613a7a565b8061425b575060005460ff16155b6142965760405162461bcd60e51b815260040180806020018281038252602e815260200180614c7b602e913960400191505060405180910390fd5b600054610100900460ff161580156142c1576000805460ff1961ff0019909116610100171660011790555b600160c9558015613b3a576000805461ff001916905550565b600054610100900460ff16806142f357506142f3613a7a565b80614301575060005460ff16155b61433c5760405162461bcd60e51b815260040180806020018281038252602e815260200180614c7b602e913960400191505060405180910390fd5b600054610100900460ff16158015614367576000805460ff1961ff0019909116610100171660011790555b613b286301ffc9a760e01b6146fe565b600054610100900460ff16806143905750614390613a7a565b8061439e575060005460ff16155b6143d95760405162461bcd60e51b815260040180806020018281038252602e815260200180614c7b602e913960400191505060405180910390fd5b600054610100900460ff16158015614404576000805460ff1961ff0019909116610100171660011790555b825161441790606a906020860190614988565b50815161442b90606b906020850190614988565b5061443c6380ac58cd60e01b6146fe565b61444c635b5e139f60e01b6146fe565b613c7963780e9d6360e01b6146fe565b60008181526001830160205260408120548015614518578354600019808301919081019060009087908390811061448f57fe5b90600052602060002001549050808760000184815481106144ac57fe5b6000918252602080832090910192909255828152600189810190925260409020908401905586548790806144dc57fe5b600190038181906000526020600020016000905590558660010160008781526020019081526020016000206000905560019450505050506115a5565b60009150506115a5565b60008181526001830160205260408120548015614518578354600019808301919081019060009087908390811061455557fe5b906000526020600020906002020190508087600001848154811061457557fe5b6000918252602080832084546002909302019182556001938401549184019190915583548252898301905260409020908401905586548790806145b457fe5b60008281526020808220600260001990940193840201828155600190810183905592909355888152898201909252604082209190915594506115a59350505050565b60606136fb8484600085614782565b60009081526001919091016020526040902054151590565b60006146298383614605565b61465f575081546001818101845560008481526020808220909301849055845484825282860190935260409020919091556115a5565b5060006115a5565b6000828152600184016020526040812054806146cc5750506040805180820182528381526020808201848152865460018181018955600089815284812095516002909302909501918255915190820155865486845281880190925292909120556136fe565b828560000160018303815481106146df57fe5b90600052602060002090600202016001018190555060009150506136fe565b6001600160e01b0319808216141561475d576040805162461bcd60e51b815260206004820152601c60248201527f4552433136353a20696e76616c696420696e7465726661636520696400000000604482015290519081900360640190fd5b6001600160e01b0319166000908152603360205260409020805460ff19166001179055565b6060824710156147c35760405162461bcd60e51b8152600401808060200182810382526026815260200180614b536026913960400191505060405180910390fd5b6147cc8561318d565b61481d576040805162461bcd60e51b815260206004820152601d60248201527f416464726573733a2063616c6c20746f206e6f6e2d636f6e7472616374000000604482015290519081900360640190fd5b60006060866001600160a01b031685876040518082805190602001908083835b6020831061485c5780518252601f19909201916020918201910161483d565b6001836020036101000a03801982511681845116808217855250505050505090500191505060006040518083038185875af1925050503d80600081146148be576040519150601f19603f3d011682016040523d82523d6000602084013e6148c3565b606091505b50915091506148d38282866148de565b979650505050505050565b606083156148ed5750816136fe565b8251156148fd5782518084602001fd5b60405162461bcd60e51b8152602060048201818152845160248401528451859391928392604401919085019080838360008315613ec9578181015183820152602001613eb1565b50805460018160011615610100020316600290046000825580601f1061496a5750613b3a565b601f016020900490600052602060002090810190613b3a9190614a14565b828054600181600116156101000203166002900490600052602060002090601f0160209004810192826149be5760008555614a04565b82601f106149d757805160ff1916838001178555614a04565b82800160010185558215614a04579182015b82811115614a045782518255916020019190600101906149e9565b50614a10929150614a14565b5090565b5b80821115614a105760008155600101614a1556fe456e756d657261626c655365743a20696e646578206f7574206f6620626f756e64734469737472696275746f723a205472616e7366657220746f207472656173757279206661696c65644552433732313a207472616e7366657220746f206e6f6e20455243373231526563656976657220696d706c656d656e7465724f776e61626c653a206e6577206f776e657220697320746865207a65726f20616464726573734469737472696275746f723a20636f7665722070726963652077697468206665652065786365656473206d61784469737472696275746f723a2052657475726e696e67204554482072656d61696e64657220746f2073656e646572206661696c65642e4552433732313a207472616e7366657220746f20746865207a65726f2061646472657373416464726573733a20696e73756666696369656e742062616c616e636520666f722063616c6c4552433732313a206f70657261746f7220717565727920666f72206e6f6e6578697374656e7420746f6b656e4552433732313a20617070726f76652063616c6c6572206973206e6f74206f776e6572206e6f7220617070726f76656420666f7220616c6c4469737472696275746f723a205472616e7366657220746f204e4654206f776e6572206661696c65644469737472696275746f723a20496e73756666696369656e74204554482073656e744552433732313a2062616c616e636520717565727920666f7220746865207a65726f20616464726573734552433732313a206f776e657220717565727920666f72206e6f6e6578697374656e7420746f6b656e496e697469616c697a61626c653a20636f6e747261637420697320616c726561647920696e697469616c697a6564456e756d657261626c654d61703a20696e646578206f7574206f6620626f756e64734469737472696275746f723a204e6f7420617070726f766564206f72206f776e6572536166654d6174683a206d756c7469706c69636174696f6e206f766572666c6f774552433732313a20617070726f76656420717565727920666f72206e6f6e6578697374656e7420746f6b656e4f776e61626c653a2063616c6c6572206973206e6f7420746865206f776e65724552433732313a207472616e73666572206f6620746f6b656e2074686174206973206e6f74206f776e4552433732314d657461646174613a2055524920717565727920666f72206e6f6e6578697374656e7420746f6b656e4469737472696275746f723a20636f766572496420636c61696d4964206d69736d617463684552433732313a20617070726f76616c20746f2063757272656e74206f776e65724552433732313a207472616e736665722063616c6c6572206973206e6f74206f776e6572206e6f7220617070726f7665645361666545524332303a204552433230206f7065726174696f6e20646964206e6f742073756363656564a264697066735822122002327bfc646f43a98ca909026c5a304bbba375885531d0d3305222d265a71aa264736f6c63430007040033496e697469616c697a61626c653a20636f6e747261637420697320616c726561647920696e697469616c697a6564",
  "immutableReferences": {},
  "source": "/* Copyright (C) 2021 NexusMutual.io\n\n  This program is free software: you can redistribute it and/or modify\n    it under the terms of the GNU General Public License as published by\n    the Free Software Foundation, either version 3 of the License, or\n    (at your option) any later version.\n\n  This program is distributed in the hope that it will be useful,\n    but WITHOUT ANY WARRANTY; without even the implied warranty of\n    MERCHANTABILITY or FITNESS FOR A PARTICULAR PURPOSE.  See the\n    GNU General Public License for more details.\n\n  You should have received a copy of the GNU General Public License\n    along with this program.  If not, see http://www.gnu.org/licenses/ */\n\npragma solidity ^0.7.4;\n\nimport \"@openzeppelin/contracts-upgradeable/token/ERC721/ERC721Upgradeable.sol\";\nimport \"@openzeppelin/contracts-upgradeable/token/ERC20/IERC20Upgradeable.sol\";\nimport \"@openzeppelin/contracts-upgradeable/token/ERC20/SafeERC20Upgradeable.sol\";\nimport \"@openzeppelin/contracts-upgradeable/access/OwnableUpgradeable.sol\";\nimport \"@openzeppelin/contracts-upgradeable/utils/ReentrancyGuardUpgradeable.sol\";\nimport \"@openzeppelin/contracts-upgradeable/math/SafeMathUpgradeable.sol\";\nimport \"./interfaces/ICover.sol\";\nimport \"./interfaces/IPool.sol\";\nimport \"./interfaces/INXMaster.sol\";\n\ncontract Distributor is ERC721Upgradeable, OwnableUpgradeable, ReentrancyGuardUpgradeable {\n  using SafeMathUpgradeable for uint;\n  using SafeERC20Upgradeable for IERC20Upgradeable;\n\n  address public constant ETH = 0xEeeeeEeeeEeEeeEeEeEeeEEEeeeeEeeeeeeeEEeE;\n\n  event ClaimPayoutRedeemed (\n    uint indexed coverId,\n    uint indexed claimId,\n    address indexed receiver,\n    uint amountPaid,\n    address coverAsset\n  );\n\n  event ClaimSubmitted (\n    uint indexed coverId,\n    uint indexed claimId,\n    address indexed submitter\n  );\n\n  event CoverBought (\n    uint indexed coverId,\n    address indexed buyer,\n    address indexed contractAddress,\n    uint feePercentage,\n    uint coverPrice\n  );\n\n  /*\n   feePercentage applied to every cover premium. has 2 decimals. eg.: 10.00% stored as 1000\n  */\n  uint public feePercentage;\n  bool public buysAllowed = true;\n  /*\n    address where `buyCover` distributor fees and `ethOut` from `sellNXM` are sent. Controlled by Owner.\n  */\n  address payable public treasury;\n\n  /*\n    NexusMutual contracts\n  */\n  ICover public cover;\n  IERC20Upgradeable public nxmToken;\n  INXMaster public master;\n\n  modifier onlyTokenApprovedOrOwner(uint256 tokenId) {\n    require(_isApprovedOrOwner(msg.sender, tokenId), \"Distributor: Not approved or owner\");\n    _;\n  }\n\n  /**\n   * @dev DistributorFactory expects a constructor with this signature.\n   */\n  constructor(\n    address coverAddress,\n    address nxmTokenAddress,\n    address masterAddress,\n    uint _feePercentage,\n    address payable _treasury,\n    string memory tokenName,\n    string memory tokenSymbol\n  )\n  public\n  {\n    initialize(\n      coverAddress,\n      nxmTokenAddress,\n      masterAddress,\n      _feePercentage,\n      _treasury,\n      tokenName,\n      tokenSymbol\n    );\n  }\n\n  /**\n   * @dev Standard pattern of constructing proxy contracts with the same signature as the constructor.\n   */\n  function initialize(\n    address coverAddress,\n    address nxmTokenAddress,\n    address masterAddress,\n    uint _feePercentage,\n    address payable _treasury,\n    string memory tokenName,\n    string memory tokenSymbol\n  )\n  initializer\n  public\n  {\n    __Ownable_init();\n    __ReentrancyGuard_init();\n    __ERC721_init(tokenName, tokenSymbol);\n\n    feePercentage = _feePercentage;\n    treasury = _treasury;\n    cover = ICover(coverAddress);\n    nxmToken = IERC20Upgradeable(nxmTokenAddress);\n    master = INXMaster(masterAddress);\n  }\n\n  /**\n  * @dev buy cover for a coverable identified by its contractAddress\n  * @param contractAddress contract address of coverable\n  * @param coverAsset asset of the premium and of the sum assured.\n  * @param sumAssured amount payable if claim is submitted and considered valid\n  * @param coverType cover type dermining how the data parameter is decoded\n  * @param maxPriceWithFee max price (including fee) to be spent on the cover.\n  * @param data abi-encoded field with additional cover data fields\n  * @return token id\n  */\n  function buyCover (\n    address contractAddress,\n    address coverAsset,\n    uint sumAssured,\n    uint16 coverPeriod,\n    uint8 coverType,\n    uint maxPriceWithFee,\n    bytes calldata data\n  )\n  external\n  payable\n  nonReentrant\n  returns (uint)\n  {\n    require(buysAllowed, \"Distributor: buys not allowed\");\n\n    uint coverPrice = cover.getCoverPrice(contractAddress, coverAsset, sumAssured, coverPeriod, coverType, data);\n    uint coverPriceWithFee = feePercentage.mul(coverPrice).div(10000).add(coverPrice);\n    require(coverPriceWithFee <= maxPriceWithFee, \"Distributor: cover price with fee exceeds max\");\n\n    uint buyCoverValue = 0;\n    if (coverAsset == ETH) {\n      require(msg.value >= coverPriceWithFee, \"Distributor: Insufficient ETH sent\");\n      uint remainder = msg.value.sub(coverPriceWithFee);\n\n      if (remainder > 0) {\n        // solhint-disable-next-line avoid-low-level-calls\n        (bool ok, /* data */) = address(msg.sender).call{value: remainder}(\"\");\n        require(ok, \"Distributor: Returning ETH remainder to sender failed.\");\n      }\n\n      buyCoverValue = coverPrice;\n    } else {\n      IERC20Upgradeable token = IERC20Upgradeable(coverAsset);\n      token.safeTransferFrom(msg.sender, address(this), coverPriceWithFee);\n      token.approve(address(cover), coverPrice);\n    }\n\n    uint coverId = cover.buyCover{value: buyCoverValue }(\n      contractAddress,\n      coverAsset,\n      sumAssured,\n      coverPeriod,\n      coverType,\n      data\n    );\n\n    uint fee = coverPriceWithFee.sub(coverPrice);\n    if (fee > 0) {\n      transferToTreasury(fee, coverAsset);\n    }\n\n    // mint token using the coverId as a tokenId (guaranteed unique)\n    _mint(msg.sender, coverId);\n\n    emit CoverBought(coverId, msg.sender, contractAddress, feePercentage, coverPrice);\n    return coverId;\n  }\n\n  /**\n  * @notice Submit a claim for the cover\n  * @param tokenId cover token id\n  * @param data abi-encoded field with additional claim data fields\n  */\n  function submitClaim(\n    uint tokenId,\n    bytes calldata data\n  )\n  external\n  onlyTokenApprovedOrOwner(tokenId)\n  returns (uint)\n  {\n    // coverId = tokenId\n    uint claimId = cover.submitClaim(tokenId, data);\n    emit ClaimSubmitted(tokenId, claimId, msg.sender);\n    return claimId;\n  }\n\n  /**\n  * @notice Redeem the claim to the cover. Requires that that the payout is completed.\n  * @param tokenId cover token id\n  */\n  function redeemClaim(\n    uint256 tokenId,\n    uint claimId\n  )\n  public\n  onlyTokenApprovedOrOwner(tokenId)\n  nonReentrant\n  {\n    uint coverId = cover.getClaimCoverId(claimId);\n    require(coverId == tokenId, \"Distributor: coverId claimId mismatch\");\n    (ICover.ClaimStatus status, uint amountPaid, address coverAsset) = cover.getPayoutOutcome(claimId);\n    require(status == ICover.ClaimStatus.ACCEPTED, \"Distributor: Claim not accepted\");\n\n    _burn(tokenId);\n    if (coverAsset == ETH) {\n      (bool ok, /* data */) = msg.sender.call{value: amountPaid}(\"\");\n      require(ok, \"Distributor: Transfer to NFT owner failed\");\n    } else {\n      IERC20Upgradeable erc20 = IERC20Upgradeable(coverAsset);\n      erc20.safeTransfer(msg.sender, amountPaid);\n    }\n\n    emit ClaimPayoutRedeemed(tokenId, claimId, msg.sender, amountPaid, coverAsset);\n  }\n\n  /**\n  * @notice Execute an action on specific cover token. The action is identified by an `action` id.\n      Allows for an ETH transfer or an ERC20 transfer.\n      If less than the supplied assetAmount is needed, it is returned to `msg.sender`.\n  * @dev The purpose of this function is future-proofing for updates to the cover buy->claim cycle.\n  * @param tokenId id of the cover token\n  * @param assetAmount optional asset amount to be transferred along with the action executed\n  * @param asset optional asset to be transferred along with the action executed\n  * @param action action identifier\n  * @param data abi-encoded field with action parameters\n  * @return response (abi-encoded response, amount withheld from the original asset amount supplied)\n  */\n  function executeCoverAction(uint tokenId, uint assetAmount, address asset, uint8 action, bytes calldata data)\n  external\n  payable\n  onlyTokenApprovedOrOwner(tokenId)\n  nonReentrant\n  returns (bytes memory response, uint withheldAmount)\n  {\n    if (assetAmount == 0) {\n      return cover.executeCoverAction(tokenId, action, data);\n    }\n    if (asset == ETH) {\n      require(msg.value >= assetAmount, \"Distributor: Insufficient ETH sent\");\n      (response, withheldAmount) = cover.executeCoverAction{ value: msg.value }(tokenId, action, data);\n      uint remainder = assetAmount.sub(withheldAmount);\n      (bool ok, /* data */) = address(msg.sender).call{value: remainder}(\"\");\n      require(ok, \"Distributor: Returning ETH remainder to sender failed.\");\n      return (response, withheldAmount);\n    }\n\n    IERC20Upgradeable token = IERC20Upgradeable(asset);\n    token.safeTransferFrom(msg.sender, address(this), assetAmount);\n    token.approve(address(cover), assetAmount);\n    (response, withheldAmount) = cover.executeCoverAction(tokenId, action, data);\n    uint remainder = assetAmount.sub(withheldAmount);\n    token.safeTransfer(msg.sender, remainder);\n    return (response, withheldAmount);\n  }\n\n  /**\n  * @notice get cover data\n  * @param tokenId cover token id\n  */\n  function getCover(uint tokenId)\n  public\n  view\n  returns (\n    uint8 status,\n    uint sumAssured,\n    uint16 coverPeriod,\n    uint validUntil,\n    address contractAddress,\n    address coverAsset,\n    uint premiumInNXM,\n    address memberAddress\n  ) {\n    return cover.getCover(tokenId);\n  }\n\n  /**\n  * @notice get state of a claim payout. Returns\n  * status of cover,  amount paid as part of the payout, address of the cover asset)\n  * @param claimId id of claim\n  */\n  function getPayoutOutcome(uint claimId)\n  public\n  view\n  returns (ICover.ClaimStatus status, uint amountPaid, address coverAsset)\n  {\n    (status, amountPaid, coverAsset) = cover.getPayoutOutcome(claimId);\n  }\n\n  /**\n  * @notice Set `amount` as the allowance of `spender` over the distributor's NXM tokens.\n  * @param spender approved spender\n  * @param amount amount approved\n  */\n  function approveNXM(address spender, uint256 amount) public onlyOwner {\n    nxmToken.approve(spender, amount);\n  }\n\n  /**\n  * @notice Moves `amount` tokens from the distributor to `recipient`.\n  * @param recipient recipient of NXM\n  * @param amount amount of NXM\n  */\n  function withdrawNXM(address recipient, uint256 amount) public onlyOwner {\n    nxmToken.safeTransfer(recipient, amount);\n  }\n\n  /**\n  * @notice Switch NexusMutual membership to `newAddress`.\n  * @param newAddress address\n  */\n  function switchMembership(address newAddress) external onlyOwner {\n    nxmToken.approve(address(cover), uint(-1));\n    cover.switchMembership(newAddress);\n  }\n\n  /**\n  * @notice Sell Distributor-owned NXM tokens for ETH\n  * @param nxmIn Amount of NXM to sell\n  * @param minEthOut minimum expected Eth received\n  */\n  function sellNXM(uint nxmIn, uint minEthOut) external onlyOwner {\n\n    address poolAddress = master.getLatestAddress(\"P1\");\n    nxmToken.approve(poolAddress, nxmIn);\n    uint balanceBefore = address(this).balance;\n    IPool(poolAddress).sellNXM(nxmIn, minEthOut);\n    uint balanceAfter = address(this).balance;\n\n    transferToTreasury(balanceAfter.sub(balanceBefore), ETH);\n  }\n\n  /**\n  * @notice Set if buyCover calls are allowed (true) or not (false).\n  * @param _buysAllowed value set for buysAllowed\n  */\n  function setBuysAllowed(bool _buysAllowed) external onlyOwner {\n    buysAllowed = _buysAllowed;\n  }\n\n  /**\n  * @notice Set treasury address where `buyCover` distributor fees and `ethOut` from `sellNXM` are sent.\n  * @param _treasury new treasury address\n  */\n  function setTreasury(address payable _treasury) external onlyOwner {\n    treasury = _treasury;\n  }\n\n  /**\n  * @notice Send `amount` of `asset`  to treasury address\n  * @param amount amount of asset\n  * @param asset ERC20 token address or ETH\n  */\n  function transferToTreasury(uint amount, address asset) internal {\n    if (asset == ETH) {\n      (bool ok, /* data */) = treasury.call{value: amount}(\"\");\n      require(ok, \"Distributor: Transfer to treasury failed\");\n    } else {\n      IERC20Upgradeable erc20 = IERC20Upgradeable(asset);\n      erc20.safeTransfer(treasury, amount);\n    }\n  }\n\n  /**\n  * @notice Set fee percentage for buyCover premiums.\n  *  `_feePercentage` has 2 decimals of precision ( 5000 is 50%)\n  * @param _feePercentage fee percentage to be set\n  */\n  function setFeePercentage(uint _feePercentage) external onlyOwner {\n    feePercentage = _feePercentage;\n  }\n\n  /**\n  * @dev required to be allow for receiving ETH claim payouts\n  */\n  receive () payable external {\n  }\n}\n",
  "sourcePath": "/Users/ricardopinto/work/brightunion/distributors/contracts/nexus/Distributor.sol",
  "compiler": {
    "name": "solc",
    "version": "0.7.4+commit.3f05b770.Emscripten.clang"
  },
  "schemaVersion": "3.4.0",
  "updatedAt": "2021-05-03T16:01:27.762Z",
  "devdoc": {
    "kind": "dev",
    "methods": {
      "approve(address,uint256)": {
        "details": "See {IERC721-approve}."
      },
      "approveNXM(address,uint256)": {
        "params": {
          "amount": "amount approved",
          "spender": "approved spender"
        }
      },
      "balanceOf(address)": {
        "details": "See {IERC721-balanceOf}."
      },
      "baseURI()": {
        "details": "Returns the base URI set via {_setBaseURI}. This will be automatically added as a prefix in {tokenURI} to each token's URI, or to the token ID if no specific URI is set for that token ID."
      },
      "buyCover(address,address,uint256,uint16,uint8,uint256,bytes)": {
        "details": "buy cover for a coverable identified by its contractAddress",
        "params": {
          "contractAddress": "contract address of coverable",
          "coverAsset": "asset of the premium and of the sum assured.",
          "coverType": "cover type dermining how the data parameter is decoded",
          "data": "abi-encoded field with additional cover data fields",
          "maxPriceWithFee": "max price (including fee) to be spent on the cover.",
          "sumAssured": "amount payable if claim is submitted and considered valid"
        },
        "returns": {
          "_0": "token id"
        }
      },
      "constructor": {
        "details": "DistributorFactory expects a constructor with this signature."
      },
      "executeCoverAction(uint256,uint256,address,uint8,bytes)": {
        "details": "The purpose of this function is future-proofing for updates to the cover buy->claim cycle.",
        "params": {
          "action": "action identifier",
          "asset": "optional asset to be transferred along with the action executed",
          "assetAmount": "optional asset amount to be transferred along with the action executed",
          "data": "abi-encoded field with action parameters",
          "tokenId": "id of the cover token"
        },
        "returns": {
          "response": "(abi-encoded response, amount withheld from the original asset amount supplied)"
        }
      },
      "getApproved(uint256)": {
        "details": "See {IERC721-getApproved}."
      },
      "getCover(uint256)": {
        "params": {
          "tokenId": "cover token id"
        }
      },
      "getPayoutOutcome(uint256)": {
        "params": {
          "claimId": "id of claim"
        }
      },
      "initialize(address,address,address,uint256,address,string,string)": {
        "details": "Standard pattern of constructing proxy contracts with the same signature as the constructor."
      },
      "isApprovedForAll(address,address)": {
        "details": "See {IERC721-isApprovedForAll}."
      },
      "name()": {
        "details": "See {IERC721Metadata-name}."
      },
      "owner()": {
        "details": "Returns the address of the current owner."
      },
      "ownerOf(uint256)": {
        "details": "See {IERC721-ownerOf}."
      },
      "redeemClaim(uint256,uint256)": {
        "params": {
          "tokenId": "cover token id"
        }
      },
      "renounceOwnership()": {
        "details": "Leaves the contract without owner. It will not be possible to call `onlyOwner` functions anymore. Can only be called by the current owner. NOTE: Renouncing ownership will leave the contract without an owner, thereby removing any functionality that is only available to the owner."
      },
      "safeTransferFrom(address,address,uint256)": {
        "details": "See {IERC721-safeTransferFrom}."
      },
      "safeTransferFrom(address,address,uint256,bytes)": {
        "details": "See {IERC721-safeTransferFrom}."
      },
      "sellNXM(uint256,uint256)": {
        "params": {
          "minEthOut": "minimum expected Eth received",
          "nxmIn": "Amount of NXM to sell"
        }
      },
      "setApprovalForAll(address,bool)": {
        "details": "See {IERC721-setApprovalForAll}."
      },
      "setBuysAllowed(bool)": {
        "params": {
          "_buysAllowed": "value set for buysAllowed"
        }
      },
      "setFeePercentage(uint256)": {
        "params": {
          "_feePercentage": "fee percentage to be set"
        }
      },
      "setTreasury(address)": {
        "params": {
          "_treasury": "new treasury address"
        }
      },
      "submitClaim(uint256,bytes)": {
        "params": {
          "data": "abi-encoded field with additional claim data fields",
          "tokenId": "cover token id"
        }
      },
      "supportsInterface(bytes4)": {
        "details": "See {IERC165-supportsInterface}. Time complexity O(1), guaranteed to always use less than 30 000 gas."
      },
      "switchMembership(address)": {
        "params": {
          "newAddress": "address"
        }
      },
      "symbol()": {
        "details": "See {IERC721Metadata-symbol}."
      },
      "tokenByIndex(uint256)": {
        "details": "See {IERC721Enumerable-tokenByIndex}."
      },
      "tokenOfOwnerByIndex(address,uint256)": {
        "details": "See {IERC721Enumerable-tokenOfOwnerByIndex}."
      },
      "tokenURI(uint256)": {
        "details": "See {IERC721Metadata-tokenURI}."
      },
      "totalSupply()": {
        "details": "See {IERC721Enumerable-totalSupply}."
      },
      "transferFrom(address,address,uint256)": {
        "details": "See {IERC721-transferFrom}."
      },
      "transferOwnership(address)": {
        "details": "Transfers ownership of the contract to a new account (`newOwner`). Can only be called by the current owner."
      },
      "withdrawNXM(address,uint256)": {
        "params": {
          "amount": "amount of NXM",
          "recipient": "recipient of NXM"
        }
      }
    },
    "version": 1
  },
  "userdoc": {
    "kind": "user",
    "methods": {
      "approveNXM(address,uint256)": {
        "notice": "Set `amount` as the allowance of `spender` over the distributor's NXM tokens."
      },
      "executeCoverAction(uint256,uint256,address,uint8,bytes)": {
        "notice": "Execute an action on specific cover token. The action is identified by an `action` id. Allows for an ETH transfer or an ERC20 transfer. If less than the supplied assetAmount is needed, it is returned to `msg.sender`."
      },
      "getCover(uint256)": {
        "notice": "get cover data"
      },
      "getPayoutOutcome(uint256)": {
        "notice": "get state of a claim payout. Returns status of cover,  amount paid as part of the payout, address of the cover asset)"
      },
      "redeemClaim(uint256,uint256)": {
        "notice": "Redeem the claim to the cover. Requires that that the payout is completed."
      },
      "sellNXM(uint256,uint256)": {
        "notice": "Sell Distributor-owned NXM tokens for ETH"
      },
      "setBuysAllowed(bool)": {
        "notice": "Set if buyCover calls are allowed (true) or not (false)."
      },
      "setFeePercentage(uint256)": {
        "notice": "Set fee percentage for buyCover premiums.  `_feePercentage` has 2 decimals of precision ( 5000 is 50%)"
      },
      "setTreasury(address)": {
        "notice": "Set treasury address where `buyCover` distributor fees and `ethOut` from `sellNXM` are sent."
      },
      "submitClaim(uint256,bytes)": {
        "notice": "Submit a claim for the cover"
      },
      "switchMembership(address)": {
        "notice": "Switch NexusMutual membership to `newAddress`."
      },
      "withdrawNXM(address,uint256)": {
        "notice": "Moves `amount` tokens from the distributor to `recipient`."
      }
    },
    "version": 1
  }
}