{
  "contractName": "Distributor",
  "abi": [
    {
      "anonymous": false,
      "inputs": [
        {
          "indexed": true,
          "internalType": "address",
          "name": "owner",
          "type": "address"
        },
        {
          "indexed": true,
          "internalType": "address",
          "name": "approved",
          "type": "address"
        },
        {
          "indexed": true,
          "internalType": "uint256",
          "name": "tokenId",
          "type": "uint256"
        }
      ],
      "name": "Approval",
      "type": "event"
    },
    {
      "anonymous": false,
      "inputs": [
        {
          "indexed": true,
          "internalType": "address",
          "name": "owner",
          "type": "address"
        },
        {
          "indexed": true,
          "internalType": "address",
          "name": "operator",
          "type": "address"
        },
        {
          "indexed": false,
          "internalType": "bool",
          "name": "approved",
          "type": "bool"
        }
      ],
      "name": "ApprovalForAll",
      "type": "event"
    },
    {
      "anonymous": false,
      "inputs": [
        {
          "indexed": true,
          "internalType": "uint256",
          "name": "coverId",
          "type": "uint256"
        },
        {
          "indexed": true,
          "internalType": "uint256",
          "name": "claimId",
          "type": "uint256"
        },
        {
          "indexed": true,
          "internalType": "address",
          "name": "receiver",
          "type": "address"
        },
        {
          "indexed": false,
          "internalType": "uint256",
          "name": "amountPaid",
          "type": "uint256"
        },
        {
          "indexed": false,
          "internalType": "address",
          "name": "coverAsset",
          "type": "address"
        }
      ],
      "name": "ClaimPayoutRedeemed",
      "type": "event"
    },
    {
      "anonymous": false,
      "inputs": [
        {
          "indexed": true,
          "internalType": "uint256",
          "name": "coverId",
          "type": "uint256"
        },
        {
          "indexed": true,
          "internalType": "uint256",
          "name": "claimId",
          "type": "uint256"
        },
        {
          "indexed": true,
          "internalType": "address",
          "name": "submitter",
          "type": "address"
        }
      ],
      "name": "ClaimSubmitted",
      "type": "event"
    },
    {
      "anonymous": false,
      "inputs": [
        {
          "indexed": true,
          "internalType": "uint256",
          "name": "coverId",
          "type": "uint256"
        },
        {
          "indexed": true,
          "internalType": "address",
          "name": "buyer",
          "type": "address"
        },
        {
          "indexed": true,
          "internalType": "address",
          "name": "contractAddress",
          "type": "address"
        },
        {
          "indexed": false,
          "internalType": "uint256",
          "name": "feePercentage",
          "type": "uint256"
        },
        {
          "indexed": false,
          "internalType": "uint256",
          "name": "coverPrice",
          "type": "uint256"
        }
      ],
      "name": "CoverBought",
      "type": "event"
    },
    {
      "anonymous": false,
      "inputs": [
        {
          "indexed": true,
          "internalType": "address",
          "name": "previousOwner",
          "type": "address"
        },
        {
          "indexed": true,
          "internalType": "address",
          "name": "newOwner",
          "type": "address"
        }
      ],
      "name": "OwnershipTransferred",
      "type": "event"
    },
    {
      "anonymous": false,
      "inputs": [
        {
          "indexed": true,
          "internalType": "address",
          "name": "from",
          "type": "address"
        },
        {
          "indexed": true,
          "internalType": "address",
          "name": "to",
          "type": "address"
        },
        {
          "indexed": true,
          "internalType": "uint256",
          "name": "tokenId",
          "type": "uint256"
        }
      ],
      "name": "Transfer",
      "type": "event"
    },
    {
      "inputs": [],
      "name": "DEFAULT_BASE_URI",
      "outputs": [
        {
          "internalType": "string",
          "name": "",
          "type": "string"
        }
      ],
      "stateMutability": "view",
      "type": "function"
    },
    {
      "inputs": [],
      "name": "ETH",
      "outputs": [
        {
          "internalType": "address",
          "name": "",
          "type": "address"
        }
      ],
      "stateMutability": "view",
      "type": "function"
    },
    {
      "inputs": [
        {
          "internalType": "address",
          "name": "to",
          "type": "address"
        },
        {
          "internalType": "uint256",
          "name": "tokenId",
          "type": "uint256"
        }
      ],
      "name": "approve",
      "outputs": [],
      "stateMutability": "nonpayable",
      "type": "function"
    },
    {
      "inputs": [
        {
          "internalType": "address",
          "name": "owner",
          "type": "address"
        }
      ],
      "name": "balanceOf",
      "outputs": [
        {
          "internalType": "uint256",
          "name": "",
          "type": "uint256"
        }
      ],
      "stateMutability": "view",
      "type": "function"
    },
    {
      "inputs": [],
      "name": "baseURI",
      "outputs": [
        {
          "internalType": "string",
          "name": "",
          "type": "string"
        }
      ],
      "stateMutability": "view",
      "type": "function"
    },
    {
      "inputs": [],
      "name": "buysAllowed",
      "outputs": [
        {
          "internalType": "bool",
          "name": "",
          "type": "bool"
        }
      ],
      "stateMutability": "view",
      "type": "function"
    },
    {
      "inputs": [],
      "name": "cover",
      "outputs": [
        {
          "internalType": "contract ICover",
          "name": "",
          "type": "address"
        }
      ],
      "stateMutability": "view",
      "type": "function"
    },
    {
      "inputs": [],
      "name": "feePercentage",
      "outputs": [
        {
          "internalType": "uint256",
          "name": "",
          "type": "uint256"
        }
      ],
      "stateMutability": "view",
      "type": "function"
    },
    {
      "inputs": [
        {
          "internalType": "uint256",
          "name": "tokenId",
          "type": "uint256"
        }
      ],
      "name": "getApproved",
      "outputs": [
        {
          "internalType": "address",
          "name": "",
          "type": "address"
        }
      ],
      "stateMutability": "view",
      "type": "function"
    },
    {
      "inputs": [
        {
          "internalType": "address",
          "name": "owner",
          "type": "address"
        },
        {
          "internalType": "address",
          "name": "operator",
          "type": "address"
        }
      ],
      "name": "isApprovedForAll",
      "outputs": [
        {
          "internalType": "bool",
          "name": "",
          "type": "bool"
        }
      ],
      "stateMutability": "view",
      "type": "function"
    },
    {
      "inputs": [],
      "name": "master",
      "outputs": [
        {
          "internalType": "contract INXMaster",
          "name": "",
          "type": "address"
        }
      ],
      "stateMutability": "view",
      "type": "function"
    },
    {
      "inputs": [],
      "name": "name",
      "outputs": [
        {
          "internalType": "string",
          "name": "",
          "type": "string"
        }
      ],
      "stateMutability": "view",
      "type": "function"
    },
    {
      "inputs": [],
      "name": "nxmToken",
      "outputs": [
        {
          "internalType": "contract IERC20",
          "name": "",
          "type": "address"
        }
      ],
      "stateMutability": "view",
      "type": "function"
    },
    {
      "inputs": [],
      "name": "owner",
      "outputs": [
        {
          "internalType": "address",
          "name": "",
          "type": "address"
        }
      ],
      "stateMutability": "view",
      "type": "function"
    },
    {
      "inputs": [
        {
          "internalType": "uint256",
          "name": "tokenId",
          "type": "uint256"
        }
      ],
      "name": "ownerOf",
      "outputs": [
        {
          "internalType": "address",
          "name": "",
          "type": "address"
        }
      ],
      "stateMutability": "view",
      "type": "function"
    },
    {
      "inputs": [],
      "name": "renounceOwnership",
      "outputs": [],
      "stateMutability": "nonpayable",
      "type": "function"
    },
    {
      "inputs": [
        {
          "internalType": "address",
          "name": "from",
          "type": "address"
        },
        {
          "internalType": "address",
          "name": "to",
          "type": "address"
        },
        {
          "internalType": "uint256",
          "name": "tokenId",
          "type": "uint256"
        }
      ],
      "name": "safeTransferFrom",
      "outputs": [],
      "stateMutability": "nonpayable",
      "type": "function"
    },
    {
      "inputs": [
        {
          "internalType": "address",
          "name": "from",
          "type": "address"
        },
        {
          "internalType": "address",
          "name": "to",
          "type": "address"
        },
        {
          "internalType": "uint256",
          "name": "tokenId",
          "type": "uint256"
        },
        {
          "internalType": "bytes",
          "name": "_data",
          "type": "bytes"
        }
      ],
      "name": "safeTransferFrom",
      "outputs": [],
      "stateMutability": "nonpayable",
      "type": "function"
    },
    {
      "inputs": [
        {
          "internalType": "address",
          "name": "operator",
          "type": "address"
        },
        {
          "internalType": "bool",
          "name": "approved",
          "type": "bool"
        }
      ],
      "name": "setApprovalForAll",
      "outputs": [],
      "stateMutability": "nonpayable",
      "type": "function"
    },
    {
      "inputs": [
        {
          "internalType": "bytes4",
          "name": "interfaceId",
          "type": "bytes4"
        }
      ],
      "name": "supportsInterface",
      "outputs": [
        {
          "internalType": "bool",
          "name": "",
          "type": "bool"
        }
      ],
      "stateMutability": "view",
      "type": "function"
    },
    {
      "inputs": [],
      "name": "symbol",
      "outputs": [
        {
          "internalType": "string",
          "name": "",
          "type": "string"
        }
      ],
      "stateMutability": "view",
      "type": "function"
    },
    {
      "inputs": [
        {
          "internalType": "uint256",
          "name": "index",
          "type": "uint256"
        }
      ],
      "name": "tokenByIndex",
      "outputs": [
        {
          "internalType": "uint256",
          "name": "",
          "type": "uint256"
        }
      ],
      "stateMutability": "view",
      "type": "function"
    },
    {
      "inputs": [
        {
          "internalType": "address",
          "name": "owner",
          "type": "address"
        },
        {
          "internalType": "uint256",
          "name": "index",
          "type": "uint256"
        }
      ],
      "name": "tokenOfOwnerByIndex",
      "outputs": [
        {
          "internalType": "uint256",
          "name": "",
          "type": "uint256"
        }
      ],
      "stateMutability": "view",
      "type": "function"
    },
    {
      "inputs": [
        {
          "internalType": "uint256",
          "name": "tokenId",
          "type": "uint256"
        }
      ],
      "name": "tokenURI",
      "outputs": [
        {
          "internalType": "string",
          "name": "",
          "type": "string"
        }
      ],
      "stateMutability": "view",
      "type": "function"
    },
    {
      "inputs": [],
      "name": "totalSupply",
      "outputs": [
        {
          "internalType": "uint256",
          "name": "",
          "type": "uint256"
        }
      ],
      "stateMutability": "view",
      "type": "function"
    },
    {
      "inputs": [
        {
          "internalType": "address",
          "name": "from",
          "type": "address"
        },
        {
          "internalType": "address",
          "name": "to",
          "type": "address"
        },
        {
          "internalType": "uint256",
          "name": "tokenId",
          "type": "uint256"
        }
      ],
      "name": "transferFrom",
      "outputs": [],
      "stateMutability": "nonpayable",
      "type": "function"
    },
    {
      "inputs": [
        {
          "internalType": "address",
          "name": "newOwner",
          "type": "address"
        }
      ],
      "name": "transferOwnership",
      "outputs": [],
      "stateMutability": "nonpayable",
      "type": "function"
    },
    {
      "inputs": [],
      "name": "treasury",
      "outputs": [
        {
          "internalType": "address payable",
          "name": "",
          "type": "address"
        }
      ],
      "stateMutability": "view",
      "type": "function"
    },
    {
      "stateMutability": "payable",
      "type": "receive"
    },
    {
      "inputs": [
        {
          "internalType": "address",
          "name": "coverAddress",
          "type": "address"
        },
        {
          "internalType": "address",
          "name": "nxmTokenAddress",
          "type": "address"
        },
        {
          "internalType": "address",
          "name": "masterAddress",
          "type": "address"
        },
        {
          "internalType": "uint256",
          "name": "_feePercentage",
          "type": "uint256"
        },
        {
          "internalType": "address payable",
          "name": "_treasury",
          "type": "address"
        },
        {
          "internalType": "string",
          "name": "tokenName",
          "type": "string"
        },
        {
          "internalType": "string",
          "name": "tokenSymbol",
          "type": "string"
        }
      ],
      "name": "initialize",
      "outputs": [],
      "stateMutability": "nonpayable",
      "type": "function"
    },
    {
      "inputs": [
        {
          "internalType": "address",
          "name": "contractAddress",
          "type": "address"
        },
        {
          "internalType": "address",
          "name": "coverAsset",
          "type": "address"
        },
        {
          "internalType": "uint256",
          "name": "sumAssured",
          "type": "uint256"
        },
        {
          "internalType": "uint16",
          "name": "coverPeriod",
          "type": "uint16"
        },
        {
          "internalType": "uint8",
          "name": "coverType",
          "type": "uint8"
        },
        {
          "internalType": "uint256",
          "name": "maxPriceWithFee",
          "type": "uint256"
        },
        {
          "internalType": "bytes",
          "name": "data",
          "type": "bytes"
        }
      ],
      "name": "buyCover",
      "outputs": [
        {
          "internalType": "uint256",
          "name": "",
          "type": "uint256"
        }
      ],
      "stateMutability": "payable",
      "type": "function"
    },
    {
      "inputs": [
        {
          "internalType": "uint256",
          "name": "tokenId",
          "type": "uint256"
        },
        {
          "internalType": "bytes",
          "name": "data",
          "type": "bytes"
        }
      ],
      "name": "submitClaim",
      "outputs": [
        {
          "internalType": "uint256",
          "name": "",
          "type": "uint256"
        }
      ],
      "stateMutability": "nonpayable",
      "type": "function"
    },
    {
      "inputs": [
        {
          "internalType": "uint256",
          "name": "tokenId",
          "type": "uint256"
        },
        {
          "internalType": "uint256",
          "name": "claimId",
          "type": "uint256"
        }
      ],
      "name": "redeemClaim",
      "outputs": [],
      "stateMutability": "nonpayable",
      "type": "function"
    },
    {
      "inputs": [
        {
          "internalType": "uint256",
          "name": "tokenId",
          "type": "uint256"
        },
        {
          "internalType": "uint256",
          "name": "assetAmount",
          "type": "uint256"
        },
        {
          "internalType": "address",
          "name": "asset",
          "type": "address"
        },
        {
          "internalType": "uint8",
          "name": "action",
          "type": "uint8"
        },
        {
          "internalType": "bytes",
          "name": "data",
          "type": "bytes"
        }
      ],
      "name": "executeCoverAction",
      "outputs": [
        {
          "internalType": "bytes",
          "name": "response",
          "type": "bytes"
        },
        {
          "internalType": "uint256",
          "name": "withheldAmount",
          "type": "uint256"
        }
      ],
      "stateMutability": "payable",
      "type": "function"
    },
    {
      "inputs": [
        {
          "internalType": "uint256",
          "name": "tokenId",
          "type": "uint256"
        }
      ],
      "name": "getCover",
      "outputs": [
        {
          "internalType": "uint8",
          "name": "status",
          "type": "uint8"
        },
        {
          "internalType": "uint256",
          "name": "sumAssured",
          "type": "uint256"
        },
        {
          "internalType": "uint16",
          "name": "coverPeriod",
          "type": "uint16"
        },
        {
          "internalType": "uint256",
          "name": "validUntil",
          "type": "uint256"
        },
        {
          "internalType": "address",
          "name": "contractAddress",
          "type": "address"
        },
        {
          "internalType": "address",
          "name": "coverAsset",
          "type": "address"
        },
        {
          "internalType": "uint256",
          "name": "premiumInNXM",
          "type": "uint256"
        },
        {
          "internalType": "address",
          "name": "memberAddress",
          "type": "address"
        }
      ],
      "stateMutability": "view",
      "type": "function"
    },
    {
      "inputs": [
        {
          "internalType": "uint256",
          "name": "claimId",
          "type": "uint256"
        }
      ],
      "name": "getPayoutOutcome",
      "outputs": [
        {
          "internalType": "enum ICover.ClaimStatus",
          "name": "status",
          "type": "uint8"
        },
        {
          "internalType": "uint256",
          "name": "amountPaid",
          "type": "uint256"
        },
        {
          "internalType": "address",
          "name": "coverAsset",
          "type": "address"
        }
      ],
      "stateMutability": "view",
      "type": "function"
    },
    {
      "inputs": [
        {
          "internalType": "address",
          "name": "spender",
          "type": "address"
        },
        {
          "internalType": "uint256",
          "name": "amount",
          "type": "uint256"
        }
      ],
      "name": "approveNXM",
      "outputs": [],
      "stateMutability": "nonpayable",
      "type": "function"
    },
    {
      "inputs": [
        {
          "internalType": "address",
          "name": "recipient",
          "type": "address"
        },
        {
          "internalType": "uint256",
          "name": "amount",
          "type": "uint256"
        }
      ],
      "name": "withdrawNXM",
      "outputs": [],
      "stateMutability": "nonpayable",
      "type": "function"
    },
    {
      "inputs": [
        {
          "internalType": "address",
          "name": "newAddress",
          "type": "address"
        }
      ],
      "name": "switchMembership",
      "outputs": [],
      "stateMutability": "nonpayable",
      "type": "function"
    },
    {
      "inputs": [
        {
          "internalType": "uint256",
          "name": "nxmIn",
          "type": "uint256"
        },
        {
          "internalType": "uint256",
          "name": "minEthOut",
          "type": "uint256"
        }
      ],
      "name": "sellNXM",
      "outputs": [],
      "stateMutability": "nonpayable",
      "type": "function"
    },
    {
      "inputs": [
        {
          "internalType": "bool",
          "name": "_buysAllowed",
          "type": "bool"
        }
      ],
      "name": "setBuysAllowed",
      "outputs": [],
      "stateMutability": "nonpayable",
      "type": "function"
    },
    {
      "inputs": [
        {
          "internalType": "address payable",
          "name": "_treasury",
          "type": "address"
        }
      ],
      "name": "setTreasury",
      "outputs": [],
      "stateMutability": "nonpayable",
      "type": "function"
    },
    {
      "inputs": [
        {
          "internalType": "uint256",
          "name": "_feePercentage",
          "type": "uint256"
        }
      ],
      "name": "setFeePercentage",
      "outputs": [],
      "stateMutability": "nonpayable",
      "type": "function"
    },
    {
      "inputs": [
        {
          "internalType": "string",
          "name": "baseURI_",
          "type": "string"
        }
      ],
      "name": "setBaseURI",
      "outputs": [],
      "stateMutability": "nonpayable",
      "type": "function"
    }
  ],
  "bytecode": "0x608060405260fc805460ff1916600117905534801561001d57600080fd5b5061557d8061002d6000396000f3fe6080604052600436106102df5760003560e01c80638322fff211610184578063d8a856ee116100d6578063e967eb1a1161008a578063f0f4426011610064578063f0f4426014610e4a578063f2fde38b14610e7d578063fd7b68a214610eb0576102e6565b8063e967eb1a14610de5578063e985e9c514610dfa578063ee97f7f314610e35576102e6565b8063dcf1621b116100bb578063dcf1621b14610c52578063e1817a8b14610dbb578063e7d931e414610dd0576102e6565b8063d8a856ee14610b26578063db32749114610bce576102e6565b8063a001ecdd11610138578063ae06c1b711610112578063ae06c1b7146109ff578063b88d4fde14610a29578063c87b56dd14610afc576102e6565b8063a001ecdd1461099a578063a22cb465146109af578063a497325b146109ea576102e6565b80638da5cb5b116101695780638da5cb5b1461093757806395d89b411461094c5780639f1cafa414610961576102e6565b80638322fff2146108f657806386a156371461090b576102e6565b80634c2851511161023d57806355f804b3116101f15780636c0360eb116101cb5780636c0360eb1461089957806370a08231146108ae578063715018a6146108e1576102e6565b806355f804b3146107a757806361d027b31461085a5780636352211e1461086f576102e6565b80634ed75d47116102225780634ed75d47146106e85780634f6ccce71461071b57806352799e4d14610745576102e6565b80634c2851511461059c5780634d776735146106af576102e6565b806318160ddd1161029457806328dd37731161027957806328dd3773146104f05780632f745c591461052057806342842e0e14610559576102e6565b806318160ddd1461048657806323b872dd146104ad576102e6565b806306fdde03116102c557806306fdde031461037d578063081812fc14610407578063095ea7b31461044d576102e6565b8062969717146102eb57806301ffc9a71461031d576102e6565b366102e657005b600080fd5b3480156102f757600080fd5b5061031b6004803603604081101561030e57600080fd5b5080359060200135610f30565b005b34801561032957600080fd5b506103696004803603602081101561034057600080fd5b50357fffffffff00000000000000000000000000000000000000000000000000000000166112d9565b604080519115158252519081900360200190f35b34801561038957600080fd5b50610392611314565b6040805160208082528351818301528351919283929083019185019080838360005b838110156103cc5781810151838201526020016103b4565b50505050905090810190601f1680156103f95780820380516001836020036101000a031916815260200191505b509250505060405180910390f35b34801561041357600080fd5b506104316004803603602081101561042a57600080fd5b50356113aa565b604080516001600160a01b039092168252519081900360200190f35b34801561045957600080fd5b5061031b6004803603604081101561047057600080fd5b506001600160a01b03813516906020013561140c565b34801561049257600080fd5b5061049b6114e7565b60408051918252519081900360200190f35b3480156104b957600080fd5b5061031b600480360360608110156104d057600080fd5b506001600160a01b038135811691602081013590911690604001356114f8565b3480156104fc57600080fd5b5061031b6004803603604081101561051357600080fd5b508035906020013561154f565b34801561052c57600080fd5b5061049b6004803603604081101561054357600080fd5b506001600160a01b0381351690602001356117c5565b34801561056557600080fd5b5061031b6004803603606081101561057c57600080fd5b506001600160a01b038135811691602081013590911690604001356117f0565b610630600480360360a08110156105b257600080fd5b8135916020810135916001600160a01b036040830135169160ff6060820135169181019060a0810160808201356401000000008111156105f157600080fd5b82018360208201111561060357600080fd5b8035906020019184600183028401116401000000008311171561062557600080fd5b50909250905061180b565b6040518080602001838152602001828103825284818151815260200191508051906020019080838360005b8381101561067357818101518382015260200161065b565b50505050905090810190601f1680156106a05780820380516001836020036101000a031916815260200191505b50935050505060405180910390f35b3480156106bb57600080fd5b5061031b600480360360408110156106d257600080fd5b506001600160a01b038135169060200135611f81565b3480156106f457600080fd5b5061031b6004803603602081101561070b57600080fd5b50356001600160a01b0316612094565b34801561072757600080fd5b5061049b6004803603602081101561073e57600080fd5b5035612222565b34801561075157600080fd5b5061076f6004803603602081101561076857600080fd5b5035612238565b6040518084600281111561077f57fe5b8152602001838152602001826001600160a01b03168152602001935050505060405180910390f35b3480156107b357600080fd5b5061031b600480360360208110156107ca57600080fd5b8101906020810181356401000000008111156107e557600080fd5b8201836020820111156107f757600080fd5b8035906020019184600183028401116401000000008311171561081957600080fd5b91908080601f0160208091040260200160405190810160405280939291908181526020018383808284376000920191909152509295506122e8945050505050565b34801561086657600080fd5b50610431612368565b34801561087b57600080fd5b506104316004803603602081101561089257600080fd5b503561237c565b3480156108a557600080fd5b506103926123a4565b3480156108ba57600080fd5b5061049b600480360360208110156108d157600080fd5b50356001600160a01b0316612405565b3480156108ed57600080fd5b5061031b61246d565b34801561090257600080fd5b50610431612543565b34801561091757600080fd5b5061031b6004803603602081101561092e57600080fd5b5035151561255b565b34801561094357600080fd5b506104316125e2565b34801561095857600080fd5b506103926125f1565b34801561096d57600080fd5b5061031b6004803603604081101561098457600080fd5b506001600160a01b038135169060200135612652565b3480156109a657600080fd5b5061049b6126e1565b3480156109bb57600080fd5b5061031b600480360360408110156109d257600080fd5b506001600160a01b03813516906020013515156126e7565b3480156109f657600080fd5b506103926127ec565b348015610a0b57600080fd5b5061031b60048036036020811015610a2257600080fd5b5035612808565b348015610a3557600080fd5b5061031b60048036036080811015610a4c57600080fd5b6001600160a01b03823581169260208101359091169160408201359190810190608081016060820135640100000000811115610a8757600080fd5b820183602082011115610a9957600080fd5b80359060200191846001830284011164010000000083111715610abb57600080fd5b91908080601f016020809104026020016040519081016040528093929190818152602001838380828437600092019190915250929550612881945050505050565b348015610b0857600080fd5b5061039260048036036020811015610b1f57600080fd5b50356128d9565b61049b600480360360e0811015610b3c57600080fd5b6001600160a01b03823581169260208101359091169160408201359161ffff6060820135169160ff6080830135169160a08101359181019060e0810160c0820135640100000000811115610b8f57600080fd5b820183602082011115610ba157600080fd5b80359060200191846001830284011164010000000083111715610bc357600080fd5b509092509050612b5c565b348015610bda57600080fd5b5061049b60048036036040811015610bf157600080fd5b81359190810190604081016020820135640100000000811115610c1357600080fd5b820183602082011115610c2557600080fd5b80359060200191846001830284011164010000000083111715610c4757600080fd5b5090925090506130c0565b348015610c5e57600080fd5b5061031b600480360360e0811015610c7557600080fd5b6001600160a01b0382358116926020810135821692604082013583169260608301359260808101359091169181019060c0810160a0820135640100000000811115610cbf57600080fd5b820183602082011115610cd157600080fd5b80359060200191846001830284011164010000000083111715610cf357600080fd5b91908080601f0160208091040260200160405190810160405280939291908181526020018383808284376000920191909152509295949360208101935035915050640100000000811115610d4657600080fd5b820183602082011115610d5857600080fd5b80359060200191846001830284011164010000000083111715610d7a57600080fd5b91908080601f016020809104026020016040519081016040528093929190818152602001838380828437600092019190915250929550613207945050505050565b348015610dc757600080fd5b5061036961337a565b348015610ddc57600080fd5b50610431613383565b348015610df157600080fd5b50610431613392565b348015610e0657600080fd5b5061036960048036036040811015610e1d57600080fd5b506001600160a01b03813581169160200135166133a1565b348015610e4157600080fd5b506104316133cf565b348015610e5657600080fd5b5061031b60048036036020811015610e6d57600080fd5b50356001600160a01b03166133de565b348015610e8957600080fd5b5061031b60048036036020811015610ea057600080fd5b50356001600160a01b0316613491565b348015610ebc57600080fd5b50610eda60048036036020811015610ed357600080fd5b50356135be565b6040805160ff9099168952602089019790975261ffff9095168787015260608701939093526001600160a01b039182166080870152811660a086015260c08501919091521660e083015251908190036101000190f35b81610f3b3382613695565b610f765760405162461bcd60e51b81526004018080602001828103825260228152602001806153ad6022913960400191505060405180910390fd5b600260c9541415610fce576040805162461bcd60e51b815260206004820152601f60248201527f5265656e7472616e637947756172643a207265656e7472616e742063616c6c00604482015290519081900360640190fd5b600260c95560fd54604080517f96ff592f0000000000000000000000000000000000000000000000000000000081526004810185905290516000926001600160a01b0316916396ff592f916024808301926020929190829003018186803b15801561103857600080fd5b505afa15801561104c573d6000803e3d6000fd5b505050506040513d602081101561106257600080fd5b505190508381146110a45760405162461bcd60e51b81526004018080602001828103825260258152602001806154a76025913960400191505060405180910390fd5b60fd54604080517f52799e4d000000000000000000000000000000000000000000000000000000008152600481018690529051600092839283926001600160a01b03909216916352799e4d91602480820192606092909190829003018186803b15801561111057600080fd5b505afa158015611124573d6000803e3d6000fd5b505050506040513d606081101561113a57600080fd5b50805160208201516040909201519094509092509050600183600281111561115e57fe5b146111b0576040805162461bcd60e51b815260206004820152601f60248201527f4469737472696275746f723a20436c61696d206e6f7420616363657074656400604482015290519081900360640190fd5b6111b987613739565b6001600160a01b03811673eeeeeeeeeeeeeeeeeeeeeeeeeeeeeeeeeeeeeeee141561126b57604051600090339084908381818185875af1925050503d8060008114611220576040519150601f19603f3d011682016040523d82523d6000602084013e611225565b606091505b50509050806112655760405162461bcd60e51b81526004018080602001828103825260298152602001806152bf6029913960400191505060405180910390fd5b50611282565b806112806001600160a01b0382163385613806565b505b604080518381526001600160a01b03831660208201528151339289928b927f34fca3c3e347457684d11c6311e01dc77fc4d158b9fb5902af19c6b9fae603a9929181900390910190a45050600160c9555050505050565b7fffffffff00000000000000000000000000000000000000000000000000000000811660009081526033602052604090205460ff165b919050565b606a8054604080516020601f60026000196101006001881615020190951694909404938401819004810282018101909252828152606093909290918301828280156113a05780601f10611375576101008083540402835291602001916113a0565b820191906000526020600020905b81548152906001019060200180831161138357829003601f168201915b5050505050905090565b60006113b582613886565b6113f05760405162461bcd60e51b815260040180806020018281038252602c8152602001806153f0602c913960400191505060405180910390fd5b506000908152606860205260409020546001600160a01b031690565b60006114178261237c565b9050806001600160a01b0316836001600160a01b0316141561146a5760405162461bcd60e51b81526004018080602001828103825260218152602001806154cc6021913960400191505060405180910390fd5b806001600160a01b031661147c613893565b6001600160a01b0316148061149d575061149d81611498613893565b6133a1565b6114d85760405162461bcd60e51b81526004018080602001828103825260388152602001806152876038913960400191505060405180910390fd5b6114e28383613897565b505050565b60006114f3606661391d565b905090565b611509611503613893565b82613695565b6115445760405162461bcd60e51b81526004018080602001828103825260318152602001806154ed6031913960400191505060405180910390fd5b6114e2838383613928565b611557613893565b6001600160a01b03166115686125e2565b6001600160a01b0316146115c3576040805162461bcd60e51b815260206004820181905260248201527f4f776e61626c653a2063616c6c6572206973206e6f7420746865206f776e6572604482015290519081900360640190fd5b60ff54604080517f013828580000000000000000000000000000000000000000000000000000000081527f5031000000000000000000000000000000000000000000000000000000000000600482015290516000926001600160a01b0316916301382858916024808301926020929190829003018186803b15801561164757600080fd5b505afa15801561165b573d6000803e3d6000fd5b505050506040513d602081101561167157600080fd5b505160fe54604080517f095ea7b30000000000000000000000000000000000000000000000000000000081526001600160a01b03808516600483015260248201889052915193945091169163095ea7b3916044808201926020929091908290030181600087803b1580156116e457600080fd5b505af11580156116f8573d6000803e3d6000fd5b505050506040513d602081101561170e57600080fd5b5050604080517f28dd37730000000000000000000000000000000000000000000000000000000081526004810185905260248101849052905147916001600160a01b038416916328dd37739160448082019260009290919082900301818387803b15801561177b57600080fd5b505af115801561178f573d6000803e3d6000fd5b504792506117be91506117a490508284613a74565b73eeeeeeeeeeeeeeeeeeeeeeeeeeeeeeeeeeeeeeee613ad1565b5050505050565b6001600160a01b03821660009081526065602052604081206117e79083613bb4565b90505b92915050565b6114e283838360405180602001604052806000815250612881565b606060008761181a3382613695565b6118555760405162461bcd60e51b81526004018080602001828103825260228152602001806153ad6022913960400191505060405180910390fd5b600260c95414156118ad576040805162461bcd60e51b815260206004820152601f60248201527f5265656e7472616e637947756172643a207265656e7472616e742063616c6c00604482015290519081900360640190fd5b600260c95587611a595760fd546040517f30926acc000000000000000000000000000000000000000000000000000000008152600481018b815260ff89166024830152606060448301908152606483018890526001600160a01b03909316926330926acc928d928b928b928b929190608401848480828437600081840152601f19601f82011690508083019250505095505050505050600060405180830381600087803b15801561195d57600080fd5b505af1158015611971573d6000803e3d6000fd5b505050506040513d6000823e601f3d908101601f19168201604090815281101561199a57600080fd5b81019080805160405193929190846401000000008211156119ba57600080fd5b9083019060208201858111156119cf57600080fd5b82516401000000008111828201881017156119e957600080fd5b82525081516020918201929091019080838360005b83811015611a165781810151838201526020016119fe565b50505050905090810190601f168015611a435780820380516001836020036101000a031916815260200191505b5060405260200151929550919350611f6e915050565b6001600160a01b03871673eeeeeeeeeeeeeeeeeeeeeeeeeeeeeeeeeeeeeeee1415611cfa5787341015611abd5760405162461bcd60e51b81526004018080602001828103825260228152602001806152e86022913960400191505060405180910390fd5b60fd546040517f30926acc000000000000000000000000000000000000000000000000000000008152600481018b815260ff89166024830152606060448301908152606483018890526001600160a01b03909316926330926acc9234928e928c928c928c929091608401848480828437600081840152601f19601f820116905080830192505050955050505050506000604051808303818588803b158015611b6457600080fd5b505af1158015611b78573d6000803e3d6000fd5b50505050506040513d6000823e601f3d908101601f191682016040908152811015611ba257600080fd5b8101908080516040519392919084640100000000821115611bc257600080fd5b908301906020820185811115611bd757600080fd5b8251640100000000811182820188101715611bf157600080fd5b82525081516020918201929091019080838360005b83811015611c1e578181015183820152602001611c06565b50505050905090810190601f168015611c4b5780820380516001836020036101000a031916815260200191505b506040526020015192955091935060009150611c6990508984613a74565b604051909150600090339083908381818185875af1925050503d8060008114611cae576040519150601f19603f3d011682016040523d82523d6000602084013e611cb3565b606091505b5050905080611cf35760405162461bcd60e51b81526004018080602001828103825260368152602001806151db6036913960400191505060405180910390fd5b5050611f6e565b86611d106001600160a01b03821633308c613bc0565b60fd54604080517f095ea7b30000000000000000000000000000000000000000000000000000000081526001600160a01b039283166004820152602481018c905290519183169163095ea7b3916044808201926020929091908290030181600087803b158015611d7f57600080fd5b505af1158015611d93573d6000803e3d6000fd5b505050506040513d6020811015611da957600080fd5b505060fd546040517f30926acc000000000000000000000000000000000000000000000000000000008152600481018c815260ff8a166024830152606060448301908152606483018990526001600160a01b03909316926330926acc928e928c928c928c929190608401848480828437600081840152601f19601f82011690508083019250505095505050505050600060405180830381600087803b158015611e5157600080fd5b505af1158015611e65573d6000803e3d6000fd5b505050506040513d6000823e601f3d908101601f191682016040908152811015611e8e57600080fd5b8101908080516040519392919084640100000000821115611eae57600080fd5b908301906020820185811115611ec357600080fd5b8251640100000000811182820188101715611edd57600080fd5b82525081516020918201929091019080838360005b83811015611f0a578181015183820152602001611ef2565b50505050905090810190601f168015611f375780820380516001836020036101000a031916815260200191505b506040526020015192965091945060009150611f5590508a85613a74565b9050611f6b6001600160a01b0383163383613806565b50505b50600160c9559097909650945050505050565b611f89613893565b6001600160a01b0316611f9a6125e2565b6001600160a01b031614611ff5576040805162461bcd60e51b815260206004820181905260248201527f4f776e61626c653a2063616c6c6572206973206e6f7420746865206f776e6572604482015290519081900360640190fd5b60fe54604080517f095ea7b30000000000000000000000000000000000000000000000000000000081526001600160a01b038581166004830152602482018590529151919092169163095ea7b39160448083019260209291908290030181600087803b15801561206457600080fd5b505af1158015612078573d6000803e3d6000fd5b505050506040513d602081101561208e57600080fd5b50505050565b61209c613893565b6001600160a01b03166120ad6125e2565b6001600160a01b031614612108576040805162461bcd60e51b815260206004820181905260248201527f4f776e61626c653a2063616c6c6572206973206e6f7420746865206f776e6572604482015290519081900360640190fd5b60fe5460fd54604080517f095ea7b30000000000000000000000000000000000000000000000000000000081526001600160a01b03928316600482015260001960248201529051919092169163095ea7b39160448083019260209291908290030181600087803b15801561217b57600080fd5b505af115801561218f573d6000803e3d6000fd5b505050506040513d60208110156121a557600080fd5b505060fd54604080517f4ed75d470000000000000000000000000000000000000000000000000000000081526001600160a01b03848116600483015291519190921691634ed75d4791602480830192600092919082900301818387803b15801561220e57600080fd5b505af11580156117be573d6000803e3d6000fd5b600080612230606684613c48565b509392505050565b60fd54604080517f52799e4d000000000000000000000000000000000000000000000000000000008152600481018490529051600092839283926001600160a01b03909216916352799e4d91602480820192606092909190829003018186803b1580156122a457600080fd5b505afa1580156122b8573d6000803e3d6000fd5b505050506040513d60608110156122ce57600080fd5b508051602082015160409092015190969195509350915050565b6122f0613893565b6001600160a01b03166123016125e2565b6001600160a01b03161461235c576040805162461bcd60e51b815260206004820181905260248201527f4f776e61626c653a2063616c6c6572206973206e6f7420746865206f776e6572604482015290519081900360640190fd5b61236581613c64565b50565b60fc5461010090046001600160a01b031681565b60006117ea826040518060600160405280602981526020016153346029913960669190613c77565b606d8054604080516020601f60026000196101006001881615020190951694909404938401819004810282018101909252828152606093909290918301828280156113a05780601f10611375576101008083540402835291602001916113a0565b60006001600160a01b03821661244c5760405162461bcd60e51b815260040180806020018281038252602a81526020018061530a602a913960400191505060405180910390fd5b6001600160a01b03821660009081526065602052604090206117ea9061391d565b612475613893565b6001600160a01b03166124866125e2565b6001600160a01b0316146124e1576040805162461bcd60e51b815260206004820181905260248201527f4f776e61626c653a2063616c6c6572206973206e6f7420746865206f776e6572604482015290519081900360640190fd5b6097546040516000916001600160a01b0316907f8be0079c531659141344cd1fd0a4f28419497f9722a3daafe3b4186f6b6457e0908390a3609780547fffffffffffffffffffffffff0000000000000000000000000000000000000000169055565b73eeeeeeeeeeeeeeeeeeeeeeeeeeeeeeeeeeeeeeee81565b612563613893565b6001600160a01b03166125746125e2565b6001600160a01b0316146125cf576040805162461bcd60e51b815260206004820181905260248201527f4f776e61626c653a2063616c6c6572206973206e6f7420746865206f776e6572604482015290519081900360640190fd5b60fc805460ff1916911515919091179055565b6097546001600160a01b031690565b606b8054604080516020601f60026000196101006001881615020190951694909404938401819004810282018101909252828152606093909290918301828280156113a05780601f10611375576101008083540402835291602001916113a0565b61265a613893565b6001600160a01b031661266b6125e2565b6001600160a01b0316146126c6576040805162461bcd60e51b815260206004820181905260248201527f4f776e61626c653a2063616c6c6572206973206e6f7420746865206f776e6572604482015290519081900360640190fd5b60fe546126dd906001600160a01b03168383613806565b5050565b60fb5481565b6126ef613893565b6001600160a01b0316826001600160a01b03161415612755576040805162461bcd60e51b815260206004820152601960248201527f4552433732313a20617070726f766520746f2063616c6c657200000000000000604482015290519081900360640190fd5b8060696000612762613893565b6001600160a01b03908116825260208083019390935260409182016000908120918716808252919093529120805460ff1916921515929092179091556127a6613893565b6001600160a01b03167f17307eab39ab6107e8899845ad3d59bd9653f200f220920489ca2b5937696c318360405180821515815260200191505060405180910390a35050565b60405180606001604052806033815260200161541c6033913981565b612810613893565b6001600160a01b03166128216125e2565b6001600160a01b03161461287c576040805162461bcd60e51b815260206004820181905260248201527f4f776e61626c653a2063616c6c6572206973206e6f7420746865206f776e6572604482015290519081900360640190fd5b60fb55565b61289261288c613893565b83613695565b6128cd5760405162461bcd60e51b81526004018080602001828103825260318152602001806154ed6031913960400191505060405180910390fd5b61208e84848484613c8e565b60606128e482613886565b61291f5760405162461bcd60e51b815260040180806020018281038252602f815260200180615478602f913960400191505060405180910390fd5b6000828152606c602090815260409182902080548351601f60026000196101006001861615020190931692909204918201849004840281018401909452808452606093928301828280156129b45780601f10612989576101008083540402835291602001916129b4565b820191906000526020600020905b81548152906001019060200180831161299757829003601f168201915b5050505050905060606129c56123a4565b90508051600014156129d95750905061130f565b815115612a9a5780826040516020018083805190602001908083835b60208310612a145780518252601f1990920191602091820191016129f5565b51815160209384036101000a600019018019909216911617905285519190930192850191508083835b60208310612a5c5780518252601f199092019160209182019101612a3d565b6001836020036101000a038019825116818451168082178552505050505050905001925050506040516020818303038152906040529250505061130f565b80612aa485613ce0565b6040516020018083805190602001908083835b60208310612ad65780518252601f199092019160209182019101612ab7565b51815160209384036101000a600019018019909216911617905285519190930192850191508083835b60208310612b1e5780518252601f199092019160209182019101612aff565b6001836020036101000a0380198251168184511680821785525050505050509050019250505060405160208183030381529060405292505050919050565b6000600260c9541415612bb6576040805162461bcd60e51b815260206004820152601f60248201527f5265656e7472616e637947756172643a207265656e7472616e742063616c6c00604482015290519081900360640190fd5b600260c95560fc5460ff16612c12576040805162461bcd60e51b815260206004820152601d60248201527f4469737472696275746f723a2062757973206e6f7420616c6c6f776564000000604482015290519081900360640190fd5b600060fd60009054906101000a90046001600160a01b03166001600160a01b0316635caca7b48b8b8b8b8b8a8a6040518863ffffffff1660e01b815260040180886001600160a01b03168152602001876001600160a01b031681526020018681526020018561ffff1681526020018460ff168152602001806020018281038252848482818152602001925080828437600081840152601f19601f8201169050808301925050509850505050505050505060206040518083038186803b158015612cda57600080fd5b505afa158015612cee573d6000803e3d6000fd5b505050506040513d6020811015612d0457600080fd5b505160fb54909150600090612d33908390612d2d9061271090612d279084613def565b90613e48565b90613eaf565b905085811115612d745760405162461bcd60e51b815260040180806020018281038252602d8152602001806151ae602d913960400191505060405180910390fd5b60006001600160a01b038b1673eeeeeeeeeeeeeeeeeeeeeeeeeeeeeeeeeeeeeeee1415612e805781341015612dda5760405162461bcd60e51b81526004018080602001828103825260228152602001806152e86022913960400191505060405180910390fd5b6000612de63484613a74565b90508015612e7757604051600090339083908381818185875af1925050503d8060008114612e30576040519150601f19603f3d011682016040523d82523d6000602084013e612e35565b606091505b5050905080612e755760405162461bcd60e51b81526004018080602001828103825260368152602001806151db6036913960400191505060405180910390fd5b505b83915050612f33565b8a612e966001600160a01b038216333086613bc0565b60fd54604080517f095ea7b30000000000000000000000000000000000000000000000000000000081526001600160a01b0392831660048201526024810187905290519183169163095ea7b3916044808201926020929091908290030181600087803b158015612f0557600080fd5b505af1158015612f19573d6000803e3d6000fd5b505050506040513d6020811015612f2f57600080fd5b5050505b600060fd60009054906101000a90046001600160a01b03166001600160a01b03166304836c4a838f8f8f8f8f8e8e6040518963ffffffff1660e01b815260040180886001600160a01b03168152602001876001600160a01b031681526020018681526020018561ffff1681526020018460ff168152602001806020018281038252848482818152602001925080828437600081840152601f19601f820116905080830192505050985050505050505050506020604051808303818588803b158015612ffd57600080fd5b505af1158015613011573d6000803e3d6000fd5b50505050506040513d602081101561302857600080fd5b5051905060006130388486613a74565b9050801561304a5761304a818e613ad1565b6130543383613f09565b8d6001600160a01b0316336001600160a01b0316837fa0105afc48bbd0c43e1c71d83dc1e02ae58388f3109943595b89e24a5ee1c36560fb5489604051808381526020018281526020019250505060405180910390a450600160c9559c9b505050505050505050505050565b6000836130cd3382613695565b6131085760405162461bcd60e51b81526004018080602001828103825260228152602001806153ad6022913960400191505060405180910390fd5b60fd54604080517fdb3274910000000000000000000000000000000000000000000000000000000081526004810188815260248201928352604482018790526000936001600160a01b03169263db327491928a928a928a92606401848480828437600081840152601f19601f820116905080830192505050945050505050602060405180830381600087803b1580156131a057600080fd5b505af11580156131b4573d6000803e3d6000fd5b505050506040513d60208110156131ca57600080fd5b50516040519091503390829088907f9fe11e531030a058803617055e27f9f4768236e4322e13b9c4c09f4338e23a6890600090a495945050505050565b600054610100900460ff16806132205750613220614037565b8061322e575060005460ff16155b6132695760405162461bcd60e51b815260040180806020018281038252602e81526020018061535d602e913960400191505060405180910390fd5b600054610100900460ff16158015613294576000805460ff1961ff0019909116610100171660011790555b61329c614048565b6132a46140f9565b6132ae838361418e565b6132cf60405180606001604052806033815260200161541c60339139613c64565b60fb85905560fc80547fffffffffffffffffffffff0000000000000000000000000000000000000000ff166101006001600160a01b03878116919091029190911790915560fd80547fffffffffffffffffffffffff00000000000000000000000000000000000000009081168b84161790915560fe805482168a841617905560ff80549091169188169190911790558015613370576000805461ff00191690555b5050505050505050565b60fc5460ff1681565b60fd546001600160a01b031681565b60fe546001600160a01b031681565b6001600160a01b03918216600090815260696020908152604080832093909416825291909152205460ff1690565b60ff546001600160a01b031681565b6133e6613893565b6001600160a01b03166133f76125e2565b6001600160a01b031614613452576040805162461bcd60e51b815260206004820181905260248201527f4f776e61626c653a2063616c6c6572206973206e6f7420746865206f776e6572604482015290519081900360640190fd5b60fc80546001600160a01b03909216610100027fffffffffffffffffffffff0000000000000000000000000000000000000000ff909216919091179055565b613499613893565b6001600160a01b03166134aa6125e2565b6001600160a01b031614613505576040805162461bcd60e51b815260206004820181905260248201527f4f776e61626c653a2063616c6c6572206973206e6f7420746865206f776e6572604482015290519081900360640190fd5b6001600160a01b03811661354a5760405162461bcd60e51b81526004018080602001828103825260268152602001806151886026913960400191505060405180910390fd5b6097546040516001600160a01b038084169216907f8be0079c531659141344cd1fd0a4f28419497f9722a3daafe3b4186f6b6457e090600090a3609780547fffffffffffffffffffffffff0000000000000000000000000000000000000000166001600160a01b0392909216919091179055565b60008060008060008060008060fd60009054906101000a90046001600160a01b03166001600160a01b031663fd7b68a28a6040518263ffffffff1660e01b8152600401808281526020019150506101006040518083038186803b15801561362457600080fd5b505afa158015613638573d6000803e3d6000fd5b505050506040513d61010081101561364f57600080fd5b508051602082015160408301516060840151608085015160a086015160c087015160e090970151959e50939c50919a509850965094509092509050919395975091939597565b60006136a082613886565b6136db5760405162461bcd60e51b815260040180806020018281038252602c81526020018061525b602c913960400191505060405180910390fd5b60006136e68361237c565b9050806001600160a01b0316846001600160a01b031614806137215750836001600160a01b0316613716846113aa565b6001600160a01b0316145b80613731575061373181856133a1565b949350505050565b60006137448261237c565b9050613752816000846114e2565b61375d600083613897565b6000828152606c6020526040902054600260001961010060018416150201909116041561379b576000828152606c6020526040812061379b91615026565b6001600160a01b03811660009081526065602052604090206137bd908361424b565b506137c9606683614257565b5060405182906000906001600160a01b038416907fddf252ad1be2c89b69c2b068fc378daa952ba7f163c4a11628f55a4df523b3ef908390a45050565b604080516001600160a01b038416602482015260448082018490528251808303909101815260649091019091526020810180517bffffffffffffffffffffffffffffffffffffffffffffffffffffffff167fa9059cbb000000000000000000000000000000000000000000000000000000001790526114e2908490614263565b60006117ea606683614314565b3390565b600081815260686020526040902080547fffffffffffffffffffffffff0000000000000000000000000000000000000000166001600160a01b03841690811790915581906138e48261237c565b6001600160a01b03167f8c5be1e5ebec7d5bd14f71427d1e84f3dd0314c0f7b2291e5b200ac8c7c3b92560405160405180910390a45050565b60006117ea82614320565b826001600160a01b031661393b8261237c565b6001600160a01b0316146139805760405162461bcd60e51b815260040180806020018281038252602981526020018061544f6029913960400191505060405180910390fd5b6001600160a01b0382166139c55760405162461bcd60e51b81526004018080602001828103825260248152602001806152116024913960400191505060405180910390fd5b6139d08383836114e2565b6139db600082613897565b6001600160a01b03831660009081526065602052604090206139fd908261424b565b506001600160a01b0382166000908152606560205260409020613a209082614324565b50613a2d60668284614330565b5080826001600160a01b0316846001600160a01b03167fddf252ad1be2c89b69c2b068fc378daa952ba7f163c4a11628f55a4df523b3ef60405160405180910390a4505050565b600082821115613acb576040805162461bcd60e51b815260206004820152601e60248201527f536166654d6174683a207375627472616374696f6e206f766572666c6f770000604482015290519081900360640190fd5b50900390565b6001600160a01b03811673eeeeeeeeeeeeeeeeeeeeeeeeeeeeeeeeeeeeeeee1415613b935760fc5460405160009161010090046001600160a01b03169084908381818185875af1925050503d8060008114613b48576040519150601f19603f3d011682016040523d82523d6000602084013e613b4d565b606091505b5050905080613b8d5760405162461bcd60e51b815260040180806020018281038252602881526020018061512e6028913960400191505060405180910390fd5b506126dd565b60fc5481906114e2906001600160a01b038084169161010090041685613806565b60006117e78383614346565b604080516001600160a01b0380861660248301528416604482015260648082018490528251808303909101815260849091019091526020810180517bffffffffffffffffffffffffffffffffffffffffffffffffffffffff167f23b872dd0000000000000000000000000000000000000000000000000000000017905261208e908590614263565b6000808080613c5786866143aa565b9097909650945050505050565b80516126dd90606d90602084019061506a565b6000613c84848484614425565b90505b9392505050565b613c99848484613928565b613ca5848484846144ef565b61208e5760405162461bcd60e51b81526004018080602001828103825260328152602001806151566032913960400191505060405180910390fd5b606081613d21575060408051808201909152600181527f3000000000000000000000000000000000000000000000000000000000000000602082015261130f565b8160005b8115613d3957600101600a82049150613d25565b60608167ffffffffffffffff81118015613d5257600080fd5b506040519080825280601f01601f191660200182016040528015613d7d576020820181803683370190505b50859350905060001982015b8315613de657600a840660300160f81b82828060019003935081518110613dac57fe5b60200101907effffffffffffffffffffffffffffffffffffffffffffffffffffffffffffff1916908160001a905350600a84049350613d89565b50949350505050565b600082613dfe575060006117ea565b82820282848281613e0b57fe5b04146117e75760405162461bcd60e51b81526004018080602001828103825260218152602001806153cf6021913960400191505060405180910390fd5b6000808211613e9e576040805162461bcd60e51b815260206004820152601a60248201527f536166654d6174683a206469766973696f6e206279207a65726f000000000000604482015290519081900360640190fd5b818381613ea757fe5b049392505050565b6000828201838110156117e7576040805162461bcd60e51b815260206004820152601b60248201527f536166654d6174683a206164646974696f6e206f766572666c6f770000000000604482015290519081900360640190fd5b6001600160a01b038216613f64576040805162461bcd60e51b815260206004820181905260248201527f4552433732313a206d696e7420746f20746865207a65726f2061646472657373604482015290519081900360640190fd5b613f6d81613886565b15613fbf576040805162461bcd60e51b815260206004820152601c60248201527f4552433732313a20746f6b656e20616c7265616479206d696e74656400000000604482015290519081900360640190fd5b613fcb600083836114e2565b6001600160a01b0382166000908152606560205260409020613fed9082614324565b50613ffa60668284614330565b5060405181906001600160a01b038416906000907fddf252ad1be2c89b69c2b068fc378daa952ba7f163c4a11628f55a4df523b3ef908290a45050565b6000614042306146cb565b15905090565b600054610100900460ff16806140615750614061614037565b8061406f575060005460ff16155b6140aa5760405162461bcd60e51b815260040180806020018281038252602e81526020018061535d602e913960400191505060405180910390fd5b600054610100900460ff161580156140d5576000805460ff1961ff0019909116610100171660011790555b6140dd6146d1565b6140e5614771565b8015612365576000805461ff001916905550565b600054610100900460ff16806141125750614112614037565b80614120575060005460ff16155b61415b5760405162461bcd60e51b815260040180806020018281038252602e81526020018061535d602e913960400191505060405180910390fd5b600054610100900460ff16158015614186576000805460ff1961ff0019909116610100171660011790555b6140e5614882565b600054610100900460ff16806141a757506141a7614037565b806141b5575060005460ff16155b6141f05760405162461bcd60e51b815260040180806020018281038252602e81526020018061535d602e913960400191505060405180910390fd5b600054610100900460ff1615801561421b576000805460ff1961ff0019909116610100171660011790555b6142236146d1565b61422b614928565b61423583836149de565b80156114e2576000805461ff0019169055505050565b60006117e78383614b0e565b60006117e78383614bd4565b60606142b8826040518060400160405280602081526020017f5361666545524332303a206c6f772d6c6576656c2063616c6c206661696c6564815250856001600160a01b0316614ca89092919063ffffffff16565b8051909150156114e2578080602001905160208110156142d757600080fd5b50516114e25760405162461bcd60e51b815260040180806020018281038252602a81526020018061551e602a913960400191505060405180910390fd5b60006117e78383614cb7565b5490565b60006117e78383614ccf565b6000613c8484846001600160a01b038516614d19565b815460009082106143885760405162461bcd60e51b815260040180806020018281038252602281526020018061510c6022913960400191505060405180910390fd5b82600001828154811061439757fe5b9060005260206000200154905092915050565b8154600090819083106143ee5760405162461bcd60e51b815260040180806020018281038252602281526020018061538b6022913960400191505060405180910390fd5b60008460000184815481106143ff57fe5b906000526020600020906002020190508060000154816001015492509250509250929050565b600082815260018401602052604081205482816144c05760405162461bcd60e51b81526004018080602001828103825283818151815260200191508051906020019080838360005b8381101561448557818101518382015260200161446d565b50505050905090810190601f1680156144b25780820380516001836020036101000a031916815260200191505b509250505060405180910390fd5b508460000160018203815481106144d357fe5b9060005260206000209060020201600101549150509392505050565b6000614503846001600160a01b03166146cb565b61450f57506001613731565b60606146607f150b7a020000000000000000000000000000000000000000000000000000000061453d613893565b88878760405160240180856001600160a01b03168152602001846001600160a01b0316815260200183815260200180602001828103825283818151815260200191508051906020019080838360005b838110156145a457818101518382015260200161458c565b50505050905090810190601f1680156145d15780820380516001836020036101000a031916815260200191505b5095505050505050604051602081830303815290604052907bffffffffffffffffffffffffffffffffffffffffffffffffffffffff19166020820180517bffffffffffffffffffffffffffffffffffffffffffffffffffffffff8381831617835250505050604051806060016040528060328152602001615156603291396001600160a01b0388169190614ca8565b9050600081806020019051602081101561467957600080fd5b50517fffffffff00000000000000000000000000000000000000000000000000000000167f150b7a02000000000000000000000000000000000000000000000000000000001492505050949350505050565b3b151590565b600054610100900460ff16806146ea57506146ea614037565b806146f8575060005460ff16155b6147335760405162461bcd60e51b815260040180806020018281038252602e81526020018061535d602e913960400191505060405180910390fd5b600054610100900460ff161580156140e5576000805460ff1961ff0019909116610100171660011790558015612365576000805461ff001916905550565b600054610100900460ff168061478a575061478a614037565b80614798575060005460ff16155b6147d35760405162461bcd60e51b815260040180806020018281038252602e81526020018061535d602e913960400191505060405180910390fd5b600054610100900460ff161580156147fe576000805460ff1961ff0019909116610100171660011790555b6000614808613893565b609780547fffffffffffffffffffffffff0000000000000000000000000000000000000000166001600160a01b038316908117909155604051919250906000907f8be0079c531659141344cd1fd0a4f28419497f9722a3daafe3b4186f6b6457e0908290a3508015612365576000805461ff001916905550565b600054610100900460ff168061489b575061489b614037565b806148a9575060005460ff16155b6148e45760405162461bcd60e51b815260040180806020018281038252602e81526020018061535d602e913960400191505060405180910390fd5b600054610100900460ff1615801561490f576000805460ff1961ff0019909116610100171660011790555b600160c9558015612365576000805461ff001916905550565b600054610100900460ff16806149415750614941614037565b8061494f575060005460ff16155b61498a5760405162461bcd60e51b815260040180806020018281038252602e81526020018061535d602e913960400191505060405180910390fd5b600054610100900460ff161580156149b5576000805460ff1961ff0019909116610100171660011790555b6140e57f01ffc9a700000000000000000000000000000000000000000000000000000000614db0565b600054610100900460ff16806149f757506149f7614037565b80614a05575060005460ff16155b614a405760405162461bcd60e51b815260040180806020018281038252602e81526020018061535d602e913960400191505060405180910390fd5b600054610100900460ff16158015614a6b576000805460ff1961ff0019909116610100171660011790555b8251614a7e90606a90602086019061506a565b508151614a9290606b90602085019061506a565b50614abc7f80ac58cd00000000000000000000000000000000000000000000000000000000614db0565b614ae57f5b5e139f00000000000000000000000000000000000000000000000000000000614db0565b6142357f780e9d6300000000000000000000000000000000000000000000000000000000614db0565b60008181526001830160205260408120548015614bca5783546000198083019190810190600090879083908110614b4157fe5b9060005260206000200154905080876000018481548110614b5e57fe5b600091825260208083209091019290925582815260018981019092526040902090840190558654879080614b8e57fe5b600190038181906000526020600020016000905590558660010160008781526020019081526020016000206000905560019450505050506117ea565b60009150506117ea565b60008181526001830160205260408120548015614bca5783546000198083019190810190600090879083908110614c0757fe5b9060005260206000209060020201905080876000018481548110614c2757fe5b600091825260208083208454600290930201918255600193840154918401919091558354825289830190526040902090840190558654879080614c6657fe5b60008281526020808220600260001990940193840201828155600190810183905592909355888152898201909252604082209190915594506117ea9350505050565b6060613c848484600085614e64565b60009081526001919091016020526040902054151590565b6000614cdb8383614cb7565b614d11575081546001818101845560008481526020808220909301849055845484825282860190935260409020919091556117ea565b5060006117ea565b600082815260018401602052604081205480614d7e575050604080518082018252838152602080820184815286546001818101895560008981528481209551600290930290950191825591519082015586548684528188019092529290912055613c87565b82856000016001830381548110614d9157fe5b9060005260206000209060020201600101819055506000915050613c87565b7fffffffff000000000000000000000000000000000000000000000000000000008082161415614e27576040805162461bcd60e51b815260206004820152601c60248201527f4552433136353a20696e76616c696420696e7465726661636520696400000000604482015290519081900360640190fd5b7fffffffff00000000000000000000000000000000000000000000000000000000166000908152603360205260409020805460ff19166001179055565b606082471015614ea55760405162461bcd60e51b81526004018080602001828103825260268152602001806152356026913960400191505060405180910390fd5b614eae856146cb565b614eff576040805162461bcd60e51b815260206004820152601d60248201527f416464726573733a2063616c6c20746f206e6f6e2d636f6e7472616374000000604482015290519081900360640190fd5b60006060866001600160a01b031685876040518082805190602001908083835b60208310614f3e5780518252601f199092019160209182019101614f1f565b6001836020036101000a03801982511681845116808217855250505050505090500191505060006040518083038185875af1925050503d8060008114614fa0576040519150601f19603f3d011682016040523d82523d6000602084013e614fa5565b606091505b5091509150614fb5828286614fc0565b979650505050505050565b60608315614fcf575081613c87565b825115614fdf5782518084602001fd5b60405162461bcd60e51b815260206004820181815284516024840152845185939192839260440191908501908083836000831561448557818101518382015260200161446d565b50805460018160011615610100020316600290046000825580601f1061504c5750612365565b601f01602090049060005260206000209081019061236591906150f6565b828054600181600116156101000203166002900490600052602060002090601f0160209004810192826150a057600085556150e6565b82601f106150b957805160ff19168380011785556150e6565b828001600101855582156150e6579182015b828111156150e65782518255916020019190600101906150cb565b506150f29291506150f6565b5090565b5b808211156150f257600081556001016150f756fe456e756d657261626c655365743a20696e646578206f7574206f6620626f756e64734469737472696275746f723a205472616e7366657220746f207472656173757279206661696c65644552433732313a207472616e7366657220746f206e6f6e20455243373231526563656976657220696d706c656d656e7465724f776e61626c653a206e6577206f776e657220697320746865207a65726f20616464726573734469737472696275746f723a20636f7665722070726963652077697468206665652065786365656473206d61784469737472696275746f723a2052657475726e696e67204554482072656d61696e64657220746f2073656e646572206661696c65642e4552433732313a207472616e7366657220746f20746865207a65726f2061646472657373416464726573733a20696e73756666696369656e742062616c616e636520666f722063616c6c4552433732313a206f70657261746f7220717565727920666f72206e6f6e6578697374656e7420746f6b656e4552433732313a20617070726f76652063616c6c6572206973206e6f74206f776e6572206e6f7220617070726f76656420666f7220616c6c4469737472696275746f723a205472616e7366657220746f204e4654206f776e6572206661696c65644469737472696275746f723a20496e73756666696369656e74204554482073656e744552433732313a2062616c616e636520717565727920666f7220746865207a65726f20616464726573734552433732313a206f776e657220717565727920666f72206e6f6e6578697374656e7420746f6b656e496e697469616c697a61626c653a20636f6e747261637420697320616c726561647920696e697469616c697a6564456e756d657261626c654d61703a20696e646578206f7574206f6620626f756e64734469737472696275746f723a204e6f7420617070726f766564206f72206f776e6572536166654d6174683a206d756c7469706c69636174696f6e206f766572666c6f774552433732313a20617070726f76656420717565727920666f72206e6f6e6578697374656e7420746f6b656e68747470733a2f2f6170702e627269676874756e696f6e2e696f2f696d672f6e6674732f6e657875732f636f7665722e706e674552433732313a207472616e73666572206f6620746f6b656e2074686174206973206e6f74206f776e4552433732314d657461646174613a2055524920717565727920666f72206e6f6e6578697374656e7420746f6b656e4469737472696275746f723a20636f766572496420636c61696d4964206d69736d617463684552433732313a20617070726f76616c20746f2063757272656e74206f776e65724552433732313a207472616e736665722063616c6c6572206973206e6f74206f776e6572206e6f7220617070726f7665645361666545524332303a204552433230206f7065726174696f6e20646964206e6f742073756363656564a26469706673582212209bab355c06bf29ee5fe92332eb3130862527fbf8957543a76e30c4fc909d81a664736f6c63430007040033",
  "immutableReferences": {},
  "source": "/* Copyright (C) 2021 NexusMutual.io\n\n  This program is free software: you can redistribute it and/or modify\n    it under the terms of the GNU General Public License as published by\n    the Free Software Foundation, either version 3 of the License, or\n    (at your option) any later version.\n\n  This program is distributed in the hope that it will be useful,\n    but WITHOUT ANY WARRANTY; without even the implied warranty of\n    MERCHANTABILITY or FITNESS FOR A PARTICULAR PURPOSE.  See the\n    GNU General Public License for more details.\n\n  You should have received a copy of the GNU General Public License\n    along with this program.  If not, see http://www.gnu.org/licenses/ */\n\npragma solidity ^0.7.4;\n\nimport \"@openzeppelin/contracts-upgradeable/token/ERC721/ERC721Upgradeable.sol\";\nimport \"@openzeppelin/contracts/token/ERC20/IERC20.sol\";\nimport \"@openzeppelin/contracts/token/ERC20/SafeERC20.sol\";\nimport \"@openzeppelin/contracts-upgradeable/access/OwnableUpgradeable.sol\";\nimport \"@openzeppelin/contracts-upgradeable/utils/ReentrancyGuardUpgradeable.sol\";\nimport \"@openzeppelin/contracts-upgradeable/math/SafeMathUpgradeable.sol\";\nimport \"./interfaces/ICover.sol\";\nimport \"./interfaces/IPool.sol\";\nimport \"./interfaces/INXMaster.sol\";\n\ncontract Distributor is ERC721Upgradeable, OwnableUpgradeable, ReentrancyGuardUpgradeable {\n  using SafeMathUpgradeable for uint;\n  using SafeERC20 for IERC20;\n\n  address public constant ETH = 0xEeeeeEeeeEeEeeEeEeEeeEEEeeeeEeeeeeeeEEeE;\n  string public constant DEFAULT_BASE_URI = \"https://app.brightunion.io/img/nfts/nexus/cover.png\";\n\n  event ClaimPayoutRedeemed (\n    uint indexed coverId,\n    uint indexed claimId,\n    address indexed receiver,\n    uint amountPaid,\n    address coverAsset\n  );\n\n  event ClaimSubmitted (\n    uint indexed coverId,\n    uint indexed claimId,\n    address indexed submitter\n  );\n\n  event CoverBought (\n    uint indexed coverId,\n    address indexed buyer,\n    address indexed contractAddress,\n    uint feePercentage,\n    uint coverPrice\n  );\n\n  /*\n   feePercentage applied to every cover premium. has 2 decimals. eg.: 10.00% stored as 1000\n  */\n  uint public feePercentage;\n  bool public buysAllowed = true;\n  /*\n    address where `buyCover` distributor fees and `ethOut` from `sellNXM` are sent. Controlled by Owner.\n  */\n  address payable public treasury;\n\n  /*\n    NexusMutual contracts\n  */\n  ICover public cover;\n  IERC20 public nxmToken;\n  INXMaster public master;\n\n  modifier onlyTokenApprovedOrOwner(uint256 tokenId) {\n    require(_isApprovedOrOwner(msg.sender, tokenId), \"Distributor: Not approved or owner\");\n    _;\n  }\n\n  function initialize(\n    address coverAddress,\n    address nxmTokenAddress,\n    address masterAddress,\n    uint _feePercentage,\n    address payable _treasury,\n    string memory tokenName,\n    string memory tokenSymbol\n  )\n  initializer\n  public\n  {\n    __Ownable_init();\n    __ReentrancyGuard_init();\n    __ERC721_init(tokenName, tokenSymbol);\n\n    _setBaseURI(DEFAULT_BASE_URI);\n    feePercentage = _feePercentage;\n    treasury = _treasury;\n    cover = ICover(coverAddress);\n    nxmToken = IERC20(nxmTokenAddress);\n    master = INXMaster(masterAddress);\n  }\n\n  /**\n  * @dev buy cover for a coverable identified by its contractAddress\n  * @param contractAddress contract address of coverable\n  * @param coverAsset asset of the premium and of the sum assured.\n  * @param sumAssured amount payable if claim is submitted and considered valid\n  * @param coverType cover type dermining how the data parameter is decoded\n  * @param maxPriceWithFee max price (including fee) to be spent on the cover.\n  * @param data abi-encoded field with additional cover data fields\n  * @return token id\n  */\n  function buyCover (\n    address contractAddress,\n    address coverAsset,\n    uint sumAssured,\n    uint16 coverPeriod,\n    uint8 coverType,\n    uint maxPriceWithFee,\n    bytes calldata data\n  )\n  external\n  payable\n  nonReentrant\n  returns (uint)\n  {\n    require(buysAllowed, \"Distributor: buys not allowed\");\n\n    uint coverPrice = cover.getCoverPrice(contractAddress, coverAsset, sumAssured, coverPeriod, coverType, data);\n    uint coverPriceWithFee = feePercentage.mul(coverPrice).div(10000).add(coverPrice);\n    require(coverPriceWithFee <= maxPriceWithFee, \"Distributor: cover price with fee exceeds max\");\n\n    uint buyCoverValue = 0;\n    if (coverAsset == ETH) {\n      require(msg.value >= coverPriceWithFee, \"Distributor: Insufficient ETH sent\");\n      uint remainder = msg.value.sub(coverPriceWithFee);\n\n      if (remainder > 0) {\n        // solhint-disable-next-line avoid-low-level-calls\n        (bool ok, /* data */) = address(msg.sender).call{value: remainder}(\"\");\n        require(ok, \"Distributor: Returning ETH remainder to sender failed.\");\n      }\n\n      buyCoverValue = coverPrice;\n    } else {\n      IERC20 token = IERC20(coverAsset);\n      token.safeTransferFrom(msg.sender, address(this), coverPriceWithFee);\n      token.approve(address(cover), coverPrice);\n    }\n\n    uint coverId = cover.buyCover{value: buyCoverValue }(\n      contractAddress,\n      coverAsset,\n      sumAssured,\n      coverPeriod,\n      coverType,\n      data\n    );\n\n    uint fee = coverPriceWithFee.sub(coverPrice);\n    if (fee > 0) {\n      transferToTreasury(fee, coverAsset);\n    }\n\n    // mint token using the coverId as a tokenId (guaranteed unique)\n    _mint(msg.sender, coverId);\n\n    emit CoverBought(coverId, msg.sender, contractAddress, feePercentage, coverPrice);\n    return coverId;\n  }\n\n  /**\n  * @notice Submit a claim for the cover\n  * @param tokenId cover token id\n  * @param data abi-encoded field with additional claim data fields\n  */\n  function submitClaim(\n    uint tokenId,\n    bytes calldata data\n  )\n  external\n  onlyTokenApprovedOrOwner(tokenId)\n  returns (uint)\n  {\n    // coverId = tokenId\n    uint claimId = cover.submitClaim(tokenId, data);\n    emit ClaimSubmitted(tokenId, claimId, msg.sender);\n    return claimId;\n  }\n\n  /**\n  * @notice Redeem the claim to the cover. Requires that that the payout is completed.\n  * @param tokenId cover token id\n  */\n  function redeemClaim(\n    uint256 tokenId,\n    uint claimId\n  )\n  public\n  onlyTokenApprovedOrOwner(tokenId)\n  nonReentrant\n  {\n    uint coverId = cover.getClaimCoverId(claimId);\n    require(coverId == tokenId, \"Distributor: coverId claimId mismatch\");\n    (ICover.ClaimStatus status, uint amountPaid, address coverAsset) = cover.getPayoutOutcome(claimId);\n    require(status == ICover.ClaimStatus.ACCEPTED, \"Distributor: Claim not accepted\");\n\n    _burn(tokenId);\n    if (coverAsset == ETH) {\n      (bool ok, /* data */) = msg.sender.call{value: amountPaid}(\"\");\n      require(ok, \"Distributor: Transfer to NFT owner failed\");\n    } else {\n      IERC20 erc20 = IERC20(coverAsset);\n      erc20.safeTransfer(msg.sender, amountPaid);\n    }\n\n    emit ClaimPayoutRedeemed(tokenId, claimId, msg.sender, amountPaid, coverAsset);\n  }\n\n  /**\n  * @notice Execute an action on specific cover token. The action is identified by an `action` id.\n      Allows for an ETH transfer or an ERC20 transfer.\n      If less than the supplied assetAmount is needed, it is returned to `msg.sender`.\n  * @dev The purpose of this function is future-proofing for updates to the cover buy->claim cycle.\n  * @param tokenId id of the cover token\n  * @param assetAmount optional asset amount to be transferred along with the action executed\n  * @param asset optional asset to be transferred along with the action executed\n  * @param action action identifier\n  * @param data abi-encoded field with action parameters\n  * @return response (abi-encoded response, amount withheld from the original asset amount supplied)\n  */\n  function executeCoverAction(uint tokenId, uint assetAmount, address asset, uint8 action, bytes calldata data)\n  external\n  payable\n  onlyTokenApprovedOrOwner(tokenId)\n  nonReentrant\n  returns (bytes memory response, uint withheldAmount)\n  {\n    if (assetAmount == 0) {\n      return cover.executeCoverAction(tokenId, action, data);\n    }\n    if (asset == ETH) {\n      require(msg.value >= assetAmount, \"Distributor: Insufficient ETH sent\");\n      (response, withheldAmount) = cover.executeCoverAction{ value: msg.value }(tokenId, action, data);\n      uint remainder = assetAmount.sub(withheldAmount);\n      (bool ok, /* data */) = address(msg.sender).call{value: remainder}(\"\");\n      require(ok, \"Distributor: Returning ETH remainder to sender failed.\");\n      return (response, withheldAmount);\n    }\n\n    IERC20 token = IERC20(asset);\n    token.safeTransferFrom(msg.sender, address(this), assetAmount);\n    token.approve(address(cover), assetAmount);\n    (response, withheldAmount) = cover.executeCoverAction(tokenId, action, data);\n    uint remainder = assetAmount.sub(withheldAmount);\n    token.safeTransfer(msg.sender, remainder);\n    return (response, withheldAmount);\n  }\n\n  /**\n  * @notice get cover data\n  * @param tokenId cover token id\n  */\n  function getCover(uint tokenId)\n  public\n  view\n  returns (\n    uint8 status,\n    uint sumAssured,\n    uint16 coverPeriod,\n    uint validUntil,\n    address contractAddress,\n    address coverAsset,\n    uint premiumInNXM,\n    address memberAddress\n  ) {\n    return cover.getCover(tokenId);\n  }\n\n  /**\n  * @notice get state of a claim payout. Returns\n  * status of cover,  amount paid as part of the payout, address of the cover asset)\n  * @param claimId id of claim\n  */\n  function getPayoutOutcome(uint claimId)\n  public\n  view\n  returns (ICover.ClaimStatus status, uint amountPaid, address coverAsset)\n  {\n    (status, amountPaid, coverAsset) = cover.getPayoutOutcome(claimId);\n  }\n\n  /**\n  * @notice Set `amount` as the allowance of `spender` over the distributor's NXM tokens.\n  * @param spender approved spender\n  * @param amount amount approved\n  */\n  function approveNXM(address spender, uint256 amount) public onlyOwner {\n    nxmToken.approve(spender, amount);\n  }\n\n  /**\n  * @notice Moves `amount` tokens from the distributor to `recipient`.\n  * @param recipient recipient of NXM\n  * @param amount amount of NXM\n  */\n  function withdrawNXM(address recipient, uint256 amount) public onlyOwner {\n    nxmToken.safeTransfer(recipient, amount);\n  }\n\n  /**\n  * @notice Switch NexusMutual membership to `newAddress`.\n  * @param newAddress address\n  */\n  function switchMembership(address newAddress) external onlyOwner {\n    nxmToken.approve(address(cover), uint(-1));\n    cover.switchMembership(newAddress);\n  }\n\n  /**\n  * @notice Sell Distributor-owned NXM tokens for ETH\n  * @param nxmIn Amount of NXM to sell\n  * @param minEthOut minimum expected Eth received\n  */\n  function sellNXM(uint nxmIn, uint minEthOut) external onlyOwner {\n\n    address poolAddress = master.getLatestAddress(\"P1\");\n    nxmToken.approve(poolAddress, nxmIn);\n    uint balanceBefore = address(this).balance;\n    IPool(poolAddress).sellNXM(nxmIn, minEthOut);\n    uint balanceAfter = address(this).balance;\n\n    transferToTreasury(balanceAfter.sub(balanceBefore), ETH);\n  }\n\n  /**\n  * @notice Set if buyCover calls are allowed (true) or not (false).\n  * @param _buysAllowed value set for buysAllowed\n  */\n  function setBuysAllowed(bool _buysAllowed) external onlyOwner {\n    buysAllowed = _buysAllowed;\n  }\n\n  /**\n  * @notice Set treasury address where `buyCover` distributor fees and `ethOut` from `sellNXM` are sent.\n  * @param _treasury new treasury address\n  */\n  function setTreasury(address payable _treasury) external onlyOwner {\n    treasury = _treasury;\n  }\n\n  /**\n  * @notice Send `amount` of `asset`  to treasury address\n  * @param amount amount of asset\n  * @param asset ERC20 token address or ETH\n  */\n  function transferToTreasury(uint amount, address asset) internal {\n    if (asset == ETH) {\n      (bool ok, /* data */) = treasury.call{value: amount}(\"\");\n      require(ok, \"Distributor: Transfer to treasury failed\");\n    } else {\n      IERC20 erc20 = IERC20(asset);\n      erc20.safeTransfer(treasury, amount);\n    }\n  }\n\n  /**\n  * @notice Set fee percentage for buyCover premiums.\n  *  `_feePercentage` has 2 decimals of precision ( 5000 is 50%)\n  * @param _feePercentage fee percentage to be set\n  */\n  function setFeePercentage(uint _feePercentage) external onlyOwner {\n    feePercentage = _feePercentage;\n  }\n\n  /**\n  * @dev required to be allow for receiving ETH claim payouts\n  */\n  receive () payable external {\n  }\n\n  /**\n  * @dev Function to set the base URI for all token IDs. It is\n  * automatically added as a prefix to the value returned in {tokenURI},\n  * or to the token ID if {tokenURI} is empty.\n  */\n  function setBaseURI(string memory baseURI_) public onlyOwner {\n      _setBaseURI(baseURI_);\n  }\n}\n",
  "sourcePath": "/Users/ricardopinto/work/brightunion/distributors/contracts/nexus/Distributor.sol",
  "compiler": {
    "name": "solc",
    "version": "0.7.4+commit.3f05b770.Emscripten.clang"
  },
  "schemaVersion": "3.4.0",
  "updatedAt": "2021-05-06T08:46:13.387Z",
  "devdoc": {
    "kind": "dev",
    "methods": {
      "approve(address,uint256)": {
        "details": "See {IERC721-approve}."
      },
      "approveNXM(address,uint256)": {
        "params": {
          "amount": "amount approved",
          "spender": "approved spender"
        }
      },
      "balanceOf(address)": {
        "details": "See {IERC721-balanceOf}."
      },
      "baseURI()": {
        "details": "Returns the base URI set via {_setBaseURI}. This will be automatically added as a prefix in {tokenURI} to each token's URI, or to the token ID if no specific URI is set for that token ID."
      },
      "buyCover(address,address,uint256,uint16,uint8,uint256,bytes)": {
        "details": "buy cover for a coverable identified by its contractAddress",
        "params": {
          "contractAddress": "contract address of coverable",
          "coverAsset": "asset of the premium and of the sum assured.",
          "coverType": "cover type dermining how the data parameter is decoded",
          "data": "abi-encoded field with additional cover data fields",
          "maxPriceWithFee": "max price (including fee) to be spent on the cover.",
          "sumAssured": "amount payable if claim is submitted and considered valid"
        },
        "returns": {
          "_0": "token id"
        }
      },
      "executeCoverAction(uint256,uint256,address,uint8,bytes)": {
        "details": "The purpose of this function is future-proofing for updates to the cover buy->claim cycle.",
        "params": {
          "action": "action identifier",
          "asset": "optional asset to be transferred along with the action executed",
          "assetAmount": "optional asset amount to be transferred along with the action executed",
          "data": "abi-encoded field with action parameters",
          "tokenId": "id of the cover token"
        },
        "returns": {
          "response": "(abi-encoded response, amount withheld from the original asset amount supplied)"
        }
      },
      "getApproved(uint256)": {
        "details": "See {IERC721-getApproved}."
      },
      "getCover(uint256)": {
        "params": {
          "tokenId": "cover token id"
        }
      },
      "getPayoutOutcome(uint256)": {
        "params": {
          "claimId": "id of claim"
        }
      },
      "isApprovedForAll(address,address)": {
        "details": "See {IERC721-isApprovedForAll}."
      },
      "name()": {
        "details": "See {IERC721Metadata-name}."
      },
      "owner()": {
        "details": "Returns the address of the current owner."
      },
      "ownerOf(uint256)": {
        "details": "See {IERC721-ownerOf}."
      },
      "redeemClaim(uint256,uint256)": {
        "params": {
          "tokenId": "cover token id"
        }
      },
      "renounceOwnership()": {
        "details": "Leaves the contract without owner. It will not be possible to call `onlyOwner` functions anymore. Can only be called by the current owner. NOTE: Renouncing ownership will leave the contract without an owner, thereby removing any functionality that is only available to the owner."
      },
      "safeTransferFrom(address,address,uint256)": {
        "details": "See {IERC721-safeTransferFrom}."
      },
      "safeTransferFrom(address,address,uint256,bytes)": {
        "details": "See {IERC721-safeTransferFrom}."
      },
      "sellNXM(uint256,uint256)": {
        "params": {
          "minEthOut": "minimum expected Eth received",
          "nxmIn": "Amount of NXM to sell"
        }
      },
      "setApprovalForAll(address,bool)": {
        "details": "See {IERC721-setApprovalForAll}."
      },
      "setBaseURI(string)": {
        "details": "Function to set the base URI for all token IDs. It is automatically added as a prefix to the value returned in {tokenURI}, or to the token ID if {tokenURI} is empty."
      },
      "setBuysAllowed(bool)": {
        "params": {
          "_buysAllowed": "value set for buysAllowed"
        }
      },
      "setFeePercentage(uint256)": {
        "params": {
          "_feePercentage": "fee percentage to be set"
        }
      },
      "setTreasury(address)": {
        "params": {
          "_treasury": "new treasury address"
        }
      },
      "submitClaim(uint256,bytes)": {
        "params": {
          "data": "abi-encoded field with additional claim data fields",
          "tokenId": "cover token id"
        }
      },
      "supportsInterface(bytes4)": {
        "details": "See {IERC165-supportsInterface}. Time complexity O(1), guaranteed to always use less than 30 000 gas."
      },
      "switchMembership(address)": {
        "params": {
          "newAddress": "address"
        }
      },
      "symbol()": {
        "details": "See {IERC721Metadata-symbol}."
      },
      "tokenByIndex(uint256)": {
        "details": "See {IERC721Enumerable-tokenByIndex}."
      },
      "tokenOfOwnerByIndex(address,uint256)": {
        "details": "See {IERC721Enumerable-tokenOfOwnerByIndex}."
      },
      "tokenURI(uint256)": {
        "details": "See {IERC721Metadata-tokenURI}."
      },
      "totalSupply()": {
        "details": "See {IERC721Enumerable-totalSupply}."
      },
      "transferFrom(address,address,uint256)": {
        "details": "See {IERC721-transferFrom}."
      },
      "transferOwnership(address)": {
        "details": "Transfers ownership of the contract to a new account (`newOwner`). Can only be called by the current owner."
      },
      "withdrawNXM(address,uint256)": {
        "params": {
          "amount": "amount of NXM",
          "recipient": "recipient of NXM"
        }
      }
    },
    "version": 1
  },
  "userdoc": {
    "kind": "user",
    "methods": {
      "approveNXM(address,uint256)": {
        "notice": "Set `amount` as the allowance of `spender` over the distributor's NXM tokens."
      },
      "executeCoverAction(uint256,uint256,address,uint8,bytes)": {
        "notice": "Execute an action on specific cover token. The action is identified by an `action` id. Allows for an ETH transfer or an ERC20 transfer. If less than the supplied assetAmount is needed, it is returned to `msg.sender`."
      },
      "getCover(uint256)": {
        "notice": "get cover data"
      },
      "getPayoutOutcome(uint256)": {
        "notice": "get state of a claim payout. Returns status of cover,  amount paid as part of the payout, address of the cover asset)"
      },
      "redeemClaim(uint256,uint256)": {
        "notice": "Redeem the claim to the cover. Requires that that the payout is completed."
      },
      "sellNXM(uint256,uint256)": {
        "notice": "Sell Distributor-owned NXM tokens for ETH"
      },
      "setBuysAllowed(bool)": {
        "notice": "Set if buyCover calls are allowed (true) or not (false)."
      },
      "setFeePercentage(uint256)": {
        "notice": "Set fee percentage for buyCover premiums.  `_feePercentage` has 2 decimals of precision ( 5000 is 50%)"
      },
      "setTreasury(address)": {
        "notice": "Set treasury address where `buyCover` distributor fees and `ethOut` from `sellNXM` are sent."
      },
      "submitClaim(uint256,bytes)": {
        "notice": "Submit a claim for the cover"
      },
      "switchMembership(address)": {
        "notice": "Switch NexusMutual membership to `newAddress`."
      },
      "withdrawNXM(address,uint256)": {
        "notice": "Moves `amount` tokens from the distributor to `recipient`."
      }
    },
    "version": 1
  }
}