{
  "contractName": "Distributor",
  "abi": [
    {
      "anonymous": false,
      "inputs": [
        {
          "indexed": true,
          "internalType": "address",
          "name": "owner",
          "type": "address"
        },
        {
          "indexed": true,
          "internalType": "address",
          "name": "approved",
          "type": "address"
        },
        {
          "indexed": true,
          "internalType": "uint256",
          "name": "tokenId",
          "type": "uint256"
        }
      ],
      "name": "Approval",
      "type": "event"
    },
    {
      "anonymous": false,
      "inputs": [
        {
          "indexed": true,
          "internalType": "address",
          "name": "owner",
          "type": "address"
        },
        {
          "indexed": true,
          "internalType": "address",
          "name": "operator",
          "type": "address"
        },
        {
          "indexed": false,
          "internalType": "bool",
          "name": "approved",
          "type": "bool"
        }
      ],
      "name": "ApprovalForAll",
      "type": "event"
    },
    {
      "anonymous": false,
      "inputs": [
        {
          "indexed": true,
          "internalType": "uint256",
          "name": "coverId",
          "type": "uint256"
        },
        {
          "indexed": true,
          "internalType": "uint256",
          "name": "claimId",
          "type": "uint256"
        },
        {
          "indexed": true,
          "internalType": "address",
          "name": "receiver",
          "type": "address"
        },
        {
          "indexed": false,
          "internalType": "uint256",
          "name": "amountPaid",
          "type": "uint256"
        },
        {
          "indexed": false,
          "internalType": "address",
          "name": "coverAsset",
          "type": "address"
        }
      ],
      "name": "ClaimPayoutRedeemed",
      "type": "event"
    },
    {
      "anonymous": false,
      "inputs": [
        {
          "indexed": true,
          "internalType": "uint256",
          "name": "coverId",
          "type": "uint256"
        },
        {
          "indexed": true,
          "internalType": "uint256",
          "name": "claimId",
          "type": "uint256"
        },
        {
          "indexed": true,
          "internalType": "address",
          "name": "submitter",
          "type": "address"
        }
      ],
      "name": "ClaimSubmitted",
      "type": "event"
    },
    {
      "anonymous": false,
      "inputs": [
        {
          "indexed": true,
          "internalType": "uint256",
          "name": "coverId",
          "type": "uint256"
        },
        {
          "indexed": true,
          "internalType": "address",
          "name": "buyer",
          "type": "address"
        },
        {
          "indexed": true,
          "internalType": "address",
          "name": "contractAddress",
          "type": "address"
        },
        {
          "indexed": false,
          "internalType": "uint256",
          "name": "feePercentage",
          "type": "uint256"
        },
        {
          "indexed": false,
          "internalType": "uint256",
          "name": "coverPrice",
          "type": "uint256"
        }
      ],
      "name": "CoverBought",
      "type": "event"
    },
    {
      "anonymous": false,
      "inputs": [
        {
          "indexed": true,
          "internalType": "address",
          "name": "previousOwner",
          "type": "address"
        },
        {
          "indexed": true,
          "internalType": "address",
          "name": "newOwner",
          "type": "address"
        }
      ],
      "name": "OwnershipTransferred",
      "type": "event"
    },
    {
      "anonymous": false,
      "inputs": [
        {
          "indexed": true,
          "internalType": "address",
          "name": "from",
          "type": "address"
        },
        {
          "indexed": true,
          "internalType": "address",
          "name": "to",
          "type": "address"
        },
        {
          "indexed": true,
          "internalType": "uint256",
          "name": "tokenId",
          "type": "uint256"
        }
      ],
      "name": "Transfer",
      "type": "event"
    },
    {
      "inputs": [],
      "name": "ETH",
      "outputs": [
        {
          "internalType": "address",
          "name": "",
          "type": "address"
        }
      ],
      "stateMutability": "view",
      "type": "function"
    },
    {
      "inputs": [
        {
          "internalType": "address",
          "name": "to",
          "type": "address"
        },
        {
          "internalType": "uint256",
          "name": "tokenId",
          "type": "uint256"
        }
      ],
      "name": "approve",
      "outputs": [],
      "stateMutability": "nonpayable",
      "type": "function"
    },
    {
      "inputs": [
        {
          "internalType": "address",
          "name": "owner",
          "type": "address"
        }
      ],
      "name": "balanceOf",
      "outputs": [
        {
          "internalType": "uint256",
          "name": "",
          "type": "uint256"
        }
      ],
      "stateMutability": "view",
      "type": "function"
    },
    {
      "inputs": [],
      "name": "baseURI",
      "outputs": [
        {
          "internalType": "string",
          "name": "",
          "type": "string"
        }
      ],
      "stateMutability": "view",
      "type": "function"
    },
    {
      "inputs": [],
      "name": "buysAllowed",
      "outputs": [
        {
          "internalType": "bool",
          "name": "",
          "type": "bool"
        }
      ],
      "stateMutability": "view",
      "type": "function"
    },
    {
      "inputs": [],
      "name": "cover",
      "outputs": [
        {
          "internalType": "contract ICover",
          "name": "",
          "type": "address"
        }
      ],
      "stateMutability": "view",
      "type": "function"
    },
    {
      "inputs": [],
      "name": "feePercentage",
      "outputs": [
        {
          "internalType": "uint256",
          "name": "",
          "type": "uint256"
        }
      ],
      "stateMutability": "view",
      "type": "function"
    },
    {
      "inputs": [
        {
          "internalType": "uint256",
          "name": "tokenId",
          "type": "uint256"
        }
      ],
      "name": "getApproved",
      "outputs": [
        {
          "internalType": "address",
          "name": "",
          "type": "address"
        }
      ],
      "stateMutability": "view",
      "type": "function"
    },
    {
      "inputs": [
        {
          "internalType": "address",
          "name": "owner",
          "type": "address"
        },
        {
          "internalType": "address",
          "name": "operator",
          "type": "address"
        }
      ],
      "name": "isApprovedForAll",
      "outputs": [
        {
          "internalType": "bool",
          "name": "",
          "type": "bool"
        }
      ],
      "stateMutability": "view",
      "type": "function"
    },
    {
      "inputs": [],
      "name": "master",
      "outputs": [
        {
          "internalType": "contract INXMaster",
          "name": "",
          "type": "address"
        }
      ],
      "stateMutability": "view",
      "type": "function"
    },
    {
      "inputs": [],
      "name": "name",
      "outputs": [
        {
          "internalType": "string",
          "name": "",
          "type": "string"
        }
      ],
      "stateMutability": "view",
      "type": "function"
    },
    {
      "inputs": [],
      "name": "nxmToken",
      "outputs": [
        {
          "internalType": "contract IERC20",
          "name": "",
          "type": "address"
        }
      ],
      "stateMutability": "view",
      "type": "function"
    },
    {
      "inputs": [],
      "name": "owner",
      "outputs": [
        {
          "internalType": "address",
          "name": "",
          "type": "address"
        }
      ],
      "stateMutability": "view",
      "type": "function"
    },
    {
      "inputs": [
        {
          "internalType": "uint256",
          "name": "tokenId",
          "type": "uint256"
        }
      ],
      "name": "ownerOf",
      "outputs": [
        {
          "internalType": "address",
          "name": "",
          "type": "address"
        }
      ],
      "stateMutability": "view",
      "type": "function"
    },
    {
      "inputs": [],
      "name": "renounceOwnership",
      "outputs": [],
      "stateMutability": "nonpayable",
      "type": "function"
    },
    {
      "inputs": [
        {
          "internalType": "address",
          "name": "from",
          "type": "address"
        },
        {
          "internalType": "address",
          "name": "to",
          "type": "address"
        },
        {
          "internalType": "uint256",
          "name": "tokenId",
          "type": "uint256"
        }
      ],
      "name": "safeTransferFrom",
      "outputs": [],
      "stateMutability": "nonpayable",
      "type": "function"
    },
    {
      "inputs": [
        {
          "internalType": "address",
          "name": "from",
          "type": "address"
        },
        {
          "internalType": "address",
          "name": "to",
          "type": "address"
        },
        {
          "internalType": "uint256",
          "name": "tokenId",
          "type": "uint256"
        },
        {
          "internalType": "bytes",
          "name": "_data",
          "type": "bytes"
        }
      ],
      "name": "safeTransferFrom",
      "outputs": [],
      "stateMutability": "nonpayable",
      "type": "function"
    },
    {
      "inputs": [
        {
          "internalType": "address",
          "name": "operator",
          "type": "address"
        },
        {
          "internalType": "bool",
          "name": "approved",
          "type": "bool"
        }
      ],
      "name": "setApprovalForAll",
      "outputs": [],
      "stateMutability": "nonpayable",
      "type": "function"
    },
    {
      "inputs": [
        {
          "internalType": "bytes4",
          "name": "interfaceId",
          "type": "bytes4"
        }
      ],
      "name": "supportsInterface",
      "outputs": [
        {
          "internalType": "bool",
          "name": "",
          "type": "bool"
        }
      ],
      "stateMutability": "view",
      "type": "function"
    },
    {
      "inputs": [],
      "name": "symbol",
      "outputs": [
        {
          "internalType": "string",
          "name": "",
          "type": "string"
        }
      ],
      "stateMutability": "view",
      "type": "function"
    },
    {
      "inputs": [
        {
          "internalType": "uint256",
          "name": "index",
          "type": "uint256"
        }
      ],
      "name": "tokenByIndex",
      "outputs": [
        {
          "internalType": "uint256",
          "name": "",
          "type": "uint256"
        }
      ],
      "stateMutability": "view",
      "type": "function"
    },
    {
      "inputs": [
        {
          "internalType": "address",
          "name": "owner",
          "type": "address"
        },
        {
          "internalType": "uint256",
          "name": "index",
          "type": "uint256"
        }
      ],
      "name": "tokenOfOwnerByIndex",
      "outputs": [
        {
          "internalType": "uint256",
          "name": "",
          "type": "uint256"
        }
      ],
      "stateMutability": "view",
      "type": "function"
    },
    {
      "inputs": [
        {
          "internalType": "uint256",
          "name": "tokenId",
          "type": "uint256"
        }
      ],
      "name": "tokenURI",
      "outputs": [
        {
          "internalType": "string",
          "name": "",
          "type": "string"
        }
      ],
      "stateMutability": "view",
      "type": "function"
    },
    {
      "inputs": [],
      "name": "totalSupply",
      "outputs": [
        {
          "internalType": "uint256",
          "name": "",
          "type": "uint256"
        }
      ],
      "stateMutability": "view",
      "type": "function"
    },
    {
      "inputs": [
        {
          "internalType": "address",
          "name": "from",
          "type": "address"
        },
        {
          "internalType": "address",
          "name": "to",
          "type": "address"
        },
        {
          "internalType": "uint256",
          "name": "tokenId",
          "type": "uint256"
        }
      ],
      "name": "transferFrom",
      "outputs": [],
      "stateMutability": "nonpayable",
      "type": "function"
    },
    {
      "inputs": [
        {
          "internalType": "address",
          "name": "newOwner",
          "type": "address"
        }
      ],
      "name": "transferOwnership",
      "outputs": [],
      "stateMutability": "nonpayable",
      "type": "function"
    },
    {
      "inputs": [],
      "name": "treasury",
      "outputs": [
        {
          "internalType": "address payable",
          "name": "",
          "type": "address"
        }
      ],
      "stateMutability": "view",
      "type": "function"
    },
    {
      "stateMutability": "payable",
      "type": "receive"
    },
    {
      "inputs": [
        {
          "internalType": "address",
          "name": "coverAddress",
          "type": "address"
        },
        {
          "internalType": "address",
          "name": "nxmTokenAddress",
          "type": "address"
        },
        {
          "internalType": "address",
          "name": "masterAddress",
          "type": "address"
        },
        {
          "internalType": "uint256",
          "name": "_feePercentage",
          "type": "uint256"
        },
        {
          "internalType": "address payable",
          "name": "_treasury",
          "type": "address"
        },
        {
          "internalType": "string",
          "name": "tokenName",
          "type": "string"
        },
        {
          "internalType": "string",
          "name": "tokenSymbol",
          "type": "string"
        }
      ],
      "name": "initialize",
      "outputs": [],
      "stateMutability": "nonpayable",
      "type": "function"
    },
    {
      "inputs": [
        {
          "internalType": "address",
          "name": "contractAddress",
          "type": "address"
        },
        {
          "internalType": "address",
          "name": "coverAsset",
          "type": "address"
        },
        {
          "internalType": "uint256",
          "name": "sumAssured",
          "type": "uint256"
        },
        {
          "internalType": "uint16",
          "name": "coverPeriod",
          "type": "uint16"
        },
        {
          "internalType": "uint8",
          "name": "coverType",
          "type": "uint8"
        },
        {
          "internalType": "uint256",
          "name": "maxPriceWithFee",
          "type": "uint256"
        },
        {
          "internalType": "bytes",
          "name": "data",
          "type": "bytes"
        }
      ],
      "name": "buyCover",
      "outputs": [
        {
          "internalType": "uint256",
          "name": "",
          "type": "uint256"
        }
      ],
      "stateMutability": "payable",
      "type": "function"
    },
    {
      "inputs": [
        {
          "internalType": "uint256",
          "name": "tokenId",
          "type": "uint256"
        },
        {
          "internalType": "bytes",
          "name": "data",
          "type": "bytes"
        }
      ],
      "name": "submitClaim",
      "outputs": [
        {
          "internalType": "uint256",
          "name": "",
          "type": "uint256"
        }
      ],
      "stateMutability": "nonpayable",
      "type": "function"
    },
    {
      "inputs": [
        {
          "internalType": "uint256",
          "name": "tokenId",
          "type": "uint256"
        },
        {
          "internalType": "uint256",
          "name": "claimId",
          "type": "uint256"
        }
      ],
      "name": "redeemClaim",
      "outputs": [],
      "stateMutability": "nonpayable",
      "type": "function"
    },
    {
      "inputs": [
        {
          "internalType": "uint256",
          "name": "tokenId",
          "type": "uint256"
        },
        {
          "internalType": "uint256",
          "name": "assetAmount",
          "type": "uint256"
        },
        {
          "internalType": "address",
          "name": "asset",
          "type": "address"
        },
        {
          "internalType": "uint8",
          "name": "action",
          "type": "uint8"
        },
        {
          "internalType": "bytes",
          "name": "data",
          "type": "bytes"
        }
      ],
      "name": "executeCoverAction",
      "outputs": [
        {
          "internalType": "bytes",
          "name": "response",
          "type": "bytes"
        },
        {
          "internalType": "uint256",
          "name": "withheldAmount",
          "type": "uint256"
        }
      ],
      "stateMutability": "payable",
      "type": "function"
    },
    {
      "inputs": [
        {
          "internalType": "uint256",
          "name": "tokenId",
          "type": "uint256"
        }
      ],
      "name": "getCover",
      "outputs": [
        {
          "internalType": "uint8",
          "name": "status",
          "type": "uint8"
        },
        {
          "internalType": "uint256",
          "name": "sumAssured",
          "type": "uint256"
        },
        {
          "internalType": "uint16",
          "name": "coverPeriod",
          "type": "uint16"
        },
        {
          "internalType": "uint256",
          "name": "validUntil",
          "type": "uint256"
        },
        {
          "internalType": "address",
          "name": "contractAddress",
          "type": "address"
        },
        {
          "internalType": "address",
          "name": "coverAsset",
          "type": "address"
        },
        {
          "internalType": "uint256",
          "name": "premiumInNXM",
          "type": "uint256"
        },
        {
          "internalType": "address",
          "name": "memberAddress",
          "type": "address"
        }
      ],
      "stateMutability": "view",
      "type": "function"
    },
    {
      "inputs": [
        {
          "internalType": "uint256",
          "name": "claimId",
          "type": "uint256"
        }
      ],
      "name": "getPayoutOutcome",
      "outputs": [
        {
          "internalType": "enum ICover.ClaimStatus",
          "name": "status",
          "type": "uint8"
        },
        {
          "internalType": "uint256",
          "name": "amountPaid",
          "type": "uint256"
        },
        {
          "internalType": "address",
          "name": "coverAsset",
          "type": "address"
        }
      ],
      "stateMutability": "view",
      "type": "function"
    },
    {
      "inputs": [
        {
          "internalType": "address",
          "name": "spender",
          "type": "address"
        },
        {
          "internalType": "uint256",
          "name": "amount",
          "type": "uint256"
        }
      ],
      "name": "approveNXM",
      "outputs": [],
      "stateMutability": "nonpayable",
      "type": "function"
    },
    {
      "inputs": [
        {
          "internalType": "address",
          "name": "recipient",
          "type": "address"
        },
        {
          "internalType": "uint256",
          "name": "amount",
          "type": "uint256"
        }
      ],
      "name": "withdrawNXM",
      "outputs": [],
      "stateMutability": "nonpayable",
      "type": "function"
    },
    {
      "inputs": [
        {
          "internalType": "address",
          "name": "newAddress",
          "type": "address"
        }
      ],
      "name": "switchMembership",
      "outputs": [],
      "stateMutability": "nonpayable",
      "type": "function"
    },
    {
      "inputs": [
        {
          "internalType": "uint256",
          "name": "nxmIn",
          "type": "uint256"
        },
        {
          "internalType": "uint256",
          "name": "minEthOut",
          "type": "uint256"
        }
      ],
      "name": "sellNXM",
      "outputs": [],
      "stateMutability": "nonpayable",
      "type": "function"
    },
    {
      "inputs": [
        {
          "internalType": "bool",
          "name": "_buysAllowed",
          "type": "bool"
        }
      ],
      "name": "setBuysAllowed",
      "outputs": [],
      "stateMutability": "nonpayable",
      "type": "function"
    },
    {
      "inputs": [
        {
          "internalType": "address payable",
          "name": "_treasury",
          "type": "address"
        }
      ],
      "name": "setTreasury",
      "outputs": [],
      "stateMutability": "nonpayable",
      "type": "function"
    },
    {
      "inputs": [
        {
          "internalType": "uint256",
          "name": "_feePercentage",
          "type": "uint256"
        }
      ],
      "name": "setFeePercentage",
      "outputs": [],
      "stateMutability": "nonpayable",
      "type": "function"
    }
  ],
  "bytecode": "0x608060405260fc805460ff1916600117905534801561001d57600080fd5b5061539d8061002d6000396000f3fe6080604052600436106102c95760003560e01c80638322fff211610179578063d8a856ee116100d6578063e967eb1a1161008a578063f0f4426011610064578063f0f4426014610d6c578063f2fde38b14610d9f578063fd7b68a214610dd2576102d0565b8063e967eb1a14610d07578063e985e9c514610d1c578063ee97f7f314610d57576102d0565b8063dcf1621b116100bb578063dcf1621b14610b74578063e1817a8b14610cdd578063e7d931e414610cf2576102d0565b8063d8a856ee14610a48578063db32749114610af0576102d0565b8063a001ecdd1161012d578063ae06c1b711610112578063ae06c1b714610921578063b88d4fde1461094b578063c87b56dd14610a1e576102d0565b8063a001ecdd146108d1578063a22cb465146108e6576102d0565b80638da5cb5b1161015e5780638da5cb5b1461086e57806395d89b41146108835780639f1cafa414610898576102d0565b80638322fff21461082d57806386a1563714610842576102d0565b80634c2851511161022757806361d027b3116101db5780636c0360eb116101c05780636c0360eb146107d057806370a08231146107e5578063715018a614610818576102d0565b806361d027b3146107915780636352211e146107a6576102d0565b80634ed75d471161020c5780634ed75d47146106d25780634f6ccce71461070557806352799e4d1461072f576102d0565b80634c285151146105865780634d77673514610699576102d0565b806318160ddd1161027e57806328dd37731161026357806328dd3773146104da5780632f745c591461050a57806342842e0e14610543576102d0565b806318160ddd1461047057806323b872dd14610497576102d0565b806306fdde03116102af57806306fdde0314610367578063081812fc146103f1578063095ea7b314610437576102d0565b8062969717146102d557806301ffc9a714610307576102d0565b366102d057005b600080fd5b3480156102e157600080fd5b50610305600480360360408110156102f857600080fd5b5080359060200135610e52565b005b34801561031357600080fd5b506103536004803603602081101561032a57600080fd5b50357fffffffff00000000000000000000000000000000000000000000000000000000166111fb565b604080519115158252519081900360200190f35b34801561037357600080fd5b5061037c611236565b6040805160208082528351818301528351919283929083019185019080838360005b838110156103b657818101518382015260200161039e565b50505050905090810190601f1680156103e35780820380516001836020036101000a031916815260200191505b509250505060405180910390f35b3480156103fd57600080fd5b5061041b6004803603602081101561041457600080fd5b50356112cc565b604080516001600160a01b039092168252519081900360200190f35b34801561044357600080fd5b506103056004803603604081101561045a57600080fd5b506001600160a01b03813516906020013561132e565b34801561047c57600080fd5b50610485611409565b60408051918252519081900360200190f35b3480156104a357600080fd5b50610305600480360360608110156104ba57600080fd5b506001600160a01b0381358116916020810135909116906040013561141a565b3480156104e657600080fd5b50610305600480360360408110156104fd57600080fd5b5080359060200135611471565b34801561051657600080fd5b506104856004803603604081101561052d57600080fd5b506001600160a01b0381351690602001356116e7565b34801561054f57600080fd5b506103056004803603606081101561056657600080fd5b506001600160a01b03813581169160208101359091169060400135611712565b61061a600480360360a081101561059c57600080fd5b8135916020810135916001600160a01b036040830135169160ff6060820135169181019060a0810160808201356401000000008111156105db57600080fd5b8201836020820111156105ed57600080fd5b8035906020019184600183028401116401000000008311171561060f57600080fd5b50909250905061172d565b6040518080602001838152602001828103825284818151815260200191508051906020019080838360005b8381101561065d578181015183820152602001610645565b50505050905090810190601f16801561068a5780820380516001836020036101000a031916815260200191505b50935050505060405180910390f35b3480156106a557600080fd5b50610305600480360360408110156106bc57600080fd5b506001600160a01b038135169060200135611ea3565b3480156106de57600080fd5b50610305600480360360208110156106f557600080fd5b50356001600160a01b0316611fb6565b34801561071157600080fd5b506104856004803603602081101561072857600080fd5b5035612144565b34801561073b57600080fd5b506107596004803603602081101561075257600080fd5b503561215a565b6040518084600281111561076957fe5b8152602001838152602001826001600160a01b03168152602001935050505060405180910390f35b34801561079d57600080fd5b5061041b61220a565b3480156107b257600080fd5b5061041b600480360360208110156107c957600080fd5b503561221e565b3480156107dc57600080fd5b5061037c612246565b3480156107f157600080fd5b506104856004803603602081101561080857600080fd5b50356001600160a01b03166122a7565b34801561082457600080fd5b5061030561230f565b34801561083957600080fd5b5061041b6123e5565b34801561084e57600080fd5b506103056004803603602081101561086557600080fd5b503515156123fd565b34801561087a57600080fd5b5061041b612484565b34801561088f57600080fd5b5061037c612493565b3480156108a457600080fd5b50610305600480360360408110156108bb57600080fd5b506001600160a01b0381351690602001356124f4565b3480156108dd57600080fd5b50610485612583565b3480156108f257600080fd5b506103056004803603604081101561090957600080fd5b506001600160a01b0381351690602001351515612589565b34801561092d57600080fd5b506103056004803603602081101561094457600080fd5b503561268e565b34801561095757600080fd5b506103056004803603608081101561096e57600080fd5b6001600160a01b038235811692602081013590911691604082013591908101906080810160608201356401000000008111156109a957600080fd5b8201836020820111156109bb57600080fd5b803590602001918460018302840111640100000000831117156109dd57600080fd5b91908080601f016020809104026020016040519081016040528093929190818152602001838380828437600092019190915250929550612707945050505050565b348015610a2a57600080fd5b5061037c60048036036020811015610a4157600080fd5b503561275f565b610485600480360360e0811015610a5e57600080fd5b6001600160a01b03823581169260208101359091169160408201359161ffff6060820135169160ff6080830135169160a08101359181019060e0810160c0820135640100000000811115610ab157600080fd5b820183602082011115610ac357600080fd5b80359060200191846001830284011164010000000083111715610ae557600080fd5b5090925090506129e2565b348015610afc57600080fd5b5061048560048036036040811015610b1357600080fd5b81359190810190604081016020820135640100000000811115610b3557600080fd5b820183602082011115610b4757600080fd5b80359060200191846001830284011164010000000083111715610b6957600080fd5b509092509050612f46565b348015610b8057600080fd5b50610305600480360360e0811015610b9757600080fd5b6001600160a01b0382358116926020810135821692604082013583169260608301359260808101359091169181019060c0810160a0820135640100000000811115610be157600080fd5b820183602082011115610bf357600080fd5b80359060200191846001830284011164010000000083111715610c1557600080fd5b91908080601f0160208091040260200160405190810160405280939291908181526020018383808284376000920191909152509295949360208101935035915050640100000000811115610c6857600080fd5b820183602082011115610c7a57600080fd5b80359060200191846001830284011164010000000083111715610c9c57600080fd5b91908080601f01602080910402602001604051908101604052809392919081815260200183838082843760009201919091525092955061308d945050505050565b348015610ce957600080fd5b506103536131df565b348015610cfe57600080fd5b5061041b6131e8565b348015610d1357600080fd5b5061041b6131f7565b348015610d2857600080fd5b5061035360048036036040811015610d3f57600080fd5b506001600160a01b0381358116916020013516613206565b348015610d6357600080fd5b5061041b613234565b348015610d7857600080fd5b5061030560048036036020811015610d8f57600080fd5b50356001600160a01b0316613243565b348015610dab57600080fd5b5061030560048036036020811015610dc257600080fd5b50356001600160a01b03166132f6565b348015610dde57600080fd5b50610dfc60048036036020811015610df557600080fd5b5035613423565b6040805160ff9099168952602089019790975261ffff9095168787015260608701939093526001600160a01b039182166080870152811660a086015260c08501919091521660e083015251908190036101000190f35b81610e5d33826134fa565b610e985760405162461bcd60e51b81526004018080602001828103825260228152602001806152006022913960400191505060405180910390fd5b600260c9541415610ef0576040805162461bcd60e51b815260206004820152601f60248201527f5265656e7472616e637947756172643a207265656e7472616e742063616c6c00604482015290519081900360640190fd5b600260c95560fd54604080517f96ff592f0000000000000000000000000000000000000000000000000000000081526004810185905290516000926001600160a01b0316916396ff592f916024808301926020929190829003018186803b158015610f5a57600080fd5b505afa158015610f6e573d6000803e3d6000fd5b505050506040513d6020811015610f8457600080fd5b50519050838114610fc65760405162461bcd60e51b81526004018080602001828103825260258152602001806152c76025913960400191505060405180910390fd5b60fd54604080517f52799e4d000000000000000000000000000000000000000000000000000000008152600481018690529051600092839283926001600160a01b03909216916352799e4d91602480820192606092909190829003018186803b15801561103257600080fd5b505afa158015611046573d6000803e3d6000fd5b505050506040513d606081101561105c57600080fd5b50805160208201516040909201519094509092509050600183600281111561108057fe5b146110d2576040805162461bcd60e51b815260206004820152601f60248201527f4469737472696275746f723a20436c61696d206e6f7420616363657074656400604482015290519081900360640190fd5b6110db8761359e565b6001600160a01b03811673eeeeeeeeeeeeeeeeeeeeeeeeeeeeeeeeeeeeeeee141561118d57604051600090339084908381818185875af1925050503d8060008114611142576040519150601f19603f3d011682016040523d82523d6000602084013e611147565b606091505b50509050806111875760405162461bcd60e51b81526004018080602001828103825260298152602001806151126029913960400191505060405180910390fd5b506111a4565b806111a26001600160a01b038216338561366b565b505b604080518381526001600160a01b03831660208201528151339289928b927f34fca3c3e347457684d11c6311e01dc77fc4d158b9fb5902af19c6b9fae603a9929181900390910190a45050600160c9555050505050565b7fffffffff00000000000000000000000000000000000000000000000000000000811660009081526033602052604090205460ff165b919050565b606a8054604080516020601f60026000196101006001881615020190951694909404938401819004810282018101909252828152606093909290918301828280156112c25780601f10611297576101008083540402835291602001916112c2565b820191906000526020600020905b8154815290600101906020018083116112a557829003601f168201915b5050505050905090565b60006112d7826136eb565b6113125760405162461bcd60e51b815260040180806020018281038252602c815260200180615243602c913960400191505060405180910390fd5b506000908152606860205260409020546001600160a01b031690565b60006113398261221e565b9050806001600160a01b0316836001600160a01b0316141561138c5760405162461bcd60e51b81526004018080602001828103825260218152602001806152ec6021913960400191505060405180910390fd5b806001600160a01b031661139e6136f8565b6001600160a01b031614806113bf57506113bf816113ba6136f8565b613206565b6113fa5760405162461bcd60e51b81526004018080602001828103825260388152602001806150da6038913960400191505060405180910390fd5b61140483836136fc565b505050565b60006114156066613782565b905090565b61142b6114256136f8565b826134fa565b6114665760405162461bcd60e51b815260040180806020018281038252603181526020018061530d6031913960400191505060405180910390fd5b61140483838361378d565b6114796136f8565b6001600160a01b031661148a612484565b6001600160a01b0316146114e5576040805162461bcd60e51b815260206004820181905260248201527f4f776e61626c653a2063616c6c6572206973206e6f7420746865206f776e6572604482015290519081900360640190fd5b60ff54604080517f013828580000000000000000000000000000000000000000000000000000000081527f5031000000000000000000000000000000000000000000000000000000000000600482015290516000926001600160a01b0316916301382858916024808301926020929190829003018186803b15801561156957600080fd5b505afa15801561157d573d6000803e3d6000fd5b505050506040513d602081101561159357600080fd5b505160fe54604080517f095ea7b30000000000000000000000000000000000000000000000000000000081526001600160a01b03808516600483015260248201889052915193945091169163095ea7b3916044808201926020929091908290030181600087803b15801561160657600080fd5b505af115801561161a573d6000803e3d6000fd5b505050506040513d602081101561163057600080fd5b5050604080517f28dd37730000000000000000000000000000000000000000000000000000000081526004810185905260248101849052905147916001600160a01b038416916328dd37739160448082019260009290919082900301818387803b15801561169d57600080fd5b505af11580156116b1573d6000803e3d6000fd5b504792506116e091506116c6905082846138d9565b73eeeeeeeeeeeeeeeeeeeeeeeeeeeeeeeeeeeeeeee613936565b5050505050565b6001600160a01b03821660009081526065602052604081206117099083613a19565b90505b92915050565b61140483838360405180602001604052806000815250612707565b606060008761173c33826134fa565b6117775760405162461bcd60e51b81526004018080602001828103825260228152602001806152006022913960400191505060405180910390fd5b600260c95414156117cf576040805162461bcd60e51b815260206004820152601f60248201527f5265656e7472616e637947756172643a207265656e7472616e742063616c6c00604482015290519081900360640190fd5b600260c9558761197b5760fd546040517f30926acc000000000000000000000000000000000000000000000000000000008152600481018b815260ff89166024830152606060448301908152606483018890526001600160a01b03909316926330926acc928d928b928b928b929190608401848480828437600081840152601f19601f82011690508083019250505095505050505050600060405180830381600087803b15801561187f57600080fd5b505af1158015611893573d6000803e3d6000fd5b505050506040513d6000823e601f3d908101601f1916820160409081528110156118bc57600080fd5b81019080805160405193929190846401000000008211156118dc57600080fd5b9083019060208201858111156118f157600080fd5b825164010000000081118282018810171561190b57600080fd5b82525081516020918201929091019080838360005b83811015611938578181015183820152602001611920565b50505050905090810190601f1680156119655780820380516001836020036101000a031916815260200191505b5060405260200151929550919350611e90915050565b6001600160a01b03871673eeeeeeeeeeeeeeeeeeeeeeeeeeeeeeeeeeeeeeee1415611c1c57873410156119df5760405162461bcd60e51b815260040180806020018281038252602281526020018061513b6022913960400191505060405180910390fd5b60fd546040517f30926acc000000000000000000000000000000000000000000000000000000008152600481018b815260ff89166024830152606060448301908152606483018890526001600160a01b03909316926330926acc9234928e928c928c928c929091608401848480828437600081840152601f19601f820116905080830192505050955050505050506000604051808303818588803b158015611a8657600080fd5b505af1158015611a9a573d6000803e3d6000fd5b50505050506040513d6000823e601f3d908101601f191682016040908152811015611ac457600080fd5b8101908080516040519392919084640100000000821115611ae457600080fd5b908301906020820185811115611af957600080fd5b8251640100000000811182820188101715611b1357600080fd5b82525081516020918201929091019080838360005b83811015611b40578181015183820152602001611b28565b50505050905090810190601f168015611b6d5780820380516001836020036101000a031916815260200191505b506040526020015192955091935060009150611b8b905089846138d9565b604051909150600090339083908381818185875af1925050503d8060008114611bd0576040519150601f19603f3d011682016040523d82523d6000602084013e611bd5565b606091505b5050905080611c155760405162461bcd60e51b815260040180806020018281038252603681526020018061502e6036913960400191505060405180910390fd5b5050611e90565b86611c326001600160a01b03821633308c613a25565b60fd54604080517f095ea7b30000000000000000000000000000000000000000000000000000000081526001600160a01b039283166004820152602481018c905290519183169163095ea7b3916044808201926020929091908290030181600087803b158015611ca157600080fd5b505af1158015611cb5573d6000803e3d6000fd5b505050506040513d6020811015611ccb57600080fd5b505060fd546040517f30926acc000000000000000000000000000000000000000000000000000000008152600481018c815260ff8a166024830152606060448301908152606483018990526001600160a01b03909316926330926acc928e928c928c928c929190608401848480828437600081840152601f19601f82011690508083019250505095505050505050600060405180830381600087803b158015611d7357600080fd5b505af1158015611d87573d6000803e3d6000fd5b505050506040513d6000823e601f3d908101601f191682016040908152811015611db057600080fd5b8101908080516040519392919084640100000000821115611dd057600080fd5b908301906020820185811115611de557600080fd5b8251640100000000811182820188101715611dff57600080fd5b82525081516020918201929091019080838360005b83811015611e2c578181015183820152602001611e14565b50505050905090810190601f168015611e595780820380516001836020036101000a031916815260200191505b506040526020015192965091945060009150611e7790508a856138d9565b9050611e8d6001600160a01b038316338361366b565b50505b50600160c9559097909650945050505050565b611eab6136f8565b6001600160a01b0316611ebc612484565b6001600160a01b031614611f17576040805162461bcd60e51b815260206004820181905260248201527f4f776e61626c653a2063616c6c6572206973206e6f7420746865206f776e6572604482015290519081900360640190fd5b60fe54604080517f095ea7b30000000000000000000000000000000000000000000000000000000081526001600160a01b038581166004830152602482018590529151919092169163095ea7b39160448083019260209291908290030181600087803b158015611f8657600080fd5b505af1158015611f9a573d6000803e3d6000fd5b505050506040513d6020811015611fb057600080fd5b50505050565b611fbe6136f8565b6001600160a01b0316611fcf612484565b6001600160a01b03161461202a576040805162461bcd60e51b815260206004820181905260248201527f4f776e61626c653a2063616c6c6572206973206e6f7420746865206f776e6572604482015290519081900360640190fd5b60fe5460fd54604080517f095ea7b30000000000000000000000000000000000000000000000000000000081526001600160a01b03928316600482015260001960248201529051919092169163095ea7b39160448083019260209291908290030181600087803b15801561209d57600080fd5b505af11580156120b1573d6000803e3d6000fd5b505050506040513d60208110156120c757600080fd5b505060fd54604080517f4ed75d470000000000000000000000000000000000000000000000000000000081526001600160a01b03848116600483015291519190921691634ed75d4791602480830192600092919082900301818387803b15801561213057600080fd5b505af11580156116e0573d6000803e3d6000fd5b600080612152606684613aad565b509392505050565b60fd54604080517f52799e4d000000000000000000000000000000000000000000000000000000008152600481018490529051600092839283926001600160a01b03909216916352799e4d91602480820192606092909190829003018186803b1580156121c657600080fd5b505afa1580156121da573d6000803e3d6000fd5b505050506040513d60608110156121f057600080fd5b508051602082015160409092015190969195509350915050565b60fc5461010090046001600160a01b031681565b600061170c826040518060600160405280602981526020016151876029913960669190613ac9565b606d8054604080516020601f60026000196101006001881615020190951694909404938401819004810282018101909252828152606093909290918301828280156112c25780601f10611297576101008083540402835291602001916112c2565b60006001600160a01b0382166122ee5760405162461bcd60e51b815260040180806020018281038252602a81526020018061515d602a913960400191505060405180910390fd5b6001600160a01b038216600090815260656020526040902061170c90613782565b6123176136f8565b6001600160a01b0316612328612484565b6001600160a01b031614612383576040805162461bcd60e51b815260206004820181905260248201527f4f776e61626c653a2063616c6c6572206973206e6f7420746865206f776e6572604482015290519081900360640190fd5b6097546040516000916001600160a01b0316907f8be0079c531659141344cd1fd0a4f28419497f9722a3daafe3b4186f6b6457e0908390a3609780547fffffffffffffffffffffffff0000000000000000000000000000000000000000169055565b73eeeeeeeeeeeeeeeeeeeeeeeeeeeeeeeeeeeeeeee81565b6124056136f8565b6001600160a01b0316612416612484565b6001600160a01b031614612471576040805162461bcd60e51b815260206004820181905260248201527f4f776e61626c653a2063616c6c6572206973206e6f7420746865206f776e6572604482015290519081900360640190fd5b60fc805460ff1916911515919091179055565b6097546001600160a01b031690565b606b8054604080516020601f60026000196101006001881615020190951694909404938401819004810282018101909252828152606093909290918301828280156112c25780601f10611297576101008083540402835291602001916112c2565b6124fc6136f8565b6001600160a01b031661250d612484565b6001600160a01b031614612568576040805162461bcd60e51b815260206004820181905260248201527f4f776e61626c653a2063616c6c6572206973206e6f7420746865206f776e6572604482015290519081900360640190fd5b60fe5461257f906001600160a01b0316838361366b565b5050565b60fb5481565b6125916136f8565b6001600160a01b0316826001600160a01b031614156125f7576040805162461bcd60e51b815260206004820152601960248201527f4552433732313a20617070726f766520746f2063616c6c657200000000000000604482015290519081900360640190fd5b80606960006126046136f8565b6001600160a01b03908116825260208083019390935260409182016000908120918716808252919093529120805460ff1916921515929092179091556126486136f8565b6001600160a01b03167f17307eab39ab6107e8899845ad3d59bd9653f200f220920489ca2b5937696c318360405180821515815260200191505060405180910390a35050565b6126966136f8565b6001600160a01b03166126a7612484565b6001600160a01b031614612702576040805162461bcd60e51b815260206004820181905260248201527f4f776e61626c653a2063616c6c6572206973206e6f7420746865206f776e6572604482015290519081900360640190fd5b60fb55565b6127186127126136f8565b836134fa565b6127535760405162461bcd60e51b815260040180806020018281038252603181526020018061530d6031913960400191505060405180910390fd5b611fb084848484613ae0565b606061276a826136eb565b6127a55760405162461bcd60e51b815260040180806020018281038252602f815260200180615298602f913960400191505060405180910390fd5b6000828152606c602090815260409182902080548351601f600260001961010060018616150201909316929092049182018490048402810184019094528084526060939283018282801561283a5780601f1061280f5761010080835404028352916020019161283a565b820191906000526020600020905b81548152906001019060200180831161281d57829003601f168201915b50505050509050606061284b612246565b905080516000141561285f57509050611231565b8151156129205780826040516020018083805190602001908083835b6020831061289a5780518252601f19909201916020918201910161287b565b51815160209384036101000a600019018019909216911617905285519190930192850191508083835b602083106128e25780518252601f1990920191602091820191016128c3565b6001836020036101000a0380198251168184511680821785525050505050509050019250505060405160208183030381529060405292505050611231565b8061292a85613b32565b6040516020018083805190602001908083835b6020831061295c5780518252601f19909201916020918201910161293d565b51815160209384036101000a600019018019909216911617905285519190930192850191508083835b602083106129a45780518252601f199092019160209182019101612985565b6001836020036101000a0380198251168184511680821785525050505050509050019250505060405160208183030381529060405292505050919050565b6000600260c9541415612a3c576040805162461bcd60e51b815260206004820152601f60248201527f5265656e7472616e637947756172643a207265656e7472616e742063616c6c00604482015290519081900360640190fd5b600260c95560fc5460ff16612a98576040805162461bcd60e51b815260206004820152601d60248201527f4469737472696275746f723a2062757973206e6f7420616c6c6f776564000000604482015290519081900360640190fd5b600060fd60009054906101000a90046001600160a01b03166001600160a01b0316635caca7b48b8b8b8b8b8a8a6040518863ffffffff1660e01b815260040180886001600160a01b03168152602001876001600160a01b031681526020018681526020018561ffff1681526020018460ff168152602001806020018281038252848482818152602001925080828437600081840152601f19601f8201169050808301925050509850505050505050505060206040518083038186803b158015612b6057600080fd5b505afa158015612b74573d6000803e3d6000fd5b505050506040513d6020811015612b8a57600080fd5b505160fb54909150600090612bb9908390612bb39061271090612bad9084613c41565b90613c9a565b90613d01565b905085811115612bfa5760405162461bcd60e51b815260040180806020018281038252602d815260200180615001602d913960400191505060405180910390fd5b60006001600160a01b038b1673eeeeeeeeeeeeeeeeeeeeeeeeeeeeeeeeeeeeeeee1415612d065781341015612c605760405162461bcd60e51b815260040180806020018281038252602281526020018061513b6022913960400191505060405180910390fd5b6000612c6c34846138d9565b90508015612cfd57604051600090339083908381818185875af1925050503d8060008114612cb6576040519150601f19603f3d011682016040523d82523d6000602084013e612cbb565b606091505b5050905080612cfb5760405162461bcd60e51b815260040180806020018281038252603681526020018061502e6036913960400191505060405180910390fd5b505b83915050612db9565b8a612d1c6001600160a01b038216333086613a25565b60fd54604080517f095ea7b30000000000000000000000000000000000000000000000000000000081526001600160a01b0392831660048201526024810187905290519183169163095ea7b3916044808201926020929091908290030181600087803b158015612d8b57600080fd5b505af1158015612d9f573d6000803e3d6000fd5b505050506040513d6020811015612db557600080fd5b5050505b600060fd60009054906101000a90046001600160a01b03166001600160a01b03166304836c4a838f8f8f8f8f8e8e6040518963ffffffff1660e01b815260040180886001600160a01b03168152602001876001600160a01b031681526020018681526020018561ffff1681526020018460ff168152602001806020018281038252848482818152602001925080828437600081840152601f19601f820116905080830192505050985050505050505050506020604051808303818588803b158015612e8357600080fd5b505af1158015612e97573d6000803e3d6000fd5b50505050506040513d6020811015612eae57600080fd5b505190506000612ebe84866138d9565b90508015612ed057612ed0818e613936565b612eda3383613d5b565b8d6001600160a01b0316336001600160a01b0316837fa0105afc48bbd0c43e1c71d83dc1e02ae58388f3109943595b89e24a5ee1c36560fb5489604051808381526020018281526020019250505060405180910390a450600160c9559c9b505050505050505050505050565b600083612f5333826134fa565b612f8e5760405162461bcd60e51b81526004018080602001828103825260228152602001806152006022913960400191505060405180910390fd5b60fd54604080517fdb3274910000000000000000000000000000000000000000000000000000000081526004810188815260248201928352604482018790526000936001600160a01b03169263db327491928a928a928a92606401848480828437600081840152601f19601f820116905080830192505050945050505050602060405180830381600087803b15801561302657600080fd5b505af115801561303a573d6000803e3d6000fd5b505050506040513d602081101561305057600080fd5b50516040519091503390829088907f9fe11e531030a058803617055e27f9f4768236e4322e13b9c4c09f4338e23a6890600090a495945050505050565b600054610100900460ff16806130a657506130a6613e89565b806130b4575060005460ff16155b6130ef5760405162461bcd60e51b815260040180806020018281038252602e8152602001806151b0602e913960400191505060405180910390fd5b600054610100900460ff1615801561311a576000805460ff1961ff0019909116610100171660011790555b613122613e9a565b61312a613f4c565b6131348383613fe1565b60fb85905560fc80547fffffffffffffffffffffff0000000000000000000000000000000000000000ff166101006001600160a01b03878116919091029190911790915560fd80547fffffffffffffffffffffffff00000000000000000000000000000000000000009081168b84161790915560fe805482168a841617905560ff805490911691881691909117905580156131d5576000805461ff00191690555b5050505050505050565b60fc5460ff1681565b60fd546001600160a01b031681565b60fe546001600160a01b031681565b6001600160a01b03918216600090815260696020908152604080832093909416825291909152205460ff1690565b60ff546001600160a01b031681565b61324b6136f8565b6001600160a01b031661325c612484565b6001600160a01b0316146132b7576040805162461bcd60e51b815260206004820181905260248201527f4f776e61626c653a2063616c6c6572206973206e6f7420746865206f776e6572604482015290519081900360640190fd5b60fc80546001600160a01b03909216610100027fffffffffffffffffffffff0000000000000000000000000000000000000000ff909216919091179055565b6132fe6136f8565b6001600160a01b031661330f612484565b6001600160a01b03161461336a576040805162461bcd60e51b815260206004820181905260248201527f4f776e61626c653a2063616c6c6572206973206e6f7420746865206f776e6572604482015290519081900360640190fd5b6001600160a01b0381166133af5760405162461bcd60e51b8152600401808060200182810382526026815260200180614fdb6026913960400191505060405180910390fd5b6097546040516001600160a01b038084169216907f8be0079c531659141344cd1fd0a4f28419497f9722a3daafe3b4186f6b6457e090600090a3609780547fffffffffffffffffffffffff0000000000000000000000000000000000000000166001600160a01b0392909216919091179055565b60008060008060008060008060fd60009054906101000a90046001600160a01b03166001600160a01b031663fd7b68a28a6040518263ffffffff1660e01b8152600401808281526020019150506101006040518083038186803b15801561348957600080fd5b505afa15801561349d573d6000803e3d6000fd5b505050506040513d6101008110156134b457600080fd5b508051602082015160408301516060840151608085015160a086015160c087015160e090970151959e50939c50919a509850965094509092509050919395975091939597565b6000613505826136eb565b6135405760405162461bcd60e51b815260040180806020018281038252602c8152602001806150ae602c913960400191505060405180910390fd5b600061354b8361221e565b9050806001600160a01b0316846001600160a01b031614806135865750836001600160a01b031661357b846112cc565b6001600160a01b0316145b8061359657506135968185613206565b949350505050565b60006135a98261221e565b90506135b781600084611404565b6135c26000836136fc565b6000828152606c60205260409020546002600019610100600184161502019091160415613600576000828152606c6020526040812061360091614e79565b6001600160a01b0381166000908152606560205260409020613622908361409e565b5061362e6066836140aa565b5060405182906000906001600160a01b038416907fddf252ad1be2c89b69c2b068fc378daa952ba7f163c4a11628f55a4df523b3ef908390a45050565b604080516001600160a01b038416602482015260448082018490528251808303909101815260649091019091526020810180517bffffffffffffffffffffffffffffffffffffffffffffffffffffffff167fa9059cbb000000000000000000000000000000000000000000000000000000001790526114049084906140b6565b600061170c606683614167565b3390565b600081815260686020526040902080547fffffffffffffffffffffffff0000000000000000000000000000000000000000166001600160a01b03841690811790915581906137498261221e565b6001600160a01b03167f8c5be1e5ebec7d5bd14f71427d1e84f3dd0314c0f7b2291e5b200ac8c7c3b92560405160405180910390a45050565b600061170c82614173565b826001600160a01b03166137a08261221e565b6001600160a01b0316146137e55760405162461bcd60e51b815260040180806020018281038252602981526020018061526f6029913960400191505060405180910390fd5b6001600160a01b03821661382a5760405162461bcd60e51b81526004018080602001828103825260248152602001806150646024913960400191505060405180910390fd5b613835838383611404565b6138406000826136fc565b6001600160a01b0383166000908152606560205260409020613862908261409e565b506001600160a01b03821660009081526065602052604090206138859082614177565b5061389260668284614183565b5080826001600160a01b0316846001600160a01b03167fddf252ad1be2c89b69c2b068fc378daa952ba7f163c4a11628f55a4df523b3ef60405160405180910390a4505050565b600082821115613930576040805162461bcd60e51b815260206004820152601e60248201527f536166654d6174683a207375627472616374696f6e206f766572666c6f770000604482015290519081900360640190fd5b50900390565b6001600160a01b03811673eeeeeeeeeeeeeeeeeeeeeeeeeeeeeeeeeeeeeeee14156139f85760fc5460405160009161010090046001600160a01b03169084908381818185875af1925050503d80600081146139ad576040519150601f19603f3d011682016040523d82523d6000602084013e6139b2565b606091505b50509050806139f25760405162461bcd60e51b8152600401808060200182810382526028815260200180614f816028913960400191505060405180910390fd5b5061257f565b60fc548190611404906001600160a01b03808416916101009004168561366b565b60006117098383614199565b604080516001600160a01b0380861660248301528416604482015260648082018490528251808303909101815260849091019091526020810180517bffffffffffffffffffffffffffffffffffffffffffffffffffffffff167f23b872dd00000000000000000000000000000000000000000000000000000000179052611fb09085906140b6565b6000808080613abc86866141fd565b9097909650945050505050565b6000613ad6848484614278565b90505b9392505050565b613aeb84848461378d565b613af784848484614342565b611fb05760405162461bcd60e51b8152600401808060200182810382526032815260200180614fa96032913960400191505060405180910390fd5b606081613b73575060408051808201909152600181527f30000000000000000000000000000000000000000000000000000000000000006020820152611231565b8160005b8115613b8b57600101600a82049150613b77565b60608167ffffffffffffffff81118015613ba457600080fd5b506040519080825280601f01601f191660200182016040528015613bcf576020820181803683370190505b50859350905060001982015b8315613c3857600a840660300160f81b82828060019003935081518110613bfe57fe5b60200101907effffffffffffffffffffffffffffffffffffffffffffffffffffffffffffff1916908160001a905350600a84049350613bdb565b50949350505050565b600082613c505750600061170c565b82820282848281613c5d57fe5b04146117095760405162461bcd60e51b81526004018080602001828103825260218152602001806152226021913960400191505060405180910390fd5b6000808211613cf0576040805162461bcd60e51b815260206004820152601a60248201527f536166654d6174683a206469766973696f6e206279207a65726f000000000000604482015290519081900360640190fd5b818381613cf957fe5b049392505050565b600082820183811015611709576040805162461bcd60e51b815260206004820152601b60248201527f536166654d6174683a206164646974696f6e206f766572666c6f770000000000604482015290519081900360640190fd5b6001600160a01b038216613db6576040805162461bcd60e51b815260206004820181905260248201527f4552433732313a206d696e7420746f20746865207a65726f2061646472657373604482015290519081900360640190fd5b613dbf816136eb565b15613e11576040805162461bcd60e51b815260206004820152601c60248201527f4552433732313a20746f6b656e20616c7265616479206d696e74656400000000604482015290519081900360640190fd5b613e1d60008383611404565b6001600160a01b0382166000908152606560205260409020613e3f9082614177565b50613e4c60668284614183565b5060405181906001600160a01b038416906000907fddf252ad1be2c89b69c2b068fc378daa952ba7f163c4a11628f55a4df523b3ef908290a45050565b6000613e943061451e565b15905090565b600054610100900460ff1680613eb35750613eb3613e89565b80613ec1575060005460ff16155b613efc5760405162461bcd60e51b815260040180806020018281038252602e8152602001806151b0602e913960400191505060405180910390fd5b600054610100900460ff16158015613f27576000805460ff1961ff0019909116610100171660011790555b613f2f614524565b613f376145c4565b8015613f49576000805461ff00191690555b50565b600054610100900460ff1680613f655750613f65613e89565b80613f73575060005460ff16155b613fae5760405162461bcd60e51b815260040180806020018281038252602e8152602001806151b0602e913960400191505060405180910390fd5b600054610100900460ff16158015613fd9576000805460ff1961ff0019909116610100171660011790555b613f376146d5565b600054610100900460ff1680613ffa5750613ffa613e89565b80614008575060005460ff16155b6140435760405162461bcd60e51b815260040180806020018281038252602e8152602001806151b0602e913960400191505060405180910390fd5b600054610100900460ff1615801561406e576000805460ff1961ff0019909116610100171660011790555b614076614524565b61407e61477b565b6140888383614831565b8015611404576000805461ff0019169055505050565b60006117098383614961565b60006117098383614a27565b606061410b826040518060400160405280602081526020017f5361666545524332303a206c6f772d6c6576656c2063616c6c206661696c6564815250856001600160a01b0316614afb9092919063ffffffff16565b8051909150156114045780806020019051602081101561412a57600080fd5b50516114045760405162461bcd60e51b815260040180806020018281038252602a81526020018061533e602a913960400191505060405180910390fd5b60006117098383614b0a565b5490565b60006117098383614b22565b6000613ad684846001600160a01b038516614b6c565b815460009082106141db5760405162461bcd60e51b8152600401808060200182810382526022815260200180614f5f6022913960400191505060405180910390fd5b8260000182815481106141ea57fe5b9060005260206000200154905092915050565b8154600090819083106142415760405162461bcd60e51b81526004018080602001828103825260228152602001806151de6022913960400191505060405180910390fd5b600084600001848154811061425257fe5b906000526020600020906002020190508060000154816001015492509250509250929050565b600082815260018401602052604081205482816143135760405162461bcd60e51b81526004018080602001828103825283818151815260200191508051906020019080838360005b838110156142d85781810151838201526020016142c0565b50505050905090810190601f1680156143055780820380516001836020036101000a031916815260200191505b509250505060405180910390fd5b5084600001600182038154811061432657fe5b9060005260206000209060020201600101549150509392505050565b6000614356846001600160a01b031661451e565b61436257506001613596565b60606144b37f150b7a02000000000000000000000000000000000000000000000000000000006143906136f8565b88878760405160240180856001600160a01b03168152602001846001600160a01b0316815260200183815260200180602001828103825283818151815260200191508051906020019080838360005b838110156143f75781810151838201526020016143df565b50505050905090810190601f1680156144245780820380516001836020036101000a031916815260200191505b5095505050505050604051602081830303815290604052907bffffffffffffffffffffffffffffffffffffffffffffffffffffffff19166020820180517bffffffffffffffffffffffffffffffffffffffffffffffffffffffff8381831617835250505050604051806060016040528060328152602001614fa9603291396001600160a01b0388169190614afb565b905060008180602001905160208110156144cc57600080fd5b50517fffffffff00000000000000000000000000000000000000000000000000000000167f150b7a02000000000000000000000000000000000000000000000000000000001492505050949350505050565b3b151590565b600054610100900460ff168061453d575061453d613e89565b8061454b575060005460ff16155b6145865760405162461bcd60e51b815260040180806020018281038252602e8152602001806151b0602e913960400191505060405180910390fd5b600054610100900460ff16158015613f37576000805460ff1961ff0019909116610100171660011790558015613f49576000805461ff001916905550565b600054610100900460ff16806145dd57506145dd613e89565b806145eb575060005460ff16155b6146265760405162461bcd60e51b815260040180806020018281038252602e8152602001806151b0602e913960400191505060405180910390fd5b600054610100900460ff16158015614651576000805460ff1961ff0019909116610100171660011790555b600061465b6136f8565b609780547fffffffffffffffffffffffff0000000000000000000000000000000000000000166001600160a01b038316908117909155604051919250906000907f8be0079c531659141344cd1fd0a4f28419497f9722a3daafe3b4186f6b6457e0908290a3508015613f49576000805461ff001916905550565b600054610100900460ff16806146ee57506146ee613e89565b806146fc575060005460ff16155b6147375760405162461bcd60e51b815260040180806020018281038252602e8152602001806151b0602e913960400191505060405180910390fd5b600054610100900460ff16158015614762576000805460ff1961ff0019909116610100171660011790555b600160c9558015613f49576000805461ff001916905550565b600054610100900460ff16806147945750614794613e89565b806147a2575060005460ff16155b6147dd5760405162461bcd60e51b815260040180806020018281038252602e8152602001806151b0602e913960400191505060405180910390fd5b600054610100900460ff16158015614808576000805460ff1961ff0019909116610100171660011790555b613f377f01ffc9a700000000000000000000000000000000000000000000000000000000614c03565b600054610100900460ff168061484a575061484a613e89565b80614858575060005460ff16155b6148935760405162461bcd60e51b815260040180806020018281038252602e8152602001806151b0602e913960400191505060405180910390fd5b600054610100900460ff161580156148be576000805460ff1961ff0019909116610100171660011790555b82516148d190606a906020860190614ebd565b5081516148e590606b906020850190614ebd565b5061490f7f80ac58cd00000000000000000000000000000000000000000000000000000000614c03565b6149387f5b5e139f00000000000000000000000000000000000000000000000000000000614c03565b6140887f780e9d6300000000000000000000000000000000000000000000000000000000614c03565b60008181526001830160205260408120548015614a1d578354600019808301919081019060009087908390811061499457fe5b90600052602060002001549050808760000184815481106149b157fe5b6000918252602080832090910192909255828152600189810190925260409020908401905586548790806149e157fe5b6001900381819060005260206000200160009055905586600101600087815260200190815260200160002060009055600194505050505061170c565b600091505061170c565b60008181526001830160205260408120548015614a1d5783546000198083019190810190600090879083908110614a5a57fe5b9060005260206000209060020201905080876000018481548110614a7a57fe5b600091825260208083208454600290930201918255600193840154918401919091558354825289830190526040902090840190558654879080614ab957fe5b600082815260208082206002600019909401938402018281556001908101839055929093558881528982019092526040822091909155945061170c9350505050565b6060613ad68484600085614cb7565b60009081526001919091016020526040902054151590565b6000614b2e8383614b0a565b614b645750815460018181018455600084815260208082209093018490558454848252828601909352604090209190915561170c565b50600061170c565b600082815260018401602052604081205480614bd1575050604080518082018252838152602080820184815286546001818101895560008981528481209551600290930290950191825591519082015586548684528188019092529290912055613ad9565b82856000016001830381548110614be457fe5b9060005260206000209060020201600101819055506000915050613ad9565b7fffffffff000000000000000000000000000000000000000000000000000000008082161415614c7a576040805162461bcd60e51b815260206004820152601c60248201527f4552433136353a20696e76616c696420696e7465726661636520696400000000604482015290519081900360640190fd5b7fffffffff00000000000000000000000000000000000000000000000000000000166000908152603360205260409020805460ff19166001179055565b606082471015614cf85760405162461bcd60e51b81526004018080602001828103825260268152602001806150886026913960400191505060405180910390fd5b614d018561451e565b614d52576040805162461bcd60e51b815260206004820152601d60248201527f416464726573733a2063616c6c20746f206e6f6e2d636f6e7472616374000000604482015290519081900360640190fd5b60006060866001600160a01b031685876040518082805190602001908083835b60208310614d915780518252601f199092019160209182019101614d72565b6001836020036101000a03801982511681845116808217855250505050505090500191505060006040518083038185875af1925050503d8060008114614df3576040519150601f19603f3d011682016040523d82523d6000602084013e614df8565b606091505b5091509150614e08828286614e13565b979650505050505050565b60608315614e22575081613ad9565b825115614e325782518084602001fd5b60405162461bcd60e51b81526020600482018181528451602484015284518593919283926044019190850190808383600083156142d85781810151838201526020016142c0565b50805460018160011615610100020316600290046000825580601f10614e9f5750613f49565b601f016020900490600052602060002090810190613f499190614f49565b828054600181600116156101000203166002900490600052602060002090601f016020900481019282614ef35760008555614f39565b82601f10614f0c57805160ff1916838001178555614f39565b82800160010185558215614f39579182015b82811115614f39578251825591602001919060010190614f1e565b50614f45929150614f49565b5090565b5b80821115614f455760008155600101614f4a56fe456e756d657261626c655365743a20696e646578206f7574206f6620626f756e64734469737472696275746f723a205472616e7366657220746f207472656173757279206661696c65644552433732313a207472616e7366657220746f206e6f6e20455243373231526563656976657220696d706c656d656e7465724f776e61626c653a206e6577206f776e657220697320746865207a65726f20616464726573734469737472696275746f723a20636f7665722070726963652077697468206665652065786365656473206d61784469737472696275746f723a2052657475726e696e67204554482072656d61696e64657220746f2073656e646572206661696c65642e4552433732313a207472616e7366657220746f20746865207a65726f2061646472657373416464726573733a20696e73756666696369656e742062616c616e636520666f722063616c6c4552433732313a206f70657261746f7220717565727920666f72206e6f6e6578697374656e7420746f6b656e4552433732313a20617070726f76652063616c6c6572206973206e6f74206f776e6572206e6f7220617070726f76656420666f7220616c6c4469737472696275746f723a205472616e7366657220746f204e4654206f776e6572206661696c65644469737472696275746f723a20496e73756666696369656e74204554482073656e744552433732313a2062616c616e636520717565727920666f7220746865207a65726f20616464726573734552433732313a206f776e657220717565727920666f72206e6f6e6578697374656e7420746f6b656e496e697469616c697a61626c653a20636f6e747261637420697320616c726561647920696e697469616c697a6564456e756d657261626c654d61703a20696e646578206f7574206f6620626f756e64734469737472696275746f723a204e6f7420617070726f766564206f72206f776e6572536166654d6174683a206d756c7469706c69636174696f6e206f766572666c6f774552433732313a20617070726f76656420717565727920666f72206e6f6e6578697374656e7420746f6b656e4552433732313a207472616e73666572206f6620746f6b656e2074686174206973206e6f74206f776e4552433732314d657461646174613a2055524920717565727920666f72206e6f6e6578697374656e7420746f6b656e4469737472696275746f723a20636f766572496420636c61696d4964206d69736d617463684552433732313a20617070726f76616c20746f2063757272656e74206f776e65724552433732313a207472616e736665722063616c6c6572206973206e6f74206f776e6572206e6f7220617070726f7665645361666545524332303a204552433230206f7065726174696f6e20646964206e6f742073756363656564a26469706673582212203583c4490c3bf458cddaff455a65540f13d4e74a19fccffd9287f364d2622d4d64736f6c63430007040033",
  "immutableReferences": {},
  "source": "/* Copyright (C) 2021 NexusMutual.io\n\n  This program is free software: you can redistribute it and/or modify\n    it under the terms of the GNU General Public License as published by\n    the Free Software Foundation, either version 3 of the License, or\n    (at your option) any later version.\n\n  This program is distributed in the hope that it will be useful,\n    but WITHOUT ANY WARRANTY; without even the implied warranty of\n    MERCHANTABILITY or FITNESS FOR A PARTICULAR PURPOSE.  See the\n    GNU General Public License for more details.\n\n  You should have received a copy of the GNU General Public License\n    along with this program.  If not, see http://www.gnu.org/licenses/ */\n\npragma solidity ^0.7.4;\n\nimport \"@openzeppelin/contracts-upgradeable/token/ERC721/ERC721Upgradeable.sol\";\nimport \"@openzeppelin/contracts/token/ERC20/IERC20.sol\";\nimport \"@openzeppelin/contracts/token/ERC20/SafeERC20.sol\";\nimport \"@openzeppelin/contracts-upgradeable/access/OwnableUpgradeable.sol\";\nimport \"@openzeppelin/contracts-upgradeable/utils/ReentrancyGuardUpgradeable.sol\";\nimport \"@openzeppelin/contracts-upgradeable/math/SafeMathUpgradeable.sol\";\nimport \"./interfaces/ICover.sol\";\nimport \"./interfaces/IPool.sol\";\nimport \"./interfaces/INXMaster.sol\";\n\ncontract Distributor is ERC721Upgradeable, OwnableUpgradeable, ReentrancyGuardUpgradeable {\n  using SafeMathUpgradeable for uint;\n  using SafeERC20 for IERC20;\n\n  address public constant ETH = 0xEeeeeEeeeEeEeeEeEeEeeEEEeeeeEeeeeeeeEEeE;\n\n  event ClaimPayoutRedeemed (\n    uint indexed coverId,\n    uint indexed claimId,\n    address indexed receiver,\n    uint amountPaid,\n    address coverAsset\n  );\n\n  event ClaimSubmitted (\n    uint indexed coverId,\n    uint indexed claimId,\n    address indexed submitter\n  );\n\n  event CoverBought (\n    uint indexed coverId,\n    address indexed buyer,\n    address indexed contractAddress,\n    uint feePercentage,\n    uint coverPrice\n  );\n\n  /*\n   feePercentage applied to every cover premium. has 2 decimals. eg.: 10.00% stored as 1000\n  */\n  uint public feePercentage;\n  bool public buysAllowed = true;\n  /*\n    address where `buyCover` distributor fees and `ethOut` from `sellNXM` are sent. Controlled by Owner.\n  */\n  address payable public treasury;\n\n  /*\n    NexusMutual contracts\n  */\n  ICover public cover;\n  IERC20 public nxmToken;\n  INXMaster public master;\n\n  modifier onlyTokenApprovedOrOwner(uint256 tokenId) {\n    require(_isApprovedOrOwner(msg.sender, tokenId), \"Distributor: Not approved or owner\");\n    _;\n  }\n\n  function initialize(\n    address coverAddress,\n    address nxmTokenAddress,\n    address masterAddress,\n    uint _feePercentage,\n    address payable _treasury,\n    string memory tokenName,\n    string memory tokenSymbol\n  )\n  initializer\n  public\n  {\n    __Ownable_init();\n    __ReentrancyGuard_init();\n    __ERC721_init(tokenName, tokenSymbol);\n\n    feePercentage = _feePercentage;\n    treasury = _treasury;\n    cover = ICover(coverAddress);\n    nxmToken = IERC20(nxmTokenAddress);\n    master = INXMaster(masterAddress);\n  }\n\n  /**\n  * @dev buy cover for a coverable identified by its contractAddress\n  * @param contractAddress contract address of coverable\n  * @param coverAsset asset of the premium and of the sum assured.\n  * @param sumAssured amount payable if claim is submitted and considered valid\n  * @param coverType cover type dermining how the data parameter is decoded\n  * @param maxPriceWithFee max price (including fee) to be spent on the cover.\n  * @param data abi-encoded field with additional cover data fields\n  * @return token id\n  */\n  function buyCover (\n    address contractAddress,\n    address coverAsset,\n    uint sumAssured,\n    uint16 coverPeriod,\n    uint8 coverType,\n    uint maxPriceWithFee,\n    bytes calldata data\n  )\n  external\n  payable\n  nonReentrant\n  returns (uint)\n  {\n    require(buysAllowed, \"Distributor: buys not allowed\");\n\n    uint coverPrice = cover.getCoverPrice(contractAddress, coverAsset, sumAssured, coverPeriod, coverType, data);\n    uint coverPriceWithFee = feePercentage.mul(coverPrice).div(10000).add(coverPrice);\n    require(coverPriceWithFee <= maxPriceWithFee, \"Distributor: cover price with fee exceeds max\");\n\n    uint buyCoverValue = 0;\n    if (coverAsset == ETH) {\n      require(msg.value >= coverPriceWithFee, \"Distributor: Insufficient ETH sent\");\n      uint remainder = msg.value.sub(coverPriceWithFee);\n\n      if (remainder > 0) {\n        // solhint-disable-next-line avoid-low-level-calls\n        (bool ok, /* data */) = address(msg.sender).call{value: remainder}(\"\");\n        require(ok, \"Distributor: Returning ETH remainder to sender failed.\");\n      }\n\n      buyCoverValue = coverPrice;\n    } else {\n      IERC20 token = IERC20(coverAsset);\n      token.safeTransferFrom(msg.sender, address(this), coverPriceWithFee);\n      token.approve(address(cover), coverPrice);\n    }\n\n    uint coverId = cover.buyCover{value: buyCoverValue }(\n      contractAddress,\n      coverAsset,\n      sumAssured,\n      coverPeriod,\n      coverType,\n      data\n    );\n\n    uint fee = coverPriceWithFee.sub(coverPrice);\n    if (fee > 0) {\n      transferToTreasury(fee, coverAsset);\n    }\n\n    // mint token using the coverId as a tokenId (guaranteed unique)\n    _mint(msg.sender, coverId);\n\n    emit CoverBought(coverId, msg.sender, contractAddress, feePercentage, coverPrice);\n    return coverId;\n  }\n\n  /**\n  * @notice Submit a claim for the cover\n  * @param tokenId cover token id\n  * @param data abi-encoded field with additional claim data fields\n  */\n  function submitClaim(\n    uint tokenId,\n    bytes calldata data\n  )\n  external\n  onlyTokenApprovedOrOwner(tokenId)\n  returns (uint)\n  {\n    // coverId = tokenId\n    uint claimId = cover.submitClaim(tokenId, data);\n    emit ClaimSubmitted(tokenId, claimId, msg.sender);\n    return claimId;\n  }\n\n  /**\n  * @notice Redeem the claim to the cover. Requires that that the payout is completed.\n  * @param tokenId cover token id\n  */\n  function redeemClaim(\n    uint256 tokenId,\n    uint claimId\n  )\n  public\n  onlyTokenApprovedOrOwner(tokenId)\n  nonReentrant\n  {\n    uint coverId = cover.getClaimCoverId(claimId);\n    require(coverId == tokenId, \"Distributor: coverId claimId mismatch\");\n    (ICover.ClaimStatus status, uint amountPaid, address coverAsset) = cover.getPayoutOutcome(claimId);\n    require(status == ICover.ClaimStatus.ACCEPTED, \"Distributor: Claim not accepted\");\n\n    _burn(tokenId);\n    if (coverAsset == ETH) {\n      (bool ok, /* data */) = msg.sender.call{value: amountPaid}(\"\");\n      require(ok, \"Distributor: Transfer to NFT owner failed\");\n    } else {\n      IERC20 erc20 = IERC20(coverAsset);\n      erc20.safeTransfer(msg.sender, amountPaid);\n    }\n\n    emit ClaimPayoutRedeemed(tokenId, claimId, msg.sender, amountPaid, coverAsset);\n  }\n\n  /**\n  * @notice Execute an action on specific cover token. The action is identified by an `action` id.\n      Allows for an ETH transfer or an ERC20 transfer.\n      If less than the supplied assetAmount is needed, it is returned to `msg.sender`.\n  * @dev The purpose of this function is future-proofing for updates to the cover buy->claim cycle.\n  * @param tokenId id of the cover token\n  * @param assetAmount optional asset amount to be transferred along with the action executed\n  * @param asset optional asset to be transferred along with the action executed\n  * @param action action identifier\n  * @param data abi-encoded field with action parameters\n  * @return response (abi-encoded response, amount withheld from the original asset amount supplied)\n  */\n  function executeCoverAction(uint tokenId, uint assetAmount, address asset, uint8 action, bytes calldata data)\n  external\n  payable\n  onlyTokenApprovedOrOwner(tokenId)\n  nonReentrant\n  returns (bytes memory response, uint withheldAmount)\n  {\n    if (assetAmount == 0) {\n      return cover.executeCoverAction(tokenId, action, data);\n    }\n    if (asset == ETH) {\n      require(msg.value >= assetAmount, \"Distributor: Insufficient ETH sent\");\n      (response, withheldAmount) = cover.executeCoverAction{ value: msg.value }(tokenId, action, data);\n      uint remainder = assetAmount.sub(withheldAmount);\n      (bool ok, /* data */) = address(msg.sender).call{value: remainder}(\"\");\n      require(ok, \"Distributor: Returning ETH remainder to sender failed.\");\n      return (response, withheldAmount);\n    }\n\n    IERC20 token = IERC20(asset);\n    token.safeTransferFrom(msg.sender, address(this), assetAmount);\n    token.approve(address(cover), assetAmount);\n    (response, withheldAmount) = cover.executeCoverAction(tokenId, action, data);\n    uint remainder = assetAmount.sub(withheldAmount);\n    token.safeTransfer(msg.sender, remainder);\n    return (response, withheldAmount);\n  }\n\n  /**\n  * @notice get cover data\n  * @param tokenId cover token id\n  */\n  function getCover(uint tokenId)\n  public\n  view\n  returns (\n    uint8 status,\n    uint sumAssured,\n    uint16 coverPeriod,\n    uint validUntil,\n    address contractAddress,\n    address coverAsset,\n    uint premiumInNXM,\n    address memberAddress\n  ) {\n    return cover.getCover(tokenId);\n  }\n\n  /**\n  * @notice get state of a claim payout. Returns\n  * status of cover,  amount paid as part of the payout, address of the cover asset)\n  * @param claimId id of claim\n  */\n  function getPayoutOutcome(uint claimId)\n  public\n  view\n  returns (ICover.ClaimStatus status, uint amountPaid, address coverAsset)\n  {\n    (status, amountPaid, coverAsset) = cover.getPayoutOutcome(claimId);\n  }\n\n  /**\n  * @notice Set `amount` as the allowance of `spender` over the distributor's NXM tokens.\n  * @param spender approved spender\n  * @param amount amount approved\n  */\n  function approveNXM(address spender, uint256 amount) public onlyOwner {\n    nxmToken.approve(spender, amount);\n  }\n\n  /**\n  * @notice Moves `amount` tokens from the distributor to `recipient`.\n  * @param recipient recipient of NXM\n  * @param amount amount of NXM\n  */\n  function withdrawNXM(address recipient, uint256 amount) public onlyOwner {\n    nxmToken.safeTransfer(recipient, amount);\n  }\n\n  /**\n  * @notice Switch NexusMutual membership to `newAddress`.\n  * @param newAddress address\n  */\n  function switchMembership(address newAddress) external onlyOwner {\n    nxmToken.approve(address(cover), uint(-1));\n    cover.switchMembership(newAddress);\n  }\n\n  /**\n  * @notice Sell Distributor-owned NXM tokens for ETH\n  * @param nxmIn Amount of NXM to sell\n  * @param minEthOut minimum expected Eth received\n  */\n  function sellNXM(uint nxmIn, uint minEthOut) external onlyOwner {\n\n    address poolAddress = master.getLatestAddress(\"P1\");\n    nxmToken.approve(poolAddress, nxmIn);\n    uint balanceBefore = address(this).balance;\n    IPool(poolAddress).sellNXM(nxmIn, minEthOut);\n    uint balanceAfter = address(this).balance;\n\n    transferToTreasury(balanceAfter.sub(balanceBefore), ETH);\n  }\n\n  /**\n  * @notice Set if buyCover calls are allowed (true) or not (false).\n  * @param _buysAllowed value set for buysAllowed\n  */\n  function setBuysAllowed(bool _buysAllowed) external onlyOwner {\n    buysAllowed = _buysAllowed;\n  }\n\n  /**\n  * @notice Set treasury address where `buyCover` distributor fees and `ethOut` from `sellNXM` are sent.\n  * @param _treasury new treasury address\n  */\n  function setTreasury(address payable _treasury) external onlyOwner {\n    treasury = _treasury;\n  }\n\n  /**\n  * @notice Send `amount` of `asset`  to treasury address\n  * @param amount amount of asset\n  * @param asset ERC20 token address or ETH\n  */\n  function transferToTreasury(uint amount, address asset) internal {\n    if (asset == ETH) {\n      (bool ok, /* data */) = treasury.call{value: amount}(\"\");\n      require(ok, \"Distributor: Transfer to treasury failed\");\n    } else {\n      IERC20 erc20 = IERC20(asset);\n      erc20.safeTransfer(treasury, amount);\n    }\n  }\n\n  /**\n  * @notice Set fee percentage for buyCover premiums.\n  *  `_feePercentage` has 2 decimals of precision ( 5000 is 50%)\n  * @param _feePercentage fee percentage to be set\n  */\n  function setFeePercentage(uint _feePercentage) external onlyOwner {\n    feePercentage = _feePercentage;\n  }\n\n  /**\n  * @dev required to be allow for receiving ETH claim payouts\n  */\n  receive () payable external {\n  }\n}\n",
  "sourcePath": "/Users/ricardopinto/work/brightunion/distributors/contracts/nexus/Distributor.sol",
  "compiler": {
    "name": "solc",
    "version": "0.7.4+commit.3f05b770.Emscripten.clang"
  },
  "schemaVersion": "3.4.0",
  "updatedAt": "2021-05-03T10:23:54.824Z",
  "devdoc": {
    "kind": "dev",
    "methods": {
      "approve(address,uint256)": {
        "details": "See {IERC721-approve}."
      },
      "approveNXM(address,uint256)": {
        "params": {
          "amount": "amount approved",
          "spender": "approved spender"
        }
      },
      "balanceOf(address)": {
        "details": "See {IERC721-balanceOf}."
      },
      "baseURI()": {
        "details": "Returns the base URI set via {_setBaseURI}. This will be automatically added as a prefix in {tokenURI} to each token's URI, or to the token ID if no specific URI is set for that token ID."
      },
      "buyCover(address,address,uint256,uint16,uint8,uint256,bytes)": {
        "details": "buy cover for a coverable identified by its contractAddress",
        "params": {
          "contractAddress": "contract address of coverable",
          "coverAsset": "asset of the premium and of the sum assured.",
          "coverType": "cover type dermining how the data parameter is decoded",
          "data": "abi-encoded field with additional cover data fields",
          "maxPriceWithFee": "max price (including fee) to be spent on the cover.",
          "sumAssured": "amount payable if claim is submitted and considered valid"
        },
        "returns": {
          "_0": "token id"
        }
      },
      "executeCoverAction(uint256,uint256,address,uint8,bytes)": {
        "details": "The purpose of this function is future-proofing for updates to the cover buy->claim cycle.",
        "params": {
          "action": "action identifier",
          "asset": "optional asset to be transferred along with the action executed",
          "assetAmount": "optional asset amount to be transferred along with the action executed",
          "data": "abi-encoded field with action parameters",
          "tokenId": "id of the cover token"
        },
        "returns": {
          "response": "(abi-encoded response, amount withheld from the original asset amount supplied)"
        }
      },
      "getApproved(uint256)": {
        "details": "See {IERC721-getApproved}."
      },
      "getCover(uint256)": {
        "params": {
          "tokenId": "cover token id"
        }
      },
      "getPayoutOutcome(uint256)": {
        "params": {
          "claimId": "id of claim"
        }
      },
      "isApprovedForAll(address,address)": {
        "details": "See {IERC721-isApprovedForAll}."
      },
      "name()": {
        "details": "See {IERC721Metadata-name}."
      },
      "owner()": {
        "details": "Returns the address of the current owner."
      },
      "ownerOf(uint256)": {
        "details": "See {IERC721-ownerOf}."
      },
      "redeemClaim(uint256,uint256)": {
        "params": {
          "tokenId": "cover token id"
        }
      },
      "renounceOwnership()": {
        "details": "Leaves the contract without owner. It will not be possible to call `onlyOwner` functions anymore. Can only be called by the current owner. NOTE: Renouncing ownership will leave the contract without an owner, thereby removing any functionality that is only available to the owner."
      },
      "safeTransferFrom(address,address,uint256)": {
        "details": "See {IERC721-safeTransferFrom}."
      },
      "safeTransferFrom(address,address,uint256,bytes)": {
        "details": "See {IERC721-safeTransferFrom}."
      },
      "sellNXM(uint256,uint256)": {
        "params": {
          "minEthOut": "minimum expected Eth received",
          "nxmIn": "Amount of NXM to sell"
        }
      },
      "setApprovalForAll(address,bool)": {
        "details": "See {IERC721-setApprovalForAll}."
      },
      "setBuysAllowed(bool)": {
        "params": {
          "_buysAllowed": "value set for buysAllowed"
        }
      },
      "setFeePercentage(uint256)": {
        "params": {
          "_feePercentage": "fee percentage to be set"
        }
      },
      "setTreasury(address)": {
        "params": {
          "_treasury": "new treasury address"
        }
      },
      "submitClaim(uint256,bytes)": {
        "params": {
          "data": "abi-encoded field with additional claim data fields",
          "tokenId": "cover token id"
        }
      },
      "supportsInterface(bytes4)": {
        "details": "See {IERC165-supportsInterface}. Time complexity O(1), guaranteed to always use less than 30 000 gas."
      },
      "switchMembership(address)": {
        "params": {
          "newAddress": "address"
        }
      },
      "symbol()": {
        "details": "See {IERC721Metadata-symbol}."
      },
      "tokenByIndex(uint256)": {
        "details": "See {IERC721Enumerable-tokenByIndex}."
      },
      "tokenOfOwnerByIndex(address,uint256)": {
        "details": "See {IERC721Enumerable-tokenOfOwnerByIndex}."
      },
      "tokenURI(uint256)": {
        "details": "See {IERC721Metadata-tokenURI}."
      },
      "totalSupply()": {
        "details": "See {IERC721Enumerable-totalSupply}."
      },
      "transferFrom(address,address,uint256)": {
        "details": "See {IERC721-transferFrom}."
      },
      "transferOwnership(address)": {
        "details": "Transfers ownership of the contract to a new account (`newOwner`). Can only be called by the current owner."
      },
      "withdrawNXM(address,uint256)": {
        "params": {
          "amount": "amount of NXM",
          "recipient": "recipient of NXM"
        }
      }
    },
    "version": 1
  },
  "userdoc": {
    "kind": "user",
    "methods": {
      "approveNXM(address,uint256)": {
        "notice": "Set `amount` as the allowance of `spender` over the distributor's NXM tokens."
      },
      "executeCoverAction(uint256,uint256,address,uint8,bytes)": {
        "notice": "Execute an action on specific cover token. The action is identified by an `action` id. Allows for an ETH transfer or an ERC20 transfer. If less than the supplied assetAmount is needed, it is returned to `msg.sender`."
      },
      "getCover(uint256)": {
        "notice": "get cover data"
      },
      "getPayoutOutcome(uint256)": {
        "notice": "get state of a claim payout. Returns status of cover,  amount paid as part of the payout, address of the cover asset)"
      },
      "redeemClaim(uint256,uint256)": {
        "notice": "Redeem the claim to the cover. Requires that that the payout is completed."
      },
      "sellNXM(uint256,uint256)": {
        "notice": "Sell Distributor-owned NXM tokens for ETH"
      },
      "setBuysAllowed(bool)": {
        "notice": "Set if buyCover calls are allowed (true) or not (false)."
      },
      "setFeePercentage(uint256)": {
        "notice": "Set fee percentage for buyCover premiums.  `_feePercentage` has 2 decimals of precision ( 5000 is 50%)"
      },
      "setTreasury(address)": {
        "notice": "Set treasury address where `buyCover` distributor fees and `ethOut` from `sellNXM` are sent."
      },
      "submitClaim(uint256,bytes)": {
        "notice": "Submit a claim for the cover"
      },
      "switchMembership(address)": {
        "notice": "Switch NexusMutual membership to `newAddress`."
      },
      "withdrawNXM(address,uint256)": {
        "notice": "Moves `amount` tokens from the distributor to `recipient`."
      }
    },
    "version": 1
  }
}