{
  "contractName": "SelfKyc",
  "abi": [
    {
      "inputs": [
        {
          "internalType": "contract IMemberRoles",
          "name": "_memberRoles",
          "type": "address"
        }
      ],
      "stateMutability": "nonpayable",
      "type": "constructor"
    },
    {
      "inputs": [],
      "name": "memberRoles",
      "outputs": [
        {
          "internalType": "contract IMemberRoles",
          "name": "",
          "type": "address"
        }
      ],
      "stateMutability": "view",
      "type": "function"
    },
    {
      "inputs": [
        {
          "internalType": "address payable",
          "name": "member",
          "type": "address"
        }
      ],
      "name": "joinMutual",
      "outputs": [],
      "stateMutability": "payable",
      "type": "function"
    },
    {
      "inputs": [
        {
          "internalType": "address payable",
          "name": "member",
          "type": "address"
        }
      ],
      "name": "approveKyc",
      "outputs": [],
      "stateMutability": "payable",
      "type": "function"
    }
  ],
  "bytecode": "0x608060405234801561001057600080fd5b5060405161032e38038061032e8339818101604052602081101561003357600080fd5b5051600080546001600160a01b039092166001600160a01b03199092169190911790556102c9806100656000396000f3fe6080604052600436106100345760003560e01c80630bd92b3b14610039578063784cb314146100775780639a08722a146100ac575b600080fd5b34801561004557600080fd5b5061004e6100df565b6040805173ffffffffffffffffffffffffffffffffffffffff9092168252519081900360200190f35b6100aa6004803603602081101561008d57600080fd5b503573ffffffffffffffffffffffffffffffffffffffff166100fb565b005b6100aa600480360360208110156100c257600080fd5b503573ffffffffffffffffffffffffffffffffffffffff1661018e565b60005473ffffffffffffffffffffffffffffffffffffffff1681565b60008054604080517fd8b2114e00000000000000000000000000000000000000000000000000000000815273ffffffffffffffffffffffffffffffffffffffff8581166004830152600160248301529151919092169263d8b2114e926044808201939182900301818387803b15801561017357600080fd5b505af1158015610187573d6000803e3d6000fd5b5050505050565b60008054604080517f0ead3e7200000000000000000000000000000000000000000000000000000000815273ffffffffffffffffffffffffffffffffffffffff858116600483015291519190921692630ead3e729234926024808301939282900301818588803b15801561020157600080fd5b505af1158015610215573d6000803e3d6000fd5b505060008054604080517fd8b2114e00000000000000000000000000000000000000000000000000000000815273ffffffffffffffffffffffffffffffffffffffff888116600483015260016024830152915191909216955063d8b2114e945060448083019450909182900301818387803b15801561017357600080fdfea2646970667358221220e26a1759b70a91b52aacf9561843c8e22342ce881773108ba65ee0c9aae2ce2464736f6c63430007040033",
  "immutableReferences": {},
  "source": "pragma solidity ^0.7.4;\n\nimport \"../interfaces/IMemberRoles.sol\";\n\ncontract SelfKyc {\n    IMemberRoles public memberRoles;\n\n    constructor(IMemberRoles _memberRoles) public {\n        memberRoles = _memberRoles;\n    }\n\n    function joinMutual(address payable member) external payable {\n        memberRoles.payJoiningFee{value : msg.value}(member);\n        memberRoles.kycVerdict(member, true);\n    }\n\n    function approveKyc(address payable member) external payable {\n        memberRoles.kycVerdict(member, true);\n    }\n}\n",
  "sourcePath": "/Users/ricardopinto/work/brightunion/distributors/contracts/nexus/utils/SelfKyc.sol",
  "compiler": {
    "name": "solc",
    "version": "0.7.4+commit.3f05b770.Emscripten.clang"
  },
  "schemaVersion": "3.4.0",
  "updatedAt": "2021-05-06T08:46:13.407Z",
  "devdoc": {
    "kind": "dev",
    "methods": {},
    "version": 1
  },
  "userdoc": {
    "kind": "user",
    "methods": {},
    "version": 1
  }
}