{
  "contractName": "SelfKyc",
  "abi": [
    {
      "inputs": [
        {
          "internalType": "contract IMemberRoles",
          "name": "_memberRoles",
          "type": "address"
        }
      ],
      "stateMutability": "nonpayable",
      "type": "constructor"
    },
    {
      "inputs": [],
      "name": "memberRoles",
      "outputs": [
        {
          "internalType": "contract IMemberRoles",
          "name": "",
          "type": "address"
        }
      ],
      "stateMutability": "view",
      "type": "function"
    },
    {
      "inputs": [
        {
          "internalType": "address payable",
          "name": "member",
          "type": "address"
        }
      ],
      "name": "joinMutual",
      "outputs": [],
      "stateMutability": "payable",
      "type": "function"
    },
    {
      "inputs": [
        {
          "internalType": "address payable",
          "name": "member",
          "type": "address"
        }
      ],
      "name": "approveKyc",
      "outputs": [],
      "stateMutability": "payable",
      "type": "function"
    }
  ],
  "bytecode": "0x608060405234801561001057600080fd5b506040516102883803806102888339818101604052602081101561003357600080fd5b5051600080546001600160a01b039092166001600160a01b0319909216919091179055610223806100656000396000f3fe6080604052600436106100345760003560e01c80630bd92b3b14610039578063784cb3141461006a5780639a08722a14610092575b600080fd5b34801561004557600080fd5b5061004e6100b8565b604080516001600160a01b039092168252519081900360200190f35b6100906004803603602081101561008057600080fd5b50356001600160a01b03166100c7565b005b610090600480360360208110156100a857600080fd5b50356001600160a01b0316610134565b6000546001600160a01b031681565b6000805460408051636c5908a760e11b81526001600160a01b038581166004830152600160248301529151919092169263d8b2114e926044808201939182900301818387803b15801561011957600080fd5b505af115801561012d573d6000803e3d6000fd5b5050505050565b60008054604080516307569f3960e11b81526001600160a01b03858116600483015291519190921692630ead3e729234926024808301939282900301818588803b15801561018157600080fd5b505af1158015610195573d6000803e3d6000fd5b50506000805460408051636c5908a760e11b81526001600160a01b03888116600483015260016024830152915191909216955063d8b2114e945060448083019450909182900301818387803b15801561011957600080fdfea2646970667358221220120ca37db646fa2249d4a6b1ca585fd44e73b94e5e2c92ee9b61cf5591a6af2264736f6c63430007040033",
  "immutableReferences": {},
  "source": "pragma solidity ^0.7.4;\n\nimport \"../interfaces/IMemberRoles.sol\";\n\ncontract SelfKyc {\n    IMemberRoles public memberRoles;\n\n    constructor(IMemberRoles _memberRoles) public {\n        memberRoles = _memberRoles;\n    }\n\n    function joinMutual(address payable member) external payable {\n        memberRoles.payJoiningFee{value : msg.value}(member);\n        memberRoles.kycVerdict(member, true);\n    }\n\n    function approveKyc(address payable member) external payable {\n        memberRoles.kycVerdict(member, true);\n    }\n}\n",
  "sourcePath": "/Users/ricardopinto/work/brightunion/distributors/contracts/nexus/utils/SelfKyc.sol",
  "compiler": {
    "name": "solc",
    "version": "0.7.4+commit.3f05b770.Emscripten.clang"
  },
  "schemaVersion": "3.4.0",
  "updatedAt": "2021-05-06T08:50:18.858Z",
  "devdoc": {
    "kind": "dev",
    "methods": {},
    "version": 1
  },
  "userdoc": {
    "kind": "user",
    "methods": {},
    "version": 1
  }
}